{
  "address": "0x5E5713a0d915701F464DEbb66015adD62B2e6AE9",
  "abi": [
    {
      "inputs": [
        {
          "internalType": "uint256",
          "name": "_totalSupply",
          "type": "uint256"
        }
      ],
      "stateMutability": "payable",
      "type": "constructor"
    },
    {
      "anonymous": false,
      "inputs": [
        {
          "indexed": true,
          "internalType": "address",
          "name": "owner",
          "type": "address"
        },
        {
          "indexed": true,
          "internalType": "address",
          "name": "spender",
          "type": "address"
        },
        {
          "indexed": false,
          "internalType": "uint256",
          "name": "value",
          "type": "uint256"
        }
      ],
      "name": "Approval",
      "type": "event"
    },
    {
      "anonymous": false,
      "inputs": [
        {
          "indexed": true,
          "internalType": "address",
          "name": "previousOwner",
          "type": "address"
        },
        {
          "indexed": true,
          "internalType": "address",
          "name": "newOwner",
          "type": "address"
        }
      ],
      "name": "OwnershipTransferred",
      "type": "event"
    },
    {
      "anonymous": false,
      "inputs": [
        {
          "indexed": true,
          "internalType": "address",
          "name": "from",
          "type": "address"
        },
        {
          "indexed": true,
          "internalType": "address",
          "name": "to",
          "type": "address"
        },
        {
          "indexed": false,
          "internalType": "uint256",
          "name": "value",
          "type": "uint256"
        }
      ],
      "name": "Transfer",
      "type": "event"
    },
    {
      "inputs": [
        {
          "internalType": "address",
          "name": "owner",
          "type": "address"
        },
        {
          "internalType": "address",
          "name": "spender",
          "type": "address"
        }
      ],
      "name": "allowance",
      "outputs": [
        {
          "internalType": "uint256",
          "name": "",
          "type": "uint256"
        }
      ],
      "stateMutability": "view",
      "type": "function"
    },
    {
      "inputs": [
        {
          "internalType": "address",
          "name": "spender",
          "type": "address"
        },
        {
          "internalType": "uint256",
          "name": "amount",
          "type": "uint256"
        }
      ],
      "name": "approve",
      "outputs": [
        {
          "internalType": "bool",
          "name": "",
          "type": "bool"
        }
      ],
      "stateMutability": "nonpayable",
      "type": "function"
    },
    {
      "inputs": [
        {
          "internalType": "address",
          "name": "account",
          "type": "address"
        }
      ],
      "name": "balanceOf",
      "outputs": [
        {
          "internalType": "uint256",
          "name": "",
          "type": "uint256"
        }
      ],
      "stateMutability": "view",
      "type": "function"
    },
    {
      "inputs": [
        {
          "internalType": "address",
          "name": "",
          "type": "address"
        }
      ],
      "name": "bots",
      "outputs": [
        {
          "internalType": "bool",
          "name": "",
          "type": "bool"
        }
      ],
      "stateMutability": "view",
      "type": "function"
    },
    {
      "inputs": [
        {
          "internalType": "uint256",
          "name": "value",
          "type": "uint256"
        }
      ],
      "name": "burn",
      "outputs": [],
      "stateMutability": "nonpayable",
      "type": "function"
    },
    {
      "inputs": [],
      "name": "decimals",
      "outputs": [
        {
          "internalType": "uint8",
          "name": "",
          "type": "uint8"
        }
      ],
      "stateMutability": "view",
      "type": "function"
    },
    {
      "inputs": [
        {
          "internalType": "address",
          "name": "spender",
          "type": "address"
        },
        {
          "internalType": "uint256",
          "name": "subtractedValue",
          "type": "uint256"
        }
      ],
      "name": "decreaseAllowance",
      "outputs": [
        {
          "internalType": "bool",
          "name": "",
          "type": "bool"
        }
      ],
      "stateMutability": "nonpayable",
      "type": "function"
    },
    {
      "inputs": [],
      "name": "enabled",
      "outputs": [
        {
          "internalType": "bool",
          "name": "",
          "type": "bool"
        }
      ],
      "stateMutability": "view",
      "type": "function"
    },
    {
      "inputs": [
        {
          "internalType": "address",
          "name": "spender",
          "type": "address"
        },
        {
          "internalType": "uint256",
          "name": "addedValue",
          "type": "uint256"
        }
      ],
      "name": "increaseAllowance",
      "outputs": [
        {
          "internalType": "bool",
          "name": "",
          "type": "bool"
        }
      ],
      "stateMutability": "nonpayable",
      "type": "function"
    },
    {
      "inputs": [],
      "name": "maxTx",
      "outputs": [
        {
          "internalType": "uint256",
          "name": "",
          "type": "uint256"
        }
      ],
      "stateMutability": "view",
      "type": "function"
    },
    {
      "inputs": [],
      "name": "maxWallet",
      "outputs": [
        {
          "internalType": "uint256",
          "name": "",
          "type": "uint256"
        }
      ],
      "stateMutability": "view",
      "type": "function"
    },
    {
      "inputs": [],
      "name": "name",
      "outputs": [
        {
          "internalType": "string",
          "name": "",
          "type": "string"
        }
      ],
      "stateMutability": "view",
      "type": "function"
    },
    {
      "inputs": [],
      "name": "owner",
      "outputs": [
        {
          "internalType": "address",
          "name": "",
          "type": "address"
        }
      ],
      "stateMutability": "view",
      "type": "function"
    },
    {
      "inputs": [],
      "name": "renounceOwnership",
      "outputs": [],
      "stateMutability": "nonpayable",
      "type": "function"
    },
    {
      "inputs": [
        {
          "internalType": "address[]",
          "name": "_address",
          "type": "address[]"
        },
        {
          "internalType": "bool[]",
          "name": "_isBot",
          "type": "bool[]"
        }
      ],
      "name": "setBots",
      "outputs": [],
      "stateMutability": "nonpayable",
      "type": "function"
    },
    {
      "inputs": [
        {
          "internalType": "bool",
          "name": "_enabled",
          "type": "bool"
        },
        {
          "internalType": "uint256",
          "name": "_maxTx",
          "type": "uint256"
        },
        {
          "internalType": "uint256",
          "name": "_maxWallet",
          "type": "uint256"
        },
        {
          "internalType": "address",
          "name": "_teamWallet",
          "type": "address"
        },
        {
          "internalType": "address",
          "name": "_uniswapV2Pair",
          "type": "address"
        }
      ],
      "name": "setVars",
      "outputs": [],
      "stateMutability": "nonpayable",
      "type": "function"
    },
    {
      "inputs": [],
      "name": "symbol",
      "outputs": [
        {
          "internalType": "string",
          "name": "",
          "type": "string"
        }
      ],
      "stateMutability": "view",
      "type": "function"
    },
    {
      "inputs": [],
      "name": "totalSupply",
      "outputs": [
        {
          "internalType": "uint256",
          "name": "",
          "type": "uint256"
        }
      ],
      "stateMutability": "view",
      "type": "function"
    },
    {
      "inputs": [
        {
          "internalType": "address",
          "name": "recipient",
          "type": "address"
        },
        {
          "internalType": "uint256",
          "name": "amount",
          "type": "uint256"
        }
      ],
      "name": "transfer",
      "outputs": [
        {
          "internalType": "bool",
          "name": "",
          "type": "bool"
        }
      ],
      "stateMutability": "nonpayable",
      "type": "function"
    },
    {
      "inputs": [
        {
          "internalType": "address",
          "name": "sender",
          "type": "address"
        },
        {
          "internalType": "address",
          "name": "recipient",
          "type": "address"
        },
        {
          "internalType": "uint256",
          "name": "amount",
          "type": "uint256"
        }
      ],
      "name": "transferFrom",
      "outputs": [
        {
          "internalType": "bool",
          "name": "",
          "type": "bool"
        }
      ],
      "stateMutability": "nonpayable",
      "type": "function"
    },
    {
      "inputs": [
        {
          "internalType": "address",
          "name": "newOwner",
          "type": "address"
        }
      ],
      "name": "transferOwnership",
      "outputs": [],
      "stateMutability": "nonpayable",
      "type": "function"
    },
    {
      "inputs": [],
      "name": "uniswapV2Pair",
      "outputs": [
        {
          "internalType": "address",
          "name": "",
          "type": "address"
        }
      ],
      "stateMutability": "view",
      "type": "function"
    }
  ],
  "transactionHash": "0x6e37fc06d9e52de741a7f10557d625dfc7b5bc84f8f34370b4fe774f21b2a0c9",
  "args": [
    "1123581321000000000000000000"
  ],
  "numDeployments": 1,
  "solcInputHash": "68f6009fd347fc4a805c9a48a0c032ab",
  "bytecode": "0x608060408190526005805460ff60a01b1916600160a01b17905562001cd438819003908190833981016040819052620000389162000416565b6040518060400160405280600781526020016620b73a34a6a2ab60c91b8152506040518060400160405280600481526020016330a6a2ab60e11b8152508160029081620000869190620004d4565b506003620000958282620004d4565b505050620000b2620000ac620000c560201b60201c565b620000c9565b620000be33826200011b565b50620005c8565b3390565b600580546001600160a01b038381166001600160a01b0319831681179093556040519116919082907f8be0079c531659141344cd1fd0a4f28419497f9722a3daafe3b4186f6b6457e090600090a35050565b6001600160a01b038216620001775760405162461bcd60e51b815260206004820152601f60248201527f45524332303a206d696e7420746f20746865207a65726f20616464726573730060448201526064015b60405180910390fd5b620001856000838362000212565b8060046000828254620001999190620005a0565b90915550506001600160a01b03821660009081526020819052604081208054839290620001c8908490620005a0565b90915550506040518181526001600160a01b038316906000907fddf252ad1be2c89b69c2b068fc378daa952ba7f163c4a11628f55a4df523b3ef9060200160405180910390a35050565b600554600160a01b900460ff166200022957600080fd5b6001600160a01b0382166000908152600a602052604090205460ff161580156200026c57506001600160a01b0383166000908152600a602052604090205460ff16155b620002a55760405162461bcd60e51b81526020600482015260086024820152674d455620424f542160c01b60448201526064016200016e565b6008546001600160a01b031662000323576005546001600160a01b0384811691161480620002e057506005546001600160a01b038381169116145b6200031e5760405162461bcd60e51b815260206004820152600d60248201526c50414952204e4f54205345542160981b60448201526064016200016e565b505050565b600554600160a01b900460ff1680156200034a57506008546001600160a01b038481169116145b156200031e57600654811115620003975760405162461bcd60e51b815260206004820152601060248201526f4d4158205452414e53414354494f4e2160801b60448201526064016200016e565b60075481620003b184620003fb60201b620006ea1760201c565b620003bd9190620005a0565b11156200031e5760405162461bcd60e51b815260206004820152600b60248201526a4d41582057414c4c45542160a81b60448201526064016200016e565b6001600160a01b031660009081526020819052604090205490565b6000602082840312156200042957600080fd5b5051919050565b634e487b7160e01b600052604160045260246000fd5b600181811c908216806200045b57607f821691505b6020821081036200047c57634e487b7160e01b600052602260045260246000fd5b50919050565b601f8211156200031e57600081815260208120601f850160051c81016020861015620004ab5750805b601f850160051c820191505b81811015620004cc57828155600101620004b7565b505050505050565b81516001600160401b03811115620004f057620004f062000430565b620005088162000501845462000446565b8462000482565b602080601f831160018114620005405760008415620005275750858301515b600019600386901b1c1916600185901b178555620004cc565b600085815260208120601f198616915b82811015620005715788860151825594840194600190910190840162000550565b5085821015620005905787850151600019600388901b60f8161c191681555b5050505050600190811b01905550565b80820180821115620005c257634e487b7160e01b600052601160045260246000fd5b92915050565b6116fc80620005d86000396000f3fe608060405234801561001057600080fd5b50600436106101825760003560e01c8063715018a6116100d8578063a457c2d71161008c578063dd62ed3e11610066578063dd62ed3e14610325578063f2fde38b1461035e578063f8b45b051461037157600080fd5b8063a457c2d7146102dc578063a9059cbb146102ef578063bfd792841461030257600080fd5b80638da5cb5b116100bd5780638da5cb5b146102b057806395d89b41146102c157806397273346146102c957600080fd5b8063715018a61461029f5780637437681e146102a757600080fd5b806323b872dd1161013a57806342966c681161011457806342966c681461023857806349bd5a5e1461024b57806370a082311461027657600080fd5b806323b872dd14610203578063313ce56714610216578063395093511461022557600080fd5b80630ee0347c1161016b5780630ee0347c146101c857806318160ddd146101dd578063238dafe0146101ef57600080fd5b806306fdde0314610187578063095ea7b3146101a5575b600080fd5b61018f61037a565b60405161019c91906112e6565b60405180910390f35b6101b86101b3366004611350565b61040c565b604051901515815260200161019c565b6101db6101d6366004611467565b610423565b005b6004545b60405190815260200161019c565b6005546101b890600160a01b900460ff1681565b6101b8610211366004611527565b610581565b6040516012815260200161019c565b6101b8610233366004611350565b610647565b6101db610246366004611563565b610683565b60085461025e906001600160a01b031681565b6040516001600160a01b03909116815260200161019c565b6101e161028436600461157c565b6001600160a01b031660009081526020819052604090205490565b6101db610705565b6101e160065481565b6005546001600160a01b031661025e565b61018f61076b565b6101db6102d7366004611597565b61077a565b6101b86102ea366004611350565b610850565b6101b86102fd366004611350565b610901565b6101b861031036600461157c565b600a6020526000908152604090205460ff1681565b6101e16103333660046115ee565b6001600160a01b03918216600090815260016020908152604080832093909416825291909152205490565b6101db61036c36600461157c565b6109b3565b6101e160075481565b60606002805461038990611621565b80601f01602080910402602001604051908101604052809291908181526020018280546103b590611621565b80156104025780601f106103d757610100808354040283529160200191610402565b820191906000526020600020905b8154815290600101906020018083116103e557829003601f168201915b5050505050905090565b6000610419338484610a92565b5060015b92915050565b6005546001600160a01b031633146104825760405162461bcd60e51b815260206004820181905260248201527f4f776e61626c653a2063616c6c6572206973206e6f7420746865206f776e657260448201526064015b60405180910390fd5b60005b825181101561057c57306001600160a01b03168382815181106104aa576104aa61165b565b60200260200101516001600160a01b0316141580156104ff57506005546001600160a01b03166001600160a01b03168382815181106104eb576104eb61165b565b60200260200101516001600160a01b031614155b61050857600080fd5b81818151811061051a5761051a61165b565b6020026020010151600a60008584815181106105385761053861165b565b6020908102919091018101516001600160a01b03168252810191909152604001600020805460ff19169115159190911790558061057481611687565b915050610485565b505050565b6001600160a01b0383166000908152600b60205260408120546105a59060026116a0565b43116106195760405162461bcd60e51b815260206004820152603560248201527f416e74694d4556546f6b656e3a2043616e6e6f74207472616e7366657220747760448201527f69636520696e207468652073616d6520626c6f636b00000000000000000000006064820152608401610479565b6001600160a01b0384166000908152600b6020526040902043905561063f848484610bea565b949350505050565b3360008181526001602090815260408083206001600160a01b0387168452909152812054909161041991859061067e9086906116a0565b610a92565b6005546001600160a01b031633146106dd5760405162461bcd60e51b815260206004820181905260248201527f4f776e61626c653a2063616c6c6572206973206e6f7420746865206f776e65726044820152606401610479565b6106e73382610ca9565b50565b6001600160a01b031660009081526020819052604090205490565b6005546001600160a01b0316331461075f5760405162461bcd60e51b815260206004820181905260248201527f4f776e61626c653a2063616c6c6572206973206e6f7420746865206f776e65726044820152606401610479565b6107696000610e3a565b565b60606003805461038990611621565b6005546001600160a01b031633146107d45760405162461bcd60e51b815260206004820181905260248201527f4f776e61626c653a2063616c6c6572206973206e6f7420746865206f776e65726044820152606401610479565b60058054951515600160a01b027fffffffffffffffffffffff00ffffffffffffffffffffffffffffffffffffffff90961695909517909455600692909255600755600980546001600160a01b0392831673ffffffffffffffffffffffffffffffffffffffff199182161790915560088054929093169116179055565b3360009081526001602090815260408083206001600160a01b0386168452909152812054828110156108ea5760405162461bcd60e51b815260206004820152602560248201527f45524332303a2064656372656173656420616c6c6f77616e63652062656c6f7760448201527f207a65726f0000000000000000000000000000000000000000000000000000006064820152608401610479565b6108f73385858403610a92565b5060019392505050565b336000908152600b602052604081205461091c9060026116a0565b43116109905760405162461bcd60e51b815260206004820152603560248201527f416e74694d4556546f6b656e3a2043616e6e6f74207472616e7366657220747760448201527f69636520696e207468652073616d6520626c6f636b00000000000000000000006064820152608401610479565b336000908152600b602052604090204390556109ac8383610e99565b9392505050565b6005546001600160a01b03163314610a0d5760405162461bcd60e51b815260206004820181905260248201527f4f776e61626c653a2063616c6c6572206973206e6f7420746865206f776e65726044820152606401610479565b6001600160a01b038116610a895760405162461bcd60e51b815260206004820152602660248201527f4f776e61626c653a206e6577206f776e657220697320746865207a65726f206160448201527f64647265737300000000000000000000000000000000000000000000000000006064820152608401610479565b6106e781610e3a565b6001600160a01b038316610b0d5760405162461bcd60e51b8152602060048201526024808201527f45524332303a20617070726f76652066726f6d20746865207a65726f2061646460448201527f72657373000000000000000000000000000000000000000000000000000000006064820152608401610479565b6001600160a01b038216610b895760405162461bcd60e51b815260206004820152602260248201527f45524332303a20617070726f766520746f20746865207a65726f20616464726560448201527f73730000000000000000000000000000000000000000000000000000000000006064820152608401610479565b6001600160a01b0383811660008181526001602090815260408083209487168084529482529182902085905590518481527f8c5be1e5ebec7d5bd14f71427d1e84f3dd0314c0f7b2291e5b200ac8c7c3b925910160405180910390a3505050565b6000610bf7848484610ea2565b6001600160a01b038416600090815260016020908152604080832033845290915290205482811015610c915760405162461bcd60e51b815260206004820152602860248201527f45524332303a207472616e7366657220616d6f756e742065786365656473206160448201527f6c6c6f77616e63650000000000000000000000000000000000000000000000006064820152608401610479565b610c9e8533858403610a92565b506001949350505050565b6001600160a01b038216610d255760405162461bcd60e51b815260206004820152602160248201527f45524332303a206275726e2066726f6d20746865207a65726f2061646472657360448201527f73000000000000000000000000000000000000000000000000000000000000006064820152608401610479565b610d31826000836110c5565b6001600160a01b03821660009081526020819052604090205481811015610dc05760405162461bcd60e51b815260206004820152602260248201527f45524332303a206275726e20616d6f756e7420657863656564732062616c616e60448201527f63650000000000000000000000000000000000000000000000000000000000006064820152608401610479565b6001600160a01b0383166000908152602081905260408120838303905560048054849290610def9084906116b3565b90915550506040518281526000906001600160a01b038516907fddf252ad1be2c89b69c2b068fc378daa952ba7f163c4a11628f55a4df523b3ef9060200160405180910390a3505050565b600580546001600160a01b0383811673ffffffffffffffffffffffffffffffffffffffff19831681179093556040519116919082907f8be0079c531659141344cd1fd0a4f28419497f9722a3daafe3b4186f6b6457e090600090a35050565b60006104193384845b6001600160a01b038316610f1e5760405162461bcd60e51b815260206004820152602560248201527f45524332303a207472616e736665722066726f6d20746865207a65726f20616460448201527f64726573730000000000000000000000000000000000000000000000000000006064820152608401610479565b6001600160a01b038216610f9a5760405162461bcd60e51b815260206004820152602360248201527f45524332303a207472616e7366657220746f20746865207a65726f206164647260448201527f65737300000000000000000000000000000000000000000000000000000000006064820152608401610479565b610fa58383836110c5565b6001600160a01b038316600090815260208190526040902054818110156110345760405162461bcd60e51b815260206004820152602660248201527f45524332303a207472616e7366657220616d6f756e742065786365656473206260448201527f616c616e636500000000000000000000000000000000000000000000000000006064820152608401610479565b6001600160a01b0380851660009081526020819052604080822085850390559185168152908120805484929061106b9084906116a0565b92505081905550826001600160a01b0316846001600160a01b03167fddf252ad1be2c89b69c2b068fc378daa952ba7f163c4a11628f55a4df523b3ef846040516110b791815260200190565b60405180910390a350505050565b600554600160a01b900460ff166110db57600080fd5b6001600160a01b0382166000908152600a602052604090205460ff1615801561111d57506001600160a01b0383166000908152600a602052604090205460ff16155b6111695760405162461bcd60e51b815260206004820152600860248201527f4d455620424f54210000000000000000000000000000000000000000000000006044820152606401610479565b6008546001600160a01b03166111ee576005546001600160a01b03848116911614806111a257506005546001600160a01b038381169116145b61057c5760405162461bcd60e51b815260206004820152600d60248201527f50414952204e4f542053455421000000000000000000000000000000000000006044820152606401610479565b600554600160a01b900460ff16801561121457506008546001600160a01b038481169116145b1561057c5760065481111561126b5760405162461bcd60e51b815260206004820152601060248201527f4d4158205452414e53414354494f4e21000000000000000000000000000000006044820152606401610479565b6007548161128e846001600160a01b031660009081526020819052604090205490565b61129891906116a0565b111561057c5760405162461bcd60e51b815260206004820152600b60248201527f4d41582057414c4c4554210000000000000000000000000000000000000000006044820152606401610479565b600060208083528351808285015260005b81811015611313578581018301518582016040015282016112f7565b506000604082860101526040601f19601f8301168501019250505092915050565b80356001600160a01b038116811461134b57600080fd5b919050565b6000806040838503121561136357600080fd5b61136c83611334565b946020939093013593505050565b634e487b7160e01b600052604160045260246000fd5b604051601f8201601f1916810167ffffffffffffffff811182821017156113b9576113b961137a565b604052919050565b600067ffffffffffffffff8211156113db576113db61137a565b5060051b60200190565b8035801515811461134b57600080fd5b600082601f83011261140657600080fd5b8135602061141b611416836113c1565b611390565b82815260059290921b8401810191818101908684111561143a57600080fd5b8286015b8481101561145c5761144f816113e5565b835291830191830161143e565b509695505050505050565b6000806040838503121561147a57600080fd5b823567ffffffffffffffff8082111561149257600080fd5b818501915085601f8301126114a657600080fd5b813560206114b6611416836113c1565b82815260059290921b840181019181810190898411156114d557600080fd5b948201945b838610156114fa576114eb86611334565b825294820194908201906114da565b9650508601359250508082111561151057600080fd5b5061151d858286016113f5565b9150509250929050565b60008060006060848603121561153c57600080fd5b61154584611334565b925061155360208501611334565b9150604084013590509250925092565b60006020828403121561157557600080fd5b5035919050565b60006020828403121561158e57600080fd5b6109ac82611334565b600080600080600060a086880312156115af57600080fd5b6115b8866113e5565b945060208601359350604086013592506115d460608701611334565b91506115e260808701611334565b90509295509295909350565b6000806040838503121561160157600080fd5b61160a83611334565b915061161860208401611334565b90509250929050565b600181811c9082168061163557607f821691505b60208210810361165557634e487b7160e01b600052602260045260246000fd5b50919050565b634e487b7160e01b600052603260045260246000fd5b634e487b7160e01b600052601160045260246000fd5b60006001820161169957611699611671565b5060010190565b8082018082111561041d5761041d611671565b8181038181111561041d5761041d61167156fea264697066735822122059231a7599f2dc12d2d55d03c93f118c0be61c959b6e19d681e3b680b16aa95a64736f6c63430008120033",
  "devdoc": {
    "events": {
      "Approval(address,address,uint256)": {
        "details": "Emitted when the allowance of a `spender` for an `owner` is set by a call to {approve}. `value` is the new allowance."
      },
      "Transfer(address,address,uint256)": {
        "details": "Emitted when `value` tokens are moved from one account (`from`) to another (`to`). Note that `value` may be zero."
      }
    },
    "kind": "dev",
    "methods": {
      "allowance(address,address)": {
        "details": "See {IERC20-allowance}."
      },
      "approve(address,uint256)": {
        "details": "See {IERC20-approve}. Requirements: - `spender` cannot be the zero address."
      },
      "balanceOf(address)": {
        "details": "See {IERC20-balanceOf}."
      },
      "decimals()": {
        "details": "Returns the number of decimals used to get its user representation. For example, if `decimals` equals `2`, a balance of `505` tokens should be displayed to a user as `5.05` (`505 / 10 ** 2`). Tokens usually opt for a value of 18, imitating the relationship between Ether and Wei. This is the value {ERC20} uses, unless this function is overridden; NOTE: This information is only used for _display_ purposes: it in no way affects any of the arithmetic of the contract, including {IERC20-balanceOf} and {IERC20-transfer}."
      },
      "decreaseAllowance(address,uint256)": {
        "details": "Atomically decreases the allowance granted to `spender` by the caller. This is an alternative to {approve} that can be used as a mitigation for problems described in {IERC20-approve}. Emits an {Approval} event indicating the updated allowance. Requirements: - `spender` cannot be the zero address. - `spender` must have allowance for the caller of at least `subtractedValue`."
      },
      "increaseAllowance(address,uint256)": {
        "details": "Atomically increases the allowance granted to `spender` by the caller. This is an alternative to {approve} that can be used as a mitigation for problems described in {IERC20-approve}. Emits an {Approval} event indicating the updated allowance. Requirements: - `spender` cannot be the zero address."
      },
      "name()": {
        "details": "Returns the name of the token."
      },
      "owner()": {
        "details": "Returns the address of the current owner."
      },
      "renounceOwnership()": {
        "details": "Leaves the contract without owner. It will not be possible to call `onlyOwner` functions anymore. Can only be called by the current owner. NOTE: Renouncing ownership will leave the contract without an owner, thereby removing any functionality that is only available to the owner."
      },
      "symbol()": {
        "details": "Returns the symbol of the token, usually a shorter version of the name."
      },
      "totalSupply()": {
        "details": "See {IERC20-totalSupply}."
      },
      "transfer(address,uint256)": {
        "details": "See {IERC20-transfer}. Requirements: - `recipient` cannot be the zero address. - the caller must have a balance of at least `amount`."
      },
      "transferFrom(address,address,uint256)": {
        "details": "See {IERC20-transferFrom}. Emits an {Approval} event indicating the updated allowance. This is not required by the EIP. See the note at the beginning of {ERC20}. Requirements: - `sender` and `recipient` cannot be the zero address. - `sender` must have a balance of at least `amount`. - the caller must have allowance for ``sender``'s tokens of at least `amount`."
      },
      "transferOwnership(address)": {
        "details": "Transfers ownership of the contract to a new account (`newOwner`). Can only be called by the current owner."
      }
    },
    "version": 1
  },
  "userdoc": {
    "kind": "user",
    "methods": {},
    "version": 1
  },
  "storageLayout": {
    "storage": [
      {
        "astId": 232,
        "contract": "contracts/AntiMEV.sol:AntiMEV",
        "label": "_balances",
        "offset": 0,
        "slot": "0",
        "type": "t_mapping(t_address,t_uint256)"
      },
      {
        "astId": 238,
        "contract": "contracts/AntiMEV.sol:AntiMEV",
        "label": "_allowances",
        "offset": 0,
        "slot": "1",
        "type": "t_mapping(t_address,t_mapping(t_address,t_uint256))"
      },
      {
        "astId": 240,
        "contract": "contracts/AntiMEV.sol:AntiMEV",
        "label": "_name",
        "offset": 0,
        "slot": "2",
        "type": "t_string_storage"
      },
      {
        "astId": 242,
        "contract": "contracts/AntiMEV.sol:AntiMEV",
        "label": "_symbol",
        "offset": 0,
        "slot": "3",
        "type": "t_string_storage"
      },
      {
        "astId": 244,
        "contract": "contracts/AntiMEV.sol:AntiMEV",
        "label": "_totalSupply",
        "offset": 0,
        "slot": "4",
        "type": "t_uint256"
      },
      {
        "astId": 27,
        "contract": "contracts/AntiMEV.sol:AntiMEV",
        "label": "_owner",
        "offset": 0,
        "slot": "5",
        "type": "t_address"
      },
      {
        "astId": 1082,
        "contract": "contracts/AntiMEV.sol:AntiMEV",
        "label": "enabled",
        "offset": 20,
        "slot": "5",
        "type": "t_bool"
      },
      {
        "astId": 1084,
        "contract": "contracts/AntiMEV.sol:AntiMEV",
        "label": "maxTx",
        "offset": 0,
        "slot": "6",
        "type": "t_uint256"
      },
      {
        "astId": 1086,
        "contract": "contracts/AntiMEV.sol:AntiMEV",
        "label": "maxWallet",
        "offset": 0,
        "slot": "7",
        "type": "t_uint256"
      },
      {
        "astId": 1088,
        "contract": "contracts/AntiMEV.sol:AntiMEV",
        "label": "uniswapV2Pair",
        "offset": 0,
        "slot": "8",
        "type": "t_address"
      },
      {
        "astId": 1090,
        "contract": "contracts/AntiMEV.sol:AntiMEV",
        "label": "teamWallet",
        "offset": 0,
        "slot": "9",
        "type": "t_address_payable"
      },
      {
        "astId": 1094,
        "contract": "contracts/AntiMEV.sol:AntiMEV",
        "label": "bots",
        "offset": 0,
        "slot": "10",
        "type": "t_mapping(t_address,t_bool)"
      },
      {
        "astId": 1098,
        "contract": "contracts/AntiMEV.sol:AntiMEV",
        "label": "lastTxBlock",
        "offset": 0,
        "slot": "11",
        "type": "t_mapping(t_address,t_uint256)"
      }
    ],
    "types": {
      "t_address": {
        "encoding": "inplace",
        "label": "address",
        "numberOfBytes": "20"
      },
      "t_address_payable": {
        "encoding": "inplace",
        "label": "address payable",
        "numberOfBytes": "20"
      },
      "t_bool": {
        "encoding": "inplace",
        "label": "bool",
        "numberOfBytes": "1"
      },
      "t_mapping(t_address,t_bool)": {
        "encoding": "mapping",
        "key": "t_address",
        "label": "mapping(address => bool)",
        "numberOfBytes": "32",
        "value": "t_bool"
      },
      "t_mapping(t_address,t_mapping(t_address,t_uint256))": {
        "encoding": "mapping",
        "key": "t_address",
        "label": "mapping(address => mapping(address => uint256))",
        "numberOfBytes": "32",
        "value": "t_mapping(t_address,t_uint256)"
      },
      "t_mapping(t_address,t_uint256)": {
        "encoding": "mapping",
        "key": "t_address",
        "label": "mapping(address => uint256)",
        "numberOfBytes": "32",
        "value": "t_uint256"
      },
      "t_string_storage": {
        "encoding": "bytes",
        "label": "string",
        "numberOfBytes": "32"
      },
      "t_uint256": {
        "encoding": "inplace",
        "label": "uint256",
        "numberOfBytes": "32"
      }
    }
  }
}