{
  "address": "0xa195ACcEB1945163160CD5703Ed43E4f78176a54",
  "abi": [
    {
      "inputs": [
        {
          "internalType": "uint256",
          "name": "_totalSupply",
          "type": "uint256"
        }
      ],
      "stateMutability": "nonpayable",
      "type": "constructor"
    },
    {
      "anonymous": false,
      "inputs": [
        {
          "indexed": true,
          "internalType": "address",
          "name": "owner",
          "type": "address"
        },
        {
          "indexed": true,
          "internalType": "address",
          "name": "spender",
          "type": "address"
        },
        {
          "indexed": false,
          "internalType": "uint256",
          "name": "value",
          "type": "uint256"
        }
      ],
      "name": "Approval",
      "type": "event"
    },
    {
      "anonymous": false,
      "inputs": [
        {
          "indexed": true,
          "internalType": "address",
          "name": "previousOwner",
          "type": "address"
        },
        {
          "indexed": true,
          "internalType": "address",
          "name": "newOwner",
          "type": "address"
        }
      ],
      "name": "OwnershipTransferred",
      "type": "event"
    },
    {
      "anonymous": false,
      "inputs": [
        {
          "indexed": true,
          "internalType": "address",
          "name": "from",
          "type": "address"
        },
        {
          "indexed": true,
          "internalType": "address",
          "name": "to",
          "type": "address"
        },
        {
          "indexed": false,
          "internalType": "uint256",
          "name": "value",
          "type": "uint256"
        }
      ],
      "name": "Transfer",
      "type": "event"
    },
    {
      "inputs": [
        {
          "internalType": "address",
          "name": "owner",
          "type": "address"
        },
        {
          "internalType": "address",
          "name": "spender",
          "type": "address"
        }
      ],
      "name": "allowance",
      "outputs": [
        {
          "internalType": "uint256",
          "name": "",
          "type": "uint256"
        }
      ],
      "stateMutability": "view",
      "type": "function"
    },
    {
      "inputs": [
        {
          "internalType": "address",
          "name": "spender",
          "type": "address"
        },
        {
          "internalType": "uint256",
          "name": "amount",
          "type": "uint256"
        }
      ],
      "name": "approve",
      "outputs": [
        {
          "internalType": "bool",
          "name": "",
          "type": "bool"
        }
      ],
      "stateMutability": "nonpayable",
      "type": "function"
    },
    {
      "inputs": [
        {
          "internalType": "address",
          "name": "account",
          "type": "address"
        }
      ],
      "name": "balanceOf",
      "outputs": [
        {
          "internalType": "uint256",
          "name": "",
          "type": "uint256"
        }
      ],
      "stateMutability": "view",
      "type": "function"
    },
    {
      "inputs": [
        {
          "internalType": "address",
          "name": "",
          "type": "address"
        }
      ],
      "name": "bots",
      "outputs": [
        {
          "internalType": "bool",
          "name": "",
          "type": "bool"
        }
      ],
      "stateMutability": "view",
      "type": "function"
    },
    {
      "inputs": [
        {
          "internalType": "uint256",
          "name": "value",
          "type": "uint256"
        }
      ],
      "name": "burn",
      "outputs": [],
      "stateMutability": "nonpayable",
      "type": "function"
    },
    {
      "inputs": [],
      "name": "decimals",
      "outputs": [
        {
          "internalType": "uint8",
          "name": "",
          "type": "uint8"
        }
      ],
      "stateMutability": "view",
      "type": "function"
    },
    {
      "inputs": [
        {
          "internalType": "address",
          "name": "spender",
          "type": "address"
        },
        {
          "internalType": "uint256",
          "name": "subtractedValue",
          "type": "uint256"
        }
      ],
      "name": "decreaseAllowance",
      "outputs": [
        {
          "internalType": "bool",
          "name": "",
          "type": "bool"
        }
      ],
      "stateMutability": "nonpayable",
      "type": "function"
    },
    {
      "inputs": [
        {
          "internalType": "bool",
          "name": "_enabled",
          "type": "bool"
        }
      ],
      "name": "enableTrading",
      "outputs": [],
      "stateMutability": "nonpayable",
      "type": "function"
    },
    {
      "inputs": [],
      "name": "enabled",
      "outputs": [
        {
          "internalType": "bool",
          "name": "",
          "type": "bool"
        }
      ],
      "stateMutability": "view",
      "type": "function"
    },
    {
      "inputs": [
        {
          "internalType": "address",
          "name": "spender",
          "type": "address"
        },
        {
          "internalType": "uint256",
          "name": "addedValue",
          "type": "uint256"
        }
      ],
      "name": "increaseAllowance",
      "outputs": [
        {
          "internalType": "bool",
          "name": "",
          "type": "bool"
        }
      ],
      "stateMutability": "nonpayable",
      "type": "function"
    },
    {
      "inputs": [
        {
          "internalType": "address",
          "name": "",
          "type": "address"
        }
      ],
      "name": "lastTxBlockNumber",
      "outputs": [
        {
          "internalType": "uint256",
          "name": "",
          "type": "uint256"
        }
      ],
      "stateMutability": "view",
      "type": "function"
    },
    {
      "inputs": [],
      "name": "maxWallet",
      "outputs": [
        {
          "internalType": "uint256",
          "name": "",
          "type": "uint256"
        }
      ],
      "stateMutability": "view",
      "type": "function"
    },
    {
      "inputs": [],
      "name": "name",
      "outputs": [
        {
          "internalType": "string",
          "name": "",
          "type": "string"
        }
      ],
      "stateMutability": "view",
      "type": "function"
    },
    {
      "inputs": [],
      "name": "owner",
      "outputs": [
        {
          "internalType": "address",
          "name": "",
          "type": "address"
        }
      ],
      "stateMutability": "view",
      "type": "function"
    },
    {
      "inputs": [],
      "name": "renounceOwnership",
      "outputs": [],
      "stateMutability": "nonpayable",
      "type": "function"
    },
    {
      "inputs": [
        {
          "internalType": "address[]",
          "name": "_address",
          "type": "address[]"
        },
        {
          "internalType": "bool[]",
          "name": "_isBot",
          "type": "bool[]"
        }
      ],
      "name": "setBots",
      "outputs": [],
      "stateMutability": "nonpayable",
      "type": "function"
    },
    {
      "inputs": [
        {
          "internalType": "address",
          "name": "_uniswapV2Pair",
          "type": "address"
        },
        {
          "internalType": "address",
          "name": "_teamWallet",
          "type": "address"
        },
        {
          "internalType": "uint256",
          "name": "_maxWallet",
          "type": "uint256"
        }
      ],
      "name": "setVars",
      "outputs": [],
      "stateMutability": "nonpayable",
      "type": "function"
    },
    {
      "inputs": [],
      "name": "symbol",
      "outputs": [
        {
          "internalType": "string",
          "name": "",
          "type": "string"
        }
      ],
      "stateMutability": "view",
      "type": "function"
    },
    {
      "inputs": [],
      "name": "totalSupply",
      "outputs": [
        {
          "internalType": "uint256",
          "name": "",
          "type": "uint256"
        }
      ],
      "stateMutability": "view",
      "type": "function"
    },
    {
      "inputs": [
        {
          "internalType": "address",
          "name": "recipient",
          "type": "address"
        },
        {
          "internalType": "uint256",
          "name": "amount",
          "type": "uint256"
        }
      ],
      "name": "transfer",
      "outputs": [
        {
          "internalType": "bool",
          "name": "",
          "type": "bool"
        }
      ],
      "stateMutability": "nonpayable",
      "type": "function"
    },
    {
      "inputs": [
        {
          "internalType": "address",
          "name": "sender",
          "type": "address"
        },
        {
          "internalType": "address",
          "name": "recipient",
          "type": "address"
        },
        {
          "internalType": "uint256",
          "name": "amount",
          "type": "uint256"
        }
      ],
      "name": "transferFrom",
      "outputs": [
        {
          "internalType": "bool",
          "name": "",
          "type": "bool"
        }
      ],
      "stateMutability": "nonpayable",
      "type": "function"
    },
    {
      "inputs": [
        {
          "internalType": "address",
          "name": "newOwner",
          "type": "address"
        }
      ],
      "name": "transferOwnership",
      "outputs": [],
      "stateMutability": "nonpayable",
      "type": "function"
    },
    {
      "inputs": [],
      "name": "uniswapV2Pair",
      "outputs": [
        {
          "internalType": "address",
          "name": "",
          "type": "address"
        }
      ],
      "stateMutability": "view",
      "type": "function"
    }
  ],
  "transactionHash": "0x9d56e5422d92412b50e86d6887d7b9c2d7c0f775c40d5f617be6143eaf1527e6",
  "args": [
    "1123581321000000000000000000"
  ],
  "numDeployments": 1,
  "solcInputHash": "f3ca12c168a3d1dc388bdd7b901f09fb",
  "bytecode": "0x60806040523480156200001157600080fd5b5060405162001d1f38038062001d1f83398101604081905262000034916200045e565b60405180604001604052806006815260200165474d5553535960d01b81525060405180604001604052806006815260200165474d5553535960d01b8152506200008c62000086620000c560201b60201c565b620000c9565b60036200009a83826200051c565b506004620000a982826200051c565b505050620000be33826200011960201b60201c565b506200060a565b3390565b600080546001600160a01b038381166001600160a01b0319831681178455604051919092169283917f8be0079c531659141344cd1fd0a4f28419497f9722a3daafe3b4186f6b6457e09190a35050565b6001600160a01b038216620001755760405162461bcd60e51b815260206004820152601f60248201527f45524332303a206d696e7420746f20746865207a65726f20616464726573730060448201526064015b60405180910390fd5b620001836000838362000210565b8060056000828254620001979190620005e8565b90915550506001600160a01b03821660009081526001602052604081208054839290620001c6908490620005e8565b90915550506040518181526001600160a01b038316906000907fddf252ad1be2c89b69c2b068fc378daa952ba7f163c4a11628f55a4df523b3ef9060200160405180910390a35050565b6001600160a01b0382166000908152600a602052604090205460ff161580156200025357506001600160a01b0383166000908152600a602052604090205460ff16155b6200028c5760405162461bcd60e51b81526020600482015260086024820152674d455620424f542160c01b60448201526064016200016c565b6008546001600160a01b03166200030a576000546001600160a01b0384811691161480620002c757506000546001600160a01b038381169116145b620003055760405162461bcd60e51b815260206004820152600d60248201526c50414952204e4f54205345542160981b60448201526064016200016c565b505050565b62000317436003620005e8565b336000908152600b602052604090205410620003845760405162461bcd60e51b815260206004820152602560248201527f4d5553542057414954203320424c4f434b53204245545745454e205452414e53604482015264464552532160d81b60648201526084016200016c565b336000908152600b6020526040902043905560065460ff168015620003b657506008546001600160a01b038481169116145b156200030557600754620003ee82620003da856200042c60201b620007111760201c565b6200044760201b62000a471790919060201c565b1115620003055760405162461bcd60e51b815260206004820152600b60248201526a4d41582057414c4c45542160a81b60448201526064016200016c565b6001600160a01b031660009081526001602052604090205490565b6000620004558284620005e8565b90505b92915050565b6000602082840312156200047157600080fd5b5051919050565b634e487b7160e01b600052604160045260246000fd5b600181811c90821680620004a357607f821691505b602082108103620004c457634e487b7160e01b600052602260045260246000fd5b50919050565b601f8211156200030557600081815260208120601f850160051c81016020861015620004f35750805b601f850160051c820191505b818110156200051457828155600101620004ff565b505050505050565b81516001600160401b0381111562000538576200053862000478565b62000550816200054984546200048e565b84620004ca565b602080601f8311600181146200058857600084156200056f5750858301515b600019600386901b1c1916600185901b17855562000514565b600085815260208120601f198616915b82811015620005b95788860151825594840194600190910190840162000598565b5085821015620005d85787850151600019600388901b60f8161c191681555b5050505050600190811b01905550565b808201808211156200045857634e487b7160e01b600052601160045260246000fd5b611705806200061a6000396000f3fe608060405234801561001057600080fd5b506004361061018d5760003560e01c8063715018a6116100e3578063bfd792841161008c578063f2fde38b11610066578063f2fde38b14610379578063f73f42961461038c578063f8b45b051461039f57600080fd5b8063bfd792841461030a578063dd62ed3e1461032d578063f275f64b1461036657600080fd5b8063a457c2d7116100bd578063a457c2d7146102c4578063a9059cbb146102d7578063b7a71727146102ea57600080fd5b8063715018a6146102a35780638da5cb5b146102ab57806395d89b41146102bc57600080fd5b806323b872dd1161014557806342966c681161011f57806342966c681461023c57806349bd5a5e1461024f57806370a082311461027a57600080fd5b806323b872dd14610207578063313ce5671461021a578063395093511461022957600080fd5b80630ee0347c116101765780630ee0347c146101d357806318160ddd146101e8578063238dafe0146101fa57600080fd5b806306fdde0314610192578063095ea7b3146101b0575b600080fd5b61019a6103a8565b6040516101a791906112f2565b60405180910390f35b6101c36101be36600461135c565b61043a565b60405190151581526020016101a7565b6101e66101e1366004611473565b610451565b005b6005545b6040519081526020016101a7565b6006546101c39060ff1681565b6101c3610215366004611533565b6105af565b604051601281526020016101a7565b6101c361023736600461135c565b61066e565b6101e661024a36600461156f565b6106aa565b600854610262906001600160a01b031681565b6040516001600160a01b0390911681526020016101a7565b6101ec610288366004611588565b6001600160a01b031660009081526001602052604090205490565b6101e661072c565b6000546001600160a01b0316610262565b61019a610792565b6101c36102d236600461135c565b6107a1565b6101c36102e536600461135c565b610852565b6101ec6102f8366004611588565b600b6020526000908152604090205481565b6101c3610318366004611588565b600a6020526000908152604090205460ff1681565b6101ec61033b3660046115a3565b6001600160a01b03918216600090815260026020908152604080832093909416825291909152205490565b6101e66103743660046115d6565b61085f565b6101e6610387366004611588565b6108cc565b6101e661039a366004611533565b6109ab565b6101ec60075481565b6060600380546103b7906115f1565b80601f01602080910402602001604051908101604052809291908181526020018280546103e3906115f1565b80156104305780601f1061040557610100808354040283529160200191610430565b820191906000526020600020905b81548152906001019060200180831161041357829003601f168201915b5050505050905090565b6000610447338484610a5a565b5060015b92915050565b6000546001600160a01b031633146104b05760405162461bcd60e51b815260206004820181905260248201527f4f776e61626c653a2063616c6c6572206973206e6f7420746865206f776e657260448201526064015b60405180910390fd5b60005b82518110156105aa57306001600160a01b03168382815181106104d8576104d861162b565b60200260200101516001600160a01b03161415801561052d57506000546001600160a01b03166001600160a01b03168382815181106105195761051961162b565b60200260200101516001600160a01b031614155b61053657600080fd5b8181815181106105485761054861162b565b6020026020010151600a60008584815181106105665761056661162b565b6020908102919091018101516001600160a01b03168252810191909152604001600020805460ff1916911515919091179055806105a281611657565b9150506104b3565b505050565b60006105bc848484610bb2565b6001600160a01b0384166000908152600260209081526040808320338452909152902054828110156106565760405162461bcd60e51b815260206004820152602860248201527f45524332303a207472616e7366657220616d6f756e742065786365656473206160448201527f6c6c6f77616e636500000000000000000000000000000000000000000000000060648201526084016104a7565b6106638533858403610a5a565b506001949350505050565b3360008181526002602090815260408083206001600160a01b038716845290915281205490916104479185906106a5908690611670565b610a5a565b6000546001600160a01b031633146107045760405162461bcd60e51b815260206004820181905260248201527f4f776e61626c653a2063616c6c6572206973206e6f7420746865206f776e657260448201526064016104a7565b61070e3382610c92565b50565b6001600160a01b031660009081526001602052604090205490565b6000546001600160a01b031633146107865760405162461bcd60e51b815260206004820181905260248201527f4f776e61626c653a2063616c6c6572206973206e6f7420746865206f776e657260448201526064016104a7565b6107906000610e23565b565b6060600480546103b7906115f1565b3360009081526002602090815260408083206001600160a01b03861684529091528120548281101561083b5760405162461bcd60e51b815260206004820152602560248201527f45524332303a2064656372656173656420616c6c6f77616e63652062656c6f7760448201527f207a65726f00000000000000000000000000000000000000000000000000000060648201526084016104a7565b6108483385858403610a5a565b5060019392505050565b6000610447338484610bb2565b6000546001600160a01b031633146108b95760405162461bcd60e51b815260206004820181905260248201527f4f776e61626c653a2063616c6c6572206973206e6f7420746865206f776e657260448201526064016104a7565b6006805460ff1916911515919091179055565b6000546001600160a01b031633146109265760405162461bcd60e51b815260206004820181905260248201527f4f776e61626c653a2063616c6c6572206973206e6f7420746865206f776e657260448201526064016104a7565b6001600160a01b0381166109a25760405162461bcd60e51b815260206004820152602660248201527f4f776e61626c653a206e6577206f776e657220697320746865207a65726f206160448201527f646472657373000000000000000000000000000000000000000000000000000060648201526084016104a7565b61070e81610e23565b6000546001600160a01b03163314610a055760405162461bcd60e51b815260206004820181905260248201527f4f776e61626c653a2063616c6c6572206973206e6f7420746865206f776e657260448201526064016104a7565b600880546001600160a01b0394851673ffffffffffffffffffffffffffffffffffffffff19918216179091556009805493909416921691909117909155600755565b6000610a538284611670565b9392505050565b6001600160a01b038316610ad55760405162461bcd60e51b8152602060048201526024808201527f45524332303a20617070726f76652066726f6d20746865207a65726f2061646460448201527f726573730000000000000000000000000000000000000000000000000000000060648201526084016104a7565b6001600160a01b038216610b515760405162461bcd60e51b815260206004820152602260248201527f45524332303a20617070726f766520746f20746865207a65726f20616464726560448201527f737300000000000000000000000000000000000000000000000000000000000060648201526084016104a7565b6001600160a01b0383811660008181526002602090815260408083209487168084529482529182902085905590518481527f8c5be1e5ebec7d5bd14f71427d1e84f3dd0314c0f7b2291e5b200ac8c7c3b925910160405180910390a3505050565b60065460ff16610bc157600080fd5b6001600160a01b038216610c235760405162461bcd60e51b815260206004820152602360248201527f45524332303a207472616e7366657220746f20746865207a65726f206164647260448201526265737360e81b60648201526084016104a7565b6009546001600160a01b03848116911614801590610c4f57506009546001600160a01b03838116911614155b15610c87576000610c6c6064610c66846001610e80565b90610e8c565b9050610c79843083610e98565b610c838183611683565b9150505b6105aa838383610e98565b6001600160a01b038216610d0e5760405162461bcd60e51b815260206004820152602160248201527f45524332303a206275726e2066726f6d20746865207a65726f2061646472657360448201527f730000000000000000000000000000000000000000000000000000000000000060648201526084016104a7565b610d1a826000836110a1565b6001600160a01b03821660009081526001602052604090205481811015610da95760405162461bcd60e51b815260206004820152602260248201527f45524332303a206275726e20616d6f756e7420657863656564732062616c616e60448201527f636500000000000000000000000000000000000000000000000000000000000060648201526084016104a7565b6001600160a01b0383166000908152600160205260408120838303905560058054849290610dd8908490611683565b90915550506040518281526000906001600160a01b038516907fddf252ad1be2c89b69c2b068fc378daa952ba7f163c4a11628f55a4df523b3ef9060200160405180910390a3505050565b600080546001600160a01b0383811673ffffffffffffffffffffffffffffffffffffffff19831681178455604051919092169283917f8be0079c531659141344cd1fd0a4f28419497f9722a3daafe3b4186f6b6457e09190a35050565b6000610a538284611696565b6000610a5382846116ad565b6001600160a01b038316610f145760405162461bcd60e51b815260206004820152602560248201527f45524332303a207472616e736665722066726f6d20746865207a65726f20616460448201527f647265737300000000000000000000000000000000000000000000000000000060648201526084016104a7565b6001600160a01b038216610f765760405162461bcd60e51b815260206004820152602360248201527f45524332303a207472616e7366657220746f20746865207a65726f206164647260448201526265737360e81b60648201526084016104a7565b610f818383836110a1565b6001600160a01b038316600090815260016020526040902054818110156110105760405162461bcd60e51b815260206004820152602660248201527f45524332303a207472616e7366657220616d6f756e742065786365656473206260448201527f616c616e6365000000000000000000000000000000000000000000000000000060648201526084016104a7565b6001600160a01b03808516600090815260016020526040808220858503905591851681529081208054849290611047908490611670565b92505081905550826001600160a01b0316846001600160a01b03167fddf252ad1be2c89b69c2b068fc378daa952ba7f163c4a11628f55a4df523b3ef8460405161109391815260200190565b60405180910390a350505050565b6001600160a01b0382166000908152600a602052604090205460ff161580156110e357506001600160a01b0383166000908152600a602052604090205460ff16155b61112f5760405162461bcd60e51b815260206004820152600860248201527f4d455620424f542100000000000000000000000000000000000000000000000060448201526064016104a7565b6008546001600160a01b03166111b4576000546001600160a01b038481169116148061116857506000546001600160a01b038381169116145b6105aa5760405162461bcd60e51b815260206004820152600d60248201527f50414952204e4f5420534554210000000000000000000000000000000000000060448201526064016104a7565b6111bf436003611670565b336000908152600b6020526040902054106112425760405162461bcd60e51b815260206004820152602560248201527f4d5553542057414954203320424c4f434b53204245545745454e205452414e5360448201527f464552532100000000000000000000000000000000000000000000000000000060648201526084016104a7565b336000908152600b6020526040902043905560065460ff16801561127357506008546001600160a01b038481169116145b156105aa576007546112a48261129e856001600160a01b031660009081526001602052604090205490565b90610a47565b11156105aa5760405162461bcd60e51b815260206004820152600b60248201527f4d41582057414c4c45542100000000000000000000000000000000000000000060448201526064016104a7565b600060208083528351808285015260005b8181101561131f57858101830151858201604001528201611303565b506000604082860101526040601f19601f8301168501019250505092915050565b80356001600160a01b038116811461135757600080fd5b919050565b6000806040838503121561136f57600080fd5b61137883611340565b946020939093013593505050565b634e487b7160e01b600052604160045260246000fd5b604051601f8201601f1916810167ffffffffffffffff811182821017156113c5576113c5611386565b604052919050565b600067ffffffffffffffff8211156113e7576113e7611386565b5060051b60200190565b8035801515811461135757600080fd5b600082601f83011261141257600080fd5b81356020611427611422836113cd565b61139c565b82815260059290921b8401810191818101908684111561144657600080fd5b8286015b848110156114685761145b816113f1565b835291830191830161144a565b509695505050505050565b6000806040838503121561148657600080fd5b823567ffffffffffffffff8082111561149e57600080fd5b818501915085601f8301126114b257600080fd5b813560206114c2611422836113cd565b82815260059290921b840181019181810190898411156114e157600080fd5b948201945b83861015611506576114f786611340565b825294820194908201906114e6565b9650508601359250508082111561151c57600080fd5b5061152985828601611401565b9150509250929050565b60008060006060848603121561154857600080fd5b61155184611340565b925061155f60208501611340565b9150604084013590509250925092565b60006020828403121561158157600080fd5b5035919050565b60006020828403121561159a57600080fd5b610a5382611340565b600080604083850312156115b657600080fd5b6115bf83611340565b91506115cd60208401611340565b90509250929050565b6000602082840312156115e857600080fd5b610a53826113f1565b600181811c9082168061160557607f821691505b60208210810361162557634e487b7160e01b600052602260045260246000fd5b50919050565b634e487b7160e01b600052603260045260246000fd5b634e487b7160e01b600052601160045260246000fd5b60006001820161166957611669611641565b5060010190565b8082018082111561044b5761044b611641565b8181038181111561044b5761044b611641565b808202811582820484141761044b5761044b611641565b6000826116ca57634e487b7160e01b600052601260045260246000fd5b50049056fea2646970667358221220d47decdcf391cd0dfc92ed17138ab473a4200b787fc00907009939a2a6db90e464736f6c63430008120033",
  "devdoc": {
    "events": {
      "Approval(address,address,uint256)": {
        "details": "Emitted when the allowance of a `spender` for an `owner` is set by a call to {approve}. `value` is the new allowance."
      },
      "Transfer(address,address,uint256)": {
        "details": "Emitted when `value` tokens are moved from one account (`from`) to another (`to`). Note that `value` may be zero."
      }
    },
    "kind": "dev",
    "methods": {
      "allowance(address,address)": {
        "details": "See {IERC20-allowance}."
      },
      "approve(address,uint256)": {
        "details": "See {IERC20-approve}. Requirements: - `spender` cannot be the zero address."
      },
      "balanceOf(address)": {
        "details": "See {IERC20-balanceOf}."
      },
      "decimals()": {
        "details": "Returns the number of decimals used to get its user representation. For example, if `decimals` equals `2`, a balance of `505` tokens should be displayed to a user as `5.05` (`505 / 10 ** 2`). Tokens usually opt for a value of 18, imitating the relationship between Ether and Wei. This is the value {ERC20} uses, unless this function is overridden; NOTE: This information is only used for _display_ purposes: it in no way affects any of the arithmetic of the contract, including {IERC20-balanceOf} and {IERC20-transfer}."
      },
      "decreaseAllowance(address,uint256)": {
        "details": "Atomically decreases the allowance granted to `spender` by the caller. This is an alternative to {approve} that can be used as a mitigation for problems described in {IERC20-approve}. Emits an {Approval} event indicating the updated allowance. Requirements: - `spender` cannot be the zero address. - `spender` must have allowance for the caller of at least `subtractedValue`."
      },
      "increaseAllowance(address,uint256)": {
        "details": "Atomically increases the allowance granted to `spender` by the caller. This is an alternative to {approve} that can be used as a mitigation for problems described in {IERC20-approve}. Emits an {Approval} event indicating the updated allowance. Requirements: - `spender` cannot be the zero address."
      },
      "name()": {
        "details": "Returns the name of the token."
      },
      "owner()": {
        "details": "Returns the address of the current owner."
      },
      "renounceOwnership()": {
        "details": "Leaves the contract without owner. It will not be possible to call `onlyOwner` functions anymore. Can only be called by the current owner. NOTE: Renouncing ownership will leave the contract without an owner, thereby removing any functionality that is only available to the owner."
      },
      "symbol()": {
        "details": "Returns the symbol of the token, usually a shorter version of the name."
      },
      "totalSupply()": {
        "details": "See {IERC20-totalSupply}."
      },
      "transfer(address,uint256)": {
        "details": "See {IERC20-transfer}. Requirements: - `recipient` cannot be the zero address. - the caller must have a balance of at least `amount`."
      },
      "transferFrom(address,address,uint256)": {
        "details": "See {IERC20-transferFrom}. Emits an {Approval} event indicating the updated allowance. This is not required by the EIP. See the note at the beginning of {ERC20}. Requirements: - `sender` and `recipient` cannot be the zero address. - `sender` must have a balance of at least `amount`. - the caller must have allowance for ``sender``'s tokens of at least `amount`."
      },
      "transferOwnership(address)": {
        "details": "Transfers ownership of the contract to a new account (`newOwner`). Can only be called by the current owner."
      }
    },
    "version": 1
  },
  "userdoc": {
    "kind": "user",
    "methods": {},
    "version": 1
  },
  "storageLayout": {
    "storage": [
      {
        "astId": 27,
        "contract": "contracts/GMUSSY.sol:GMUSSY",
        "label": "_owner",
        "offset": 0,
        "slot": "0",
        "type": "t_address"
      },
      {
        "astId": 235,
        "contract": "contracts/GMUSSY.sol:GMUSSY",
        "label": "_balances",
        "offset": 0,
        "slot": "1",
        "type": "t_mapping(t_address,t_uint256)"
      },
      {
        "astId": 241,
        "contract": "contracts/GMUSSY.sol:GMUSSY",
        "label": "_allowances",
        "offset": 0,
        "slot": "2",
        "type": "t_mapping(t_address,t_mapping(t_address,t_uint256))"
      },
      {
        "astId": 243,
        "contract": "contracts/GMUSSY.sol:GMUSSY",
        "label": "_name",
        "offset": 0,
        "slot": "3",
        "type": "t_string_storage"
      },
      {
        "astId": 245,
        "contract": "contracts/GMUSSY.sol:GMUSSY",
        "label": "_symbol",
        "offset": 0,
        "slot": "4",
        "type": "t_string_storage"
      },
      {
        "astId": 247,
        "contract": "contracts/GMUSSY.sol:GMUSSY",
        "label": "_totalSupply",
        "offset": 0,
        "slot": "5",
        "type": "t_uint256"
      },
      {
        "astId": 1085,
        "contract": "contracts/GMUSSY.sol:GMUSSY",
        "label": "enabled",
        "offset": 0,
        "slot": "6",
        "type": "t_bool"
      },
      {
        "astId": 1087,
        "contract": "contracts/GMUSSY.sol:GMUSSY",
        "label": "maxWallet",
        "offset": 0,
        "slot": "7",
        "type": "t_uint256"
      },
      {
        "astId": 1089,
        "contract": "contracts/GMUSSY.sol:GMUSSY",
        "label": "uniswapV2Pair",
        "offset": 0,
        "slot": "8",
        "type": "t_address"
      },
      {
        "astId": 1091,
        "contract": "contracts/GMUSSY.sol:GMUSSY",
        "label": "teamWallet",
        "offset": 0,
        "slot": "9",
        "type": "t_address_payable"
      },
      {
        "astId": 1095,
        "contract": "contracts/GMUSSY.sol:GMUSSY",
        "label": "bots",
        "offset": 0,
        "slot": "10",
        "type": "t_mapping(t_address,t_bool)"
      },
      {
        "astId": 1099,
        "contract": "contracts/GMUSSY.sol:GMUSSY",
        "label": "lastTxBlockNumber",
        "offset": 0,
        "slot": "11",
        "type": "t_mapping(t_address,t_uint256)"
      }
    ],
    "types": {
      "t_address": {
        "encoding": "inplace",
        "label": "address",
        "numberOfBytes": "20"
      },
      "t_address_payable": {
        "encoding": "inplace",
        "label": "address payable",
        "numberOfBytes": "20"
      },
      "t_bool": {
        "encoding": "inplace",
        "label": "bool",
        "numberOfBytes": "1"
      },
      "t_mapping(t_address,t_bool)": {
        "encoding": "mapping",
        "key": "t_address",
        "label": "mapping(address => bool)",
        "numberOfBytes": "32",
        "value": "t_bool"
      },
      "t_mapping(t_address,t_mapping(t_address,t_uint256))": {
        "encoding": "mapping",
        "key": "t_address",
        "label": "mapping(address => mapping(address => uint256))",
        "numberOfBytes": "32",
        "value": "t_mapping(t_address,t_uint256)"
      },
      "t_mapping(t_address,t_uint256)": {
        "encoding": "mapping",
        "key": "t_address",
        "label": "mapping(address => uint256)",
        "numberOfBytes": "32",
        "value": "t_uint256"
      },
      "t_string_storage": {
        "encoding": "bytes",
        "label": "string",
        "numberOfBytes": "32"
      },
      "t_uint256": {
        "encoding": "inplace",
        "label": "uint256",
        "numberOfBytes": "32"
      }
    }
  }
}