{
  "address": "0x44863F234b137A395e5c98359d16057A9A1fAc55",
  "abi": [
    {
      "inputs": [
        {
          "internalType": "uint256",
          "name": "initialSupply",
          "type": "uint256"
        }
      ],
      "stateMutability": "nonpayable",
      "type": "constructor"
    },
    {
      "anonymous": false,
      "inputs": [
        {
          "indexed": true,
          "internalType": "address",
          "name": "owner",
          "type": "address"
        },
        {
          "indexed": true,
          "internalType": "address",
          "name": "spender",
          "type": "address"
        },
        {
          "indexed": false,
          "internalType": "uint256",
          "name": "value",
          "type": "uint256"
        }
      ],
      "name": "Approval",
      "type": "event"
    },
    {
      "anonymous": false,
      "inputs": [
        {
          "indexed": true,
          "internalType": "address",
          "name": "previousOwner",
          "type": "address"
        },
        {
          "indexed": true,
          "internalType": "address",
          "name": "newOwner",
          "type": "address"
        }
      ],
      "name": "OwnershipTransferred",
      "type": "event"
    },
    {
      "anonymous": false,
      "inputs": [
        {
          "indexed": true,
          "internalType": "address",
          "name": "from",
          "type": "address"
        },
        {
          "indexed": true,
          "internalType": "address",
          "name": "to",
          "type": "address"
        },
        {
          "indexed": false,
          "internalType": "uint256",
          "name": "value",
          "type": "uint256"
        }
      ],
      "name": "Transfer",
      "type": "event"
    },
    {
      "inputs": [],
      "name": "_maxTxAmount",
      "outputs": [
        {
          "internalType": "uint256",
          "name": "",
          "type": "uint256"
        }
      ],
      "stateMutability": "view",
      "type": "function"
    },
    {
      "inputs": [],
      "name": "_maxWalletSize",
      "outputs": [
        {
          "internalType": "uint256",
          "name": "",
          "type": "uint256"
        }
      ],
      "stateMutability": "view",
      "type": "function"
    },
    {
      "inputs": [
        {
          "internalType": "address",
          "name": "owner",
          "type": "address"
        },
        {
          "internalType": "address",
          "name": "spender",
          "type": "address"
        }
      ],
      "name": "allowance",
      "outputs": [
        {
          "internalType": "uint256",
          "name": "",
          "type": "uint256"
        }
      ],
      "stateMutability": "view",
      "type": "function"
    },
    {
      "inputs": [
        {
          "internalType": "address",
          "name": "spender",
          "type": "address"
        },
        {
          "internalType": "uint256",
          "name": "amount",
          "type": "uint256"
        }
      ],
      "name": "approve",
      "outputs": [
        {
          "internalType": "bool",
          "name": "",
          "type": "bool"
        }
      ],
      "stateMutability": "nonpayable",
      "type": "function"
    },
    {
      "inputs": [
        {
          "internalType": "address",
          "name": "account",
          "type": "address"
        }
      ],
      "name": "balanceOf",
      "outputs": [
        {
          "internalType": "uint256",
          "name": "",
          "type": "uint256"
        }
      ],
      "stateMutability": "view",
      "type": "function"
    },
    {
      "inputs": [],
      "name": "decimals",
      "outputs": [
        {
          "internalType": "uint8",
          "name": "",
          "type": "uint8"
        }
      ],
      "stateMutability": "view",
      "type": "function"
    },
    {
      "inputs": [
        {
          "internalType": "address",
          "name": "spender",
          "type": "address"
        },
        {
          "internalType": "uint256",
          "name": "subtractedValue",
          "type": "uint256"
        }
      ],
      "name": "decreaseAllowance",
      "outputs": [
        {
          "internalType": "bool",
          "name": "",
          "type": "bool"
        }
      ],
      "stateMutability": "nonpayable",
      "type": "function"
    },
    {
      "inputs": [
        {
          "internalType": "address",
          "name": "spender",
          "type": "address"
        },
        {
          "internalType": "uint256",
          "name": "addedValue",
          "type": "uint256"
        }
      ],
      "name": "increaseAllowance",
      "outputs": [
        {
          "internalType": "bool",
          "name": "",
          "type": "bool"
        }
      ],
      "stateMutability": "nonpayable",
      "type": "function"
    },
    {
      "inputs": [],
      "name": "name",
      "outputs": [
        {
          "internalType": "string",
          "name": "",
          "type": "string"
        }
      ],
      "stateMutability": "view",
      "type": "function"
    },
    {
      "inputs": [],
      "name": "owner",
      "outputs": [
        {
          "internalType": "address",
          "name": "",
          "type": "address"
        }
      ],
      "stateMutability": "view",
      "type": "function"
    },
    {
      "inputs": [],
      "name": "renounceOwnership",
      "outputs": [],
      "stateMutability": "nonpayable",
      "type": "function"
    },
    {
      "inputs": [
        {
          "internalType": "uint256",
          "name": "buyTax",
          "type": "uint256"
        }
      ],
      "name": "setBuyTax",
      "outputs": [],
      "stateMutability": "nonpayable",
      "type": "function"
    },
    {
      "inputs": [
        {
          "internalType": "uint256",
          "name": "maxTxAmount",
          "type": "uint256"
        }
      ],
      "name": "setMaxTxnAmount",
      "outputs": [],
      "stateMutability": "nonpayable",
      "type": "function"
    },
    {
      "inputs": [
        {
          "internalType": "uint256",
          "name": "maxWalletSize",
          "type": "uint256"
        }
      ],
      "name": "setMaxWalletSize",
      "outputs": [],
      "stateMutability": "nonpayable",
      "type": "function"
    },
    {
      "inputs": [
        {
          "internalType": "uint256",
          "name": "sellTax",
          "type": "uint256"
        }
      ],
      "name": "setSellTax",
      "outputs": [],
      "stateMutability": "nonpayable",
      "type": "function"
    },
    {
      "inputs": [
        {
          "internalType": "address",
          "name": "teamWallet",
          "type": "address"
        }
      ],
      "name": "setTeamWallet",
      "outputs": [],
      "stateMutability": "nonpayable",
      "type": "function"
    },
    {
      "inputs": [],
      "name": "symbol",
      "outputs": [
        {
          "internalType": "string",
          "name": "",
          "type": "string"
        }
      ],
      "stateMutability": "view",
      "type": "function"
    },
    {
      "inputs": [],
      "name": "totalSupply",
      "outputs": [
        {
          "internalType": "uint256",
          "name": "",
          "type": "uint256"
        }
      ],
      "stateMutability": "view",
      "type": "function"
    },
    {
      "inputs": [
        {
          "internalType": "address",
          "name": "to",
          "type": "address"
        },
        {
          "internalType": "uint256",
          "name": "amount",
          "type": "uint256"
        }
      ],
      "name": "transfer",
      "outputs": [
        {
          "internalType": "bool",
          "name": "",
          "type": "bool"
        }
      ],
      "stateMutability": "nonpayable",
      "type": "function"
    },
    {
      "inputs": [
        {
          "internalType": "address",
          "name": "from",
          "type": "address"
        },
        {
          "internalType": "address",
          "name": "to",
          "type": "address"
        },
        {
          "internalType": "uint256",
          "name": "amount",
          "type": "uint256"
        }
      ],
      "name": "transferFrom",
      "outputs": [
        {
          "internalType": "bool",
          "name": "",
          "type": "bool"
        }
      ],
      "stateMutability": "nonpayable",
      "type": "function"
    },
    {
      "inputs": [
        {
          "internalType": "address",
          "name": "newOwner",
          "type": "address"
        }
      ],
      "name": "transferOwnership",
      "outputs": [],
      "stateMutability": "nonpayable",
      "type": "function"
    },
    {
      "inputs": [],
      "name": "uniswapV2Pair",
      "outputs": [
        {
          "internalType": "address",
          "name": "",
          "type": "address"
        }
      ],
      "stateMutability": "view",
      "type": "function"
    },
    {
      "inputs": [],
      "name": "uniswapV2Router",
      "outputs": [
        {
          "internalType": "contract IUniswapV2Router02",
          "name": "",
          "type": "address"
        }
      ],
      "stateMutability": "view",
      "type": "function"
    }
  ],
  "transactionHash": "0x8e9dff6a018d704f414882439cff6cebc775c95a15dd4c997b4d40108df64a48",
  "args": [
    "7777777777000000000000000000"
  ],
  "numDeployments": 1,
  "solcInputHash": "fc2434780df4a5ebd86b1677ae03ef48",
  "bytecode": "0x6080604052620000286bfb504515d88d84673324000060646200044060201b62000e8a1760201c565b6009556200004f6bfb504515d88d84673324000060646200044060201b62000e8a1760201c565b600a556004600b556004600c553480156200006957600080fd5b50604051620030f8380380620030f883398181016040528101906200008f9190620006b9565b6040518060400160405280600681526020017f474d5553535900000000000000000000000000000000000000000000000000008152506040518060400160405280600681526020017f474d55535359000000000000000000000000000000000000000000000000000081525081600390816200010c91906200095b565b5080600490816200011e91906200095b565b5050506000620001336200049260201b60201c565b905080600560006101000a81548173ffffffffffffffffffffffffffffffffffffffff021916908373ffffffffffffffffffffffffffffffffffffffff1602179055508073ffffffffffffffffffffffffffffffffffffffff16600073ffffffffffffffffffffffffffffffffffffffff167f8be0079c531659141344cd1fd0a4f28419497f9722a3daafe3b4186f6b6457e060405160405180910390a350738ee9b41620d01daf068019fee95d3ac855648b50600d60006101000a81548173ffffffffffffffffffffffffffffffffffffffff021916908373ffffffffffffffffffffffffffffffffffffffff1602179055506000737a250d5630b4cf539739df2c5dacb4c659f2488d905080600760006101000a81548173ffffffffffffffffffffffffffffffffffffffff021916908373ffffffffffffffffffffffffffffffffffffffff1602179055508073ffffffffffffffffffffffffffffffffffffffff1663c45a01556040518163ffffffff1660e01b8152600401602060405180830381865afa158015620002cd573d6000803e3d6000fd5b505050506040513d601f19601f82011682018060405250810190620002f3919062000aa7565b73ffffffffffffffffffffffffffffffffffffffff1663c9c65396308373ffffffffffffffffffffffffffffffffffffffff1663ad5c46486040518163ffffffff1660e01b8152600401602060405180830381865afa1580156200035b573d6000803e3d6000fd5b505050506040513d601f19601f8201168201806040525081019062000381919062000aa7565b6040518363ffffffff1660e01b8152600401620003a092919062000aea565b6020604051808303816000875af1158015620003c0573d6000803e3d6000fd5b505050506040513d601f19601f82011682018060405250810190620003e6919062000aa7565b600860006101000a81548173ffffffffffffffffffffffffffffffffffffffff021916908373ffffffffffffffffffffffffffffffffffffffff1602179055506200043833836200049a60201b60201c565b505062000d3b565b60006200048a83836040518060400160405280601a81526020017f536166654d6174683a206469766973696f6e206279207a65726f0000000000008152506200060760201b60201c565b905092915050565b600033905090565b600073ffffffffffffffffffffffffffffffffffffffff168273ffffffffffffffffffffffffffffffffffffffff16036200050c576040517f08c379a0000000000000000000000000000000000000000000000000000000008152600401620005039062000b78565b60405180910390fd5b62000520600083836200066f60201b60201c565b806002600082825462000534919062000bc9565b92505081905550806000808473ffffffffffffffffffffffffffffffffffffffff1673ffffffffffffffffffffffffffffffffffffffff168152602001908152602001600020600082825401925050819055508173ffffffffffffffffffffffffffffffffffffffff16600073ffffffffffffffffffffffffffffffffffffffff167fddf252ad1be2c89b69c2b068fc378daa952ba7f163c4a11628f55a4df523b3ef83604051620005e7919062000c15565b60405180910390a362000603600083836200067460201b60201c565b5050565b6000808311829062000651576040517f08c379a000000000000000000000000000000000000000000000000000000000815260040162000648919062000cb0565b60405180910390fd5b506000838562000662919062000d03565b9050809150509392505050565b505050565b505050565b600080fd5b6000819050919050565b62000693816200067e565b81146200069f57600080fd5b50565b600081519050620006b38162000688565b92915050565b600060208284031215620006d257620006d162000679565b5b6000620006e284828501620006a2565b91505092915050565b600081519050919050565b7f4e487b7100000000000000000000000000000000000000000000000000000000600052604160045260246000fd5b7f4e487b7100000000000000000000000000000000000000000000000000000000600052602260045260246000fd5b600060028204905060018216806200076d57607f821691505b60208210810362000783576200078262000725565b5b50919050565b60008190508160005260206000209050919050565b60006020601f8301049050919050565b600082821b905092915050565b600060088302620007ed7fffffffffffffffffffffffffffffffffffffffffffffffffffffffffffffffff82620007ae565b620007f98683620007ae565b95508019841693508086168417925050509392505050565b6000819050919050565b60006200083c6200083662000830846200067e565b62000811565b6200067e565b9050919050565b6000819050919050565b62000858836200081b565b62000870620008678262000843565b848454620007bb565b825550505050565b600090565b6200088762000878565b620008948184846200084d565b505050565b5b81811015620008bc57620008b06000826200087d565b6001810190506200089a565b5050565b601f8211156200090b57620008d58162000789565b620008e0846200079e565b81016020851015620008f0578190505b62000908620008ff856200079e565b83018262000899565b50505b505050565b600082821c905092915050565b6000620009306000198460080262000910565b1980831691505092915050565b60006200094b83836200091d565b9150826002028217905092915050565b6200096682620006eb565b67ffffffffffffffff811115620009825762000981620006f6565b5b6200098e825462000754565b6200099b828285620008c0565b600060209050601f831160018114620009d35760008415620009be578287015190505b620009ca85826200093d565b86555062000a3a565b601f198416620009e38662000789565b60005b8281101562000a0d57848901518255600182019150602085019450602081019050620009e6565b8683101562000a2d578489015162000a29601f8916826200091d565b8355505b6001600288020188555050505b505050505050565b600073ffffffffffffffffffffffffffffffffffffffff82169050919050565b600062000a6f8262000a42565b9050919050565b62000a818162000a62565b811462000a8d57600080fd5b50565b60008151905062000aa18162000a76565b92915050565b60006020828403121562000ac05762000abf62000679565b5b600062000ad08482850162000a90565b91505092915050565b62000ae48162000a62565b82525050565b600060408201905062000b01600083018562000ad9565b62000b10602083018462000ad9565b9392505050565b600082825260208201905092915050565b7f45524332303a206d696e7420746f20746865207a65726f206164647265737300600082015250565b600062000b60601f8362000b17565b915062000b6d8262000b28565b602082019050919050565b6000602082019050818103600083015262000b938162000b51565b9050919050565b7f4e487b7100000000000000000000000000000000000000000000000000000000600052601160045260246000fd5b600062000bd6826200067e565b915062000be3836200067e565b925082820190508082111562000bfe5762000bfd62000b9a565b5b92915050565b62000c0f816200067e565b82525050565b600060208201905062000c2c600083018462000c04565b92915050565b60005b8381101562000c5257808201518184015260208101905062000c35565b60008484015250505050565b6000601f19601f8301169050919050565b600062000c7c82620006eb565b62000c88818562000b17565b935062000c9a81856020860162000c32565b62000ca58162000c5e565b840191505092915050565b6000602082019050818103600083015262000ccc818462000c6f565b905092915050565b7f4e487b7100000000000000000000000000000000000000000000000000000000600052601260045260246000fd5b600062000d10826200067e565b915062000d1d836200067e565b92508262000d305762000d2f62000cd4565b5b828204905092915050565b6123ad8062000d4b6000396000f3fe608060405234801561001057600080fd5b506004361061014d5760003560e01c806374010ece116100c3578063a457c2d71161007c578063a457c2d71461037e578063a9059cbb146103ae578063dc1052e2146103de578063dd62ed3e146103fa578063ea1644d51461042a578063f2fde38b146104465761014d565b806374010ece146102ce5780637d1db4a5146102ea5780638cd09d50146103085780638da5cb5b146103245780638f9a55c01461034257806395d89b41146103605761014d565b806323b872dd1161011557806323b872dd146101f8578063313ce56714610228578063395093511461024657806349bd5a5e1461027657806370a0823114610294578063715018a6146102c45761014d565b806306fdde0314610152578063095ea7b3146101705780631525ff7d146101a05780631694505e146101bc57806318160ddd146101da575b600080fd5b61015a610462565b604051610167919061187b565b60405180910390f35b61018a60048036038101906101859190611936565b6104f4565b6040516101979190611991565b60405180910390f35b6101ba60048036038101906101b591906119ac565b610517565b005b6101c46105f2565b6040516101d19190611a38565b60405180910390f35b6101e2610618565b6040516101ef9190611a62565b60405180910390f35b610212600480360381019061020d9190611a7d565b610622565b60405161021f9190611991565b60405180910390f35b610230610651565b60405161023d9190611aec565b60405180910390f35b610260600480360381019061025b9190611936565b61065a565b60405161026d9190611991565b60405180910390f35b61027e610691565b60405161028b9190611b16565b60405180910390f35b6102ae60048036038101906102a991906119ac565b6106b7565b6040516102bb9190611a62565b60405180910390f35b6102cc6106ff565b005b6102e860048036038101906102e39190611b31565b610857565b005b6102f26108f8565b6040516102ff9190611a62565b60405180910390f35b610322600480360381019061031d9190611b31565b6108fe565b005b61032c61099f565b6040516103399190611b16565b60405180910390f35b61034a6109c9565b6040516103579190611a62565b60405180910390f35b6103686109cf565b604051610375919061187b565b60405180910390f35b61039860048036038101906103939190611936565b610a61565b6040516103a59190611991565b60405180910390f35b6103c860048036038101906103c39190611936565b610ad8565b6040516103d59190611991565b60405180910390f35b6103f860048036038101906103f39190611b31565b610afb565b005b610414600480360381019061040f9190611b5e565b610b9c565b6040516104219190611a62565b60405180910390f35b610444600480360381019061043f9190611b31565b610c23565b005b610460600480360381019061045b91906119ac565b610cc4565b005b60606003805461047190611bcd565b80601f016020809104026020016040519081016040528092919081815260200182805461049d90611bcd565b80156104ea5780601f106104bf576101008083540402835291602001916104ea565b820191906000526020600020905b8154815290600101906020018083116104cd57829003601f168201915b5050505050905090565b6000806104ff610ed4565b905061050c818585610edc565b600191505092915050565b61051f610ed4565b73ffffffffffffffffffffffffffffffffffffffff16600560009054906101000a900473ffffffffffffffffffffffffffffffffffffffff1673ffffffffffffffffffffffffffffffffffffffff16146105ae576040517f08c379a00000000000000000000000000000000000000000000000000000000081526004016105a590611c4a565b60405180910390fd5b80600d60006101000a81548173ffffffffffffffffffffffffffffffffffffffff021916908373ffffffffffffffffffffffffffffffffffffffff16021790555050565b600760009054906101000a900473ffffffffffffffffffffffffffffffffffffffff1681565b6000600254905090565b60008061062d610ed4565b905061063a8582856110a5565b610645858585611131565b60019150509392505050565b60006012905090565b600080610665610ed4565b90506106868185856106778589610b9c565b6106819190611c99565b610edc565b600191505092915050565b600860009054906101000a900473ffffffffffffffffffffffffffffffffffffffff1681565b60008060008373ffffffffffffffffffffffffffffffffffffffff1673ffffffffffffffffffffffffffffffffffffffff168152602001908152602001600020549050919050565b610707610ed4565b73ffffffffffffffffffffffffffffffffffffffff16600560009054906101000a900473ffffffffffffffffffffffffffffffffffffffff1673ffffffffffffffffffffffffffffffffffffffff1614610796576040517f08c379a000000000000000000000000000000000000000000000000000000000815260040161078d90611c4a565b60405180910390fd5b600073ffffffffffffffffffffffffffffffffffffffff16600560009054906101000a900473ffffffffffffffffffffffffffffffffffffffff1673ffffffffffffffffffffffffffffffffffffffff167f8be0079c531659141344cd1fd0a4f28419497f9722a3daafe3b4186f6b6457e060405160405180910390a36000600560006101000a81548173ffffffffffffffffffffffffffffffffffffffff021916908373ffffffffffffffffffffffffffffffffffffffff160217905550565b61085f610ed4565b73ffffffffffffffffffffffffffffffffffffffff16600560009054906101000a900473ffffffffffffffffffffffffffffffffffffffff1673ffffffffffffffffffffffffffffffffffffffff16146108ee576040517f08c379a00000000000000000000000000000000000000000000000000000000081526004016108e590611c4a565b60405180910390fd5b8060098190555050565b60095481565b610906610ed4565b73ffffffffffffffffffffffffffffffffffffffff16600560009054906101000a900473ffffffffffffffffffffffffffffffffffffffff1673ffffffffffffffffffffffffffffffffffffffff1614610995576040517f08c379a000000000000000000000000000000000000000000000000000000000815260040161098c90611c4a565b60405180910390fd5b80600c8190555050565b6000600560009054906101000a900473ffffffffffffffffffffffffffffffffffffffff16905090565b600a5481565b6060600480546109de90611bcd565b80601f0160208091040260200160405190810160405280929190818152602001828054610a0a90611bcd565b8015610a575780601f10610a2c57610100808354040283529160200191610a57565b820191906000526020600020905b815481529060010190602001808311610a3a57829003601f168201915b5050505050905090565b600080610a6c610ed4565b90506000610a7a8286610b9c565b905083811015610abf576040517f08c379a0000000000000000000000000000000000000000000000000000000008152600401610ab690611d3f565b60405180910390fd5b610acc8286868403610edc565b60019250505092915050565b600080610ae3610ed4565b9050610af0818585611131565b600191505092915050565b610b03610ed4565b73ffffffffffffffffffffffffffffffffffffffff16600560009054906101000a900473ffffffffffffffffffffffffffffffffffffffff1673ffffffffffffffffffffffffffffffffffffffff1614610b92576040517f08c379a0000000000000000000000000000000000000000000000000000000008152600401610b8990611c4a565b60405180910390fd5b80600b8190555050565b6000600160008473ffffffffffffffffffffffffffffffffffffffff1673ffffffffffffffffffffffffffffffffffffffff16815260200190815260200160002060008373ffffffffffffffffffffffffffffffffffffffff1673ffffffffffffffffffffffffffffffffffffffff16815260200190815260200160002054905092915050565b610c2b610ed4565b73ffffffffffffffffffffffffffffffffffffffff16600560009054906101000a900473ffffffffffffffffffffffffffffffffffffffff1673ffffffffffffffffffffffffffffffffffffffff1614610cba576040517f08c379a0000000000000000000000000000000000000000000000000000000008152600401610cb190611c4a565b60405180910390fd5b80600a8190555050565b610ccc610ed4565b73ffffffffffffffffffffffffffffffffffffffff16600560009054906101000a900473ffffffffffffffffffffffffffffffffffffffff1673ffffffffffffffffffffffffffffffffffffffff1614610d5b576040517f08c379a0000000000000000000000000000000000000000000000000000000008152600401610d5290611c4a565b60405180910390fd5b600073ffffffffffffffffffffffffffffffffffffffff168173ffffffffffffffffffffffffffffffffffffffff1603610dca576040517f08c379a0000000000000000000000000000000000000000000000000000000008152600401610dc190611dd1565b60405180910390fd5b8073ffffffffffffffffffffffffffffffffffffffff16600560009054906101000a900473ffffffffffffffffffffffffffffffffffffffff1673ffffffffffffffffffffffffffffffffffffffff167f8be0079c531659141344cd1fd0a4f28419497f9722a3daafe3b4186f6b6457e060405160405180910390a380600560006101000a81548173ffffffffffffffffffffffffffffffffffffffff021916908373ffffffffffffffffffffffffffffffffffffffff16021790555050565b6000610ecc83836040518060400160405280601a81526020017f536166654d6174683a206469766973696f6e206279207a65726f00000000000081525061148e565b905092915050565b600033905090565b600073ffffffffffffffffffffffffffffffffffffffff168373ffffffffffffffffffffffffffffffffffffffff1603610f4b576040517f08c379a0000000000000000000000000000000000000000000000000000000008152600401610f4290611e63565b60405180910390fd5b600073ffffffffffffffffffffffffffffffffffffffff168273ffffffffffffffffffffffffffffffffffffffff1603610fba576040517f08c379a0000000000000000000000000000000000000000000000000000000008152600401610fb190611ef5565b60405180910390fd5b80600160008573ffffffffffffffffffffffffffffffffffffffff1673ffffffffffffffffffffffffffffffffffffffff16815260200190815260200160002060008473ffffffffffffffffffffffffffffffffffffffff1673ffffffffffffffffffffffffffffffffffffffff168152602001908152602001600020819055508173ffffffffffffffffffffffffffffffffffffffff168373ffffffffffffffffffffffffffffffffffffffff167f8c5be1e5ebec7d5bd14f71427d1e84f3dd0314c0f7b2291e5b200ac8c7c3b925836040516110989190611a62565b60405180910390a3505050565b60006110b18484610b9c565b90507fffffffffffffffffffffffffffffffffffffffffffffffffffffffffffffffff811461112b578181101561111d576040517f08c379a000000000000000000000000000000000000000000000000000000000815260040161111490611f61565b60405180910390fd5b61112a8484848403610edc565b5b50505050565b6000600954821115611178576040517f08c379a000000000000000000000000000000000000000000000000000000000815260040161116f90611fcd565b60405180910390fd5b600a5482611185856106b7565b61118f9190611c99565b106111cf576040517f08c379a00000000000000000000000000000000000000000000000000000000081526004016111c690612039565b60405180910390fd5b600860009054906101000a900473ffffffffffffffffffffffffffffffffffffffff1673ffffffffffffffffffffffffffffffffffffffff168473ffffffffffffffffffffffffffffffffffffffff160361128b5761124c606461123e600b54856114f190919063ffffffff16565b610e8a90919063ffffffff16565b905061125984308361156b565b61128630600860009054906101000a900473ffffffffffffffffffffffffffffffffffffffff168361156b565b611472565b600860009054906101000a900473ffffffffffffffffffffffffffffffffffffffff1673ffffffffffffffffffffffffffffffffffffffff168373ffffffffffffffffffffffffffffffffffffffff160361133c5761130860646112fa600c54856114f190919063ffffffff16565b610e8a90919063ffffffff16565b905061133784600d60009054906101000a900473ffffffffffffffffffffffffffffffffffffffff168361156b565b611471565b61134461099f565b73ffffffffffffffffffffffffffffffffffffffff168473ffffffffffffffffffffffffffffffffffffffff1614806113af575061138061099f565b73ffffffffffffffffffffffffffffffffffffffff168373ffffffffffffffffffffffffffffffffffffffff16145b806114075750600d60009054906101000a900473ffffffffffffffffffffffffffffffffffffffff1673ffffffffffffffffffffffffffffffffffffffff168473ffffffffffffffffffffffffffffffffffffffff16145b8061145f5750600d60009054906101000a900473ffffffffffffffffffffffffffffffffffffffff1673ffffffffffffffffffffffffffffffffffffffff168373ffffffffffffffffffffffffffffffffffffffff16145b156114705761146f84848461156b565b5b5b5b611488848483856114839190612059565b61156b565b50505050565b600080831182906114d5576040517f08c379a00000000000000000000000000000000000000000000000000000000081526004016114cc919061187b565b60405180910390fd5b50600083856114e491906120bc565b9050809150509392505050565b60008083036115035760009050611565565b6000828461151191906120ed565b905082848261152091906120bc565b14611560576040517f08c379a0000000000000000000000000000000000000000000000000000000008152600401611557906121a1565b60405180910390fd5b809150505b92915050565b600073ffffffffffffffffffffffffffffffffffffffff168373ffffffffffffffffffffffffffffffffffffffff16036115da576040517f08c379a00000000000000000000000000000000000000000000000000000000081526004016115d190612233565b60405180910390fd5b600073ffffffffffffffffffffffffffffffffffffffff168273ffffffffffffffffffffffffffffffffffffffff1603611649576040517f08c379a0000000000000000000000000000000000000000000000000000000008152600401611640906122c5565b60405180910390fd5b6116548383836117e1565b60008060008573ffffffffffffffffffffffffffffffffffffffff1673ffffffffffffffffffffffffffffffffffffffff168152602001908152602001600020549050818110156116da576040517f08c379a00000000000000000000000000000000000000000000000000000000081526004016116d190612357565b60405180910390fd5b8181036000808673ffffffffffffffffffffffffffffffffffffffff1673ffffffffffffffffffffffffffffffffffffffff16815260200190815260200160002081905550816000808573ffffffffffffffffffffffffffffffffffffffff1673ffffffffffffffffffffffffffffffffffffffff168152602001908152602001600020600082825401925050819055508273ffffffffffffffffffffffffffffffffffffffff168473ffffffffffffffffffffffffffffffffffffffff167fddf252ad1be2c89b69c2b068fc378daa952ba7f163c4a11628f55a4df523b3ef846040516117c89190611a62565b60405180910390a36117db8484846117e6565b50505050565b505050565b505050565b600081519050919050565b600082825260208201905092915050565b60005b8381101561182557808201518184015260208101905061180a565b60008484015250505050565b6000601f19601f8301169050919050565b600061184d826117eb565b61185781856117f6565b9350611867818560208601611807565b61187081611831565b840191505092915050565b600060208201905081810360008301526118958184611842565b905092915050565b600080fd5b600073ffffffffffffffffffffffffffffffffffffffff82169050919050565b60006118cd826118a2565b9050919050565b6118dd816118c2565b81146118e857600080fd5b50565b6000813590506118fa816118d4565b92915050565b6000819050919050565b61191381611900565b811461191e57600080fd5b50565b6000813590506119308161190a565b92915050565b6000806040838503121561194d5761194c61189d565b5b600061195b858286016118eb565b925050602061196c85828601611921565b9150509250929050565b60008115159050919050565b61198b81611976565b82525050565b60006020820190506119a66000830184611982565b92915050565b6000602082840312156119c2576119c161189d565b5b60006119d0848285016118eb565b91505092915050565b6000819050919050565b60006119fe6119f96119f4846118a2565b6119d9565b6118a2565b9050919050565b6000611a10826119e3565b9050919050565b6000611a2282611a05565b9050919050565b611a3281611a17565b82525050565b6000602082019050611a4d6000830184611a29565b92915050565b611a5c81611900565b82525050565b6000602082019050611a776000830184611a53565b92915050565b600080600060608486031215611a9657611a9561189d565b5b6000611aa4868287016118eb565b9350506020611ab5868287016118eb565b9250506040611ac686828701611921565b9150509250925092565b600060ff82169050919050565b611ae681611ad0565b82525050565b6000602082019050611b016000830184611add565b92915050565b611b10816118c2565b82525050565b6000602082019050611b2b6000830184611b07565b92915050565b600060208284031215611b4757611b4661189d565b5b6000611b5584828501611921565b91505092915050565b60008060408385031215611b7557611b7461189d565b5b6000611b83858286016118eb565b9250506020611b94858286016118eb565b9150509250929050565b7f4e487b7100000000000000000000000000000000000000000000000000000000600052602260045260246000fd5b60006002820490506001821680611be557607f821691505b602082108103611bf857611bf7611b9e565b5b50919050565b7f4f776e61626c653a2063616c6c6572206973206e6f7420746865206f776e6572600082015250565b6000611c346020836117f6565b9150611c3f82611bfe565b602082019050919050565b60006020820190508181036000830152611c6381611c27565b9050919050565b7f4e487b7100000000000000000000000000000000000000000000000000000000600052601160045260246000fd5b6000611ca482611900565b9150611caf83611900565b9250828201905080821115611cc757611cc6611c6a565b5b92915050565b7f45524332303a2064656372656173656420616c6c6f77616e63652062656c6f7760008201527f207a65726f000000000000000000000000000000000000000000000000000000602082015250565b6000611d296025836117f6565b9150611d3482611ccd565b604082019050919050565b60006020820190508181036000830152611d5881611d1c565b9050919050565b7f4f776e61626c653a206e6577206f776e657220697320746865207a65726f206160008201527f6464726573730000000000000000000000000000000000000000000000000000602082015250565b6000611dbb6026836117f6565b9150611dc682611d5f565b604082019050919050565b60006020820190508181036000830152611dea81611dae565b9050919050565b7f45524332303a20617070726f76652066726f6d20746865207a65726f2061646460008201527f7265737300000000000000000000000000000000000000000000000000000000602082015250565b6000611e4d6024836117f6565b9150611e5882611df1565b604082019050919050565b60006020820190508181036000830152611e7c81611e40565b9050919050565b7f45524332303a20617070726f766520746f20746865207a65726f20616464726560008201527f7373000000000000000000000000000000000000000000000000000000000000602082015250565b6000611edf6022836117f6565b9150611eea82611e83565b604082019050919050565b60006020820190508181036000830152611f0e81611ed2565b9050919050565b7f45524332303a20696e73756666696369656e7420616c6c6f77616e6365000000600082015250565b6000611f4b601d836117f6565b9150611f5682611f15565b602082019050919050565b60006020820190508181036000830152611f7a81611f3e565b9050919050565b7f544f4b454e3a204d6178205472616e73616374696f6e204c696d697400000000600082015250565b6000611fb7601c836117f6565b9150611fc282611f81565b602082019050919050565b60006020820190508181036000830152611fe681611faa565b9050919050565b7f544f4b454e3a204d61782057616c6c65742053697a6500000000000000000000600082015250565b60006120236016836117f6565b915061202e82611fed565b602082019050919050565b6000602082019050818103600083015261205281612016565b9050919050565b600061206482611900565b915061206f83611900565b925082820390508181111561208757612086611c6a565b5b92915050565b7f4e487b7100000000000000000000000000000000000000000000000000000000600052601260045260246000fd5b60006120c782611900565b91506120d283611900565b9250826120e2576120e161208d565b5b828204905092915050565b60006120f882611900565b915061210383611900565b925082820261211181611900565b9150828204841483151761212857612127611c6a565b5b5092915050565b7f536166654d6174683a206d756c7469706c69636174696f6e206f766572666c6f60008201527f7700000000000000000000000000000000000000000000000000000000000000602082015250565b600061218b6021836117f6565b91506121968261212f565b604082019050919050565b600060208201905081810360008301526121ba8161217e565b9050919050565b7f45524332303a207472616e736665722066726f6d20746865207a65726f20616460008201527f6472657373000000000000000000000000000000000000000000000000000000602082015250565b600061221d6025836117f6565b9150612228826121c1565b604082019050919050565b6000602082019050818103600083015261224c81612210565b9050919050565b7f45524332303a207472616e7366657220746f20746865207a65726f206164647260008201527f6573730000000000000000000000000000000000000000000000000000000000602082015250565b60006122af6023836117f6565b91506122ba82612253565b604082019050919050565b600060208201905081810360008301526122de816122a2565b9050919050565b7f45524332303a207472616e7366657220616d6f756e742065786365656473206260008201527f616c616e63650000000000000000000000000000000000000000000000000000602082015250565b60006123416026836117f6565b915061234c826122e5565b604082019050919050565b6000602082019050818103600083015261237081612334565b905091905056fea2646970667358221220d777f0c4dce423cb21d7fa49f86bbe2438119fada5c330777af1df166954594c64736f6c63430008120033",
  "devdoc": {
    "events": {
      "Approval(address,address,uint256)": {
        "details": "Emitted when the allowance of a `spender` for an `owner` is set by a call to {approve}. `value` is the new allowance."
      },
      "Transfer(address,address,uint256)": {
        "details": "Emitted when `value` tokens are moved from one account (`from`) to another (`to`). Note that `value` may be zero."
      }
    },
    "kind": "dev",
    "methods": {
      "allowance(address,address)": {
        "details": "See {IERC20-allowance}."
      },
      "approve(address,uint256)": {
        "details": "See {IERC20-approve}. NOTE: If `amount` is the maximum `uint256`, the allowance is not updated on `transferFrom`. This is semantically equivalent to an infinite approval. Requirements: - `spender` cannot be the zero address."
      },
      "balanceOf(address)": {
        "details": "See {IERC20-balanceOf}."
      },
      "decimals()": {
        "details": "Returns the number of decimals used to get its user representation. For example, if `decimals` equals `2`, a balance of `505` tokens should be displayed to a user as `5.05` (`505 / 10 ** 2`). Tokens usually opt for a value of 18, imitating the relationship between Ether and Wei. This is the default value returned by this function, unless it's overridden. NOTE: This information is only used for _display_ purposes: it in no way affects any of the arithmetic of the contract, including {IERC20-balanceOf} and {IERC20-transfer}."
      },
      "decreaseAllowance(address,uint256)": {
        "details": "Atomically decreases the allowance granted to `spender` by the caller. This is an alternative to {approve} that can be used as a mitigation for problems described in {IERC20-approve}. Emits an {Approval} event indicating the updated allowance. Requirements: - `spender` cannot be the zero address. - `spender` must have allowance for the caller of at least `subtractedValue`."
      },
      "increaseAllowance(address,uint256)": {
        "details": "Atomically increases the allowance granted to `spender` by the caller. This is an alternative to {approve} that can be used as a mitigation for problems described in {IERC20-approve}. Emits an {Approval} event indicating the updated allowance. Requirements: - `spender` cannot be the zero address."
      },
      "name()": {
        "details": "Returns the name of the token."
      },
      "symbol()": {
        "details": "Returns the symbol of the token, usually a shorter version of the name."
      },
      "totalSupply()": {
        "details": "See {IERC20-totalSupply}."
      },
      "transfer(address,uint256)": {
        "details": "See {IERC20-transfer}. Requirements: - `to` cannot be the zero address. - the caller must have a balance of at least `amount`."
      },
      "transferFrom(address,address,uint256)": {
        "details": "See {IERC20-transferFrom}. Emits an {Approval} event indicating the updated allowance. This is not required by the EIP. See the note at the beginning of {ERC20}. NOTE: Does not update the allowance if the current allowance is the maximum `uint256`. Requirements: - `from` and `to` cannot be the zero address. - `from` must have a balance of at least `amount`. - the caller must have allowance for ``from``'s tokens of at least `amount`."
      }
    },
    "version": 1
  },
  "userdoc": {
    "kind": "user",
    "methods": {},
    "version": 1
  },
  "storageLayout": {
    "storage": [
      {
        "astId": 377,
        "contract": "contracts/GMUSSY.sol:GMUSSY",
        "label": "_balances",
        "offset": 0,
        "slot": "0",
        "type": "t_mapping(t_address,t_uint256)"
      },
      {
        "astId": 383,
        "contract": "contracts/GMUSSY.sol:GMUSSY",
        "label": "_allowances",
        "offset": 0,
        "slot": "1",
        "type": "t_mapping(t_address,t_mapping(t_address,t_uint256))"
      },
      {
        "astId": 385,
        "contract": "contracts/GMUSSY.sol:GMUSSY",
        "label": "_totalSupply",
        "offset": 0,
        "slot": "2",
        "type": "t_uint256"
      },
      {
        "astId": 387,
        "contract": "contracts/GMUSSY.sol:GMUSSY",
        "label": "_name",
        "offset": 0,
        "slot": "3",
        "type": "t_string_storage"
      },
      {
        "astId": 389,
        "contract": "contracts/GMUSSY.sol:GMUSSY",
        "label": "_symbol",
        "offset": 0,
        "slot": "4",
        "type": "t_string_storage"
      },
      {
        "astId": 24,
        "contract": "contracts/GMUSSY.sol:GMUSSY",
        "label": "_owner",
        "offset": 0,
        "slot": "5",
        "type": "t_address"
      },
      {
        "astId": 26,
        "contract": "contracts/GMUSSY.sol:GMUSSY",
        "label": "_previousOwner",
        "offset": 0,
        "slot": "6",
        "type": "t_address"
      },
      {
        "astId": 1656,
        "contract": "contracts/GMUSSY.sol:GMUSSY",
        "label": "uniswapV2Router",
        "offset": 0,
        "slot": "7",
        "type": "t_contract(IUniswapV2Router02)1585"
      },
      {
        "astId": 1658,
        "contract": "contracts/GMUSSY.sol:GMUSSY",
        "label": "uniswapV2Pair",
        "offset": 0,
        "slot": "8",
        "type": "t_address"
      },
      {
        "astId": 1670,
        "contract": "contracts/GMUSSY.sol:GMUSSY",
        "label": "_maxTxAmount",
        "offset": 0,
        "slot": "9",
        "type": "t_uint256"
      },
      {
        "astId": 1677,
        "contract": "contracts/GMUSSY.sol:GMUSSY",
        "label": "_maxWalletSize",
        "offset": 0,
        "slot": "10",
        "type": "t_uint256"
      },
      {
        "astId": 1680,
        "contract": "contracts/GMUSSY.sol:GMUSSY",
        "label": "_buyTax",
        "offset": 0,
        "slot": "11",
        "type": "t_uint256"
      },
      {
        "astId": 1683,
        "contract": "contracts/GMUSSY.sol:GMUSSY",
        "label": "_sellTax",
        "offset": 0,
        "slot": "12",
        "type": "t_uint256"
      },
      {
        "astId": 1685,
        "contract": "contracts/GMUSSY.sol:GMUSSY",
        "label": "_teamWallet",
        "offset": 0,
        "slot": "13",
        "type": "t_address_payable"
      }
    ],
    "types": {
      "t_address": {
        "encoding": "inplace",
        "label": "address",
        "numberOfBytes": "20"
      },
      "t_address_payable": {
        "encoding": "inplace",
        "label": "address payable",
        "numberOfBytes": "20"
      },
      "t_contract(IUniswapV2Router02)1585": {
        "encoding": "inplace",
        "label": "contract IUniswapV2Router02",
        "numberOfBytes": "20"
      },
      "t_mapping(t_address,t_mapping(t_address,t_uint256))": {
        "encoding": "mapping",
        "key": "t_address",
        "label": "mapping(address => mapping(address => uint256))",
        "numberOfBytes": "32",
        "value": "t_mapping(t_address,t_uint256)"
      },
      "t_mapping(t_address,t_uint256)": {
        "encoding": "mapping",
        "key": "t_address",
        "label": "mapping(address => uint256)",
        "numberOfBytes": "32",
        "value": "t_uint256"
      },
      "t_string_storage": {
        "encoding": "bytes",
        "label": "string",
        "numberOfBytes": "32"
      },
      "t_uint256": {
        "encoding": "inplace",
        "label": "uint256",
        "numberOfBytes": "32"
      }
    }
  }
}