{
  "address": "0x90b177685EddC0FCeae166d13C4C5f19C66109c7",
  "abi": [
    {
      "inputs": [
        {
          "internalType": "uint256",
          "name": "_totalSupply",
          "type": "uint256"
        }
      ],
      "stateMutability": "nonpayable",
      "type": "constructor"
    },
    {
      "anonymous": false,
      "inputs": [
        {
          "indexed": true,
          "internalType": "address",
          "name": "owner",
          "type": "address"
        },
        {
          "indexed": true,
          "internalType": "address",
          "name": "spender",
          "type": "address"
        },
        {
          "indexed": false,
          "internalType": "uint256",
          "name": "value",
          "type": "uint256"
        }
      ],
      "name": "Approval",
      "type": "event"
    },
    {
      "anonymous": false,
      "inputs": [
        {
          "indexed": true,
          "internalType": "address",
          "name": "previousOwner",
          "type": "address"
        },
        {
          "indexed": true,
          "internalType": "address",
          "name": "newOwner",
          "type": "address"
        }
      ],
      "name": "OwnershipTransferred",
      "type": "event"
    },
    {
      "anonymous": false,
      "inputs": [
        {
          "indexed": true,
          "internalType": "address",
          "name": "from",
          "type": "address"
        },
        {
          "indexed": true,
          "internalType": "address",
          "name": "to",
          "type": "address"
        },
        {
          "indexed": false,
          "internalType": "uint256",
          "name": "value",
          "type": "uint256"
        }
      ],
      "name": "Transfer",
      "type": "event"
    },
    {
      "inputs": [
        {
          "internalType": "address",
          "name": "owner",
          "type": "address"
        },
        {
          "internalType": "address",
          "name": "spender",
          "type": "address"
        }
      ],
      "name": "allowance",
      "outputs": [
        {
          "internalType": "uint256",
          "name": "",
          "type": "uint256"
        }
      ],
      "stateMutability": "view",
      "type": "function"
    },
    {
      "inputs": [
        {
          "internalType": "address",
          "name": "spender",
          "type": "address"
        },
        {
          "internalType": "uint256",
          "name": "amount",
          "type": "uint256"
        }
      ],
      "name": "approve",
      "outputs": [
        {
          "internalType": "bool",
          "name": "",
          "type": "bool"
        }
      ],
      "stateMutability": "nonpayable",
      "type": "function"
    },
    {
      "inputs": [
        {
          "internalType": "address",
          "name": "account",
          "type": "address"
        }
      ],
      "name": "balanceOf",
      "outputs": [
        {
          "internalType": "uint256",
          "name": "",
          "type": "uint256"
        }
      ],
      "stateMutability": "view",
      "type": "function"
    },
    {
      "inputs": [
        {
          "internalType": "address",
          "name": "",
          "type": "address"
        }
      ],
      "name": "bots",
      "outputs": [
        {
          "internalType": "bool",
          "name": "",
          "type": "bool"
        }
      ],
      "stateMutability": "view",
      "type": "function"
    },
    {
      "inputs": [
        {
          "internalType": "uint256",
          "name": "value",
          "type": "uint256"
        }
      ],
      "name": "burn",
      "outputs": [],
      "stateMutability": "nonpayable",
      "type": "function"
    },
    {
      "inputs": [],
      "name": "decimals",
      "outputs": [
        {
          "internalType": "uint8",
          "name": "",
          "type": "uint8"
        }
      ],
      "stateMutability": "view",
      "type": "function"
    },
    {
      "inputs": [
        {
          "internalType": "address",
          "name": "spender",
          "type": "address"
        },
        {
          "internalType": "uint256",
          "name": "subtractedValue",
          "type": "uint256"
        }
      ],
      "name": "decreaseAllowance",
      "outputs": [
        {
          "internalType": "bool",
          "name": "",
          "type": "bool"
        }
      ],
      "stateMutability": "nonpayable",
      "type": "function"
    },
    {
      "inputs": [],
      "name": "enabled",
      "outputs": [
        {
          "internalType": "bool",
          "name": "",
          "type": "bool"
        }
      ],
      "stateMutability": "view",
      "type": "function"
    },
    {
      "inputs": [
        {
          "internalType": "address",
          "name": "spender",
          "type": "address"
        },
        {
          "internalType": "uint256",
          "name": "addedValue",
          "type": "uint256"
        }
      ],
      "name": "increaseAllowance",
      "outputs": [
        {
          "internalType": "bool",
          "name": "",
          "type": "bool"
        }
      ],
      "stateMutability": "nonpayable",
      "type": "function"
    },
    {
      "inputs": [
        {
          "internalType": "address",
          "name": "",
          "type": "address"
        }
      ],
      "name": "lastTxBlockNumber",
      "outputs": [
        {
          "internalType": "uint256",
          "name": "",
          "type": "uint256"
        }
      ],
      "stateMutability": "view",
      "type": "function"
    },
    {
      "inputs": [],
      "name": "maxTx",
      "outputs": [
        {
          "internalType": "uint256",
          "name": "",
          "type": "uint256"
        }
      ],
      "stateMutability": "view",
      "type": "function"
    },
    {
      "inputs": [],
      "name": "maxWallet",
      "outputs": [
        {
          "internalType": "uint256",
          "name": "",
          "type": "uint256"
        }
      ],
      "stateMutability": "view",
      "type": "function"
    },
    {
      "inputs": [],
      "name": "name",
      "outputs": [
        {
          "internalType": "string",
          "name": "",
          "type": "string"
        }
      ],
      "stateMutability": "view",
      "type": "function"
    },
    {
      "inputs": [],
      "name": "owner",
      "outputs": [
        {
          "internalType": "address",
          "name": "",
          "type": "address"
        }
      ],
      "stateMutability": "view",
      "type": "function"
    },
    {
      "inputs": [],
      "name": "renounceOwnership",
      "outputs": [],
      "stateMutability": "nonpayable",
      "type": "function"
    },
    {
      "inputs": [
        {
          "internalType": "address",
          "name": "_address",
          "type": "address"
        },
        {
          "internalType": "bool",
          "name": "_isBot",
          "type": "bool"
        }
      ],
      "name": "setBot",
      "outputs": [],
      "stateMutability": "nonpayable",
      "type": "function"
    },
    {
      "inputs": [
        {
          "internalType": "bool",
          "name": "_enabled",
          "type": "bool"
        },
        {
          "internalType": "address",
          "name": "_uniswapV2Pair",
          "type": "address"
        },
        {
          "internalType": "address",
          "name": "_teamWallet",
          "type": "address"
        },
        {
          "internalType": "uint256",
          "name": "_maxWallet",
          "type": "uint256"
        },
        {
          "internalType": "uint256",
          "name": "_maxTx",
          "type": "uint256"
        }
      ],
      "name": "setVars",
      "outputs": [],
      "stateMutability": "nonpayable",
      "type": "function"
    },
    {
      "inputs": [],
      "name": "symbol",
      "outputs": [
        {
          "internalType": "string",
          "name": "",
          "type": "string"
        }
      ],
      "stateMutability": "view",
      "type": "function"
    },
    {
      "inputs": [],
      "name": "totalSupply",
      "outputs": [
        {
          "internalType": "uint256",
          "name": "",
          "type": "uint256"
        }
      ],
      "stateMutability": "view",
      "type": "function"
    },
    {
      "inputs": [
        {
          "internalType": "address",
          "name": "recipient",
          "type": "address"
        },
        {
          "internalType": "uint256",
          "name": "amount",
          "type": "uint256"
        }
      ],
      "name": "transfer",
      "outputs": [
        {
          "internalType": "bool",
          "name": "",
          "type": "bool"
        }
      ],
      "stateMutability": "nonpayable",
      "type": "function"
    },
    {
      "inputs": [
        {
          "internalType": "address",
          "name": "sender",
          "type": "address"
        },
        {
          "internalType": "address",
          "name": "recipient",
          "type": "address"
        },
        {
          "internalType": "uint256",
          "name": "amount",
          "type": "uint256"
        }
      ],
      "name": "transferFrom",
      "outputs": [
        {
          "internalType": "bool",
          "name": "",
          "type": "bool"
        }
      ],
      "stateMutability": "nonpayable",
      "type": "function"
    },
    {
      "inputs": [
        {
          "internalType": "address",
          "name": "newOwner",
          "type": "address"
        }
      ],
      "name": "transferOwnership",
      "outputs": [],
      "stateMutability": "nonpayable",
      "type": "function"
    },
    {
      "inputs": [],
      "name": "uniswapV2Pair",
      "outputs": [
        {
          "internalType": "address",
          "name": "",
          "type": "address"
        }
      ],
      "stateMutability": "view",
      "type": "function"
    }
  ],
  "transactionHash": "0x80c1cb98d5db47cb1990bae7e9b16a68b5cc1d6db925fb135312951f6d3657c9",
  "args": [
    "1123581321000000000000000000"
  ],
  "numDeployments": 2,
  "solcInputHash": "9db30a1118a2539f927874230f518933",
  "bytecode": "0x60806040526000600660006101000a81548160ff0219169083151502179055503480156200002c57600080fd5b50604051620038ba380380620038ba83398181016040528101906200005291906200074c565b6040518060400160405280600681526020017f474d5553535900000000000000000000000000000000000000000000000000008152506040518060400160405280600681526020017f474d555353590000000000000000000000000000000000000000000000000000815250620000de620000d26200011d60201b60201c565b6200012560201b60201c565b8160039081620000ef9190620009ee565b508060049081620001019190620009ee565b505050620001163382620001e960201b60201c565b5062000db8565b600033905090565b60008060009054906101000a900473ffffffffffffffffffffffffffffffffffffffff169050816000806101000a81548173ffffffffffffffffffffffffffffffffffffffff021916908373ffffffffffffffffffffffffffffffffffffffff1602179055508173ffffffffffffffffffffffffffffffffffffffff168173ffffffffffffffffffffffffffffffffffffffff167f8be0079c531659141344cd1fd0a4f28419497f9722a3daafe3b4186f6b6457e060405160405180910390a35050565b600073ffffffffffffffffffffffffffffffffffffffff168273ffffffffffffffffffffffffffffffffffffffff16036200025b576040517f08c379a0000000000000000000000000000000000000000000000000000000008152600401620002529062000b36565b60405180910390fd5b6200026f600083836200036260201b60201c565b806005600082825462000283919062000b87565b9250508190555080600160008473ffffffffffffffffffffffffffffffffffffffff1673ffffffffffffffffffffffffffffffffffffffff1681526020019081526020016000206000828254620002db919062000b87565b925050819055508173ffffffffffffffffffffffffffffffffffffffff16600073ffffffffffffffffffffffffffffffffffffffff167fddf252ad1be2c89b69c2b068fc378daa952ba7f163c4a11628f55a4df523b3ef8360405162000342919062000bd3565b60405180910390a36200035e600083836200069560201b60201c565b5050565b600b60008373ffffffffffffffffffffffffffffffffffffffff1673ffffffffffffffffffffffffffffffffffffffff16815260200190815260200160002060009054906101000a900460ff16158015620004075750600b60008473ffffffffffffffffffffffffffffffffffffffff1673ffffffffffffffffffffffffffffffffffffffff16815260200190815260200160002060009054906101000a900460ff16155b62000449576040517f08c379a0000000000000000000000000000000000000000000000000000000008152600401620004409062000c40565b60405180910390fd5b600073ffffffffffffffffffffffffffffffffffffffff16600960009054906101000a900473ffffffffffffffffffffffffffffffffffffffff1673ffffffffffffffffffffffffffffffffffffffff16036200056c57620004b06200069a60201b60201c565b73ffffffffffffffffffffffffffffffffffffffff168373ffffffffffffffffffffffffffffffffffffffff161480620005245750620004f56200069a60201b60201c565b73ffffffffffffffffffffffffffffffffffffffff168273ffffffffffffffffffffffffffffffffffffffff16145b62000566576040517f08c379a00000000000000000000000000000000000000000000000000000000081526004016200055d9062000cb2565b60405180910390fd5b62000690565b600660009054906101000a900460ff168015620005d65750600960009054906101000a900473ffffffffffffffffffffffffffffffffffffffff1673ffffffffffffffffffffffffffffffffffffffff168373ffffffffffffffffffffffffffffffffffffffff16145b156200068f5760075481111562000624576040517f08c379a00000000000000000000000000000000000000000000000000000000081526004016200061b9062000d24565b60405180910390fd5b600854816200063e84620006c360201b620009381760201c565b6200064a919062000b87565b11156200068e576040517f08c379a0000000000000000000000000000000000000000000000000000000008152600401620006859062000d96565b60405180910390fd5b5b5b505050565b505050565b60008060009054906101000a900473ffffffffffffffffffffffffffffffffffffffff16905090565b6000600160008373ffffffffffffffffffffffffffffffffffffffff1673ffffffffffffffffffffffffffffffffffffffff168152602001908152602001600020549050919050565b600080fd5b6000819050919050565b620007268162000711565b81146200073257600080fd5b50565b60008151905062000746816200071b565b92915050565b6000602082840312156200076557620007646200070c565b5b6000620007758482850162000735565b91505092915050565b600081519050919050565b7f4e487b7100000000000000000000000000000000000000000000000000000000600052604160045260246000fd5b7f4e487b7100000000000000000000000000000000000000000000000000000000600052602260045260246000fd5b600060028204905060018216806200080057607f821691505b602082108103620008165762000815620007b8565b5b50919050565b60008190508160005260206000209050919050565b60006020601f8301049050919050565b600082821b905092915050565b600060088302620008807fffffffffffffffffffffffffffffffffffffffffffffffffffffffffffffffff8262000841565b6200088c868362000841565b95508019841693508086168417925050509392505050565b6000819050919050565b6000620008cf620008c9620008c38462000711565b620008a4565b62000711565b9050919050565b6000819050919050565b620008eb83620008ae565b62000903620008fa82620008d6565b8484546200084e565b825550505050565b600090565b6200091a6200090b565b62000927818484620008e0565b505050565b5b818110156200094f576200094360008262000910565b6001810190506200092d565b5050565b601f8211156200099e5762000968816200081c565b620009738462000831565b8101602085101562000983578190505b6200099b620009928562000831565b8301826200092c565b50505b505050565b600082821c905092915050565b6000620009c360001984600802620009a3565b1980831691505092915050565b6000620009de8383620009b0565b9150826002028217905092915050565b620009f9826200077e565b67ffffffffffffffff81111562000a155762000a1462000789565b5b62000a218254620007e7565b62000a2e82828562000953565b600060209050601f83116001811462000a66576000841562000a51578287015190505b62000a5d8582620009d0565b86555062000acd565b601f19841662000a76866200081c565b60005b8281101562000aa05784890151825560018201915060208501945060208101905062000a79565b8683101562000ac0578489015162000abc601f891682620009b0565b8355505b6001600288020188555050505b505050505050565b600082825260208201905092915050565b7f45524332303a206d696e7420746f20746865207a65726f206164647265737300600082015250565b600062000b1e601f8362000ad5565b915062000b2b8262000ae6565b602082019050919050565b6000602082019050818103600083015262000b518162000b0f565b9050919050565b7f4e487b7100000000000000000000000000000000000000000000000000000000600052601160045260246000fd5b600062000b948262000711565b915062000ba18362000711565b925082820190508082111562000bbc5762000bbb62000b58565b5b92915050565b62000bcd8162000711565b82525050565b600060208201905062000bea600083018462000bc2565b92915050565b7f4d455620424f5421000000000000000000000000000000000000000000000000600082015250565b600062000c2860088362000ad5565b915062000c358262000bf0565b602082019050919050565b6000602082019050818103600083015262000c5b8162000c19565b9050919050565b7f74726164696e67206973206e6f74207374617274656400000000000000000000600082015250565b600062000c9a60168362000ad5565b915062000ca78262000c62565b602082019050919050565b6000602082019050818103600083015262000ccd8162000c8b565b9050919050565b7f4d4158205452414e53414354494f4e2100000000000000000000000000000000600082015250565b600062000d0c60108362000ad5565b915062000d198262000cd4565b602082019050919050565b6000602082019050818103600083015262000d3f8162000cfd565b9050919050565b7f4d41582057414c4c455421000000000000000000000000000000000000000000600082015250565b600062000d7e600b8362000ad5565b915062000d8b8262000d46565b602082019050919050565b6000602082019050818103600083015262000db18162000d6f565b9050919050565b612af28062000dc86000396000f3fe608060405234801561001057600080fd5b506004361061014d5760003560e01c8063715018a6116100c3578063acfa63b81161007c578063acfa63b8146103a4578063b7a71727146103c0578063bfd79284146103f0578063dd62ed3e14610420578063f2fde38b14610450578063f8b45b051461046c5761014d565b8063715018a6146102e05780637437681e146102ea5780638da5cb5b1461030857806395d89b4114610326578063a457c2d714610344578063a9059cbb146103745761014d565b8063313ce56711610115578063313ce5671461020c578063342aa8b51461022a578063395093511461024657806342966c681461027657806349bd5a5e1461029257806370a08231146102b05761014d565b806306fdde0314610152578063095ea7b31461017057806318160ddd146101a0578063238dafe0146101be57806323b872dd146101dc575b600080fd5b61015a61048a565b6040516101679190611cc5565b60405180910390f35b61018a60048036038101906101859190611d80565b61051c565b6040516101979190611ddb565b60405180910390f35b6101a861053a565b6040516101b59190611e05565b60405180910390f35b6101c6610544565b6040516101d39190611ddb565b60405180910390f35b6101f660048036038101906101f19190611e20565b610557565b6040516102039190611ddb565b60405180910390f35b61021461064f565b6040516102219190611e8f565b60405180910390f35b610244600480360381019061023f9190611ed6565b610658565b005b610260600480360381019061025b9190611d80565b6107dd565b60405161026d9190611ddb565b60405180910390f35b610290600480360381019061028b9190611f16565b610889565b005b61029a610912565b6040516102a79190611f52565b60405180910390f35b6102ca60048036038101906102c59190611f6d565b610938565b6040516102d79190611e05565b60405180910390f35b6102e8610981565b005b6102f2610a09565b6040516102ff9190611e05565b60405180910390f35b610310610a0f565b60405161031d9190611f52565b60405180910390f35b61032e610a38565b60405161033b9190611cc5565b60405180910390f35b61035e60048036038101906103599190611d80565b610aca565b60405161036b9190611ddb565b60405180910390f35b61038e60048036038101906103899190611d80565b610bb5565b60405161039b9190611ddb565b60405180910390f35b6103be60048036038101906103b99190611f9a565b610bd3565b005b6103da60048036038101906103d59190611f6d565b610d00565b6040516103e79190611e05565b60405180910390f35b61040a60048036038101906104059190611f6d565b610d18565b6040516104179190611ddb565b60405180910390f35b61043a60048036038101906104359190612015565b610d38565b6040516104479190611e05565b60405180910390f35b61046a60048036038101906104659190611f6d565b610dbf565b005b610474610eb6565b6040516104819190611e05565b60405180910390f35b60606003805461049990612084565b80601f01602080910402602001604051908101604052809291908181526020018280546104c590612084565b80156105125780601f106104e757610100808354040283529160200191610512565b820191906000526020600020905b8154815290600101906020018083116104f557829003601f168201915b5050505050905090565b6000610530610529610ebc565b8484610ec4565b6001905092915050565b6000600554905090565b600660009054906101000a900460ff1681565b600061056484848461108d565b6000600260008673ffffffffffffffffffffffffffffffffffffffff1673ffffffffffffffffffffffffffffffffffffffff16815260200190815260200160002060006105af610ebc565b73ffffffffffffffffffffffffffffffffffffffff1673ffffffffffffffffffffffffffffffffffffffff1681526020019081526020016000205490508281101561062f576040517f08c379a000000000000000000000000000000000000000000000000000000000815260040161062690612127565b60405180910390fd5b6106438561063b610ebc565b858403610ec4565b60019150509392505050565b60006012905090565b610660610ebc565b73ffffffffffffffffffffffffffffffffffffffff1661067e610a0f565b73ffffffffffffffffffffffffffffffffffffffff16146106d4576040517f08c379a00000000000000000000000000000000000000000000000000000000081526004016106cb90612193565b60405180910390fd5b3073ffffffffffffffffffffffffffffffffffffffff168273ffffffffffffffffffffffffffffffffffffffff16141580156107435750610713610a0f565b73ffffffffffffffffffffffffffffffffffffffff168273ffffffffffffffffffffffffffffffffffffffff1614155b610782576040517f08c379a0000000000000000000000000000000000000000000000000000000008152600401610779906121ff565b60405180910390fd5b80600b60008473ffffffffffffffffffffffffffffffffffffffff1673ffffffffffffffffffffffffffffffffffffffff16815260200190815260200160002060006101000a81548160ff0219169083151502179055505050565b600061087f6107ea610ebc565b8484600260006107f8610ebc565b73ffffffffffffffffffffffffffffffffffffffff1673ffffffffffffffffffffffffffffffffffffffff16815260200190815260200160002060008873ffffffffffffffffffffffffffffffffffffffff1673ffffffffffffffffffffffffffffffffffffffff1681526020019081526020016000205461087a919061224e565b610ec4565b6001905092915050565b610891610ebc565b73ffffffffffffffffffffffffffffffffffffffff166108af610a0f565b73ffffffffffffffffffffffffffffffffffffffff1614610905576040517f08c379a00000000000000000000000000000000000000000000000000000000081526004016108fc90612193565b60405180910390fd5b61090f33826113e4565b50565b600960009054906101000a900473ffffffffffffffffffffffffffffffffffffffff1681565b6000600160008373ffffffffffffffffffffffffffffffffffffffff1673ffffffffffffffffffffffffffffffffffffffff168152602001908152602001600020549050919050565b610989610ebc565b73ffffffffffffffffffffffffffffffffffffffff166109a7610a0f565b73ffffffffffffffffffffffffffffffffffffffff16146109fd576040517f08c379a00000000000000000000000000000000000000000000000000000000081526004016109f490612193565b60405180910390fd5b610a0760006115bc565b565b60075481565b60008060009054906101000a900473ffffffffffffffffffffffffffffffffffffffff16905090565b606060048054610a4790612084565b80601f0160208091040260200160405190810160405280929190818152602001828054610a7390612084565b8015610ac05780601f10610a9557610100808354040283529160200191610ac0565b820191906000526020600020905b815481529060010190602001808311610aa357829003601f168201915b5050505050905090565b60008060026000610ad9610ebc565b73ffffffffffffffffffffffffffffffffffffffff1673ffffffffffffffffffffffffffffffffffffffff16815260200190815260200160002060008573ffffffffffffffffffffffffffffffffffffffff1673ffffffffffffffffffffffffffffffffffffffff16815260200190815260200160002054905082811015610b96576040517f08c379a0000000000000000000000000000000000000000000000000000000008152600401610b8d906122f4565b60405180910390fd5b610baa610ba1610ebc565b85858403610ec4565b600191505092915050565b6000610bc9610bc2610ebc565b848461108d565b6001905092915050565b610bdb610ebc565b73ffffffffffffffffffffffffffffffffffffffff16610bf9610a0f565b73ffffffffffffffffffffffffffffffffffffffff1614610c4f576040517f08c379a0000000000000000000000000000000000000000000000000000000008152600401610c4690612193565b60405180910390fd5b84600660006101000a81548160ff02191690831515021790555083600960006101000a81548173ffffffffffffffffffffffffffffffffffffffff021916908373ffffffffffffffffffffffffffffffffffffffff16021790555082600a60006101000a81548173ffffffffffffffffffffffffffffffffffffffff021916908373ffffffffffffffffffffffffffffffffffffffff16021790555081600881905550806007819055505050505050565b600c6020528060005260406000206000915090505481565b600b6020528060005260406000206000915054906101000a900460ff1681565b6000600260008473ffffffffffffffffffffffffffffffffffffffff1673ffffffffffffffffffffffffffffffffffffffff16815260200190815260200160002060008373ffffffffffffffffffffffffffffffffffffffff1673ffffffffffffffffffffffffffffffffffffffff16815260200190815260200160002054905092915050565b610dc7610ebc565b73ffffffffffffffffffffffffffffffffffffffff16610de5610a0f565b73ffffffffffffffffffffffffffffffffffffffff1614610e3b576040517f08c379a0000000000000000000000000000000000000000000000000000000008152600401610e3290612193565b60405180910390fd5b600073ffffffffffffffffffffffffffffffffffffffff168173ffffffffffffffffffffffffffffffffffffffff1603610eaa576040517f08c379a0000000000000000000000000000000000000000000000000000000008152600401610ea190612386565b60405180910390fd5b610eb3816115bc565b50565b60085481565b600033905090565b600073ffffffffffffffffffffffffffffffffffffffff168373ffffffffffffffffffffffffffffffffffffffff1603610f33576040517f08c379a0000000000000000000000000000000000000000000000000000000008152600401610f2a90612418565b60405180910390fd5b600073ffffffffffffffffffffffffffffffffffffffff168273ffffffffffffffffffffffffffffffffffffffff1603610fa2576040517f08c379a0000000000000000000000000000000000000000000000000000000008152600401610f99906124aa565b60405180910390fd5b80600260008573ffffffffffffffffffffffffffffffffffffffff1673ffffffffffffffffffffffffffffffffffffffff16815260200190815260200160002060008473ffffffffffffffffffffffffffffffffffffffff1673ffffffffffffffffffffffffffffffffffffffff168152602001908152602001600020819055508173ffffffffffffffffffffffffffffffffffffffff168373ffffffffffffffffffffffffffffffffffffffff167f8c5be1e5ebec7d5bd14f71427d1e84f3dd0314c0f7b2291e5b200ac8c7c3b925836040516110809190611e05565b60405180910390a3505050565b600073ffffffffffffffffffffffffffffffffffffffff168373ffffffffffffffffffffffffffffffffffffffff16036110fc576040517f08c379a00000000000000000000000000000000000000000000000000000000081526004016110f39061253c565b60405180910390fd5b600073ffffffffffffffffffffffffffffffffffffffff168273ffffffffffffffffffffffffffffffffffffffff160361116b576040517f08c379a0000000000000000000000000000000000000000000000000000000008152600401611162906125ce565b60405180910390fd5b43600c60003373ffffffffffffffffffffffffffffffffffffffff1673ffffffffffffffffffffffffffffffffffffffff16815260200190815260200160002054106111ec576040517f08c379a00000000000000000000000000000000000000000000000000000000081526004016111e390612660565b60405180910390fd5b43600c60003373ffffffffffffffffffffffffffffffffffffffff1673ffffffffffffffffffffffffffffffffffffffff16815260200190815260200160002081905550611238610a0f565b73ffffffffffffffffffffffffffffffffffffffff168373ffffffffffffffffffffffffffffffffffffffff16141580156112a65750611276610a0f565b73ffffffffffffffffffffffffffffffffffffffff168273ffffffffffffffffffffffffffffffffffffffff1614155b80156113005750600a60009054906101000a900473ffffffffffffffffffffffffffffffffffffffff1673ffffffffffffffffffffffffffffffffffffffff168373ffffffffffffffffffffffffffffffffffffffff1614155b801561135a5750600a60009054906101000a900473ffffffffffffffffffffffffffffffffffffffff1673ffffffffffffffffffffffffffffffffffffffff168273ffffffffffffffffffffffffffffffffffffffff1614155b156113d3576000611388606461137a60018561168090919063ffffffff16565b61169690919063ffffffff16565b90506113b784600a60009054906101000a900473ffffffffffffffffffffffffffffffffffffffff16836116ac565b6113cd848483856113c89190612680565b6116ac565b506113df565b6113de8383836116ac565b5b505050565b600073ffffffffffffffffffffffffffffffffffffffff168273ffffffffffffffffffffffffffffffffffffffff1603611453576040517f08c379a000000000000000000000000000000000000000000000000000000000815260040161144a90612726565b60405180910390fd5b61145f8260008361192e565b6000600160008473ffffffffffffffffffffffffffffffffffffffff1673ffffffffffffffffffffffffffffffffffffffff168152602001908152602001600020549050818110156114e6576040517f08c379a00000000000000000000000000000000000000000000000000000000081526004016114dd906127b8565b60405180910390fd5b818103600160008573ffffffffffffffffffffffffffffffffffffffff1673ffffffffffffffffffffffffffffffffffffffff16815260200190815260200160002081905550816005600082825461153e9190612680565b92505081905550600073ffffffffffffffffffffffffffffffffffffffff168373ffffffffffffffffffffffffffffffffffffffff167fddf252ad1be2c89b69c2b068fc378daa952ba7f163c4a11628f55a4df523b3ef846040516115a39190611e05565b60405180910390a36115b783600084611c30565b505050565b60008060009054906101000a900473ffffffffffffffffffffffffffffffffffffffff169050816000806101000a81548173ffffffffffffffffffffffffffffffffffffffff021916908373ffffffffffffffffffffffffffffffffffffffff1602179055508173ffffffffffffffffffffffffffffffffffffffff168173ffffffffffffffffffffffffffffffffffffffff167f8be0079c531659141344cd1fd0a4f28419497f9722a3daafe3b4186f6b6457e060405160405180910390a35050565b6000818361168e91906127d8565b905092915050565b600081836116a49190612849565b905092915050565b600073ffffffffffffffffffffffffffffffffffffffff168373ffffffffffffffffffffffffffffffffffffffff160361171b576040517f08c379a00000000000000000000000000000000000000000000000000000000081526004016117129061253c565b60405180910390fd5b600073ffffffffffffffffffffffffffffffffffffffff168273ffffffffffffffffffffffffffffffffffffffff160361178a576040517f08c379a0000000000000000000000000000000000000000000000000000000008152600401611781906125ce565b60405180910390fd5b61179583838361192e565b6000600160008573ffffffffffffffffffffffffffffffffffffffff1673ffffffffffffffffffffffffffffffffffffffff1681526020019081526020016000205490508181101561181c576040517f08c379a0000000000000000000000000000000000000000000000000000000008152600401611813906128ec565b60405180910390fd5b818103600160008673ffffffffffffffffffffffffffffffffffffffff1673ffffffffffffffffffffffffffffffffffffffff1681526020019081526020016000208190555081600160008573ffffffffffffffffffffffffffffffffffffffff1673ffffffffffffffffffffffffffffffffffffffff16815260200190815260200160002060008282546118b1919061224e565b925050819055508273ffffffffffffffffffffffffffffffffffffffff168473ffffffffffffffffffffffffffffffffffffffff167fddf252ad1be2c89b69c2b068fc378daa952ba7f163c4a11628f55a4df523b3ef846040516119159190611e05565b60405180910390a3611928848484611c30565b50505050565b600b60008373ffffffffffffffffffffffffffffffffffffffff1673ffffffffffffffffffffffffffffffffffffffff16815260200190815260200160002060009054906101000a900460ff161580156119d25750600b60008473ffffffffffffffffffffffffffffffffffffffff1673ffffffffffffffffffffffffffffffffffffffff16815260200190815260200160002060009054906101000a900460ff16155b611a11576040517f08c379a0000000000000000000000000000000000000000000000000000000008152600401611a0890612958565b60405180910390fd5b600073ffffffffffffffffffffffffffffffffffffffff16600960009054906101000a900473ffffffffffffffffffffffffffffffffffffffff1673ffffffffffffffffffffffffffffffffffffffff1603611b1e57611a6f610a0f565b73ffffffffffffffffffffffffffffffffffffffff168373ffffffffffffffffffffffffffffffffffffffff161480611ada5750611aab610a0f565b73ffffffffffffffffffffffffffffffffffffffff168273ffffffffffffffffffffffffffffffffffffffff16145b611b19576040517f08c379a0000000000000000000000000000000000000000000000000000000008152600401611b10906129c4565b60405180910390fd5b611c2b565b600660009054906101000a900460ff168015611b875750600960009054906101000a900473ffffffffffffffffffffffffffffffffffffffff1673ffffffffffffffffffffffffffffffffffffffff168373ffffffffffffffffffffffffffffffffffffffff16145b15611c2a57600754811115611bd1576040517f08c379a0000000000000000000000000000000000000000000000000000000008152600401611bc890612a30565b60405180910390fd5b60085481611bde84610938565b611be8919061224e565b1115611c29576040517f08c379a0000000000000000000000000000000000000000000000000000000008152600401611c2090612a9c565b60405180910390fd5b5b5b505050565b505050565b600081519050919050565b600082825260208201905092915050565b60005b83811015611c6f578082015181840152602081019050611c54565b60008484015250505050565b6000601f19601f8301169050919050565b6000611c9782611c35565b611ca18185611c40565b9350611cb1818560208601611c51565b611cba81611c7b565b840191505092915050565b60006020820190508181036000830152611cdf8184611c8c565b905092915050565b600080fd5b600073ffffffffffffffffffffffffffffffffffffffff82169050919050565b6000611d1782611cec565b9050919050565b611d2781611d0c565b8114611d3257600080fd5b50565b600081359050611d4481611d1e565b92915050565b6000819050919050565b611d5d81611d4a565b8114611d6857600080fd5b50565b600081359050611d7a81611d54565b92915050565b60008060408385031215611d9757611d96611ce7565b5b6000611da585828601611d35565b9250506020611db685828601611d6b565b9150509250929050565b60008115159050919050565b611dd581611dc0565b82525050565b6000602082019050611df06000830184611dcc565b92915050565b611dff81611d4a565b82525050565b6000602082019050611e1a6000830184611df6565b92915050565b600080600060608486031215611e3957611e38611ce7565b5b6000611e4786828701611d35565b9350506020611e5886828701611d35565b9250506040611e6986828701611d6b565b9150509250925092565b600060ff82169050919050565b611e8981611e73565b82525050565b6000602082019050611ea46000830184611e80565b92915050565b611eb381611dc0565b8114611ebe57600080fd5b50565b600081359050611ed081611eaa565b92915050565b60008060408385031215611eed57611eec611ce7565b5b6000611efb85828601611d35565b9250506020611f0c85828601611ec1565b9150509250929050565b600060208284031215611f2c57611f2b611ce7565b5b6000611f3a84828501611d6b565b91505092915050565b611f4c81611d0c565b82525050565b6000602082019050611f676000830184611f43565b92915050565b600060208284031215611f8357611f82611ce7565b5b6000611f9184828501611d35565b91505092915050565b600080600080600060a08688031215611fb657611fb5611ce7565b5b6000611fc488828901611ec1565b9550506020611fd588828901611d35565b9450506040611fe688828901611d35565b9350506060611ff788828901611d6b565b925050608061200888828901611d6b565b9150509295509295909350565b6000806040838503121561202c5761202b611ce7565b5b600061203a85828601611d35565b925050602061204b85828601611d35565b9150509250929050565b7f4e487b7100000000000000000000000000000000000000000000000000000000600052602260045260246000fd5b6000600282049050600182168061209c57607f821691505b6020821081036120af576120ae612055565b5b50919050565b7f45524332303a207472616e7366657220616d6f756e742065786365656473206160008201527f6c6c6f77616e6365000000000000000000000000000000000000000000000000602082015250565b6000612111602883611c40565b915061211c826120b5565b604082019050919050565b6000602082019050818103600083015261214081612104565b9050919050565b7f4f776e61626c653a2063616c6c6572206973206e6f7420746865206f776e6572600082015250565b600061217d602083611c40565b915061218882612147565b602082019050919050565b600060208201905081810360008301526121ac81612170565b9050919050565b7f4e4f54204120424f542100000000000000000000000000000000000000000000600082015250565b60006121e9600a83611c40565b91506121f4826121b3565b602082019050919050565b60006020820190508181036000830152612218816121dc565b9050919050565b7f4e487b7100000000000000000000000000000000000000000000000000000000600052601160045260246000fd5b600061225982611d4a565b915061226483611d4a565b925082820190508082111561227c5761227b61221f565b5b92915050565b7f45524332303a2064656372656173656420616c6c6f77616e63652062656c6f7760008201527f207a65726f000000000000000000000000000000000000000000000000000000602082015250565b60006122de602583611c40565b91506122e982612282565b604082019050919050565b6000602082019050818103600083015261230d816122d1565b9050919050565b7f4f776e61626c653a206e6577206f776e657220697320746865207a65726f206160008201527f6464726573730000000000000000000000000000000000000000000000000000602082015250565b6000612370602683611c40565b915061237b82612314565b604082019050919050565b6000602082019050818103600083015261239f81612363565b9050919050565b7f45524332303a20617070726f76652066726f6d20746865207a65726f2061646460008201527f7265737300000000000000000000000000000000000000000000000000000000602082015250565b6000612402602483611c40565b915061240d826123a6565b604082019050919050565b60006020820190508181036000830152612431816123f5565b9050919050565b7f45524332303a20617070726f766520746f20746865207a65726f20616464726560008201527f7373000000000000000000000000000000000000000000000000000000000000602082015250565b6000612494602283611c40565b915061249f82612438565b604082019050919050565b600060208201905081810360008301526124c381612487565b9050919050565b7f45524332303a207472616e736665722066726f6d20746865207a65726f20616460008201527f6472657373000000000000000000000000000000000000000000000000000000602082015250565b6000612526602583611c40565b9150612531826124ca565b604082019050919050565b6000602082019050818103600083015261255581612519565b9050919050565b7f45524332303a207472616e7366657220746f20746865207a65726f206164647260008201527f6573730000000000000000000000000000000000000000000000000000000000602082015250565b60006125b8602383611c40565b91506125c38261255c565b604082019050919050565b600060208201905081810360008301526125e7816125ab565b9050919050565b7f43616e6e6f7420657865637574652032207472616e736665727320696e20746860008201527f652073616d6520626c6f636b0000000000000000000000000000000000000000602082015250565b600061264a602c83611c40565b9150612655826125ee565b604082019050919050565b600060208201905081810360008301526126798161263d565b9050919050565b600061268b82611d4a565b915061269683611d4a565b92508282039050818111156126ae576126ad61221f565b5b92915050565b7f45524332303a206275726e2066726f6d20746865207a65726f2061646472657360008201527f7300000000000000000000000000000000000000000000000000000000000000602082015250565b6000612710602183611c40565b915061271b826126b4565b604082019050919050565b6000602082019050818103600083015261273f81612703565b9050919050565b7f45524332303a206275726e20616d6f756e7420657863656564732062616c616e60008201527f6365000000000000000000000000000000000000000000000000000000000000602082015250565b60006127a2602283611c40565b91506127ad82612746565b604082019050919050565b600060208201905081810360008301526127d181612795565b9050919050565b60006127e382611d4a565b91506127ee83611d4a565b92508282026127fc81611d4a565b915082820484148315176128135761281261221f565b5b5092915050565b7f4e487b7100000000000000000000000000000000000000000000000000000000600052601260045260246000fd5b600061285482611d4a565b915061285f83611d4a565b92508261286f5761286e61281a565b5b828204905092915050565b7f45524332303a207472616e7366657220616d6f756e742065786365656473206260008201527f616c616e63650000000000000000000000000000000000000000000000000000602082015250565b60006128d6602683611c40565b91506128e18261287a565b604082019050919050565b60006020820190508181036000830152612905816128c9565b9050919050565b7f4d455620424f5421000000000000000000000000000000000000000000000000600082015250565b6000612942600883611c40565b915061294d8261290c565b602082019050919050565b6000602082019050818103600083015261297181612935565b9050919050565b7f74726164696e67206973206e6f74207374617274656400000000000000000000600082015250565b60006129ae601683611c40565b91506129b982612978565b602082019050919050565b600060208201905081810360008301526129dd816129a1565b9050919050565b7f4d4158205452414e53414354494f4e2100000000000000000000000000000000600082015250565b6000612a1a601083611c40565b9150612a25826129e4565b602082019050919050565b60006020820190508181036000830152612a4981612a0d565b9050919050565b7f4d41582057414c4c455421000000000000000000000000000000000000000000600082015250565b6000612a86600b83611c40565b9150612a9182612a50565b602082019050919050565b60006020820190508181036000830152612ab581612a79565b905091905056fea26469706673582212204d2932ec3a0edb7e0017f8fffa2fa6d813a4a4fdc973a80449b8579f87d6866b64736f6c63430008120033",
  "devdoc": {
    "events": {
      "Approval(address,address,uint256)": {
        "details": "Emitted when the allowance of a `spender` for an `owner` is set by a call to {approve}. `value` is the new allowance."
      },
      "Transfer(address,address,uint256)": {
        "details": "Emitted when `value` tokens are moved from one account (`from`) to another (`to`). Note that `value` may be zero."
      }
    },
    "kind": "dev",
    "methods": {
      "allowance(address,address)": {
        "details": "See {IERC20-allowance}."
      },
      "approve(address,uint256)": {
        "details": "See {IERC20-approve}. Requirements: - `spender` cannot be the zero address."
      },
      "balanceOf(address)": {
        "details": "See {IERC20-balanceOf}."
      },
      "decimals()": {
        "details": "Returns the number of decimals used to get its user representation. For example, if `decimals` equals `2`, a balance of `505` tokens should be displayed to a user as `5.05` (`505 / 10 ** 2`). Tokens usually opt for a value of 18, imitating the relationship between Ether and Wei. This is the value {ERC20} uses, unless this function is overridden; NOTE: This information is only used for _display_ purposes: it in no way affects any of the arithmetic of the contract, including {IERC20-balanceOf} and {IERC20-transfer}."
      },
      "decreaseAllowance(address,uint256)": {
        "details": "Atomically decreases the allowance granted to `spender` by the caller. This is an alternative to {approve} that can be used as a mitigation for problems described in {IERC20-approve}. Emits an {Approval} event indicating the updated allowance. Requirements: - `spender` cannot be the zero address. - `spender` must have allowance for the caller of at least `subtractedValue`."
      },
      "increaseAllowance(address,uint256)": {
        "details": "Atomically increases the allowance granted to `spender` by the caller. This is an alternative to {approve} that can be used as a mitigation for problems described in {IERC20-approve}. Emits an {Approval} event indicating the updated allowance. Requirements: - `spender` cannot be the zero address."
      },
      "name()": {
        "details": "Returns the name of the token."
      },
      "owner()": {
        "details": "Returns the address of the current owner."
      },
      "renounceOwnership()": {
        "details": "Leaves the contract without owner. It will not be possible to call `onlyOwner` functions anymore. Can only be called by the current owner. NOTE: Renouncing ownership will leave the contract without an owner, thereby removing any functionality that is only available to the owner."
      },
      "symbol()": {
        "details": "Returns the symbol of the token, usually a shorter version of the name."
      },
      "totalSupply()": {
        "details": "See {IERC20-totalSupply}."
      },
      "transfer(address,uint256)": {
        "details": "See {IERC20-transfer}. Requirements: - `recipient` cannot be the zero address. - the caller must have a balance of at least `amount`."
      },
      "transferFrom(address,address,uint256)": {
        "details": "See {IERC20-transferFrom}. Emits an {Approval} event indicating the updated allowance. This is not required by the EIP. See the note at the beginning of {ERC20}. Requirements: - `sender` and `recipient` cannot be the zero address. - `sender` must have a balance of at least `amount`. - the caller must have allowance for ``sender``'s tokens of at least `amount`."
      },
      "transferOwnership(address)": {
        "details": "Transfers ownership of the contract to a new account (`newOwner`). Can only be called by the current owner."
      }
    },
    "version": 1
  },
  "userdoc": {
    "kind": "user",
    "methods": {},
    "version": 1
  },
  "storageLayout": {
    "storage": [
      {
        "astId": 27,
        "contract": "contracts/GMUSSY.sol:GMUSSY",
        "label": "_owner",
        "offset": 0,
        "slot": "0",
        "type": "t_address"
      },
      {
        "astId": 235,
        "contract": "contracts/GMUSSY.sol:GMUSSY",
        "label": "_balances",
        "offset": 0,
        "slot": "1",
        "type": "t_mapping(t_address,t_uint256)"
      },
      {
        "astId": 241,
        "contract": "contracts/GMUSSY.sol:GMUSSY",
        "label": "_allowances",
        "offset": 0,
        "slot": "2",
        "type": "t_mapping(t_address,t_mapping(t_address,t_uint256))"
      },
      {
        "astId": 243,
        "contract": "contracts/GMUSSY.sol:GMUSSY",
        "label": "_name",
        "offset": 0,
        "slot": "3",
        "type": "t_string_storage"
      },
      {
        "astId": 245,
        "contract": "contracts/GMUSSY.sol:GMUSSY",
        "label": "_symbol",
        "offset": 0,
        "slot": "4",
        "type": "t_string_storage"
      },
      {
        "astId": 247,
        "contract": "contracts/GMUSSY.sol:GMUSSY",
        "label": "_totalSupply",
        "offset": 0,
        "slot": "5",
        "type": "t_uint256"
      },
      {
        "astId": 1086,
        "contract": "contracts/GMUSSY.sol:GMUSSY",
        "label": "enabled",
        "offset": 0,
        "slot": "6",
        "type": "t_bool"
      },
      {
        "astId": 1088,
        "contract": "contracts/GMUSSY.sol:GMUSSY",
        "label": "maxTx",
        "offset": 0,
        "slot": "7",
        "type": "t_uint256"
      },
      {
        "astId": 1090,
        "contract": "contracts/GMUSSY.sol:GMUSSY",
        "label": "maxWallet",
        "offset": 0,
        "slot": "8",
        "type": "t_uint256"
      },
      {
        "astId": 1092,
        "contract": "contracts/GMUSSY.sol:GMUSSY",
        "label": "uniswapV2Pair",
        "offset": 0,
        "slot": "9",
        "type": "t_address"
      },
      {
        "astId": 1094,
        "contract": "contracts/GMUSSY.sol:GMUSSY",
        "label": "teamWallet",
        "offset": 0,
        "slot": "10",
        "type": "t_address_payable"
      },
      {
        "astId": 1098,
        "contract": "contracts/GMUSSY.sol:GMUSSY",
        "label": "bots",
        "offset": 0,
        "slot": "11",
        "type": "t_mapping(t_address,t_bool)"
      },
      {
        "astId": 1102,
        "contract": "contracts/GMUSSY.sol:GMUSSY",
        "label": "lastTxBlockNumber",
        "offset": 0,
        "slot": "12",
        "type": "t_mapping(t_address,t_uint256)"
      }
    ],
    "types": {
      "t_address": {
        "encoding": "inplace",
        "label": "address",
        "numberOfBytes": "20"
      },
      "t_address_payable": {
        "encoding": "inplace",
        "label": "address payable",
        "numberOfBytes": "20"
      },
      "t_bool": {
        "encoding": "inplace",
        "label": "bool",
        "numberOfBytes": "1"
      },
      "t_mapping(t_address,t_bool)": {
        "encoding": "mapping",
        "key": "t_address",
        "label": "mapping(address => bool)",
        "numberOfBytes": "32",
        "value": "t_bool"
      },
      "t_mapping(t_address,t_mapping(t_address,t_uint256))": {
        "encoding": "mapping",
        "key": "t_address",
        "label": "mapping(address => mapping(address => uint256))",
        "numberOfBytes": "32",
        "value": "t_mapping(t_address,t_uint256)"
      },
      "t_mapping(t_address,t_uint256)": {
        "encoding": "mapping",
        "key": "t_address",
        "label": "mapping(address => uint256)",
        "numberOfBytes": "32",
        "value": "t_uint256"
      },
      "t_string_storage": {
        "encoding": "bytes",
        "label": "string",
        "numberOfBytes": "32"
      },
      "t_uint256": {
        "encoding": "inplace",
        "label": "uint256",
        "numberOfBytes": "32"
      }
    }
  }
}