{
  "address": "0xFe76D47cD946a3fEF19A3991ED2350c5B0B3D6c4",
  "abi": [
    {
      "inputs": [
        {
          "internalType": "address",
          "name": "_dev",
          "type": "address"
        },
        {
          "internalType": "address",
          "name": "_burns",
          "type": "address"
        },
        {
          "internalType": "address",
          "name": "_airdrop",
          "type": "address"
        }
      ],
      "stateMutability": "payable",
      "type": "constructor"
    },
    {
      "anonymous": false,
      "inputs": [
        {
          "indexed": true,
          "internalType": "address",
          "name": "owner",
          "type": "address"
        },
        {
          "indexed": true,
          "internalType": "address",
          "name": "spender",
          "type": "address"
        },
        {
          "indexed": false,
          "internalType": "uint256",
          "name": "value",
          "type": "uint256"
        }
      ],
      "name": "Approval",
      "type": "event"
    },
    {
      "anonymous": false,
      "inputs": [
        {
          "indexed": true,
          "internalType": "address",
          "name": "account",
          "type": "address"
        },
        {
          "indexed": false,
          "internalType": "bool",
          "name": "isBot",
          "type": "bool"
        }
      ],
      "name": "BotAdded",
      "type": "event"
    },
    {
      "anonymous": false,
      "inputs": [
        {
          "indexed": true,
          "internalType": "address",
          "name": "user",
          "type": "address"
        },
        {
          "indexed": false,
          "internalType": "uint256",
          "name": "amount",
          "type": "uint256"
        }
      ],
      "name": "Burned",
      "type": "event"
    },
    {
      "anonymous": false,
      "inputs": [
        {
          "indexed": false,
          "internalType": "uint256",
          "name": "mineBlocks",
          "type": "uint256"
        },
        {
          "indexed": false,
          "internalType": "uint256",
          "name": "gasDelta",
          "type": "uint256"
        },
        {
          "indexed": false,
          "internalType": "uint256",
          "name": "maxSample",
          "type": "uint256"
        },
        {
          "indexed": false,
          "internalType": "uint256",
          "name": "avgGasPrice",
          "type": "uint256"
        }
      ],
      "name": "MEVUpdated",
      "type": "event"
    },
    {
      "anonymous": false,
      "inputs": [
        {
          "indexed": true,
          "internalType": "address",
          "name": "previousOwner",
          "type": "address"
        },
        {
          "indexed": true,
          "internalType": "address",
          "name": "newOwner",
          "type": "address"
        }
      ],
      "name": "OwnershipTransferred",
      "type": "event"
    },
    {
      "anonymous": false,
      "inputs": [
        {
          "indexed": true,
          "internalType": "address",
          "name": "from",
          "type": "address"
        },
        {
          "indexed": true,
          "internalType": "address",
          "name": "to",
          "type": "address"
        },
        {
          "indexed": false,
          "internalType": "uint256",
          "name": "value",
          "type": "uint256"
        }
      ],
      "name": "Transfer",
      "type": "event"
    },
    {
      "anonymous": false,
      "inputs": [
        {
          "indexed": true,
          "internalType": "address",
          "name": "account",
          "type": "address"
        },
        {
          "indexed": false,
          "internalType": "bool",
          "name": "isVIP",
          "type": "bool"
        }
      ],
      "name": "VIPAdded",
      "type": "event"
    },
    {
      "inputs": [
        {
          "internalType": "address",
          "name": "owner",
          "type": "address"
        },
        {
          "internalType": "address",
          "name": "spender",
          "type": "address"
        }
      ],
      "name": "allowance",
      "outputs": [
        {
          "internalType": "uint256",
          "name": "",
          "type": "uint256"
        }
      ],
      "stateMutability": "view",
      "type": "function"
    },
    {
      "inputs": [
        {
          "internalType": "address",
          "name": "spender",
          "type": "address"
        },
        {
          "internalType": "uint256",
          "name": "amount",
          "type": "uint256"
        }
      ],
      "name": "approve",
      "outputs": [
        {
          "internalType": "bool",
          "name": "",
          "type": "bool"
        }
      ],
      "stateMutability": "nonpayable",
      "type": "function"
    },
    {
      "inputs": [],
      "name": "avgGasPrice",
      "outputs": [
        {
          "internalType": "uint256",
          "name": "",
          "type": "uint256"
        }
      ],
      "stateMutability": "view",
      "type": "function"
    },
    {
      "inputs": [
        {
          "internalType": "address",
          "name": "account",
          "type": "address"
        }
      ],
      "name": "balanceOf",
      "outputs": [
        {
          "internalType": "uint256",
          "name": "",
          "type": "uint256"
        }
      ],
      "stateMutability": "view",
      "type": "function"
    },
    {
      "inputs": [
        {
          "internalType": "uint256",
          "name": "value",
          "type": "uint256"
        }
      ],
      "name": "burn",
      "outputs": [],
      "stateMutability": "nonpayable",
      "type": "function"
    },
    {
      "inputs": [],
      "name": "decimals",
      "outputs": [
        {
          "internalType": "uint8",
          "name": "",
          "type": "uint8"
        }
      ],
      "stateMutability": "view",
      "type": "function"
    },
    {
      "inputs": [
        {
          "internalType": "address",
          "name": "spender",
          "type": "address"
        },
        {
          "internalType": "uint256",
          "name": "subtractedValue",
          "type": "uint256"
        }
      ],
      "name": "decreaseAllowance",
      "outputs": [
        {
          "internalType": "bool",
          "name": "",
          "type": "bool"
        }
      ],
      "stateMutability": "nonpayable",
      "type": "function"
    },
    {
      "inputs": [],
      "name": "detectMEV",
      "outputs": [
        {
          "internalType": "bool",
          "name": "",
          "type": "bool"
        }
      ],
      "stateMutability": "view",
      "type": "function"
    },
    {
      "inputs": [
        {
          "internalType": "bool",
          "name": "_detectMEV",
          "type": "bool"
        }
      ],
      "name": "enableMEV",
      "outputs": [],
      "stateMutability": "nonpayable",
      "type": "function"
    },
    {
      "inputs": [],
      "name": "gasDelta",
      "outputs": [
        {
          "internalType": "uint256",
          "name": "",
          "type": "uint256"
        }
      ],
      "stateMutability": "view",
      "type": "function"
    },
    {
      "inputs": [
        {
          "internalType": "address",
          "name": "spender",
          "type": "address"
        },
        {
          "internalType": "uint256",
          "name": "addedValue",
          "type": "uint256"
        }
      ],
      "name": "increaseAllowance",
      "outputs": [
        {
          "internalType": "bool",
          "name": "",
          "type": "bool"
        }
      ],
      "stateMutability": "nonpayable",
      "type": "function"
    },
    {
      "inputs": [
        {
          "internalType": "address",
          "name": "",
          "type": "address"
        }
      ],
      "name": "isBOT",
      "outputs": [
        {
          "internalType": "bool",
          "name": "",
          "type": "bool"
        }
      ],
      "stateMutability": "view",
      "type": "function"
    },
    {
      "inputs": [
        {
          "internalType": "address",
          "name": "",
          "type": "address"
        }
      ],
      "name": "isVIP",
      "outputs": [
        {
          "internalType": "bool",
          "name": "",
          "type": "bool"
        }
      ],
      "stateMutability": "view",
      "type": "function"
    },
    {
      "inputs": [
        {
          "internalType": "address",
          "name": "",
          "type": "address"
        }
      ],
      "name": "lastTxBlock",
      "outputs": [
        {
          "internalType": "uint256",
          "name": "",
          "type": "uint256"
        }
      ],
      "stateMutability": "view",
      "type": "function"
    },
    {
      "inputs": [],
      "name": "maxSample",
      "outputs": [
        {
          "internalType": "uint256",
          "name": "",
          "type": "uint256"
        }
      ],
      "stateMutability": "view",
      "type": "function"
    },
    {
      "inputs": [],
      "name": "maxWallet",
      "outputs": [
        {
          "internalType": "uint256",
          "name": "",
          "type": "uint256"
        }
      ],
      "stateMutability": "view",
      "type": "function"
    },
    {
      "inputs": [],
      "name": "mineBlocks",
      "outputs": [
        {
          "internalType": "uint256",
          "name": "",
          "type": "uint256"
        }
      ],
      "stateMutability": "view",
      "type": "function"
    },
    {
      "inputs": [],
      "name": "name",
      "outputs": [
        {
          "internalType": "string",
          "name": "",
          "type": "string"
        }
      ],
      "stateMutability": "view",
      "type": "function"
    },
    {
      "inputs": [],
      "name": "owner",
      "outputs": [
        {
          "internalType": "address",
          "name": "",
          "type": "address"
        }
      ],
      "stateMutability": "view",
      "type": "function"
    },
    {
      "inputs": [],
      "name": "renounceOwnership",
      "outputs": [],
      "stateMutability": "nonpayable",
      "type": "function"
    },
    {
      "inputs": [
        {
          "internalType": "address",
          "name": "_address",
          "type": "address"
        },
        {
          "internalType": "bool",
          "name": "_isBot",
          "type": "bool"
        }
      ],
      "name": "setBOT",
      "outputs": [],
      "stateMutability": "nonpayable",
      "type": "function"
    },
    {
      "inputs": [
        {
          "internalType": "uint256",
          "name": "_mineBlocks",
          "type": "uint256"
        },
        {
          "internalType": "uint256",
          "name": "_gasDelta",
          "type": "uint256"
        },
        {
          "internalType": "uint256",
          "name": "_maxSample",
          "type": "uint256"
        },
        {
          "internalType": "uint256",
          "name": "_avgGasPrice",
          "type": "uint256"
        }
      ],
      "name": "setMEV",
      "outputs": [],
      "stateMutability": "nonpayable",
      "type": "function"
    },
    {
      "inputs": [
        {
          "internalType": "uint256",
          "name": "_maxWallet",
          "type": "uint256"
        }
      ],
      "name": "setMaxWallet",
      "outputs": [],
      "stateMutability": "nonpayable",
      "type": "function"
    },
    {
      "inputs": [
        {
          "internalType": "address",
          "name": "_uniswapV2Pair",
          "type": "address"
        }
      ],
      "name": "setUniswapV2Pair",
      "outputs": [],
      "stateMutability": "nonpayable",
      "type": "function"
    },
    {
      "inputs": [
        {
          "internalType": "address",
          "name": "_address",
          "type": "address"
        },
        {
          "internalType": "bool",
          "name": "_isVIP",
          "type": "bool"
        }
      ],
      "name": "setVIP",
      "outputs": [],
      "stateMutability": "nonpayable",
      "type": "function"
    },
    {
      "inputs": [
        {
          "internalType": "address",
          "name": "_dev",
          "type": "address"
        },
        {
          "internalType": "address",
          "name": "_burns",
          "type": "address"
        },
        {
          "internalType": "address",
          "name": "_airdrop",
          "type": "address"
        }
      ],
      "name": "setWallets",
      "outputs": [],
      "stateMutability": "nonpayable",
      "type": "function"
    },
    {
      "inputs": [],
      "name": "symbol",
      "outputs": [
        {
          "internalType": "string",
          "name": "",
          "type": "string"
        }
      ],
      "stateMutability": "view",
      "type": "function"
    },
    {
      "inputs": [],
      "name": "totalSupply",
      "outputs": [
        {
          "internalType": "uint256",
          "name": "",
          "type": "uint256"
        }
      ],
      "stateMutability": "view",
      "type": "function"
    },
    {
      "inputs": [
        {
          "internalType": "address",
          "name": "to",
          "type": "address"
        },
        {
          "internalType": "uint256",
          "name": "amount",
          "type": "uint256"
        }
      ],
      "name": "transfer",
      "outputs": [
        {
          "internalType": "bool",
          "name": "",
          "type": "bool"
        }
      ],
      "stateMutability": "nonpayable",
      "type": "function"
    },
    {
      "inputs": [
        {
          "internalType": "address",
          "name": "from",
          "type": "address"
        },
        {
          "internalType": "address",
          "name": "to",
          "type": "address"
        },
        {
          "internalType": "uint256",
          "name": "amount",
          "type": "uint256"
        }
      ],
      "name": "transferFrom",
      "outputs": [
        {
          "internalType": "bool",
          "name": "",
          "type": "bool"
        }
      ],
      "stateMutability": "nonpayable",
      "type": "function"
    },
    {
      "inputs": [
        {
          "internalType": "address",
          "name": "newOwner",
          "type": "address"
        }
      ],
      "name": "transferOwnership",
      "outputs": [],
      "stateMutability": "nonpayable",
      "type": "function"
    },
    {
      "inputs": [],
      "name": "txCounter",
      "outputs": [
        {
          "internalType": "uint256",
          "name": "",
          "type": "uint256"
        }
      ],
      "stateMutability": "view",
      "type": "function"
    },
    {
      "inputs": [],
      "name": "uniswapV2Pair",
      "outputs": [
        {
          "internalType": "address",
          "name": "",
          "type": "address"
        }
      ],
      "stateMutability": "view",
      "type": "function"
    }
  ],
  "transactionHash": "0x70022e6e98a52ec61f52184c157edb4dd7b8ebc4c11129a91514343e2d7a65c7",
  "args": [
    "0xc2657176e213ddf18646efce08f36d656abe3396",
    "0x8b30998a9492610f074784aed7afdd682b23b416",
    "0xe276d3ea57c5af859e52d51c2c11f5decb4c4838"
  ],
  "numDeployments": 9,
  "solcInputHash": "21b1945f261c136d17733240c9556a7d",
  "bytecode": "0x60a06040526040516200224f3803806200224f833981016040819052620000269162000813565b60408051808201825260078082526620b73a34a6a2ab60c91b602080840182905284518086019095529184529083015290600362000065838262000901565b50600462000074828262000901565b505050620000916200008b6200040560201b60201c565b62000409565b6b03a1679975a96fc068840000620000d26103e8620000be8360316200045b602090811b62000aa717901c565b6200047260201b62000ab31790919060201c565b6006556005805460ff60a01b1916600160a01b1790556003600755633b9aca00600a90815560196008556009556000600b55737a250d5630b4cf539739df2c5dacb4c659f2488d60808190526040805163c45a015560e01b81529051829163c45a01559160048083019260209291908290030181865afa1580156200015b573d6000803e3d6000fd5b505050506040513d601f19601f82011682018060405250810190620001819190620009cd565b6001600160a01b031663c9c6539630836001600160a01b031663ad5c46486040518163ffffffff1660e01b8152600401602060405180830381865afa158015620001cf573d6000803e3d6000fd5b505050506040513d601f19601f82011682018060405250810190620001f59190620009cd565b6040516001600160e01b031960e085901b1681526001600160a01b039283166004820152911660248201526044016020604051808303816000875af115801562000243573d6000803e3d6000fd5b505050506040513d601f19601f82011682018060405250810190620002699190620009cd565b600f80546001600160a01b03199081166001600160a01b039384161790915560108054821688841617905560118054821687841617905560128054909116918516919091179055620002bd33600162000480565b620002ca30600162000480565b601054620002e3906001600160a01b0316600162000480565b601154620002fc906001600160a01b0316600162000480565b60125462000315906001600160a01b0316600162000480565b600f546200032e906001600160a01b0316600162000480565b6080516200033e90600162000480565b6200036a33620003646064620000be605b876200045b60201b62000aa71790919060201c565b62000558565b6010546200039a906001600160a01b0316620003646064620000be8660026200045b602090811b62000aa717901c565b601154620003ca906001600160a01b0316620003646064620000be8660036200045b602090811b62000aa717901c565b601254620003fa906001600160a01b0316620003646064620000be8660046200045b602090811b62000aa717901c565b505050505062000a54565b3390565b600580546001600160a01b038381166001600160a01b0319831681179093556040519116919082907f8be0079c531659141344cd1fd0a4f28419497f9722a3daafe3b4186f6b6457e090600090a35050565b600062000469828462000a01565b90505b92915050565b600062000469828462000a1b565b6200048a62000629565b6001600160a01b0382166000908152600c602052604090205460ff1615620004f95760405162461bcd60e51b815260206004820152601e60248201527f416e74694d45563a2043616e6e6f742073657420424f5420746f20564950000060448201526064015b60405180910390fd5b6001600160a01b0382166000818152600d6020908152604091829020805460ff191685151590811790915591519182527fda633a71264a27905632c474143536c3964c692d30dbf9384cf1f2e87659d64c910160405180910390a25050565b6001600160a01b038216620005b05760405162461bcd60e51b815260206004820152601f60248201527f45524332303a206d696e7420746f20746865207a65726f2061646472657373006044820152606401620004f0565b620005be6000838362000687565b8060026000828254620005d2919062000a3e565b90915550506001600160a01b038216600081815260208181526040808320805486019055518481527fddf252ad1be2c89b69c2b068fc378daa952ba7f163c4a11628f55a4df523b3ef910160405180910390a35050565b6005546001600160a01b03163314620006855760405162461bcd60e51b815260206004820181905260248201527f4f776e61626c653a2063616c6c6572206973206e6f7420746865206f776e65726044820152606401620004f0565b565b6001600160a01b0382166000908152600c602052604090205460ff16158015620006ca57506001600160a01b0383166000908152600c602052604090205460ff16155b620007185760405162461bcd60e51b815260206004820152601660248201527f416e74694d45563a204b6e6f776e204d455620626f74000000000000000000006044820152606401620004f0565b6001600160a01b0383166000908152600d602052604090205460ff1680156200075a57506001600160a01b0382166000908152600d602052604090205460ff16155b15620007d657600654816200077a84620007db60201b620006da1760201c565b62000786919062000a3e565b1115620007d65760405162461bcd60e51b815260206004820152601460248201527f4d61782077616c6c6574206578636565646564210000000000000000000000006044820152606401620004f0565b505050565b6001600160a01b031660009081526020819052604090205490565b80516001600160a01b03811681146200080e57600080fd5b919050565b6000806000606084860312156200082957600080fd5b6200083484620007f6565b92506200084460208501620007f6565b91506200085460408501620007f6565b90509250925092565b634e487b7160e01b600052604160045260246000fd5b600181811c908216806200088857607f821691505b602082108103620008a957634e487b7160e01b600052602260045260246000fd5b50919050565b601f821115620007d657600081815260208120601f850160051c81016020861015620008d85750805b601f850160051c820191505b81811015620008f957828155600101620008e4565b505050505050565b81516001600160401b038111156200091d576200091d6200085d565b62000935816200092e845462000873565b84620008af565b602080601f8311600181146200096d5760008415620009545750858301515b600019600386901b1c1916600185901b178555620008f9565b600085815260208120601f198616915b828110156200099e578886015182559484019460019091019084016200097d565b5085821015620009bd5787850151600019600388901b60f8161c191681555b5050505050600190811b01905550565b600060208284031215620009e057600080fd5b6200046982620007f6565b634e487b7160e01b600052601160045260246000fd5b80820281158282048414176200046c576200046c620009eb565b60008262000a3957634e487b7160e01b600052601260045260246000fd5b500490565b808201808211156200046c576200046c620009eb565b6080516117df62000a70600039600061093001526117df6000f3fe608060405234801561001057600080fd5b50600436106101fb5760003560e01c806374f079b81161011a578063a7ae210a116100ad578063dd62ed3e1161007c578063dd62ed3e14610418578063e65842381461042b578063f2fde38b1461043e578063f4201c3c14610451578063f8b45b051461047457600080fd5b8063a7ae210a146103b9578063a9059cbb146103c2578063ceb88a16146103d5578063d8949140146103f557600080fd5b806395d89b41116100e957806395d89b4114610378578063a29a608914610380578063a457c2d714610393578063a6ccf7e5146103a657600080fd5b806374f079b81461033757806375cb1bd1146103405780638da5cb5b1461035357806392181ec61461036457600080fd5b806339509351116101925780636381f2b1116101615780636381f2b11461030057806369ab300d1461030957806370a082311461031c578063715018a61461032f57600080fd5b8063395093511461029c57806342966c68146102af57806349bd5a5e146102c25780635d0044ca146102ed57600080fd5b806323b872dd116101ce57806323b872dd1461025c578063265b957b1461026f5780632774ee0c14610278578063313ce5671461028d57600080fd5b806306fdde0314610200578063095ea7b31461021e57806318160ddd1461024157806321c609c214610253575b600080fd5b61020861047d565b60405161021591906114f9565b60405180910390f35b61023161022c366004611563565b61050f565b6040519015158152602001610215565b6002545b604051908152602001610215565b61024560075481565b61023161026a36600461158d565b610529565b61024560085481565b61028b6102863660046115d9565b610565565b005b60405160128152602001610215565b6102316102aa366004611563565b61058b565b61028b6102bd3660046115f4565b6105ad565b600f546102d5906001600160a01b031681565b6040516001600160a01b039091168152602001610215565b61028b6102fb3660046115f4565b6105f7565b61024560095481565b61028b61031736600461160d565b610604565b61024561032a366004611640565b6106da565b61028b6106f5565b610245600b5481565b61028b61034e36600461165b565b610709565b6005546001600160a01b03166102d5565b60055461023190600160a01b900460ff1681565b610208610750565b61028b61038e366004611640565b61075f565b6102316103a1366004611563565b610789565b61028b6103b436600461169e565b61080f565b610245600a5481565b6102316103d0366004611563565b610879565b6102456103e3366004611640565b600e6020526000908152604090205481565b610231610403366004611640565b600c6020526000908152604090205460ff1681565b6102456104263660046116d0565b6108b3565b61028b61043936600461160d565b6108de565b61028b61044c366004611640565b610a2e565b61023161045f366004611640565b600d6020526000908152604090205460ff1681565b61024560065481565b60606003805461048c906116fa565b80601f01602080910402602001604051908101604052809291908181526020018280546104b8906116fa565b80156105055780601f106104da57610100808354040283529160200191610505565b820191906000526020600020905b8154815290600101906020018083116104e857829003601f168201915b5050505050905090565b60003361051d818585610abf565b60019150505b92915050565b600554600090600160a01b900460ff1615610552576105488484610be4565b6105528484610e33565b61055d848484610f8d565b949350505050565b61056d610fa6565b60058054911515600160a01b0260ff60a01b19909216919091179055565b60003361051d81858561059e83836108b3565b6105a8919061174a565b610abf565b6105b5610fa6565b6105bf3382611000565b60405181815233907f696de425f79f4a40bc6d2122ca50507f0efbeabbff86a84871b7196ab8ea8df79060200160405180910390a250565b6105ff610fa6565b600655565b61060c610fa6565b6001600160a01b0382166000908152600c602052604090205460ff161561067a5760405162461bcd60e51b815260206004820152601e60248201527f416e74694d45563a2043616e6e6f742073657420424f5420746f20564950000060448201526064015b60405180910390fd5b6001600160a01b0382166000818152600d6020908152604091829020805460ff191685151590811790915591519182527fda633a71264a27905632c474143536c3964c692d30dbf9384cf1f2e87659d64c91015b60405180910390a25050565b6001600160a01b031660009081526020819052604090205490565b6106fd610fa6565b610707600061113b565b565b610711610fa6565b601080546001600160a01b039485166001600160a01b031991821617909155601180549385169382169390931790925560128054919093169116179055565b60606004805461048c906116fa565b610767610fa6565b600f80546001600160a01b0319166001600160a01b0392909216919091179055565b6000338161079782866108b3565b9050838110156107f75760405162461bcd60e51b815260206004820152602560248201527f45524332303a2064656372656173656420616c6c6f77616e63652062656c6f77604482015264207a65726f60d81b6064820152608401610671565b6108048286868403610abf565b506001949350505050565b610817610fa6565b600784905560088390556009829055600a8190556040805185815260208101859052908101839052606081018290527f14fd6f32fdaec8482ac6b00207414b60d714be451bc189769f2cdf1e85e881209060800160405180910390a150505050565b600554600090600160a01b900460ff16156108a2576108983384610be4565b6108a23384610e33565b6108ac838361118d565b9392505050565b6001600160a01b03918216600090815260016020908152604080832093909416825291909152205490565b6108e6610fa6565b6005546001600160a01b0383811691161480159061090d57506001600160a01b0382163014155b80156109275750600f546001600160a01b03838116911614155b801561096557507f00000000000000000000000000000000000000000000000000000000000000006001600160a01b0316826001600160a01b031614155b801561098a57506001600160a01b0382166000908152600d602052604090205460ff16155b6109d65760405162461bcd60e51b815260206004820152601e60248201527f416e74694d45563a2043616e6e6f74207365742056495020746f20424f5400006044820152606401610671565b6001600160a01b0382166000818152600c6020908152604091829020805460ff191685151590811790915591519182527f0cc5910ce116d1d71aa48f1ccd5e978315791068133c0c6aa7540ab8c9a8796d91016106ce565b610a36610fa6565b6001600160a01b038116610a9b5760405162461bcd60e51b815260206004820152602660248201527f4f776e61626c653a206e6577206f776e657220697320746865207a65726f206160448201526564647265737360d01b6064820152608401610671565b610aa48161113b565b50565b60006108ac828461175d565b60006108ac8284611774565b6001600160a01b038316610b215760405162461bcd60e51b8152602060048201526024808201527f45524332303a20617070726f76652066726f6d20746865207a65726f206164646044820152637265737360e01b6064820152608401610671565b6001600160a01b038216610b825760405162461bcd60e51b815260206004820152602260248201527f45524332303a20617070726f766520746f20746865207a65726f206164647265604482015261737360f01b6064820152608401610671565b6001600160a01b0383811660008181526001602090815260408083209487168084529482529182902085905590518481527f8c5be1e5ebec7d5bd14f71427d1e84f3dd0314c0f7b2291e5b200ac8c7c3b92591015b60405180910390a3505050565b6001600160a01b0382166000908152600d602052604090205460ff168015610c2557506001600160a01b0381166000908152600d602052604090205460ff16155b15610d14576007546001600160a01b0382166000908152600e6020526040902054610c50919061174a565b431115610c77576001600160a01b0381166000908152600e60205260409020439055610d14565b6001600160a01b0381166000908152600e60205260409020544303610ca657610ca18160016108de565b610d14565b60405162461bcd60e51b815260206004820152603960248201527f416e74694d45563a205472616e736665727320746f6f206672657175656e742c60448201527f20706f737369626c652073616e64776963682061747461636b000000000000006064820152608401610671565b6001600160a01b0381166000908152600d602052604090205460ff168015610d5557506001600160a01b0382166000908152600d602052604090205460ff16155b15610e2f576007546001600160a01b0383166000908152600e6020526040902054610d80919061174a565b431115610da457506001600160a01b03166000908152600e60205260409020439055565b6001600160a01b0382166000908152600e60205260409020544303610ca657610dce8260016108de565b60405162461bcd60e51b815260206004820152603060248201527f416e74694d45563a2053616e64776963682061747461636b206465746563746560448201526f642c20616464656420746f20626f747360801b6064820152608401610671565b5050565b6001600b6000828254610e46919061174a565b9091555050600b54610e58903a611774565b600b54610e66600182611796565b600a54610e73919061175d565b610e7d9190611774565b610e87919061174a565b600a556001600160a01b0382166000908152600d602052604090205460ff168015610ecb57506001600160a01b0381166000908152600d602052604090205460ff16155b15610f7457610efe610ef56064610eef600854600a54610aa790919063ffffffff16565b90610ab3565b600a549061119b565b3a10158015610f0f57506001600b54115b15610f745760405162461bcd60e51b815260206004820152602f60248201527f416e74694d45563a204761732062726962652064657465637465642c20706f7360448201526e39b4b1363290333937b73a16b93ab760891b6064820152608401610671565b600954600b541115610e2f573a600a556000600b555050565b600033610f9b8582856111a7565b610804858585611221565b6005546001600160a01b031633146107075760405162461bcd60e51b815260206004820181905260248201527f4f776e61626c653a2063616c6c6572206973206e6f7420746865206f776e65726044820152606401610671565b6001600160a01b0382166110605760405162461bcd60e51b815260206004820152602160248201527f45524332303a206275726e2066726f6d20746865207a65726f206164647265736044820152607360f81b6064820152608401610671565b61106c826000836113d0565b6001600160a01b038216600090815260208190526040902054818110156110e05760405162461bcd60e51b815260206004820152602260248201527f45524332303a206275726e20616d6f756e7420657863656564732062616c616e604482015261636560f01b6064820152608401610671565b6001600160a01b0383166000818152602081815260408083208686039055600280548790039055518581529192917fddf252ad1be2c89b69c2b068fc378daa952ba7f163c4a11628f55a4df523b3ef9101610bd7565b505050565b600580546001600160a01b038381166001600160a01b0319831681179093556040519116919082907f8be0079c531659141344cd1fd0a4f28419497f9722a3daafe3b4186f6b6457e090600090a35050565b60003361051d818585611221565b60006108ac828461174a565b60006111b384846108b3565b9050600019811461121b578181101561120e5760405162461bcd60e51b815260206004820152601d60248201527f45524332303a20696e73756666696369656e7420616c6c6f77616e63650000006044820152606401610671565b61121b8484848403610abf565b50505050565b6001600160a01b0383166112855760405162461bcd60e51b815260206004820152602560248201527f45524332303a207472616e736665722066726f6d20746865207a65726f206164604482015264647265737360d81b6064820152608401610671565b6001600160a01b0382166112e75760405162461bcd60e51b815260206004820152602360248201527f45524332303a207472616e7366657220746f20746865207a65726f206164647260448201526265737360e81b6064820152608401610671565b6112f28383836113d0565b6001600160a01b0383166000908152602081905260409020548181101561136a5760405162461bcd60e51b815260206004820152602660248201527f45524332303a207472616e7366657220616d6f756e7420657863656564732062604482015265616c616e636560d01b6064820152608401610671565b6001600160a01b03848116600081815260208181526040808320878703905593871680835291849020805487019055925185815290927fddf252ad1be2c89b69c2b068fc378daa952ba7f163c4a11628f55a4df523b3ef910160405180910390a361121b565b6001600160a01b0382166000908152600c602052604090205460ff1615801561141257506001600160a01b0383166000908152600c602052604090205460ff16155b6114575760405162461bcd60e51b8152602060048201526016602482015275105b9d1a5351558e8812db9bdddb8813515588189bdd60521b6044820152606401610671565b6001600160a01b0383166000908152600d602052604090205460ff16801561149857506001600160a01b0382166000908152600d602052604090205460ff16155b1561113657600654816114aa846106da565b6114b4919061174a565b11156111365760405162461bcd60e51b81526020600482015260146024820152734d61782077616c6c65742065786365656465642160601b6044820152606401610671565b600060208083528351808285015260005b818110156115265785810183015185820160400152820161150a565b506000604082860101526040601f19601f8301168501019250505092915050565b80356001600160a01b038116811461155e57600080fd5b919050565b6000806040838503121561157657600080fd5b61157f83611547565b946020939093013593505050565b6000806000606084860312156115a257600080fd5b6115ab84611547565b92506115b960208501611547565b9150604084013590509250925092565b8035801515811461155e57600080fd5b6000602082840312156115eb57600080fd5b6108ac826115c9565b60006020828403121561160657600080fd5b5035919050565b6000806040838503121561162057600080fd5b61162983611547565b9150611637602084016115c9565b90509250929050565b60006020828403121561165257600080fd5b6108ac82611547565b60008060006060848603121561167057600080fd5b61167984611547565b925061168760208501611547565b915061169560408501611547565b90509250925092565b600080600080608085870312156116b457600080fd5b5050823594602084013594506040840135936060013592509050565b600080604083850312156116e357600080fd5b6116ec83611547565b915061163760208401611547565b600181811c9082168061170e57607f821691505b60208210810361172e57634e487b7160e01b600052602260045260246000fd5b50919050565b634e487b7160e01b600052601160045260246000fd5b8082018082111561052357610523611734565b808202811582820484141761052357610523611734565b60008261179157634e487b7160e01b600052601260045260246000fd5b500490565b818103818111156105235761052361173456fea2646970667358221220e801653080246de5527fc046f91da6f9daa9e543ea24b07a7a6f0c08fa7d43c964736f6c63430008120033",
  "devdoc": {
    "events": {
      "Approval(address,address,uint256)": {
        "details": "Emitted when the allowance of a `spender` for an `owner` is set by a call to {approve}. `value` is the new allowance."
      },
      "Transfer(address,address,uint256)": {
        "details": "Emitted when `value` tokens are moved from one account (`from`) to another (`to`). Note that `value` may be zero."
      }
    },
    "kind": "dev",
    "methods": {
      "allowance(address,address)": {
        "details": "See {IERC20-allowance}."
      },
      "approve(address,uint256)": {
        "details": "See {IERC20-approve}. NOTE: If `amount` is the maximum `uint256`, the allowance is not updated on `transferFrom`. This is semantically equivalent to an infinite approval. Requirements: - `spender` cannot be the zero address."
      },
      "balanceOf(address)": {
        "details": "See {IERC20-balanceOf}."
      },
      "decimals()": {
        "details": "Returns the number of decimals used to get its user representation. For example, if `decimals` equals `2`, a balance of `505` tokens should be displayed to a user as `5.05` (`505 / 10 ** 2`). Tokens usually opt for a value of 18, imitating the relationship between Ether and Wei. This is the default value returned by this function, unless it's overridden. NOTE: This information is only used for _display_ purposes: it in no way affects any of the arithmetic of the contract, including {IERC20-balanceOf} and {IERC20-transfer}."
      },
      "decreaseAllowance(address,uint256)": {
        "details": "Atomically decreases the allowance granted to `spender` by the caller. This is an alternative to {approve} that can be used as a mitigation for problems described in {IERC20-approve}. Emits an {Approval} event indicating the updated allowance. Requirements: - `spender` cannot be the zero address. - `spender` must have allowance for the caller of at least `subtractedValue`."
      },
      "increaseAllowance(address,uint256)": {
        "details": "Atomically increases the allowance granted to `spender` by the caller. This is an alternative to {approve} that can be used as a mitigation for problems described in {IERC20-approve}. Emits an {Approval} event indicating the updated allowance. Requirements: - `spender` cannot be the zero address."
      },
      "name()": {
        "details": "Returns the name of the token."
      },
      "owner()": {
        "details": "Returns the address of the current owner."
      },
      "renounceOwnership()": {
        "details": "Leaves the contract without owner. It will not be possible to call `onlyOwner` functions. Can only be called by the current owner. NOTE: Renouncing ownership will leave the contract without an owner, thereby disabling any functionality that is only available to the owner."
      },
      "symbol()": {
        "details": "Returns the symbol of the token, usually a shorter version of the name."
      },
      "totalSupply()": {
        "details": "See {IERC20-totalSupply}."
      },
      "transfer(address,uint256)": {
        "details": "See {IERC20-transfer}. Requirements: - `to` cannot be the zero address. - the caller must have a balance of at least `amount`."
      },
      "transferFrom(address,address,uint256)": {
        "details": "See {IERC20-transferFrom}. Emits an {Approval} event indicating the updated allowance. This is not required by the EIP. See the note at the beginning of {ERC20}. NOTE: Does not update the allowance if the current allowance is the maximum `uint256`. Requirements: - `from` and `to` cannot be the zero address. - `from` must have a balance of at least `amount`. - the caller must have allowance for ``from``'s tokens of at least `amount`."
      },
      "transferOwnership(address)": {
        "details": "Transfers ownership of the contract to a new account (`newOwner`). Can only be called by the current owner."
      }
    },
    "version": 1
  },
  "userdoc": {
    "kind": "user",
    "methods": {},
    "version": 1
  },
  "storageLayout": {
    "storage": [
      {
        "astId": 581,
        "contract": "contracts/AntiMEV.sol:AntiMEV",
        "label": "_balances",
        "offset": 0,
        "slot": "0",
        "type": "t_mapping(t_address,t_uint256)"
      },
      {
        "astId": 587,
        "contract": "contracts/AntiMEV.sol:AntiMEV",
        "label": "_allowances",
        "offset": 0,
        "slot": "1",
        "type": "t_mapping(t_address,t_mapping(t_address,t_uint256))"
      },
      {
        "astId": 589,
        "contract": "contracts/AntiMEV.sol:AntiMEV",
        "label": "_totalSupply",
        "offset": 0,
        "slot": "2",
        "type": "t_uint256"
      },
      {
        "astId": 591,
        "contract": "contracts/AntiMEV.sol:AntiMEV",
        "label": "_name",
        "offset": 0,
        "slot": "3",
        "type": "t_string_storage"
      },
      {
        "astId": 593,
        "contract": "contracts/AntiMEV.sol:AntiMEV",
        "label": "_symbol",
        "offset": 0,
        "slot": "4",
        "type": "t_string_storage"
      },
      {
        "astId": 26,
        "contract": "contracts/AntiMEV.sol:AntiMEV",
        "label": "_owner",
        "offset": 0,
        "slot": "5",
        "type": "t_address"
      },
      {
        "astId": 1161,
        "contract": "contracts/AntiMEV.sol:AntiMEV",
        "label": "detectMEV",
        "offset": 20,
        "slot": "5",
        "type": "t_bool"
      },
      {
        "astId": 1163,
        "contract": "contracts/AntiMEV.sol:AntiMEV",
        "label": "maxWallet",
        "offset": 0,
        "slot": "6",
        "type": "t_uint256"
      },
      {
        "astId": 1165,
        "contract": "contracts/AntiMEV.sol:AntiMEV",
        "label": "mineBlocks",
        "offset": 0,
        "slot": "7",
        "type": "t_uint256"
      },
      {
        "astId": 1167,
        "contract": "contracts/AntiMEV.sol:AntiMEV",
        "label": "gasDelta",
        "offset": 0,
        "slot": "8",
        "type": "t_uint256"
      },
      {
        "astId": 1169,
        "contract": "contracts/AntiMEV.sol:AntiMEV",
        "label": "maxSample",
        "offset": 0,
        "slot": "9",
        "type": "t_uint256"
      },
      {
        "astId": 1171,
        "contract": "contracts/AntiMEV.sol:AntiMEV",
        "label": "avgGasPrice",
        "offset": 0,
        "slot": "10",
        "type": "t_uint256"
      },
      {
        "astId": 1173,
        "contract": "contracts/AntiMEV.sol:AntiMEV",
        "label": "txCounter",
        "offset": 0,
        "slot": "11",
        "type": "t_uint256"
      },
      {
        "astId": 1177,
        "contract": "contracts/AntiMEV.sol:AntiMEV",
        "label": "isBOT",
        "offset": 0,
        "slot": "12",
        "type": "t_mapping(t_address,t_bool)"
      },
      {
        "astId": 1181,
        "contract": "contracts/AntiMEV.sol:AntiMEV",
        "label": "isVIP",
        "offset": 0,
        "slot": "13",
        "type": "t_mapping(t_address,t_bool)"
      },
      {
        "astId": 1185,
        "contract": "contracts/AntiMEV.sol:AntiMEV",
        "label": "lastTxBlock",
        "offset": 0,
        "slot": "14",
        "type": "t_mapping(t_address,t_uint256)"
      },
      {
        "astId": 1190,
        "contract": "contracts/AntiMEV.sol:AntiMEV",
        "label": "uniswapV2Pair",
        "offset": 0,
        "slot": "15",
        "type": "t_address"
      },
      {
        "astId": 1192,
        "contract": "contracts/AntiMEV.sol:AntiMEV",
        "label": "dev",
        "offset": 0,
        "slot": "16",
        "type": "t_address"
      },
      {
        "astId": 1194,
        "contract": "contracts/AntiMEV.sol:AntiMEV",
        "label": "burns",
        "offset": 0,
        "slot": "17",
        "type": "t_address"
      },
      {
        "astId": 1196,
        "contract": "contracts/AntiMEV.sol:AntiMEV",
        "label": "airdrop",
        "offset": 0,
        "slot": "18",
        "type": "t_address"
      }
    ],
    "types": {
      "t_address": {
        "encoding": "inplace",
        "label": "address",
        "numberOfBytes": "20"
      },
      "t_bool": {
        "encoding": "inplace",
        "label": "bool",
        "numberOfBytes": "1"
      },
      "t_mapping(t_address,t_bool)": {
        "encoding": "mapping",
        "key": "t_address",
        "label": "mapping(address => bool)",
        "numberOfBytes": "32",
        "value": "t_bool"
      },
      "t_mapping(t_address,t_mapping(t_address,t_uint256))": {
        "encoding": "mapping",
        "key": "t_address",
        "label": "mapping(address => mapping(address => uint256))",
        "numberOfBytes": "32",
        "value": "t_mapping(t_address,t_uint256)"
      },
      "t_mapping(t_address,t_uint256)": {
        "encoding": "mapping",
        "key": "t_address",
        "label": "mapping(address => uint256)",
        "numberOfBytes": "32",
        "value": "t_uint256"
      },
      "t_string_storage": {
        "encoding": "bytes",
        "label": "string",
        "numberOfBytes": "32"
      },
      "t_uint256": {
        "encoding": "inplace",
        "label": "uint256",
        "numberOfBytes": "32"
      }
    }
  }
}