{
  "address": "0x80faA8b68d135C313f6D778138c4f32f4A6ef962",
  "abi": [
    {
      "inputs": [
        {
          "internalType": "uint256",
          "name": "_totalSupply",
          "type": "uint256"
        }
      ],
      "stateMutability": "nonpayable",
      "type": "constructor"
    },
    {
      "anonymous": false,
      "inputs": [
        {
          "indexed": true,
          "internalType": "address",
          "name": "owner",
          "type": "address"
        },
        {
          "indexed": true,
          "internalType": "address",
          "name": "spender",
          "type": "address"
        },
        {
          "indexed": false,
          "internalType": "uint256",
          "name": "value",
          "type": "uint256"
        }
      ],
      "name": "Approval",
      "type": "event"
    },
    {
      "anonymous": false,
      "inputs": [
        {
          "indexed": true,
          "internalType": "address",
          "name": "previousOwner",
          "type": "address"
        },
        {
          "indexed": true,
          "internalType": "address",
          "name": "newOwner",
          "type": "address"
        }
      ],
      "name": "OwnershipTransferred",
      "type": "event"
    },
    {
      "anonymous": false,
      "inputs": [
        {
          "indexed": true,
          "internalType": "address",
          "name": "from",
          "type": "address"
        },
        {
          "indexed": true,
          "internalType": "address",
          "name": "to",
          "type": "address"
        },
        {
          "indexed": false,
          "internalType": "uint256",
          "name": "value",
          "type": "uint256"
        }
      ],
      "name": "Transfer",
      "type": "event"
    },
    {
      "inputs": [
        {
          "internalType": "address",
          "name": "owner",
          "type": "address"
        },
        {
          "internalType": "address",
          "name": "spender",
          "type": "address"
        }
      ],
      "name": "allowance",
      "outputs": [
        {
          "internalType": "uint256",
          "name": "",
          "type": "uint256"
        }
      ],
      "stateMutability": "view",
      "type": "function"
    },
    {
      "inputs": [
        {
          "internalType": "address",
          "name": "spender",
          "type": "address"
        },
        {
          "internalType": "uint256",
          "name": "amount",
          "type": "uint256"
        }
      ],
      "name": "approve",
      "outputs": [
        {
          "internalType": "bool",
          "name": "",
          "type": "bool"
        }
      ],
      "stateMutability": "nonpayable",
      "type": "function"
    },
    {
      "inputs": [
        {
          "internalType": "address",
          "name": "account",
          "type": "address"
        }
      ],
      "name": "balanceOf",
      "outputs": [
        {
          "internalType": "uint256",
          "name": "",
          "type": "uint256"
        }
      ],
      "stateMutability": "view",
      "type": "function"
    },
    {
      "inputs": [],
      "name": "blockDelay",
      "outputs": [
        {
          "internalType": "uint16",
          "name": "",
          "type": "uint16"
        }
      ],
      "stateMutability": "view",
      "type": "function"
    },
    {
      "inputs": [
        {
          "internalType": "address",
          "name": "",
          "type": "address"
        }
      ],
      "name": "bots",
      "outputs": [
        {
          "internalType": "bool",
          "name": "",
          "type": "bool"
        }
      ],
      "stateMutability": "view",
      "type": "function"
    },
    {
      "inputs": [
        {
          "internalType": "uint256",
          "name": "value",
          "type": "uint256"
        }
      ],
      "name": "burn",
      "outputs": [],
      "stateMutability": "nonpayable",
      "type": "function"
    },
    {
      "inputs": [],
      "name": "decimals",
      "outputs": [
        {
          "internalType": "uint8",
          "name": "",
          "type": "uint8"
        }
      ],
      "stateMutability": "view",
      "type": "function"
    },
    {
      "inputs": [
        {
          "internalType": "address",
          "name": "spender",
          "type": "address"
        },
        {
          "internalType": "uint256",
          "name": "subtractedValue",
          "type": "uint256"
        }
      ],
      "name": "decreaseAllowance",
      "outputs": [
        {
          "internalType": "bool",
          "name": "",
          "type": "bool"
        }
      ],
      "stateMutability": "nonpayable",
      "type": "function"
    },
    {
      "inputs": [],
      "name": "enabled",
      "outputs": [
        {
          "internalType": "bool",
          "name": "",
          "type": "bool"
        }
      ],
      "stateMutability": "view",
      "type": "function"
    },
    {
      "inputs": [
        {
          "internalType": "address",
          "name": "spender",
          "type": "address"
        },
        {
          "internalType": "uint256",
          "name": "addedValue",
          "type": "uint256"
        }
      ],
      "name": "increaseAllowance",
      "outputs": [
        {
          "internalType": "bool",
          "name": "",
          "type": "bool"
        }
      ],
      "stateMutability": "nonpayable",
      "type": "function"
    },
    {
      "inputs": [],
      "name": "maxWallet",
      "outputs": [
        {
          "internalType": "uint256",
          "name": "",
          "type": "uint256"
        }
      ],
      "stateMutability": "view",
      "type": "function"
    },
    {
      "inputs": [],
      "name": "name",
      "outputs": [
        {
          "internalType": "string",
          "name": "",
          "type": "string"
        }
      ],
      "stateMutability": "view",
      "type": "function"
    },
    {
      "inputs": [],
      "name": "owner",
      "outputs": [
        {
          "internalType": "address",
          "name": "",
          "type": "address"
        }
      ],
      "stateMutability": "view",
      "type": "function"
    },
    {
      "inputs": [],
      "name": "renounceOwnership",
      "outputs": [],
      "stateMutability": "nonpayable",
      "type": "function"
    },
    {
      "inputs": [
        {
          "internalType": "address[]",
          "name": "_address",
          "type": "address[]"
        },
        {
          "internalType": "bool[]",
          "name": "_isBot",
          "type": "bool[]"
        }
      ],
      "name": "setBots",
      "outputs": [],
      "stateMutability": "nonpayable",
      "type": "function"
    },
    {
      "inputs": [
        {
          "internalType": "bool",
          "name": "_enabled",
          "type": "bool"
        },
        {
          "internalType": "uint256",
          "name": "_maxWallet",
          "type": "uint256"
        },
        {
          "internalType": "uint16",
          "name": "_blockDelay",
          "type": "uint16"
        },
        {
          "internalType": "contract ISwapRouter",
          "name": "_swapRouter",
          "type": "address"
        }
      ],
      "name": "setVars",
      "outputs": [],
      "stateMutability": "nonpayable",
      "type": "function"
    },
    {
      "inputs": [],
      "name": "swapRouter",
      "outputs": [
        {
          "internalType": "contract ISwapRouter",
          "name": "",
          "type": "address"
        }
      ],
      "stateMutability": "view",
      "type": "function"
    },
    {
      "inputs": [],
      "name": "symbol",
      "outputs": [
        {
          "internalType": "string",
          "name": "",
          "type": "string"
        }
      ],
      "stateMutability": "view",
      "type": "function"
    },
    {
      "inputs": [],
      "name": "totalSupply",
      "outputs": [
        {
          "internalType": "uint256",
          "name": "",
          "type": "uint256"
        }
      ],
      "stateMutability": "view",
      "type": "function"
    },
    {
      "inputs": [
        {
          "internalType": "address",
          "name": "recipient",
          "type": "address"
        },
        {
          "internalType": "uint256",
          "name": "amount",
          "type": "uint256"
        }
      ],
      "name": "transfer",
      "outputs": [
        {
          "internalType": "bool",
          "name": "",
          "type": "bool"
        }
      ],
      "stateMutability": "nonpayable",
      "type": "function"
    },
    {
      "inputs": [
        {
          "internalType": "address",
          "name": "sender",
          "type": "address"
        },
        {
          "internalType": "address",
          "name": "recipient",
          "type": "address"
        },
        {
          "internalType": "uint256",
          "name": "amount",
          "type": "uint256"
        }
      ],
      "name": "transferFrom",
      "outputs": [
        {
          "internalType": "bool",
          "name": "",
          "type": "bool"
        }
      ],
      "stateMutability": "nonpayable",
      "type": "function"
    },
    {
      "inputs": [
        {
          "internalType": "address",
          "name": "newOwner",
          "type": "address"
        }
      ],
      "name": "transferOwnership",
      "outputs": [],
      "stateMutability": "nonpayable",
      "type": "function"
    }
  ],
  "transactionHash": "0xbc0550902f1d60dfcaaf54e019f1521983ed78a9d593eab00cbabc2ff550f4f0",
  "args": [
    "1123581321000000000000000000"
  ],
  "numDeployments": 2,
  "solcInputHash": "6166668f4b0f248e7e5ebcd5782875fc",
  "bytecode": "0x60806040526005805460ff60a01b1916600160a01b1790556a129c8f71ad02e2a68000006006556007805461ffff191660041790553480156200004157600080fd5b50604051620019e0380380620019e0833981016040819052620000649162000407565b6040518060400160405280600781526020016620b73a34a6a2ab60c91b8152506040518060400160405280600481526020016330a6a2ab60e11b8152508160029081620000b29190620004c5565b506003620000c18282620004c5565b505050620000de620000d8620000f160201b60201c565b620000f5565b620000ea338262000147565b50620005b9565b3390565b600580546001600160a01b038381166001600160a01b0319831681179093556040519116919082907f8be0079c531659141344cd1fd0a4f28419497f9722a3daafe3b4186f6b6457e090600090a35050565b6001600160a01b038216620001a35760405162461bcd60e51b815260206004820152601f60248201527f45524332303a206d696e7420746f20746865207a65726f20616464726573730060448201526064015b60405180910390fd5b620001b1600083836200023e565b8060046000828254620001c5919062000591565b90915550506001600160a01b03821660009081526020819052604081208054839290620001f490849062000591565b90915550506040518181526001600160a01b038316906000907fddf252ad1be2c89b69c2b068fc378daa952ba7f163c4a11628f55a4df523b3ef9060200160405180910390a35050565b600554600160a01b900460ff166200025557600080fd5b6001600160a01b03821660009081526008602052604090205460ff161580156200029857506001600160a01b03831660009081526008602052604090205460ff16155b620002d15760405162461bcd60e51b81526020600482015260086024820152674d455620424f542160c01b60448201526064016200019a565b6007546201000090046001600160a01b031662000355576005546001600160a01b03848116911614806200031257506005546001600160a01b038381169116145b620003505760405162461bcd60e51b815260206004820152600d60248201526c50414952204e4f54205345542160981b60448201526064016200019a565b505050565b600554600160a01b900460ff1680156200038257506007546001600160a01b038481166201000090920416145b15620003505760065481620003a284620003ec60201b620006061760201c565b620003ae919062000591565b1115620003505760405162461bcd60e51b815260206004820152600b60248201526a4d41582057414c4c45542160a81b60448201526064016200019a565b6001600160a01b031660009081526020819052604090205490565b6000602082840312156200041a57600080fd5b5051919050565b634e487b7160e01b600052604160045260246000fd5b600181811c908216806200044c57607f821691505b6020821081036200046d57634e487b7160e01b600052602260045260246000fd5b50919050565b601f8211156200035057600081815260208120601f850160051c810160208610156200049c5750805b601f850160051c820191505b81811015620004bd57828155600101620004a8565b505050505050565b81516001600160401b03811115620004e157620004e162000421565b620004f981620004f2845462000437565b8462000473565b602080601f831160018114620005315760008415620005185750858301515b600019600386901b1c1916600185901b178555620004bd565b600085815260208120601f198616915b82811015620005625788860151825594840194600190910190840162000541565b5085821015620005815787850151600019600388901b60f8161c191681555b5050505050600190811b01905550565b80820180821115620005b357634e487b7160e01b600052601160045260246000fd5b92915050565b61141780620005c96000396000f3fe608060405234801561001057600080fd5b50600436106101425760003560e01c80638da5cb5b116100b8578063c31c9c071161007c578063c31c9c071461029c578063d98f6088146102b5578063dd62ed3e146102d6578063e41b7a2c1461030f578063f2fde38b14610322578063f8b45b051461033557600080fd5b80638da5cb5b1461022657806395d89b411461024b578063a457c2d714610253578063a9059cbb14610266578063bfd792841461027957600080fd5b806323b872dd1161010a57806323b872dd146101c3578063313ce567146101d657806339509351146101e557806342966c68146101f857806370a082311461020b578063715018a61461021e57600080fd5b806306fdde0314610147578063095ea7b3146101655780630ee0347c1461018857806318160ddd1461019d578063238dafe0146101af575b600080fd5b61014f61033e565b60405161015c9190610f67565b60405180910390f35b610178610173366004610fca565b6103d0565b604051901515815260200161015c565b61019b6101963660046110e8565b6103e7565b005b6004545b60405190815260200161015c565b60055461017890600160a01b900460ff1681565b6101786101d13660046111aa565b610519565b6040516012815260200161015c565b6101786101f3366004610fca565b610593565b61019b6102063660046111eb565b6105cf565b6101a1610219366004611204565b610606565b61019b610621565b6005546001600160a01b03165b6040516001600160a01b03909116815260200161015c565b61014f610657565b610178610261366004610fca565b610666565b610178610274366004610fca565b6106ff565b610178610287366004611204565b60086020526000908152604090205460ff1681565b600754610233906201000090046001600160a01b031681565b6007546102c39061ffff1681565b60405161ffff909116815260200161015c565b6101a16102e4366004611221565b6001600160a01b03918216600090815260016020908152604080832093909416825291909152205490565b61019b61031d36600461125a565b610765565b61019b610330366004611204565b6107e4565b6101a160065481565b60606002805461034d906112b2565b80601f0160208091040260200160405190810160405280929190818152602001828054610379906112b2565b80156103c65780601f1061039b576101008083540402835291602001916103c6565b820191906000526020600020905b8154815290600101906020018083116103a957829003601f168201915b5050505050905090565b60006103dd33848461087c565b5060015b92915050565b6005546001600160a01b0316331461041a5760405162461bcd60e51b8152600401610411906112ec565b60405180910390fd5b60005b825181101561051457306001600160a01b031683828151811061044257610442611321565b60200260200101516001600160a01b03161415801561049757506005546001600160a01b03166001600160a01b031683828151811061048357610483611321565b60200260200101516001600160a01b031614155b6104a057600080fd5b8181815181106104b2576104b2611321565b6020026020010151600860008584815181106104d0576104d0611321565b6020908102919091018101516001600160a01b03168252810191909152604001600020805460ff19169115159190911790558061050c8161134d565b91505061041d565b505050565b6007546001600160a01b03841660009081526009602052604081205490916105479161ffff90911690611366565b43116105655760405162461bcd60e51b815260040161041190611379565b6001600160a01b038416600090815260096020526040902043905561058b8484846109a0565b949350505050565b3360008181526001602090815260408083206001600160a01b038716845290915281205490916103dd9185906105ca908690611366565b61087c565b6005546001600160a01b031633146105f95760405162461bcd60e51b8152600401610411906112ec565b6106033382610a4a565b50565b6001600160a01b031660009081526020819052604090205490565b6005546001600160a01b0316331461064b5760405162461bcd60e51b8152600401610411906112ec565b6106556000610ba4565b565b60606003805461034d906112b2565b3360009081526001602090815260408083206001600160a01b0386168452909152812054828110156106e85760405162461bcd60e51b815260206004820152602560248201527f45524332303a2064656372656173656420616c6c6f77616e63652062656c6f77604482015264207a65726f60d81b6064820152608401610411565b6106f5338585840361087c565b5060019392505050565b6007543360009081526009602052604081205490916107249161ffff90911690611366565b43116107425760405162461bcd60e51b815260040161041190611379565b33600090815260096020526040902043905561075e8383610bf6565b9392505050565b6005546001600160a01b0316331461078f5760405162461bcd60e51b8152600401610411906112ec565b60058054941515600160a01b0260ff60a01b1990951694909417909355600691909155600780546001600160a01b0390931662010000026001600160b01b031990931661ffff90921691909117919091179055565b6005546001600160a01b0316331461080e5760405162461bcd60e51b8152600401610411906112ec565b6001600160a01b0381166108735760405162461bcd60e51b815260206004820152602660248201527f4f776e61626c653a206e6577206f776e657220697320746865207a65726f206160448201526564647265737360d01b6064820152608401610411565b61060381610ba4565b6001600160a01b0383166108de5760405162461bcd60e51b8152602060048201526024808201527f45524332303a20617070726f76652066726f6d20746865207a65726f206164646044820152637265737360e01b6064820152608401610411565b6001600160a01b03821661093f5760405162461bcd60e51b815260206004820152602260248201527f45524332303a20617070726f766520746f20746865207a65726f206164647265604482015261737360f01b6064820152608401610411565b6001600160a01b0383811660008181526001602090815260408083209487168084529482529182902085905590518481527f8c5be1e5ebec7d5bd14f71427d1e84f3dd0314c0f7b2291e5b200ac8c7c3b925910160405180910390a3505050565b60006109ad848484610bff565b6001600160a01b038416600090815260016020908152604080832033845290915290205482811015610a325760405162461bcd60e51b815260206004820152602860248201527f45524332303a207472616e7366657220616d6f756e74206578636565647320616044820152676c6c6f77616e636560c01b6064820152608401610411565b610a3f853385840361087c565b506001949350505050565b6001600160a01b038216610aaa5760405162461bcd60e51b815260206004820152602160248201527f45524332303a206275726e2066726f6d20746865207a65726f206164647265736044820152607360f81b6064820152608401610411565b610ab682600083610dd9565b6001600160a01b03821660009081526020819052604090205481811015610b2a5760405162461bcd60e51b815260206004820152602260248201527f45524332303a206275726e20616d6f756e7420657863656564732062616c616e604482015261636560f01b6064820152608401610411565b6001600160a01b0383166000908152602081905260408120838303905560048054849290610b599084906113ce565b90915550506040518281526000906001600160a01b038516907fddf252ad1be2c89b69c2b068fc378daa952ba7f163c4a11628f55a4df523b3ef9060200160405180910390a3505050565b600580546001600160a01b038381166001600160a01b0319831681179093556040519116919082907f8be0079c531659141344cd1fd0a4f28419497f9722a3daafe3b4186f6b6457e090600090a35050565b60006103dd3384845b6001600160a01b038316610c635760405162461bcd60e51b815260206004820152602560248201527f45524332303a207472616e736665722066726f6d20746865207a65726f206164604482015264647265737360d81b6064820152608401610411565b6001600160a01b038216610cc55760405162461bcd60e51b815260206004820152602360248201527f45524332303a207472616e7366657220746f20746865207a65726f206164647260448201526265737360e81b6064820152608401610411565b610cd0838383610dd9565b6001600160a01b03831660009081526020819052604090205481811015610d485760405162461bcd60e51b815260206004820152602660248201527f45524332303a207472616e7366657220616d6f756e7420657863656564732062604482015265616c616e636560d01b6064820152608401610411565b6001600160a01b03808516600090815260208190526040808220858503905591851681529081208054849290610d7f908490611366565b92505081905550826001600160a01b0316846001600160a01b03167fddf252ad1be2c89b69c2b068fc378daa952ba7f163c4a11628f55a4df523b3ef84604051610dcb91815260200190565b60405180910390a350505050565b600554600160a01b900460ff16610def57600080fd5b6001600160a01b03821660009081526008602052604090205460ff16158015610e3157506001600160a01b03831660009081526008602052604090205460ff16155b610e685760405162461bcd60e51b81526020600482015260086024820152674d455620424f542160c01b6044820152606401610411565b6007546201000090046001600160a01b0316610ee3576005546001600160a01b0384811691161480610ea757506005546001600160a01b038381169116145b6105145760405162461bcd60e51b815260206004820152600d60248201526c50414952204e4f54205345542160981b6044820152606401610411565b600554600160a01b900460ff168015610f0f57506007546001600160a01b038481166201000090920416145b156105145760065481610f2184610606565b610f2b9190611366565b11156105145760405162461bcd60e51b815260206004820152600b60248201526a4d41582057414c4c45542160a81b6044820152606401610411565b600060208083528351808285015260005b81811015610f9457858101830151858201604001528201610f78565b506000604082860101526040601f19601f8301168501019250505092915050565b6001600160a01b038116811461060357600080fd5b60008060408385031215610fdd57600080fd5b8235610fe881610fb5565b946020939093013593505050565b634e487b7160e01b600052604160045260246000fd5b604051601f8201601f1916810167ffffffffffffffff8111828210171561103557611035610ff6565b604052919050565b600067ffffffffffffffff82111561105757611057610ff6565b5060051b60200190565b8035801515811461107157600080fd5b919050565b600082601f83011261108757600080fd5b8135602061109c6110978361103d565b61100c565b82815260059290921b840181019181810190868411156110bb57600080fd5b8286015b848110156110dd576110d081611061565b83529183019183016110bf565b509695505050505050565b600080604083850312156110fb57600080fd5b823567ffffffffffffffff8082111561111357600080fd5b818501915085601f83011261112757600080fd5b813560206111376110978361103d565b82815260059290921b8401810191818101908984111561115657600080fd5b948201945b8386101561117d57853561116e81610fb5565b8252948201949082019061115b565b9650508601359250508082111561119357600080fd5b506111a085828601611076565b9150509250929050565b6000806000606084860312156111bf57600080fd5b83356111ca81610fb5565b925060208401356111da81610fb5565b929592945050506040919091013590565b6000602082840312156111fd57600080fd5b5035919050565b60006020828403121561121657600080fd5b813561075e81610fb5565b6000806040838503121561123457600080fd5b823561123f81610fb5565b9150602083013561124f81610fb5565b809150509250929050565b6000806000806080858703121561127057600080fd5b61127985611061565b935060208501359250604085013561ffff8116811461129757600080fd5b915060608501356112a781610fb5565b939692955090935050565b600181811c908216806112c657607f821691505b6020821081036112e657634e487b7160e01b600052602260045260246000fd5b50919050565b6020808252818101527f4f776e61626c653a2063616c6c6572206973206e6f7420746865206f776e6572604082015260600190565b634e487b7160e01b600052603260045260246000fd5b634e487b7160e01b600052601160045260246000fd5b60006001820161135f5761135f611337565b5060010190565b808201808211156103e1576103e1611337565b60208082526035908201527f416e74694d4556546f6b656e3a2043616e6e6f74207472616e7366657220747760408201527469636520696e207468652073616d6520626c6f636b60581b606082015260800190565b818103818111156103e1576103e161133756fea26469706673582212207e5b7678b9a0a325d59658a7087816d0a8ffc03af9a45a9ab6b738fcd696dd4d64736f6c63430008120033",
  "devdoc": {
    "kind": "dev",
    "methods": {
      "decimals()": {
        "details": "Returns the decimals places of the token."
      },
      "name()": {
        "details": "Returns the name of the token."
      },
      "symbol()": {
        "details": "Returns the symbol of the token."
      }
    },
    "version": 1
  },
  "userdoc": {
    "kind": "user",
    "methods": {},
    "version": 1
  },
  "storageLayout": {
    "storage": [
      {
        "astId": 318,
        "contract": "contracts/AntiMEV.sol:AntiMEV",
        "label": "_balances",
        "offset": 0,
        "slot": "0",
        "type": "t_mapping(t_address,t_uint256)"
      },
      {
        "astId": 324,
        "contract": "contracts/AntiMEV.sol:AntiMEV",
        "label": "_allowances",
        "offset": 0,
        "slot": "1",
        "type": "t_mapping(t_address,t_mapping(t_address,t_uint256))"
      },
      {
        "astId": 326,
        "contract": "contracts/AntiMEV.sol:AntiMEV",
        "label": "_name",
        "offset": 0,
        "slot": "2",
        "type": "t_string_storage"
      },
      {
        "astId": 328,
        "contract": "contracts/AntiMEV.sol:AntiMEV",
        "label": "_symbol",
        "offset": 0,
        "slot": "3",
        "type": "t_string_storage"
      },
      {
        "astId": 330,
        "contract": "contracts/AntiMEV.sol:AntiMEV",
        "label": "_totalSupply",
        "offset": 0,
        "slot": "4",
        "type": "t_uint256"
      },
      {
        "astId": 24,
        "contract": "contracts/AntiMEV.sol:AntiMEV",
        "label": "_owner",
        "offset": 0,
        "slot": "5",
        "type": "t_address"
      },
      {
        "astId": 838,
        "contract": "contracts/AntiMEV.sol:AntiMEV",
        "label": "enabled",
        "offset": 20,
        "slot": "5",
        "type": "t_bool"
      },
      {
        "astId": 843,
        "contract": "contracts/AntiMEV.sol:AntiMEV",
        "label": "maxWallet",
        "offset": 0,
        "slot": "6",
        "type": "t_uint256"
      },
      {
        "astId": 846,
        "contract": "contracts/AntiMEV.sol:AntiMEV",
        "label": "blockDelay",
        "offset": 0,
        "slot": "7",
        "type": "t_uint16"
      },
      {
        "astId": 849,
        "contract": "contracts/AntiMEV.sol:AntiMEV",
        "label": "swapRouter",
        "offset": 2,
        "slot": "7",
        "type": "t_contract(ISwapRouter)308"
      },
      {
        "astId": 853,
        "contract": "contracts/AntiMEV.sol:AntiMEV",
        "label": "bots",
        "offset": 0,
        "slot": "8",
        "type": "t_mapping(t_address,t_bool)"
      },
      {
        "astId": 857,
        "contract": "contracts/AntiMEV.sol:AntiMEV",
        "label": "lastTxBlock",
        "offset": 0,
        "slot": "9",
        "type": "t_mapping(t_address,t_uint256)"
      }
    ],
    "types": {
      "t_address": {
        "encoding": "inplace",
        "label": "address",
        "numberOfBytes": "20"
      },
      "t_bool": {
        "encoding": "inplace",
        "label": "bool",
        "numberOfBytes": "1"
      },
      "t_contract(ISwapRouter)308": {
        "encoding": "inplace",
        "label": "contract ISwapRouter",
        "numberOfBytes": "20"
      },
      "t_mapping(t_address,t_bool)": {
        "encoding": "mapping",
        "key": "t_address",
        "label": "mapping(address => bool)",
        "numberOfBytes": "32",
        "value": "t_bool"
      },
      "t_mapping(t_address,t_mapping(t_address,t_uint256))": {
        "encoding": "mapping",
        "key": "t_address",
        "label": "mapping(address => mapping(address => uint256))",
        "numberOfBytes": "32",
        "value": "t_mapping(t_address,t_uint256)"
      },
      "t_mapping(t_address,t_uint256)": {
        "encoding": "mapping",
        "key": "t_address",
        "label": "mapping(address => uint256)",
        "numberOfBytes": "32",
        "value": "t_uint256"
      },
      "t_string_storage": {
        "encoding": "bytes",
        "label": "string",
        "numberOfBytes": "32"
      },
      "t_uint16": {
        "encoding": "inplace",
        "label": "uint16",
        "numberOfBytes": "2"
      },
      "t_uint256": {
        "encoding": "inplace",
        "label": "uint256",
        "numberOfBytes": "32"
      }
    }
  }
}