{
  "address": "0x351edbE0A2711E0C5CF02Cd04Eb529aB108F1FA4",
  "abi": [
    {
      "inputs": [
        {
          "internalType": "uint256",
          "name": "_totalSupply",
          "type": "uint256"
        }
      ],
      "stateMutability": "nonpayable",
      "type": "constructor"
    },
    {
      "anonymous": false,
      "inputs": [
        {
          "indexed": true,
          "internalType": "address",
          "name": "owner",
          "type": "address"
        },
        {
          "indexed": true,
          "internalType": "address",
          "name": "spender",
          "type": "address"
        },
        {
          "indexed": false,
          "internalType": "uint256",
          "name": "value",
          "type": "uint256"
        }
      ],
      "name": "Approval",
      "type": "event"
    },
    {
      "anonymous": false,
      "inputs": [
        {
          "indexed": true,
          "internalType": "address",
          "name": "previousOwner",
          "type": "address"
        },
        {
          "indexed": true,
          "internalType": "address",
          "name": "newOwner",
          "type": "address"
        }
      ],
      "name": "OwnershipTransferred",
      "type": "event"
    },
    {
      "anonymous": false,
      "inputs": [
        {
          "indexed": true,
          "internalType": "address",
          "name": "from",
          "type": "address"
        },
        {
          "indexed": true,
          "internalType": "address",
          "name": "to",
          "type": "address"
        },
        {
          "indexed": false,
          "internalType": "uint256",
          "name": "value",
          "type": "uint256"
        }
      ],
      "name": "Transfer",
      "type": "event"
    },
    {
      "inputs": [
        {
          "internalType": "address",
          "name": "owner",
          "type": "address"
        },
        {
          "internalType": "address",
          "name": "spender",
          "type": "address"
        }
      ],
      "name": "allowance",
      "outputs": [
        {
          "internalType": "uint256",
          "name": "",
          "type": "uint256"
        }
      ],
      "stateMutability": "view",
      "type": "function"
    },
    {
      "inputs": [
        {
          "internalType": "address",
          "name": "spender",
          "type": "address"
        },
        {
          "internalType": "uint256",
          "name": "amount",
          "type": "uint256"
        }
      ],
      "name": "approve",
      "outputs": [
        {
          "internalType": "bool",
          "name": "",
          "type": "bool"
        }
      ],
      "stateMutability": "nonpayable",
      "type": "function"
    },
    {
      "inputs": [
        {
          "internalType": "address",
          "name": "account",
          "type": "address"
        }
      ],
      "name": "balanceOf",
      "outputs": [
        {
          "internalType": "uint256",
          "name": "",
          "type": "uint256"
        }
      ],
      "stateMutability": "view",
      "type": "function"
    },
    {
      "inputs": [],
      "name": "blockDelay",
      "outputs": [
        {
          "internalType": "uint16",
          "name": "",
          "type": "uint16"
        }
      ],
      "stateMutability": "view",
      "type": "function"
    },
    {
      "inputs": [
        {
          "internalType": "address",
          "name": "",
          "type": "address"
        }
      ],
      "name": "bots",
      "outputs": [
        {
          "internalType": "bool",
          "name": "",
          "type": "bool"
        }
      ],
      "stateMutability": "view",
      "type": "function"
    },
    {
      "inputs": [
        {
          "internalType": "uint256",
          "name": "value",
          "type": "uint256"
        }
      ],
      "name": "burn",
      "outputs": [],
      "stateMutability": "nonpayable",
      "type": "function"
    },
    {
      "inputs": [],
      "name": "decimals",
      "outputs": [
        {
          "internalType": "uint8",
          "name": "",
          "type": "uint8"
        }
      ],
      "stateMutability": "view",
      "type": "function"
    },
    {
      "inputs": [
        {
          "internalType": "address",
          "name": "spender",
          "type": "address"
        },
        {
          "internalType": "uint256",
          "name": "subtractedValue",
          "type": "uint256"
        }
      ],
      "name": "decreaseAllowance",
      "outputs": [
        {
          "internalType": "bool",
          "name": "",
          "type": "bool"
        }
      ],
      "stateMutability": "nonpayable",
      "type": "function"
    },
    {
      "inputs": [
        {
          "internalType": "bool",
          "name": "_enabled",
          "type": "bool"
        }
      ],
      "name": "enableTrading",
      "outputs": [],
      "stateMutability": "nonpayable",
      "type": "function"
    },
    {
      "inputs": [],
      "name": "enabled",
      "outputs": [
        {
          "internalType": "bool",
          "name": "",
          "type": "bool"
        }
      ],
      "stateMutability": "view",
      "type": "function"
    },
    {
      "inputs": [
        {
          "internalType": "address",
          "name": "spender",
          "type": "address"
        },
        {
          "internalType": "uint256",
          "name": "addedValue",
          "type": "uint256"
        }
      ],
      "name": "increaseAllowance",
      "outputs": [
        {
          "internalType": "bool",
          "name": "",
          "type": "bool"
        }
      ],
      "stateMutability": "nonpayable",
      "type": "function"
    },
    {
      "inputs": [],
      "name": "maxWallet",
      "outputs": [
        {
          "internalType": "uint256",
          "name": "",
          "type": "uint256"
        }
      ],
      "stateMutability": "view",
      "type": "function"
    },
    {
      "inputs": [],
      "name": "name",
      "outputs": [
        {
          "internalType": "string",
          "name": "",
          "type": "string"
        }
      ],
      "stateMutability": "view",
      "type": "function"
    },
    {
      "inputs": [],
      "name": "owner",
      "outputs": [
        {
          "internalType": "address",
          "name": "",
          "type": "address"
        }
      ],
      "stateMutability": "view",
      "type": "function"
    },
    {
      "inputs": [],
      "name": "renounceOwnership",
      "outputs": [],
      "stateMutability": "nonpayable",
      "type": "function"
    },
    {
      "inputs": [
        {
          "internalType": "address[]",
          "name": "_address",
          "type": "address[]"
        },
        {
          "internalType": "bool[]",
          "name": "_isBot",
          "type": "bool[]"
        }
      ],
      "name": "setBots",
      "outputs": [],
      "stateMutability": "nonpayable",
      "type": "function"
    },
    {
      "inputs": [
        {
          "internalType": "uint256",
          "name": "_maxWallet",
          "type": "uint256"
        },
        {
          "internalType": "uint16",
          "name": "_blockDelay",
          "type": "uint16"
        },
        {
          "internalType": "address",
          "name": "_uniswapV2Pair",
          "type": "address"
        }
      ],
      "name": "setVars",
      "outputs": [],
      "stateMutability": "nonpayable",
      "type": "function"
    },
    {
      "inputs": [],
      "name": "symbol",
      "outputs": [
        {
          "internalType": "string",
          "name": "",
          "type": "string"
        }
      ],
      "stateMutability": "view",
      "type": "function"
    },
    {
      "inputs": [],
      "name": "totalSupply",
      "outputs": [
        {
          "internalType": "uint256",
          "name": "",
          "type": "uint256"
        }
      ],
      "stateMutability": "view",
      "type": "function"
    },
    {
      "inputs": [
        {
          "internalType": "address",
          "name": "recipient",
          "type": "address"
        },
        {
          "internalType": "uint256",
          "name": "amount",
          "type": "uint256"
        }
      ],
      "name": "transfer",
      "outputs": [
        {
          "internalType": "bool",
          "name": "",
          "type": "bool"
        }
      ],
      "stateMutability": "nonpayable",
      "type": "function"
    },
    {
      "inputs": [
        {
          "internalType": "address",
          "name": "sender",
          "type": "address"
        },
        {
          "internalType": "address",
          "name": "recipient",
          "type": "address"
        },
        {
          "internalType": "uint256",
          "name": "amount",
          "type": "uint256"
        }
      ],
      "name": "transferFrom",
      "outputs": [
        {
          "internalType": "bool",
          "name": "",
          "type": "bool"
        }
      ],
      "stateMutability": "nonpayable",
      "type": "function"
    },
    {
      "inputs": [
        {
          "internalType": "address",
          "name": "newOwner",
          "type": "address"
        }
      ],
      "name": "transferOwnership",
      "outputs": [],
      "stateMutability": "nonpayable",
      "type": "function"
    },
    {
      "inputs": [],
      "name": "uniswapV2Pair",
      "outputs": [
        {
          "internalType": "address",
          "name": "",
          "type": "address"
        }
      ],
      "stateMutability": "view",
      "type": "function"
    }
  ],
  "transactionHash": "0xec280fe76f0b4a10d64d04738b3a940f1b923e9434fc124e71999727ce826181",
  "args": [
    "1123581321000000000000000000"
  ],
  "numDeployments": 2,
  "solcInputHash": "e856b400cdd234a1807b9db4034384cf",
  "bytecode": "0x60806040526005805460ff60a01b1916600160a01b1790556a094b46a7939d470b4900006006556007805461ffff191660031790553480156200004157600080fd5b5060405162001a2638038062001a26833981016040819052620000649162000407565b6040518060400160405280600781526020016620b73a34a6a2ab60c91b8152506040518060400160405280600481526020016330a6a2ab60e11b8152508160029081620000b29190620004c5565b506003620000c18282620004c5565b505050620000de620000d8620000f160201b60201c565b620000f5565b620000ea338262000147565b50620005b9565b3390565b600580546001600160a01b038381166001600160a01b0319831681179093556040519116919082907f8be0079c531659141344cd1fd0a4f28419497f9722a3daafe3b4186f6b6457e090600090a35050565b6001600160a01b038216620001a35760405162461bcd60e51b815260206004820152601f60248201527f45524332303a206d696e7420746f20746865207a65726f20616464726573730060448201526064015b60405180910390fd5b620001b1600083836200023e565b8060046000828254620001c5919062000591565b90915550506001600160a01b03821660009081526020819052604081208054839290620001f490849062000591565b90915550506040518181526001600160a01b038316906000907fddf252ad1be2c89b69c2b068fc378daa952ba7f163c4a11628f55a4df523b3ef9060200160405180910390a35050565b600554600160a01b900460ff166200025557600080fd5b6001600160a01b03821660009081526008602052604090205460ff161580156200029857506001600160a01b03831660009081526008602052604090205460ff16155b620002d15760405162461bcd60e51b81526020600482015260086024820152674d455620424f542160c01b60448201526064016200019a565b6007546201000090046001600160a01b031662000355576005546001600160a01b03848116911614806200031257506005546001600160a01b038381169116145b620003505760405162461bcd60e51b815260206004820152600d60248201526c50414952204e4f54205345542160981b60448201526064016200019a565b505050565b600554600160a01b900460ff1680156200038257506007546001600160a01b038481166201000090920416145b15620003505760065481620003a284620003ec60201b6200068a1760201c565b620003ae919062000591565b1115620003505760405162461bcd60e51b815260206004820152600b60248201526a4d41582057414c4c45542160a81b60448201526064016200019a565b6001600160a01b031660009081526020819052604090205490565b6000602082840312156200041a57600080fd5b5051919050565b634e487b7160e01b600052604160045260246000fd5b600181811c908216806200044c57607f821691505b6020821081036200046d57634e487b7160e01b600052602260045260246000fd5b50919050565b601f8211156200035057600081815260208120601f850160051c810160208610156200049c5750805b601f850160051c820191505b81811015620004bd57828155600101620004a8565b505050505050565b81516001600160401b03811115620004e157620004e162000421565b620004f981620004f2845462000437565b8462000473565b602080601f831160018114620005315760008415620005185750858301515b600019600386901b1c1916600185901b178555620004bd565b600085815260208120601f198616915b82811015620005625788860151825594840194600190910190840162000541565b5085821015620005815787850151600019600388901b60f8161c191681555b5050505050600190811b01905550565b80820180821115620005b357634e487b7160e01b600052601160045260246000fd5b92915050565b61145d80620005c96000396000f3fe608060405234801561001057600080fd5b506004361061014d5760003560e01c806370a08231116100c3578063bfd792841161007c578063bfd79284146102b4578063d98f6088146102d7578063dd62ed3e146102f8578063f275f64b14610331578063f2fde38b14610344578063f8b45b051461035757600080fd5b806370a082311461025a578063715018a61461026d5780638da5cb5b1461027557806395d89b4114610286578063a457c2d71461028e578063a9059cbb146102a157600080fd5b806323b872dd1161011557806323b872dd146101ce5780632ee876c6146101e1578063313ce567146101f4578063395093511461020357806342966c681461021657806349bd5a5e1461022957600080fd5b806306fdde0314610152578063095ea7b3146101705780630ee0347c1461019357806318160ddd146101a8578063238dafe0146101ba575b600080fd5b61015a610360565b6040516101679190610fb4565b60405180910390f35b61018361017e36600461101e565b6103f2565b6040519015158152602001610167565b6101a66101a1366004611135565b610409565b005b6004545b604051908152602001610167565b60055461018390600160a01b900460ff1681565b6101836101dc3660046111f5565b61053b565b6101a66101ef366004611231565b6105b5565b60405160128152602001610167565b61018361021136600461101e565b610617565b6101a6610224366004611276565b610653565b600754610242906201000090046001600160a01b031681565b6040516001600160a01b039091168152602001610167565b6101ac61026836600461128f565b61068a565b6101a66106a5565b6005546001600160a01b0316610242565b61015a6106db565b61018361029c36600461101e565b6106ea565b6101836102af36600461101e565b610783565b6101836102c236600461128f565b60086020526000908152604090205460ff1681565b6007546102e59061ffff1681565b60405161ffff9091168152602001610167565b6101ac6103063660046112aa565b6001600160a01b03918216600090815260016020908152604080832093909416825291909152205490565b6101a661033f3660046112dd565b6107e9565b6101a661035236600461128f565b610831565b6101ac60065481565b60606002805461036f906112f8565b80601f016020809104026020016040519081016040528092919081815260200182805461039b906112f8565b80156103e85780601f106103bd576101008083540402835291602001916103e8565b820191906000526020600020905b8154815290600101906020018083116103cb57829003601f168201915b5050505050905090565b60006103ff3384846108c9565b5060015b92915050565b6005546001600160a01b0316331461043c5760405162461bcd60e51b815260040161043390611332565b60405180910390fd5b60005b825181101561053657306001600160a01b031683828151811061046457610464611367565b60200260200101516001600160a01b0316141580156104b957506005546001600160a01b03166001600160a01b03168382815181106104a5576104a5611367565b60200260200101516001600160a01b031614155b6104c257600080fd5b8181815181106104d4576104d4611367565b6020026020010151600860008584815181106104f2576104f2611367565b6020908102919091018101516001600160a01b03168252810191909152604001600020805460ff19169115159190911790558061052e81611393565b91505061043f565b505050565b6007546001600160a01b03841660009081526009602052604081205490916105699161ffff909116906113ac565b43116105875760405162461bcd60e51b8152600401610433906113bf565b6001600160a01b03841660009081526009602052604090204390556105ad8484846109ed565b949350505050565b6005546001600160a01b031633146105df5760405162461bcd60e51b815260040161043390611332565b600692909255600780546001600160a01b0390931662010000026001600160b01b031990931661ffff90921691909117919091179055565b3360008181526001602090815260408083206001600160a01b038716845290915281205490916103ff91859061064e9086906113ac565b6108c9565b6005546001600160a01b0316331461067d5760405162461bcd60e51b815260040161043390611332565b6106873382610a97565b50565b6001600160a01b031660009081526020819052604090205490565b6005546001600160a01b031633146106cf5760405162461bcd60e51b815260040161043390611332565b6106d96000610bf1565b565b60606003805461036f906112f8565b3360009081526001602090815260408083206001600160a01b03861684529091528120548281101561076c5760405162461bcd60e51b815260206004820152602560248201527f45524332303a2064656372656173656420616c6c6f77616e63652062656c6f77604482015264207a65726f60d81b6064820152608401610433565b61077933858584036108c9565b5060019392505050565b6007543360009081526009602052604081205490916107a89161ffff909116906113ac565b43116107c65760405162461bcd60e51b8152600401610433906113bf565b3360009081526009602052604090204390556107e28383610c43565b9392505050565b6005546001600160a01b031633146108135760405162461bcd60e51b815260040161043390611332565b60058054911515600160a01b0260ff60a01b19909216919091179055565b6005546001600160a01b0316331461085b5760405162461bcd60e51b815260040161043390611332565b6001600160a01b0381166108c05760405162461bcd60e51b815260206004820152602660248201527f4f776e61626c653a206e6577206f776e657220697320746865207a65726f206160448201526564647265737360d01b6064820152608401610433565b61068781610bf1565b6001600160a01b03831661092b5760405162461bcd60e51b8152602060048201526024808201527f45524332303a20617070726f76652066726f6d20746865207a65726f206164646044820152637265737360e01b6064820152608401610433565b6001600160a01b03821661098c5760405162461bcd60e51b815260206004820152602260248201527f45524332303a20617070726f766520746f20746865207a65726f206164647265604482015261737360f01b6064820152608401610433565b6001600160a01b0383811660008181526001602090815260408083209487168084529482529182902085905590518481527f8c5be1e5ebec7d5bd14f71427d1e84f3dd0314c0f7b2291e5b200ac8c7c3b925910160405180910390a3505050565b60006109fa848484610c4c565b6001600160a01b038416600090815260016020908152604080832033845290915290205482811015610a7f5760405162461bcd60e51b815260206004820152602860248201527f45524332303a207472616e7366657220616d6f756e74206578636565647320616044820152676c6c6f77616e636560c01b6064820152608401610433565b610a8c85338584036108c9565b506001949350505050565b6001600160a01b038216610af75760405162461bcd60e51b815260206004820152602160248201527f45524332303a206275726e2066726f6d20746865207a65726f206164647265736044820152607360f81b6064820152608401610433565b610b0382600083610e26565b6001600160a01b03821660009081526020819052604090205481811015610b775760405162461bcd60e51b815260206004820152602260248201527f45524332303a206275726e20616d6f756e7420657863656564732062616c616e604482015261636560f01b6064820152608401610433565b6001600160a01b0383166000908152602081905260408120838303905560048054849290610ba6908490611414565b90915550506040518281526000906001600160a01b038516907fddf252ad1be2c89b69c2b068fc378daa952ba7f163c4a11628f55a4df523b3ef9060200160405180910390a3505050565b600580546001600160a01b038381166001600160a01b0319831681179093556040519116919082907f8be0079c531659141344cd1fd0a4f28419497f9722a3daafe3b4186f6b6457e090600090a35050565b60006103ff3384845b6001600160a01b038316610cb05760405162461bcd60e51b815260206004820152602560248201527f45524332303a207472616e736665722066726f6d20746865207a65726f206164604482015264647265737360d81b6064820152608401610433565b6001600160a01b038216610d125760405162461bcd60e51b815260206004820152602360248201527f45524332303a207472616e7366657220746f20746865207a65726f206164647260448201526265737360e81b6064820152608401610433565b610d1d838383610e26565b6001600160a01b03831660009081526020819052604090205481811015610d955760405162461bcd60e51b815260206004820152602660248201527f45524332303a207472616e7366657220616d6f756e7420657863656564732062604482015265616c616e636560d01b6064820152608401610433565b6001600160a01b03808516600090815260208190526040808220858503905591851681529081208054849290610dcc9084906113ac565b92505081905550826001600160a01b0316846001600160a01b03167fddf252ad1be2c89b69c2b068fc378daa952ba7f163c4a11628f55a4df523b3ef84604051610e1891815260200190565b60405180910390a350505050565b600554600160a01b900460ff16610e3c57600080fd5b6001600160a01b03821660009081526008602052604090205460ff16158015610e7e57506001600160a01b03831660009081526008602052604090205460ff16155b610eb55760405162461bcd60e51b81526020600482015260086024820152674d455620424f542160c01b6044820152606401610433565b6007546201000090046001600160a01b0316610f30576005546001600160a01b0384811691161480610ef457506005546001600160a01b038381169116145b6105365760405162461bcd60e51b815260206004820152600d60248201526c50414952204e4f54205345542160981b6044820152606401610433565b600554600160a01b900460ff168015610f5c57506007546001600160a01b038481166201000090920416145b156105365760065481610f6e8461068a565b610f7891906113ac565b11156105365760405162461bcd60e51b815260206004820152600b60248201526a4d41582057414c4c45542160a81b6044820152606401610433565b600060208083528351808285015260005b81811015610fe157858101830151858201604001528201610fc5565b506000604082860101526040601f19601f8301168501019250505092915050565b80356001600160a01b038116811461101957600080fd5b919050565b6000806040838503121561103157600080fd5b61103a83611002565b946020939093013593505050565b634e487b7160e01b600052604160045260246000fd5b604051601f8201601f1916810167ffffffffffffffff8111828210171561108757611087611048565b604052919050565b600067ffffffffffffffff8211156110a9576110a9611048565b5060051b60200190565b8035801515811461101957600080fd5b600082601f8301126110d457600080fd5b813560206110e96110e48361108f565b61105e565b82815260059290921b8401810191818101908684111561110857600080fd5b8286015b8481101561112a5761111d816110b3565b835291830191830161110c565b509695505050505050565b6000806040838503121561114857600080fd5b823567ffffffffffffffff8082111561116057600080fd5b818501915085601f83011261117457600080fd5b813560206111846110e48361108f565b82815260059290921b840181019181810190898411156111a357600080fd5b948201945b838610156111c8576111b986611002565b825294820194908201906111a8565b965050860135925050808211156111de57600080fd5b506111eb858286016110c3565b9150509250929050565b60008060006060848603121561120a57600080fd5b61121384611002565b925061122160208501611002565b9150604084013590509250925092565b60008060006060848603121561124657600080fd5b83359250602084013561ffff8116811461125f57600080fd5b915061126d60408501611002565b90509250925092565b60006020828403121561128857600080fd5b5035919050565b6000602082840312156112a157600080fd5b6107e282611002565b600080604083850312156112bd57600080fd5b6112c683611002565b91506112d460208401611002565b90509250929050565b6000602082840312156112ef57600080fd5b6107e2826110b3565b600181811c9082168061130c57607f821691505b60208210810361132c57634e487b7160e01b600052602260045260246000fd5b50919050565b6020808252818101527f4f776e61626c653a2063616c6c6572206973206e6f7420746865206f776e6572604082015260600190565b634e487b7160e01b600052603260045260246000fd5b634e487b7160e01b600052601160045260246000fd5b6000600182016113a5576113a561137d565b5060010190565b808201808211156104035761040361137d565b60208082526035908201527f416e74694d4556546f6b656e3a2043616e6e6f74207472616e7366657220747760408201527469636520696e207468652073616d6520626c6f636b60581b606082015260800190565b818103818111156104035761040361137d56fea26469706673582212208aa85f8091d6caf35b7fdff733690f01a219bdb09a68a7b2890703b877dc901364736f6c63430008120033",
  "devdoc": {
    "kind": "dev",
    "methods": {
      "decimals()": {
        "details": "Returns the decimals places of the token."
      },
      "name()": {
        "details": "Returns the name of the token."
      },
      "symbol()": {
        "details": "Returns the symbol of the token."
      }
    },
    "version": 1
  },
  "userdoc": {
    "kind": "user",
    "methods": {},
    "version": 1
  },
  "storageLayout": {
    "storage": [
      {
        "astId": 386,
        "contract": "contracts/AntiMEV.sol:AntiMEV",
        "label": "_balances",
        "offset": 0,
        "slot": "0",
        "type": "t_mapping(t_address,t_uint256)"
      },
      {
        "astId": 392,
        "contract": "contracts/AntiMEV.sol:AntiMEV",
        "label": "_allowances",
        "offset": 0,
        "slot": "1",
        "type": "t_mapping(t_address,t_mapping(t_address,t_uint256))"
      },
      {
        "astId": 394,
        "contract": "contracts/AntiMEV.sol:AntiMEV",
        "label": "_name",
        "offset": 0,
        "slot": "2",
        "type": "t_string_storage"
      },
      {
        "astId": 396,
        "contract": "contracts/AntiMEV.sol:AntiMEV",
        "label": "_symbol",
        "offset": 0,
        "slot": "3",
        "type": "t_string_storage"
      },
      {
        "astId": 398,
        "contract": "contracts/AntiMEV.sol:AntiMEV",
        "label": "_totalSupply",
        "offset": 0,
        "slot": "4",
        "type": "t_uint256"
      },
      {
        "astId": 197,
        "contract": "contracts/AntiMEV.sol:AntiMEV",
        "label": "_owner",
        "offset": 0,
        "slot": "5",
        "type": "t_address"
      },
      {
        "astId": 906,
        "contract": "contracts/AntiMEV.sol:AntiMEV",
        "label": "enabled",
        "offset": 20,
        "slot": "5",
        "type": "t_bool"
      },
      {
        "astId": 911,
        "contract": "contracts/AntiMEV.sol:AntiMEV",
        "label": "maxWallet",
        "offset": 0,
        "slot": "6",
        "type": "t_uint256"
      },
      {
        "astId": 914,
        "contract": "contracts/AntiMEV.sol:AntiMEV",
        "label": "blockDelay",
        "offset": 0,
        "slot": "7",
        "type": "t_uint16"
      },
      {
        "astId": 916,
        "contract": "contracts/AntiMEV.sol:AntiMEV",
        "label": "uniswapV2Pair",
        "offset": 2,
        "slot": "7",
        "type": "t_address"
      },
      {
        "astId": 920,
        "contract": "contracts/AntiMEV.sol:AntiMEV",
        "label": "bots",
        "offset": 0,
        "slot": "8",
        "type": "t_mapping(t_address,t_bool)"
      },
      {
        "astId": 924,
        "contract": "contracts/AntiMEV.sol:AntiMEV",
        "label": "lastTxBlock",
        "offset": 0,
        "slot": "9",
        "type": "t_mapping(t_address,t_uint256)"
      }
    ],
    "types": {
      "t_address": {
        "encoding": "inplace",
        "label": "address",
        "numberOfBytes": "20"
      },
      "t_bool": {
        "encoding": "inplace",
        "label": "bool",
        "numberOfBytes": "1"
      },
      "t_mapping(t_address,t_bool)": {
        "encoding": "mapping",
        "key": "t_address",
        "label": "mapping(address => bool)",
        "numberOfBytes": "32",
        "value": "t_bool"
      },
      "t_mapping(t_address,t_mapping(t_address,t_uint256))": {
        "encoding": "mapping",
        "key": "t_address",
        "label": "mapping(address => mapping(address => uint256))",
        "numberOfBytes": "32",
        "value": "t_mapping(t_address,t_uint256)"
      },
      "t_mapping(t_address,t_uint256)": {
        "encoding": "mapping",
        "key": "t_address",
        "label": "mapping(address => uint256)",
        "numberOfBytes": "32",
        "value": "t_uint256"
      },
      "t_string_storage": {
        "encoding": "bytes",
        "label": "string",
        "numberOfBytes": "32"
      },
      "t_uint16": {
        "encoding": "inplace",
        "label": "uint16",
        "numberOfBytes": "2"
      },
      "t_uint256": {
        "encoding": "inplace",
        "label": "uint256",
        "numberOfBytes": "32"
      }
    }
  }
}