{
  "address": "0x54d27c85Cb2bB2088bF0EE3a9BceC83A982993f8",
  "abi": [
    {
      "inputs": [
        {
          "internalType": "address",
          "name": "_dev",
          "type": "address"
        },
        {
          "internalType": "address",
          "name": "_burns",
          "type": "address"
        },
        {
          "internalType": "address",
          "name": "_airdrop",
          "type": "address"
        }
      ],
      "stateMutability": "payable",
      "type": "constructor"
    },
    {
      "anonymous": false,
      "inputs": [
        {
          "indexed": true,
          "internalType": "address",
          "name": "owner",
          "type": "address"
        },
        {
          "indexed": true,
          "internalType": "address",
          "name": "spender",
          "type": "address"
        },
        {
          "indexed": false,
          "internalType": "uint256",
          "name": "value",
          "type": "uint256"
        }
      ],
      "name": "Approval",
      "type": "event"
    },
    {
      "anonymous": false,
      "inputs": [
        {
          "indexed": true,
          "internalType": "address",
          "name": "account",
          "type": "address"
        },
        {
          "indexed": false,
          "internalType": "bool",
          "name": "isBot",
          "type": "bool"
        }
      ],
      "name": "BotAdded",
      "type": "event"
    },
    {
      "anonymous": false,
      "inputs": [
        {
          "indexed": true,
          "internalType": "address",
          "name": "user",
          "type": "address"
        },
        {
          "indexed": false,
          "internalType": "uint256",
          "name": "amount",
          "type": "uint256"
        }
      ],
      "name": "Burned",
      "type": "event"
    },
    {
      "anonymous": false,
      "inputs": [
        {
          "indexed": false,
          "internalType": "bool",
          "name": "detectMEV",
          "type": "bool"
        },
        {
          "indexed": false,
          "internalType": "uint256",
          "name": "mineBlocks",
          "type": "uint256"
        },
        {
          "indexed": false,
          "internalType": "uint256",
          "name": "gasDelta",
          "type": "uint256"
        },
        {
          "indexed": false,
          "internalType": "uint256",
          "name": "maxSample",
          "type": "uint256"
        },
        {
          "indexed": false,
          "internalType": "uint256",
          "name": "avgGasPrice",
          "type": "uint256"
        }
      ],
      "name": "MEVUpdated",
      "type": "event"
    },
    {
      "anonymous": false,
      "inputs": [
        {
          "indexed": true,
          "internalType": "address",
          "name": "previousOwner",
          "type": "address"
        },
        {
          "indexed": true,
          "internalType": "address",
          "name": "newOwner",
          "type": "address"
        }
      ],
      "name": "OwnershipTransferred",
      "type": "event"
    },
    {
      "anonymous": false,
      "inputs": [
        {
          "indexed": true,
          "internalType": "address",
          "name": "from",
          "type": "address"
        },
        {
          "indexed": true,
          "internalType": "address",
          "name": "to",
          "type": "address"
        },
        {
          "indexed": false,
          "internalType": "uint256",
          "name": "value",
          "type": "uint256"
        }
      ],
      "name": "Transfer",
      "type": "event"
    },
    {
      "anonymous": false,
      "inputs": [
        {
          "indexed": true,
          "internalType": "address",
          "name": "account",
          "type": "address"
        },
        {
          "indexed": false,
          "internalType": "bool",
          "name": "isVIP",
          "type": "bool"
        }
      ],
      "name": "VIPAdded",
      "type": "event"
    },
    {
      "inputs": [],
      "name": "_totalSupply",
      "outputs": [
        {
          "internalType": "uint256",
          "name": "",
          "type": "uint256"
        }
      ],
      "stateMutability": "view",
      "type": "function"
    },
    {
      "inputs": [
        {
          "internalType": "address",
          "name": "owner",
          "type": "address"
        },
        {
          "internalType": "address",
          "name": "spender",
          "type": "address"
        }
      ],
      "name": "allowance",
      "outputs": [
        {
          "internalType": "uint256",
          "name": "",
          "type": "uint256"
        }
      ],
      "stateMutability": "view",
      "type": "function"
    },
    {
      "inputs": [
        {
          "internalType": "address",
          "name": "spender",
          "type": "address"
        },
        {
          "internalType": "uint256",
          "name": "amount",
          "type": "uint256"
        }
      ],
      "name": "approve",
      "outputs": [
        {
          "internalType": "bool",
          "name": "",
          "type": "bool"
        }
      ],
      "stateMutability": "nonpayable",
      "type": "function"
    },
    {
      "inputs": [],
      "name": "avgGasPrice",
      "outputs": [
        {
          "internalType": "uint256",
          "name": "",
          "type": "uint256"
        }
      ],
      "stateMutability": "view",
      "type": "function"
    },
    {
      "inputs": [
        {
          "internalType": "address",
          "name": "account",
          "type": "address"
        }
      ],
      "name": "balanceOf",
      "outputs": [
        {
          "internalType": "uint256",
          "name": "",
          "type": "uint256"
        }
      ],
      "stateMutability": "view",
      "type": "function"
    },
    {
      "inputs": [
        {
          "internalType": "uint256",
          "name": "value",
          "type": "uint256"
        }
      ],
      "name": "burn",
      "outputs": [],
      "stateMutability": "nonpayable",
      "type": "function"
    },
    {
      "inputs": [],
      "name": "decimals",
      "outputs": [
        {
          "internalType": "uint8",
          "name": "",
          "type": "uint8"
        }
      ],
      "stateMutability": "view",
      "type": "function"
    },
    {
      "inputs": [
        {
          "internalType": "address",
          "name": "spender",
          "type": "address"
        },
        {
          "internalType": "uint256",
          "name": "subtractedValue",
          "type": "uint256"
        }
      ],
      "name": "decreaseAllowance",
      "outputs": [
        {
          "internalType": "bool",
          "name": "",
          "type": "bool"
        }
      ],
      "stateMutability": "nonpayable",
      "type": "function"
    },
    {
      "inputs": [],
      "name": "detectMEV",
      "outputs": [
        {
          "internalType": "bool",
          "name": "",
          "type": "bool"
        }
      ],
      "stateMutability": "view",
      "type": "function"
    },
    {
      "inputs": [],
      "name": "gasDelta",
      "outputs": [
        {
          "internalType": "uint256",
          "name": "",
          "type": "uint256"
        }
      ],
      "stateMutability": "view",
      "type": "function"
    },
    {
      "inputs": [
        {
          "internalType": "address",
          "name": "spender",
          "type": "address"
        },
        {
          "internalType": "uint256",
          "name": "addedValue",
          "type": "uint256"
        }
      ],
      "name": "increaseAllowance",
      "outputs": [
        {
          "internalType": "bool",
          "name": "",
          "type": "bool"
        }
      ],
      "stateMutability": "nonpayable",
      "type": "function"
    },
    {
      "inputs": [
        {
          "internalType": "address",
          "name": "",
          "type": "address"
        }
      ],
      "name": "isBOT",
      "outputs": [
        {
          "internalType": "bool",
          "name": "",
          "type": "bool"
        }
      ],
      "stateMutability": "view",
      "type": "function"
    },
    {
      "inputs": [
        {
          "internalType": "address",
          "name": "",
          "type": "address"
        }
      ],
      "name": "isVIP",
      "outputs": [
        {
          "internalType": "bool",
          "name": "",
          "type": "bool"
        }
      ],
      "stateMutability": "view",
      "type": "function"
    },
    {
      "inputs": [
        {
          "internalType": "address",
          "name": "",
          "type": "address"
        }
      ],
      "name": "lastTxBlock",
      "outputs": [
        {
          "internalType": "uint256",
          "name": "",
          "type": "uint256"
        }
      ],
      "stateMutability": "view",
      "type": "function"
    },
    {
      "inputs": [],
      "name": "maxSample",
      "outputs": [
        {
          "internalType": "uint256",
          "name": "",
          "type": "uint256"
        }
      ],
      "stateMutability": "view",
      "type": "function"
    },
    {
      "inputs": [],
      "name": "maxWallet",
      "outputs": [
        {
          "internalType": "uint256",
          "name": "",
          "type": "uint256"
        }
      ],
      "stateMutability": "view",
      "type": "function"
    },
    {
      "inputs": [],
      "name": "mineBlocks",
      "outputs": [
        {
          "internalType": "uint256",
          "name": "",
          "type": "uint256"
        }
      ],
      "stateMutability": "view",
      "type": "function"
    },
    {
      "inputs": [],
      "name": "name",
      "outputs": [
        {
          "internalType": "string",
          "name": "",
          "type": "string"
        }
      ],
      "stateMutability": "view",
      "type": "function"
    },
    {
      "inputs": [],
      "name": "owner",
      "outputs": [
        {
          "internalType": "address",
          "name": "",
          "type": "address"
        }
      ],
      "stateMutability": "view",
      "type": "function"
    },
    {
      "inputs": [],
      "name": "renounceOwnership",
      "outputs": [],
      "stateMutability": "nonpayable",
      "type": "function"
    },
    {
      "inputs": [
        {
          "internalType": "address",
          "name": "_address",
          "type": "address"
        },
        {
          "internalType": "bool",
          "name": "_isBot",
          "type": "bool"
        }
      ],
      "name": "setBOT",
      "outputs": [],
      "stateMutability": "nonpayable",
      "type": "function"
    },
    {
      "inputs": [
        {
          "internalType": "bool",
          "name": "_detectMEV",
          "type": "bool"
        },
        {
          "internalType": "uint256",
          "name": "_mineBlocks",
          "type": "uint256"
        },
        {
          "internalType": "uint256",
          "name": "_gasDelta",
          "type": "uint256"
        },
        {
          "internalType": "uint256",
          "name": "_maxSample",
          "type": "uint256"
        },
        {
          "internalType": "uint256",
          "name": "_avgGasPrice",
          "type": "uint256"
        }
      ],
      "name": "setMEV",
      "outputs": [],
      "stateMutability": "nonpayable",
      "type": "function"
    },
    {
      "inputs": [
        {
          "internalType": "uint256",
          "name": "_maxWallet",
          "type": "uint256"
        }
      ],
      "name": "setMaxWallet",
      "outputs": [],
      "stateMutability": "nonpayable",
      "type": "function"
    },
    {
      "inputs": [
        {
          "internalType": "address",
          "name": "_uniswapV2Pair",
          "type": "address"
        }
      ],
      "name": "setUniswapV2Pair",
      "outputs": [],
      "stateMutability": "nonpayable",
      "type": "function"
    },
    {
      "inputs": [
        {
          "internalType": "address",
          "name": "_address",
          "type": "address"
        },
        {
          "internalType": "bool",
          "name": "_isVIP",
          "type": "bool"
        }
      ],
      "name": "setVIP",
      "outputs": [],
      "stateMutability": "nonpayable",
      "type": "function"
    },
    {
      "inputs": [
        {
          "internalType": "address",
          "name": "_dev",
          "type": "address"
        },
        {
          "internalType": "address",
          "name": "_burns",
          "type": "address"
        },
        {
          "internalType": "address",
          "name": "_airdrop",
          "type": "address"
        }
      ],
      "name": "setWallets",
      "outputs": [],
      "stateMutability": "nonpayable",
      "type": "function"
    },
    {
      "inputs": [],
      "name": "symbol",
      "outputs": [
        {
          "internalType": "string",
          "name": "",
          "type": "string"
        }
      ],
      "stateMutability": "view",
      "type": "function"
    },
    {
      "inputs": [],
      "name": "totalSupply",
      "outputs": [
        {
          "internalType": "uint256",
          "name": "",
          "type": "uint256"
        }
      ],
      "stateMutability": "view",
      "type": "function"
    },
    {
      "inputs": [
        {
          "internalType": "address",
          "name": "to",
          "type": "address"
        },
        {
          "internalType": "uint256",
          "name": "amount",
          "type": "uint256"
        }
      ],
      "name": "transfer",
      "outputs": [
        {
          "internalType": "bool",
          "name": "",
          "type": "bool"
        }
      ],
      "stateMutability": "nonpayable",
      "type": "function"
    },
    {
      "inputs": [
        {
          "internalType": "address",
          "name": "from",
          "type": "address"
        },
        {
          "internalType": "address",
          "name": "to",
          "type": "address"
        },
        {
          "internalType": "uint256",
          "name": "amount",
          "type": "uint256"
        }
      ],
      "name": "transferFrom",
      "outputs": [
        {
          "internalType": "bool",
          "name": "",
          "type": "bool"
        }
      ],
      "stateMutability": "nonpayable",
      "type": "function"
    },
    {
      "inputs": [
        {
          "internalType": "address",
          "name": "newOwner",
          "type": "address"
        }
      ],
      "name": "transferOwnership",
      "outputs": [],
      "stateMutability": "nonpayable",
      "type": "function"
    },
    {
      "inputs": [],
      "name": "txCounter",
      "outputs": [
        {
          "internalType": "uint256",
          "name": "",
          "type": "uint256"
        }
      ],
      "stateMutability": "view",
      "type": "function"
    },
    {
      "inputs": [],
      "name": "uniswapV2Pair",
      "outputs": [
        {
          "internalType": "address",
          "name": "",
          "type": "address"
        }
      ],
      "stateMutability": "view",
      "type": "function"
    },
    {
      "stateMutability": "payable",
      "type": "receive"
    }
  ],
  "transactionHash": "0x08d92644cf90b0fba600fcf28149cf2545daf181ddf85ab19b165ac1c16d01db",
  "args": [
    "0xc2657176e213ddf18646efce08f36d656abe3396",
    "0x8b30998a9492610f074784aed7afdd682b23b416",
    "0xe276d3ea57c5af859e52d51c2c11f5decb4c4838"
  ],
  "numDeployments": 23,
  "solcInputHash": "a38d70abef2894fa59faa2960a27f9c1",
  "bytecode": "0x60a060405260405162002119380380620021198339810160408190526200002691620006e7565b60408051808201825260078082526620b73a34a6a2ab60c91b6020808401829052845180860190955291845290830152906003620000658382620007d5565b506004620000748282620007d5565b505050620000916200008b6200042c60201b60201c565b62000430565b6b03a1679975a96fc068840000600681905550620000dc6103e8620000c860316006546200048260201b62000c5c1790919060201c565b6200049960201b62000c6f1790919060201c565b600b55600a805460ff191660011781556003600c55633b9aca00600f556019600d55600e556000601055737a250d5630b4cf539739df2c5dacb4c659f2488d60808190526040805163c45a015560e01b81529051829163c45a01559160048083019260209291908290030181865afa1580156200015d573d6000803e3d6000fd5b505050506040513d601f19601f82011682018060405250810190620001839190620008a1565b6001600160a01b031663c9c6539630836001600160a01b031663ad5c46486040518163ffffffff1660e01b8152600401602060405180830381865afa158015620001d1573d6000803e3d6000fd5b505050506040513d601f19601f82011682018060405250810190620001f79190620008a1565b6040516001600160e01b031960e085901b1681526001600160a01b039283166004820152911660248201526044016020604051808303816000875af115801562000245573d6000803e3d6000fd5b505050506040513d601f19601f820116820180604052508101906200026b9190620008a1565b601180546001600160a01b03199081166001600160a01b039384161790915560128054821687841617905560138054821686841617905560148054909116918416919091179055620002bf336001620004a7565b620002cc306001620004a7565b601254620002e5906001600160a01b03166001620004a7565b601354620002fe906001600160a01b03166001620004a7565b60145462000317906001600160a01b03166001620004a7565b60115462000330906001600160a01b03166001620004a7565b6200033d816001620004a7565b6200036b33620003656064620000c8605a6006546200048260201b62000c5c1790919060201c565b62000602565b620003a8601260009054906101000a90046001600160a01b0316620003656064620000c860036006546200048260201b62000c5c1790919060201c565b620003e5601360009054906101000a90046001600160a01b0316620003656064620000c860036006546200048260201b62000c5c1790919060201c565b62000422601460009054906101000a90046001600160a01b0316620003656064620000c860046006546200048260201b62000c5c1790919060201c565b5050505062000928565b3390565b600580546001600160a01b038381166001600160a01b0319831681179093556040519116919082907f8be0079c531659141344cd1fd0a4f28419497f9722a3daafe3b4186f6b6457e090600090a35050565b6000620004908284620008d5565b90505b92915050565b6000620004908284620008ef565b6005546001600160a01b0316331480620004c057503330145b620005385760405162461bcd60e51b815260206004820152603f60248201527f416e74694d45563a204f6e6c7920636f6e7472616374206f776e6572206f722060448201527f74686520636f6e747261637420697473656c662063616e20736574205649500060648201526084015b60405180910390fd5b6001600160a01b03821660009081526007602052604090205460ff1615620005a35760405162461bcd60e51b815260206004820152601e60248201527f416e74694d45563a2043616e6e6f742073657420424f5420746f20564950000060448201526064016200052f565b6001600160a01b038216600081815260086020908152604091829020805460ff191685151590811790915591519182527fda633a71264a27905632c474143536c3964c692d30dbf9384cf1f2e87659d64c910160405180910390a25050565b6001600160a01b0382166200065a5760405162461bcd60e51b815260206004820152601f60248201527f45524332303a206d696e7420746f20746865207a65726f20616464726573730060448201526064016200052f565b80600260008282546200066e919062000912565b90915550506001600160a01b038216600081815260208181526040808320805486019055518481527fddf252ad1be2c89b69c2b068fc378daa952ba7f163c4a11628f55a4df523b3ef910160405180910390a35050565b505050565b80516001600160a01b0381168114620006e257600080fd5b919050565b600080600060608486031215620006fd57600080fd5b6200070884620006ca565b92506200071860208501620006ca565b91506200072860408501620006ca565b90509250925092565b634e487b7160e01b600052604160045260246000fd5b600181811c908216806200075c57607f821691505b6020821081036200077d57634e487b7160e01b600052602260045260246000fd5b50919050565b601f821115620006c557600081815260208120601f850160051c81016020861015620007ac5750805b601f850160051c820191505b81811015620007cd57828155600101620007b8565b505050505050565b81516001600160401b03811115620007f157620007f162000731565b620008098162000802845462000747565b8462000783565b602080601f831160018114620008415760008415620008285750858301515b600019600386901b1c1916600185901b178555620007cd565b600085815260208120601f198616915b82811015620008725788860151825594840194600190910190840162000851565b5085821015620008915787850151600019600388901b60f8161c191681555b5050505050600190811b01905550565b600060208284031215620008b457600080fd5b6200049082620006ca565b634e487b7160e01b600052601160045260246000fd5b8082028115828204841417620004935762000493620008bf565b6000826200090d57634e487b7160e01b600052601260045260246000fd5b500490565b80820180821115620004935762000493620008bf565b6080516117d562000944600039600061116501526117d56000f3fe6080604052600436106101f25760003560e01c806374f079b81161010d578063a7ae210a116100a0578063dd62ed3e1161006f578063dd62ed3e14610587578063e6584238146105a7578063f2fde38b146105c7578063f4201c3c146105e7578063f8b45b051461061757600080fd5b8063a7ae210a146104f4578063a9059cbb1461050a578063ceb88a161461052a578063d89491401461055757600080fd5b806394b8fb16116100dc57806394b8fb161461047f57806395d89b411461049f578063a29a6089146104b4578063a457c2d7146104d457600080fd5b806374f079b81461041157806375cb1bd1146104275780638da5cb5b1461044757806392181ec61461046557600080fd5b80633eaaf86b116101855780636381f2b1116101545780636381f2b11461039057806369ab300d146103a657806370a08231146103c6578063715018a6146103fc57600080fd5b80633eaaf86b1461030057806342966c681461031657806349bd5a5e146103385780635d0044ca1461037057600080fd5b806323b872dd116101c157806323b872dd1461028e578063265b957b146102ae578063313ce567146102c457806339509351146102e057600080fd5b806306fdde03146101fe578063095ea7b31461022957806318160ddd1461025957806321c609c21461027857600080fd5b366101f957005b600080fd5b34801561020a57600080fd5b5061021361062d565b60405161022091906114fa565b60405180910390f35b34801561023557600080fd5b50610249610244366004611564565b6106bf565b6040519015158152602001610220565b34801561026557600080fd5b506002545b604051908152602001610220565b34801561028457600080fd5b5061026a600c5481565b34801561029a57600080fd5b506102496102a936600461158e565b6106d9565b3480156102ba57600080fd5b5061026a600d5481565b3480156102d057600080fd5b5060405160128152602001610220565b3480156102ec57600080fd5b506102496102fb366004611564565b6106fd565b34801561030c57600080fd5b5061026a60065481565b34801561032257600080fd5b506103366103313660046115ca565b61071f565b005b34801561034457600080fd5b50601154610358906001600160a01b031681565b6040516001600160a01b039091168152602001610220565b34801561037c57600080fd5b5061033661038b3660046115ca565b610769565b34801561039c57600080fd5b5061026a600e5481565b3480156103b257600080fd5b506103366103c13660046115f3565b610776565b3480156103d257600080fd5b5061026a6103e1366004611626565b6001600160a01b031660009081526020819052604090205490565b34801561040857600080fd5b506103366108ce565b34801561041d57600080fd5b5061026a60105481565b34801561043357600080fd5b50610336610442366004611641565b6108e2565b34801561045357600080fd5b506005546001600160a01b0316610358565b34801561047157600080fd5b50600a546102499060ff1681565b34801561048b57600080fd5b5061033661049a366004611684565b610929565b3480156104ab57600080fd5b506102136109ab565b3480156104c057600080fd5b506103366104cf366004611626565b6109ba565b3480156104e057600080fd5b506102496104ef366004611564565b6109e4565b34801561050057600080fd5b5061026a600f5481565b34801561051657600080fd5b50610249610525366004611564565b610a5f565b34801561053657600080fd5b5061026a610545366004611626565b60096020526000908152604090205481565b34801561056357600080fd5b50610249610572366004611626565b60076020526000908152604090205460ff1681565b34801561059357600080fd5b5061026a6105a23660046116c6565b610a6d565b3480156105b357600080fd5b506103366105c23660046115f3565b610a98565b3480156105d357600080fd5b506103366105e2366004611626565b610be3565b3480156105f357600080fd5b50610249610602366004611626565b60086020526000908152604090205460ff1681565b34801561062357600080fd5b5061026a600b5481565b60606003805461063c906116f0565b80601f0160208091040260200160405190810160405280929190818152602001828054610668906116f0565b80156106b55780601f1061068a576101008083540402835291602001916106b5565b820191906000526020600020905b81548152906001019060200180831161069857829003601f168201915b5050505050905090565b6000336106cd818585610c7b565b60019150505b92915050565b6000336106e7858285610d9f565b6106f2858585610e19565b506001949350505050565b6000336106cd8185856107108383610a6d565b61071a9190611740565b610c7b565b610727610e3f565b6107313382610e99565b60405181815233907f696de425f79f4a40bc6d2122ca50507f0efbeabbff86a84871b7196ab8ea8df79060200160405180910390a250565b610771610e3f565b600b55565b6005546001600160a01b031633148061078e57503330145b6108055760405162461bcd60e51b815260206004820152603f60248201527f416e74694d45563a204f6e6c7920636f6e7472616374206f776e6572206f722060448201527f74686520636f6e747261637420697473656c662063616e20736574205649500060648201526084015b60405180910390fd5b6001600160a01b03821660009081526007602052604090205460ff161561086e5760405162461bcd60e51b815260206004820152601e60248201527f416e74694d45563a2043616e6e6f742073657420424f5420746f20564950000060448201526064016107fc565b6001600160a01b038216600081815260086020908152604091829020805460ff191685151590811790915591519182527fda633a71264a27905632c474143536c3964c692d30dbf9384cf1f2e87659d64c91015b60405180910390a25050565b6108d6610e3f565b6108e06000610fcb565b565b6108ea610e3f565b601280546001600160a01b039485166001600160a01b031991821617909155601380549385169382169390931790925560148054919093169116179055565b610931610e3f565b600a805460ff1916861515908117909155600c859055600d849055600e839055600f8290556040805191825260208201869052810184905260608101839052608081018290527f16b4359a97b6eb33ca4088fa945b541cf984dbebb7e1e6313b00db35cf030e309060a00160405180910390a15050505050565b60606004805461063c906116f0565b6109c2610e3f565b601180546001600160a01b0319166001600160a01b0392909216919091179055565b600033816109f28286610a6d565b905083811015610a525760405162461bcd60e51b815260206004820152602560248201527f45524332303a2064656372656173656420616c6c6f77616e63652062656c6f77604482015264207a65726f60d81b60648201526084016107fc565b6106f28286868403610c7b565b6000336106cd818585610e19565b6001600160a01b03918216600090815260016020908152604080832093909416825291909152205490565b6005546001600160a01b0316331480610ab057503330145b610b225760405162461bcd60e51b815260206004820152603f60248201527f416e74694d45563a204f6e6c7920636f6e7472616374206f776e6572206f722060448201527f74686520636f6e747261637420697473656c662063616e2073657420424f540060648201526084016107fc565b6001600160a01b03821660009081526008602052604090205460ff1615610b8b5760405162461bcd60e51b815260206004820152601e60248201527f416e74694d45563a2043616e6e6f74207365742056495020746f20424f54000060448201526064016107fc565b6001600160a01b038216600081815260076020908152604091829020805460ff191685151590811790915591519182527f0cc5910ce116d1d71aa48f1ccd5e978315791068133c0c6aa7540ab8c9a8796d91016108c2565b610beb610e3f565b6001600160a01b038116610c505760405162461bcd60e51b815260206004820152602660248201527f4f776e61626c653a206e6577206f776e657220697320746865207a65726f206160448201526564647265737360d01b60648201526084016107fc565b610c5981610fcb565b50565b6000610c688284611753565b9392505050565b6000610c68828461176a565b6001600160a01b038316610cdd5760405162461bcd60e51b8152602060048201526024808201527f45524332303a20617070726f76652066726f6d20746865207a65726f206164646044820152637265737360e01b60648201526084016107fc565b6001600160a01b038216610d3e5760405162461bcd60e51b815260206004820152602260248201527f45524332303a20617070726f766520746f20746865207a65726f206164647265604482015261737360f01b60648201526084016107fc565b6001600160a01b0383811660008181526001602090815260408083209487168084529482529182902085905590518481527f8c5be1e5ebec7d5bd14f71427d1e84f3dd0314c0f7b2291e5b200ac8c7c3b925910160405180910390a3505050565b6000610dab8484610a6d565b90506000198114610e135781811015610e065760405162461bcd60e51b815260206004820152601d60248201527f45524332303a20696e73756666696369656e7420616c6c6f77616e636500000060448201526064016107fc565b610e138484848403610c7b565b50505050565b600a5460ff1615610e2f57610e2f83838361101d565b610e3a83838361134a565b505050565b6005546001600160a01b031633146108e05760405162461bcd60e51b815260206004820181905260248201527f4f776e61626c653a2063616c6c6572206973206e6f7420746865206f776e657260448201526064016107fc565b6001600160a01b038216610ef95760405162461bcd60e51b815260206004820152602160248201527f45524332303a206275726e2066726f6d20746865207a65726f206164647265736044820152607360f81b60648201526084016107fc565b6001600160a01b03821660009081526020819052604090205481811015610f6d5760405162461bcd60e51b815260206004820152602260248201527f45524332303a206275726e20616d6f756e7420657863656564732062616c616e604482015261636560f01b60648201526084016107fc565b6001600160a01b0383166000818152602081815260408083208686039055600280548790039055518581529192917fddf252ad1be2c89b69c2b068fc378daa952ba7f163c4a11628f55a4df523b3ef910160405180910390a3505050565b600580546001600160a01b038381166001600160a01b0319831681179093556040519116919082907f8be0079c531659141344cd1fd0a4f28419497f9722a3daafe3b4186f6b6457e090600090a35050565b6001600160a01b03831660009081526007602052604090205460ff1615801561105f57506001600160a01b03821660009081526007602052604090205460ff16155b6110a45760405162461bcd60e51b8152602060048201526016602482015275105b9d1a5351558e8812db9bdddb8813515588109bdd60521b60448201526064016107fc565b6001600160a01b03821660009081526008602052604090205460ff1661113f57600b54816110e7846001600160a01b031660009081526020819052604090205490565b6110f19190611740565b111561113f5760405162461bcd60e51b815260206004820152601c60248201527f416e74694d45563a204d61782077616c6c65742065786365656465640000000060448201526064016107fc565b6001600160a01b03831660009081526008602052604090205460ff1615801561119a57507f00000000000000000000000000000000000000000000000000000000000000006001600160a01b0316826001600160a01b031614155b80156111b457506011546001600160a01b03838116911614155b15610e3a57600c546001600160a01b03841660009081526009602052604090205443916111e091611740565b106112495760405162461bcd60e51b815260206004820152603360248201527f416e74694d45563a2044657465637465642073616e64776963682061747461636044820152726b2c206d696e65206d6f726520626c6f636b7360681b60648201526084016107fc565b6001600160a01b03831660009081526009602052604081204390556010805460019290611277908490611740565b9091555050601054611289903a61176a565b60105461129760018261178c565b600f546112a49190611753565b6112ae919061176a565b6112b89190611740565b600f819055600d546112e3916112da916064916112d491610c5c565b90610c6f565b600f54906114ee565b3a1115610e3a5760405162461bcd60e51b815260206004820152602f60248201527f416e74694d45563a204465746563746564206761732062726962652c20706f7360448201526e39b4b1363290333937b73a16b93ab760891b60648201526084016107fc565b6001600160a01b0383166113ae5760405162461bcd60e51b815260206004820152602560248201527f45524332303a207472616e736665722066726f6d20746865207a65726f206164604482015264647265737360d81b60648201526084016107fc565b6001600160a01b0382166114105760405162461bcd60e51b815260206004820152602360248201527f45524332303a207472616e7366657220746f20746865207a65726f206164647260448201526265737360e81b60648201526084016107fc565b6001600160a01b038316600090815260208190526040902054818110156114885760405162461bcd60e51b815260206004820152602660248201527f45524332303a207472616e7366657220616d6f756e7420657863656564732062604482015265616c616e636560d01b60648201526084016107fc565b6001600160a01b03848116600081815260208181526040808320878703905593871680835291849020805487019055925185815290927fddf252ad1be2c89b69c2b068fc378daa952ba7f163c4a11628f55a4df523b3ef910160405180910390a3610e13565b6000610c688284611740565b600060208083528351808285015260005b818110156115275785810183015185820160400152820161150b565b506000604082860101526040601f19601f8301168501019250505092915050565b80356001600160a01b038116811461155f57600080fd5b919050565b6000806040838503121561157757600080fd5b61158083611548565b946020939093013593505050565b6000806000606084860312156115a357600080fd5b6115ac84611548565b92506115ba60208501611548565b9150604084013590509250925092565b6000602082840312156115dc57600080fd5b5035919050565b8035801515811461155f57600080fd5b6000806040838503121561160657600080fd5b61160f83611548565b915061161d602084016115e3565b90509250929050565b60006020828403121561163857600080fd5b610c6882611548565b60008060006060848603121561165657600080fd5b61165f84611548565b925061166d60208501611548565b915061167b60408501611548565b90509250925092565b600080600080600060a0868803121561169c57600080fd5b6116a5866115e3565b97602087013597506040870135966060810135965060800135945092505050565b600080604083850312156116d957600080fd5b6116e283611548565b915061161d60208401611548565b600181811c9082168061170457607f821691505b60208210810361172457634e487b7160e01b600052602260045260246000fd5b50919050565b634e487b7160e01b600052601160045260246000fd5b808201808211156106d3576106d361172a565b80820281158282048414176106d3576106d361172a565b60008261178757634e487b7160e01b600052601260045260246000fd5b500490565b818103818111156106d3576106d361172a56fea2646970667358221220f3fcdcbbae3e51ef56bd58afce9532f928462a3435b86421f2a933fcbc7910e564736f6c63430008120033",
  "devdoc": {
    "events": {
      "Approval(address,address,uint256)": {
        "details": "Emitted when the allowance of a `spender` for an `owner` is set by a call to {approve}. `value` is the new allowance."
      },
      "Transfer(address,address,uint256)": {
        "details": "Emitted when `value` tokens are moved from one account (`from`) to another (`to`). Note that `value` may be zero."
      }
    },
    "kind": "dev",
    "methods": {
      "allowance(address,address)": {
        "details": "See {IERC20-allowance}."
      },
      "approve(address,uint256)": {
        "details": "See {IERC20-approve}. NOTE: If `amount` is the maximum `uint256`, the allowance is not updated on `transferFrom`. This is semantically equivalent to an infinite approval. Requirements: - `spender` cannot be the zero address."
      },
      "balanceOf(address)": {
        "details": "See {IERC20-balanceOf}."
      },
      "decimals()": {
        "details": "Returns the number of decimals used to get its user representation. For example, if `decimals` equals `2`, a balance of `505` tokens should be displayed to a user as `5.05` (`505 / 10 ** 2`). Tokens usually opt for a value of 18, imitating the relationship between Ether and Wei. This is the default value returned by this function, unless it's overridden. NOTE: This information is only used for _display_ purposes: it in no way affects any of the arithmetic of the contract, including {IERC20-balanceOf} and {IERC20-transfer}."
      },
      "decreaseAllowance(address,uint256)": {
        "details": "Atomically decreases the allowance granted to `spender` by the caller. This is an alternative to {approve} that can be used as a mitigation for problems described in {IERC20-approve}. Emits an {Approval} event indicating the updated allowance. Requirements: - `spender` cannot be the zero address. - `spender` must have allowance for the caller of at least `subtractedValue`."
      },
      "increaseAllowance(address,uint256)": {
        "details": "Atomically increases the allowance granted to `spender` by the caller. This is an alternative to {approve} that can be used as a mitigation for problems described in {IERC20-approve}. Emits an {Approval} event indicating the updated allowance. Requirements: - `spender` cannot be the zero address."
      },
      "name()": {
        "details": "Returns the name of the token."
      },
      "owner()": {
        "details": "Returns the address of the current owner."
      },
      "renounceOwnership()": {
        "details": "Leaves the contract without owner. It will not be possible to call `onlyOwner` functions. Can only be called by the current owner. NOTE: Renouncing ownership will leave the contract without an owner, thereby disabling any functionality that is only available to the owner."
      },
      "symbol()": {
        "details": "Returns the symbol of the token, usually a shorter version of the name."
      },
      "totalSupply()": {
        "details": "See {IERC20-totalSupply}."
      },
      "transfer(address,uint256)": {
        "details": "See {IERC20-transfer}. Requirements: - `to` cannot be the zero address. - the caller must have a balance of at least `amount`."
      },
      "transferFrom(address,address,uint256)": {
        "details": "See {IERC20-transferFrom}. Emits an {Approval} event indicating the updated allowance. This is not required by the EIP. See the note at the beginning of {ERC20}. NOTE: Does not update the allowance if the current allowance is the maximum `uint256`. Requirements: - `from` and `to` cannot be the zero address. - `from` must have a balance of at least `amount`. - the caller must have allowance for ``from``'s tokens of at least `amount`."
      },
      "transferOwnership(address)": {
        "details": "Transfers ownership of the contract to a new account (`newOwner`). Can only be called by the current owner."
      }
    },
    "version": 1
  },
  "userdoc": {
    "kind": "user",
    "methods": {},
    "version": 1
  },
  "storageLayout": {
    "storage": [
      {
        "astId": 581,
        "contract": "contracts/AntiMEV.sol:AntiMEV",
        "label": "_balances",
        "offset": 0,
        "slot": "0",
        "type": "t_mapping(t_address,t_uint256)"
      },
      {
        "astId": 587,
        "contract": "contracts/AntiMEV.sol:AntiMEV",
        "label": "_allowances",
        "offset": 0,
        "slot": "1",
        "type": "t_mapping(t_address,t_mapping(t_address,t_uint256))"
      },
      {
        "astId": 589,
        "contract": "contracts/AntiMEV.sol:AntiMEV",
        "label": "_totalSupply",
        "offset": 0,
        "slot": "2",
        "type": "t_uint256"
      },
      {
        "astId": 591,
        "contract": "contracts/AntiMEV.sol:AntiMEV",
        "label": "_name",
        "offset": 0,
        "slot": "3",
        "type": "t_string_storage"
      },
      {
        "astId": 593,
        "contract": "contracts/AntiMEV.sol:AntiMEV",
        "label": "_symbol",
        "offset": 0,
        "slot": "4",
        "type": "t_string_storage"
      },
      {
        "astId": 26,
        "contract": "contracts/AntiMEV.sol:AntiMEV",
        "label": "_owner",
        "offset": 0,
        "slot": "5",
        "type": "t_address"
      },
      {
        "astId": 1161,
        "contract": "contracts/AntiMEV.sol:AntiMEV",
        "label": "_totalSupply",
        "offset": 0,
        "slot": "6",
        "type": "t_uint256"
      },
      {
        "astId": 1165,
        "contract": "contracts/AntiMEV.sol:AntiMEV",
        "label": "isBOT",
        "offset": 0,
        "slot": "7",
        "type": "t_mapping(t_address,t_bool)"
      },
      {
        "astId": 1169,
        "contract": "contracts/AntiMEV.sol:AntiMEV",
        "label": "isVIP",
        "offset": 0,
        "slot": "8",
        "type": "t_mapping(t_address,t_bool)"
      },
      {
        "astId": 1173,
        "contract": "contracts/AntiMEV.sol:AntiMEV",
        "label": "lastTxBlock",
        "offset": 0,
        "slot": "9",
        "type": "t_mapping(t_address,t_uint256)"
      },
      {
        "astId": 1175,
        "contract": "contracts/AntiMEV.sol:AntiMEV",
        "label": "detectMEV",
        "offset": 0,
        "slot": "10",
        "type": "t_bool"
      },
      {
        "astId": 1177,
        "contract": "contracts/AntiMEV.sol:AntiMEV",
        "label": "maxWallet",
        "offset": 0,
        "slot": "11",
        "type": "t_uint256"
      },
      {
        "astId": 1179,
        "contract": "contracts/AntiMEV.sol:AntiMEV",
        "label": "mineBlocks",
        "offset": 0,
        "slot": "12",
        "type": "t_uint256"
      },
      {
        "astId": 1181,
        "contract": "contracts/AntiMEV.sol:AntiMEV",
        "label": "gasDelta",
        "offset": 0,
        "slot": "13",
        "type": "t_uint256"
      },
      {
        "astId": 1183,
        "contract": "contracts/AntiMEV.sol:AntiMEV",
        "label": "maxSample",
        "offset": 0,
        "slot": "14",
        "type": "t_uint256"
      },
      {
        "astId": 1185,
        "contract": "contracts/AntiMEV.sol:AntiMEV",
        "label": "avgGasPrice",
        "offset": 0,
        "slot": "15",
        "type": "t_uint256"
      },
      {
        "astId": 1187,
        "contract": "contracts/AntiMEV.sol:AntiMEV",
        "label": "txCounter",
        "offset": 0,
        "slot": "16",
        "type": "t_uint256"
      },
      {
        "astId": 1192,
        "contract": "contracts/AntiMEV.sol:AntiMEV",
        "label": "uniswapV2Pair",
        "offset": 0,
        "slot": "17",
        "type": "t_address"
      },
      {
        "astId": 1194,
        "contract": "contracts/AntiMEV.sol:AntiMEV",
        "label": "dev",
        "offset": 0,
        "slot": "18",
        "type": "t_address"
      },
      {
        "astId": 1196,
        "contract": "contracts/AntiMEV.sol:AntiMEV",
        "label": "burns",
        "offset": 0,
        "slot": "19",
        "type": "t_address"
      },
      {
        "astId": 1198,
        "contract": "contracts/AntiMEV.sol:AntiMEV",
        "label": "airdrop",
        "offset": 0,
        "slot": "20",
        "type": "t_address"
      }
    ],
    "types": {
      "t_address": {
        "encoding": "inplace",
        "label": "address",
        "numberOfBytes": "20"
      },
      "t_bool": {
        "encoding": "inplace",
        "label": "bool",
        "numberOfBytes": "1"
      },
      "t_mapping(t_address,t_bool)": {
        "encoding": "mapping",
        "key": "t_address",
        "label": "mapping(address => bool)",
        "numberOfBytes": "32",
        "value": "t_bool"
      },
      "t_mapping(t_address,t_mapping(t_address,t_uint256))": {
        "encoding": "mapping",
        "key": "t_address",
        "label": "mapping(address => mapping(address => uint256))",
        "numberOfBytes": "32",
        "value": "t_mapping(t_address,t_uint256)"
      },
      "t_mapping(t_address,t_uint256)": {
        "encoding": "mapping",
        "key": "t_address",
        "label": "mapping(address => uint256)",
        "numberOfBytes": "32",
        "value": "t_uint256"
      },
      "t_string_storage": {
        "encoding": "bytes",
        "label": "string",
        "numberOfBytes": "32"
      },
      "t_uint256": {
        "encoding": "inplace",
        "label": "uint256",
        "numberOfBytes": "32"
      }
    }
  }
}