{
  "address": "0x186499beeDc1b4972552cB508485749D99e61C18",
  "abi": [
    {
      "inputs": [],
      "stateMutability": "payable",
      "type": "constructor"
    },
    {
      "anonymous": false,
      "inputs": [
        {
          "indexed": true,
          "internalType": "address",
          "name": "owner",
          "type": "address"
        },
        {
          "indexed": true,
          "internalType": "address",
          "name": "spender",
          "type": "address"
        },
        {
          "indexed": false,
          "internalType": "uint256",
          "name": "value",
          "type": "uint256"
        }
      ],
      "name": "Approval",
      "type": "event"
    },
    {
      "anonymous": false,
      "inputs": [
        {
          "indexed": true,
          "internalType": "address",
          "name": "account",
          "type": "address"
        },
        {
          "indexed": false,
          "internalType": "bool",
          "name": "isBot",
          "type": "bool"
        }
      ],
      "name": "BotAdded",
      "type": "event"
    },
    {
      "anonymous": false,
      "inputs": [
        {
          "indexed": true,
          "internalType": "address",
          "name": "user",
          "type": "address"
        },
        {
          "indexed": false,
          "internalType": "uint256",
          "name": "amount",
          "type": "uint256"
        }
      ],
      "name": "Burned",
      "type": "event"
    },
    {
      "anonymous": false,
      "inputs": [
        {
          "indexed": false,
          "internalType": "bool",
          "name": "detectMEV",
          "type": "bool"
        },
        {
          "indexed": false,
          "internalType": "uint256",
          "name": "mineBlocks",
          "type": "uint256"
        },
        {
          "indexed": false,
          "internalType": "uint256",
          "name": "gasDelta",
          "type": "uint256"
        },
        {
          "indexed": false,
          "internalType": "uint256",
          "name": "maxSample",
          "type": "uint256"
        },
        {
          "indexed": false,
          "internalType": "uint256",
          "name": "avgGasPrice",
          "type": "uint256"
        }
      ],
      "name": "MEVUpdated",
      "type": "event"
    },
    {
      "anonymous": false,
      "inputs": [
        {
          "indexed": true,
          "internalType": "address",
          "name": "previousOwner",
          "type": "address"
        },
        {
          "indexed": true,
          "internalType": "address",
          "name": "newOwner",
          "type": "address"
        }
      ],
      "name": "OwnershipTransferred",
      "type": "event"
    },
    {
      "anonymous": false,
      "inputs": [
        {
          "indexed": true,
          "internalType": "address",
          "name": "from",
          "type": "address"
        },
        {
          "indexed": true,
          "internalType": "address",
          "name": "to",
          "type": "address"
        },
        {
          "indexed": false,
          "internalType": "uint256",
          "name": "value",
          "type": "uint256"
        }
      ],
      "name": "Transfer",
      "type": "event"
    },
    {
      "anonymous": false,
      "inputs": [
        {
          "indexed": true,
          "internalType": "address",
          "name": "account",
          "type": "address"
        },
        {
          "indexed": false,
          "internalType": "bool",
          "name": "isVIP",
          "type": "bool"
        }
      ],
      "name": "VIPAdded",
      "type": "event"
    },
    {
      "inputs": [
        {
          "internalType": "address",
          "name": "owner",
          "type": "address"
        },
        {
          "internalType": "address",
          "name": "spender",
          "type": "address"
        }
      ],
      "name": "allowance",
      "outputs": [
        {
          "internalType": "uint256",
          "name": "",
          "type": "uint256"
        }
      ],
      "stateMutability": "view",
      "type": "function"
    },
    {
      "inputs": [
        {
          "internalType": "address",
          "name": "spender",
          "type": "address"
        },
        {
          "internalType": "uint256",
          "name": "amount",
          "type": "uint256"
        }
      ],
      "name": "approve",
      "outputs": [
        {
          "internalType": "bool",
          "name": "",
          "type": "bool"
        }
      ],
      "stateMutability": "nonpayable",
      "type": "function"
    },
    {
      "inputs": [],
      "name": "avgGasPrice",
      "outputs": [
        {
          "internalType": "uint256",
          "name": "",
          "type": "uint256"
        }
      ],
      "stateMutability": "view",
      "type": "function"
    },
    {
      "inputs": [
        {
          "internalType": "address",
          "name": "account",
          "type": "address"
        }
      ],
      "name": "balanceOf",
      "outputs": [
        {
          "internalType": "uint256",
          "name": "",
          "type": "uint256"
        }
      ],
      "stateMutability": "view",
      "type": "function"
    },
    {
      "inputs": [
        {
          "internalType": "uint256",
          "name": "value",
          "type": "uint256"
        }
      ],
      "name": "burn",
      "outputs": [],
      "stateMutability": "nonpayable",
      "type": "function"
    },
    {
      "inputs": [],
      "name": "decimals",
      "outputs": [
        {
          "internalType": "uint8",
          "name": "",
          "type": "uint8"
        }
      ],
      "stateMutability": "view",
      "type": "function"
    },
    {
      "inputs": [
        {
          "internalType": "address",
          "name": "spender",
          "type": "address"
        },
        {
          "internalType": "uint256",
          "name": "subtractedValue",
          "type": "uint256"
        }
      ],
      "name": "decreaseAllowance",
      "outputs": [
        {
          "internalType": "bool",
          "name": "",
          "type": "bool"
        }
      ],
      "stateMutability": "nonpayable",
      "type": "function"
    },
    {
      "inputs": [],
      "name": "detectMEV",
      "outputs": [
        {
          "internalType": "bool",
          "name": "",
          "type": "bool"
        }
      ],
      "stateMutability": "view",
      "type": "function"
    },
    {
      "inputs": [],
      "name": "gasDelta",
      "outputs": [
        {
          "internalType": "uint256",
          "name": "",
          "type": "uint256"
        }
      ],
      "stateMutability": "view",
      "type": "function"
    },
    {
      "inputs": [
        {
          "internalType": "address",
          "name": "spender",
          "type": "address"
        },
        {
          "internalType": "uint256",
          "name": "addedValue",
          "type": "uint256"
        }
      ],
      "name": "increaseAllowance",
      "outputs": [
        {
          "internalType": "bool",
          "name": "",
          "type": "bool"
        }
      ],
      "stateMutability": "nonpayable",
      "type": "function"
    },
    {
      "inputs": [
        {
          "internalType": "address",
          "name": "",
          "type": "address"
        }
      ],
      "name": "isBOT",
      "outputs": [
        {
          "internalType": "bool",
          "name": "",
          "type": "bool"
        }
      ],
      "stateMutability": "view",
      "type": "function"
    },
    {
      "inputs": [
        {
          "internalType": "address",
          "name": "",
          "type": "address"
        }
      ],
      "name": "isVIP",
      "outputs": [
        {
          "internalType": "bool",
          "name": "",
          "type": "bool"
        }
      ],
      "stateMutability": "view",
      "type": "function"
    },
    {
      "inputs": [
        {
          "internalType": "address",
          "name": "",
          "type": "address"
        }
      ],
      "name": "lastTxBlock",
      "outputs": [
        {
          "internalType": "uint256",
          "name": "",
          "type": "uint256"
        }
      ],
      "stateMutability": "view",
      "type": "function"
    },
    {
      "inputs": [],
      "name": "maxSample",
      "outputs": [
        {
          "internalType": "uint256",
          "name": "",
          "type": "uint256"
        }
      ],
      "stateMutability": "view",
      "type": "function"
    },
    {
      "inputs": [],
      "name": "maxWallet",
      "outputs": [
        {
          "internalType": "uint256",
          "name": "",
          "type": "uint256"
        }
      ],
      "stateMutability": "view",
      "type": "function"
    },
    {
      "inputs": [],
      "name": "mineBlocks",
      "outputs": [
        {
          "internalType": "uint256",
          "name": "",
          "type": "uint256"
        }
      ],
      "stateMutability": "view",
      "type": "function"
    },
    {
      "inputs": [],
      "name": "name",
      "outputs": [
        {
          "internalType": "string",
          "name": "",
          "type": "string"
        }
      ],
      "stateMutability": "view",
      "type": "function"
    },
    {
      "inputs": [],
      "name": "owner",
      "outputs": [
        {
          "internalType": "address",
          "name": "",
          "type": "address"
        }
      ],
      "stateMutability": "view",
      "type": "function"
    },
    {
      "inputs": [],
      "name": "renounceOwnership",
      "outputs": [],
      "stateMutability": "nonpayable",
      "type": "function"
    },
    {
      "inputs": [
        {
          "internalType": "address",
          "name": "_address",
          "type": "address"
        },
        {
          "internalType": "bool",
          "name": "_isBot",
          "type": "bool"
        }
      ],
      "name": "setBOT",
      "outputs": [],
      "stateMutability": "nonpayable",
      "type": "function"
    },
    {
      "inputs": [
        {
          "internalType": "bool",
          "name": "_detectMEV",
          "type": "bool"
        },
        {
          "internalType": "uint256",
          "name": "_mineBlocks",
          "type": "uint256"
        },
        {
          "internalType": "uint256",
          "name": "_gasDelta",
          "type": "uint256"
        },
        {
          "internalType": "uint256",
          "name": "_maxSample",
          "type": "uint256"
        },
        {
          "internalType": "uint256",
          "name": "_avgGasPrice",
          "type": "uint256"
        }
      ],
      "name": "setMEV",
      "outputs": [],
      "stateMutability": "nonpayable",
      "type": "function"
    },
    {
      "inputs": [
        {
          "internalType": "uint256",
          "name": "_maxWallet",
          "type": "uint256"
        }
      ],
      "name": "setMaxWallet",
      "outputs": [],
      "stateMutability": "nonpayable",
      "type": "function"
    },
    {
      "inputs": [
        {
          "internalType": "address",
          "name": "_uniswapV2Pair",
          "type": "address"
        }
      ],
      "name": "setUniswapV2Pair",
      "outputs": [],
      "stateMutability": "nonpayable",
      "type": "function"
    },
    {
      "inputs": [
        {
          "internalType": "address",
          "name": "_address",
          "type": "address"
        },
        {
          "internalType": "bool",
          "name": "_isVIP",
          "type": "bool"
        }
      ],
      "name": "setVIP",
      "outputs": [],
      "stateMutability": "nonpayable",
      "type": "function"
    },
    {
      "inputs": [
        {
          "internalType": "address",
          "name": "_devWallet",
          "type": "address"
        },
        {
          "internalType": "address",
          "name": "_burnWallet",
          "type": "address"
        },
        {
          "internalType": "address",
          "name": "_airdropWallet",
          "type": "address"
        }
      ],
      "name": "setWallets",
      "outputs": [],
      "stateMutability": "nonpayable",
      "type": "function"
    },
    {
      "inputs": [],
      "name": "symbol",
      "outputs": [
        {
          "internalType": "string",
          "name": "",
          "type": "string"
        }
      ],
      "stateMutability": "view",
      "type": "function"
    },
    {
      "inputs": [],
      "name": "totalSupply",
      "outputs": [
        {
          "internalType": "uint256",
          "name": "",
          "type": "uint256"
        }
      ],
      "stateMutability": "view",
      "type": "function"
    },
    {
      "inputs": [
        {
          "internalType": "address",
          "name": "to",
          "type": "address"
        },
        {
          "internalType": "uint256",
          "name": "amount",
          "type": "uint256"
        }
      ],
      "name": "transfer",
      "outputs": [
        {
          "internalType": "bool",
          "name": "",
          "type": "bool"
        }
      ],
      "stateMutability": "nonpayable",
      "type": "function"
    },
    {
      "inputs": [
        {
          "internalType": "address",
          "name": "from",
          "type": "address"
        },
        {
          "internalType": "address",
          "name": "to",
          "type": "address"
        },
        {
          "internalType": "uint256",
          "name": "amount",
          "type": "uint256"
        }
      ],
      "name": "transferFrom",
      "outputs": [
        {
          "internalType": "bool",
          "name": "",
          "type": "bool"
        }
      ],
      "stateMutability": "nonpayable",
      "type": "function"
    },
    {
      "inputs": [
        {
          "internalType": "address",
          "name": "newOwner",
          "type": "address"
        }
      ],
      "name": "transferOwnership",
      "outputs": [],
      "stateMutability": "nonpayable",
      "type": "function"
    },
    {
      "inputs": [],
      "name": "txCounter",
      "outputs": [
        {
          "internalType": "uint256",
          "name": "",
          "type": "uint256"
        }
      ],
      "stateMutability": "view",
      "type": "function"
    },
    {
      "inputs": [],
      "name": "uniswapV2Pair",
      "outputs": [
        {
          "internalType": "address",
          "name": "",
          "type": "address"
        }
      ],
      "stateMutability": "view",
      "type": "function"
    }
  ],
  "transactionHash": "0x1d6ca97dc6d55ef2f6ea0478e125c52fa2bb1f13ee662f35d2af8122e2e4f2c1",
  "args": [],
  "numDeployments": 8,
  "solcInputHash": "945adf4cad9d822d1ea46c121825942b",
  "bytecode": "0x600760a08181526620b73a34a6a2ab60c91b60c081905261012060405260e09283526101005290600362000034838262000899565b50600462000043828262000899565b505050620000606200005a6200040460201b60201c565b62000408565b6b03a1679975a96fc068840000620000a16103e86200008d8360316200045a602090811b62000a4917901c565b6200047160201b62000a551790919060201c565b6006556005805460ff60a01b1916600160a01b1790556003600755633b9aca00600a90815560196008556009556000600b55737a250d5630b4cf539739df2c5dacb4c659f2488d60808190526040805163c45a015560e01b81529051829163c45a01559160048083019260209291908290030181865afa1580156200012a573d6000803e3d6000fd5b505050506040513d601f19601f8201168201806040525081019062000150919062000965565b6001600160a01b031663c9c6539630836001600160a01b031663ad5c46486040518163ffffffff1660e01b8152600401602060405180830381865afa1580156200019e573d6000803e3d6000fd5b505050506040513d601f19601f82011682018060405250810190620001c4919062000965565b6040516001600160e01b031960e085901b1681526001600160a01b039283166004820152911660248201526044016020604051808303816000875af115801562000212573d6000803e3d6000fd5b505050506040513d601f19601f8201168201806040525081019062000238919062000965565b600f80546001600160a01b03929092166001600160a01b031992831617905560108054821673c2657176e213ddf18646efce08f36d656abe3396179055601180548216738b30998a9492610f074784aed7afdd682b23b4161790556012805490911673e276d3ea57c5af859e52d51c2c11f5decb4c4838179055620002bf3360016200047f565b620002cc3060016200047f565b601054620002e5906001600160a01b031660016200047f565b601154620002fe906001600160a01b031660016200047f565b60125462000317906001600160a01b031660016200047f565b600f5462000330906001600160a01b031660016200047f565b608051620003409060016200047f565b6200036c336200036660646200008d605b876200045a60201b62000a491790919060201c565b62000557565b6010546200039c906001600160a01b03166200036660646200008d8660036200045a602090811b62000a4917901c565b601154620003cc906001600160a01b03166200036660646200008d8660036200045a602090811b62000a4917901c565b601254620003fc906001600160a01b03166200036660646200008d8660036200045a602090811b62000a4917901c565b505062000a00565b3390565b600580546001600160a01b038381166001600160a01b0319831681179093556040519116919082907f8be0079c531659141344cd1fd0a4f28419497f9722a3daafe3b4186f6b6457e090600090a35050565b6000620004688284620009ad565b90505b92915050565b6000620004688284620009c7565b6200048962000628565b6001600160a01b0382166000908152600c602052604090205460ff1615620004f85760405162461bcd60e51b815260206004820152601e60248201527f416e74694d45563a2043616e6e6f742073657420424f5420746f20564950000060448201526064015b60405180910390fd5b6001600160a01b0382166000818152600d6020908152604091829020805460ff191685151590811790915591519182527fda633a71264a27905632c474143536c3964c692d30dbf9384cf1f2e87659d64c910160405180910390a25050565b6001600160a01b038216620005af5760405162461bcd60e51b815260206004820152601f60248201527f45524332303a206d696e7420746f20746865207a65726f2061646472657373006044820152606401620004ef565b620005bd6000838362000686565b8060026000828254620005d19190620009ea565b90915550506001600160a01b038216600081815260208181526040808320805486019055518481527fddf252ad1be2c89b69c2b068fc378daa952ba7f163c4a11628f55a4df523b3ef910160405180910390a35050565b6005546001600160a01b03163314620006845760405162461bcd60e51b815260206004820181905260248201527f4f776e61626c653a2063616c6c6572206973206e6f7420746865206f776e65726044820152606401620004ef565b565b6001600160a01b0382166000908152600c602052604090205460ff16158015620006c957506001600160a01b0383166000908152600c602052604090205460ff16155b620007175760405162461bcd60e51b815260206004820152601660248201527f416e74694d45563a204b6e6f776e204d455620626f74000000000000000000006044820152606401620004ef565b6001600160a01b0383166000908152600d602052604090205460ff1680156200075957506001600160a01b0382166000908152600d602052604090205460ff16155b15620007d557600654816200077984620007da60201b620006961760201c565b620007859190620009ea565b1115620007d55760405162461bcd60e51b815260206004820152601460248201527f4d61782077616c6c6574206578636565646564210000000000000000000000006044820152606401620004ef565b505050565b6001600160a01b031660009081526020819052604090205490565b634e487b7160e01b600052604160045260246000fd5b600181811c908216806200082057607f821691505b6020821081036200084157634e487b7160e01b600052602260045260246000fd5b50919050565b601f821115620007d557600081815260208120601f850160051c81016020861015620008705750805b601f850160051c820191505b8181101562000891578281556001016200087c565b505050505050565b81516001600160401b03811115620008b557620008b5620007f5565b620008cd81620008c684546200080b565b8462000847565b602080601f831160018114620009055760008415620008ec5750858301515b600019600386901b1c1916600185901b17855562000891565b600085815260208120601f198616915b82811015620009365788860151825594840194600190910190840162000915565b5085821015620009555787850151600019600388901b60f8161c191681555b5050505050600190811b01905550565b6000602082840312156200097857600080fd5b81516001600160a01b03811681146200099057600080fd5b9392505050565b634e487b7160e01b600052601160045260246000fd5b80820281158282048414176200046b576200046b62000997565b600082620009e557634e487b7160e01b600052601260045260246000fd5b500490565b808201808211156200046b576200046b62000997565b60805161177662000a19600039600050506117766000f3fe608060405234801561001057600080fd5b50600436106101f05760003560e01c806375cb1bd11161010f578063a9059cbb116100a2578063e658423811610071578063e65842381461040d578063f2fde38b14610420578063f4201c3c14610433578063f8b45b051461045657600080fd5b8063a9059cbb146103a4578063ceb88a16146103b7578063d8949140146103d7578063dd62ed3e146103fa57600080fd5b806395d89b41116100de57806395d89b411461036d578063a29a608914610375578063a457c2d714610388578063a7ae210a1461039b57600080fd5b806375cb1bd1146103225780638da5cb5b1461033557806392181ec61461034657806394b8fb161461035a57600080fd5b806342966c681161018757806369ab300d1161015657806369ab300d146102eb57806370a08231146102fe578063715018a61461031157806374f079b81461031957600080fd5b806342966c681461028f57806349bd5a5e146102a45780635d0044ca146102cf5780636381f2b1146102e257600080fd5b806323b872dd116101c357806323b872dd14610251578063265b957b14610264578063313ce5671461026d578063395093511461027c57600080fd5b806306fdde03146101f5578063095ea7b31461021357806318160ddd1461023657806321c609c214610248575b600080fd5b6101fd61045f565b60405161020a919061149b565b60405180910390f35b610226610221366004611505565b6104f1565b604051901515815260200161020a565b6002545b60405190815260200161020a565b61023a60075481565b61022661025f36600461152f565b61050b565b61023a60085481565b6040516012815260200161020a565b61022661028a366004611505565b610547565b6102a261029d36600461156b565b610569565b005b600f546102b7906001600160a01b031681565b6040516001600160a01b03909116815260200161020a565b6102a26102dd36600461156b565b6105b3565b61023a60095481565b6102a26102f9366004611594565b6105c0565b61023a61030c3660046115c7565b610696565b6102a26106b1565b61023a600b5481565b6102a26103303660046115e2565b6106c5565b6005546001600160a01b03166102b7565b60055461022690600160a01b900460ff1681565b6102a2610368366004611625565b61070c565b6101fd61079a565b6102a26103833660046115c7565b6107a9565b610226610396366004611505565b6107d3565b61023a600a5481565b6102266103b2366004611505565b610859565b61023a6103c53660046115c7565b600e6020526000908152604090205481565b6102266103e53660046115c7565b600c6020526000908152604090205460ff1681565b61023a610408366004611667565b610893565b6102a261041b366004611594565b6108be565b6102a261042e3660046115c7565b6109d0565b6102266104413660046115c7565b600d6020526000908152604090205460ff1681565b61023a60065481565b60606003805461046e90611691565b80601f016020809104026020016040519081016040528092919081815260200182805461049a90611691565b80156104e75780601f106104bc576101008083540402835291602001916104e7565b820191906000526020600020905b8154815290600101906020018083116104ca57829003601f168201915b5050505050905090565b6000336104ff818585610a61565b60019150505b92915050565b600554600090600160a01b900460ff16156105345761052a8484610b86565b6105348484610dd5565b61053f848484610f2f565b949350505050565b6000336104ff81858561055a8383610893565b61056491906116e1565b610a61565b610571610f48565b61057b3382610fa2565b60405181815233907f696de425f79f4a40bc6d2122ca50507f0efbeabbff86a84871b7196ab8ea8df79060200160405180910390a250565b6105bb610f48565b600655565b6105c8610f48565b6001600160a01b0382166000908152600c602052604090205460ff16156106365760405162461bcd60e51b815260206004820152601e60248201527f416e74694d45563a2043616e6e6f742073657420424f5420746f20564950000060448201526064015b60405180910390fd5b6001600160a01b0382166000818152600d6020908152604091829020805460ff191685151590811790915591519182527fda633a71264a27905632c474143536c3964c692d30dbf9384cf1f2e87659d64c91015b60405180910390a25050565b6001600160a01b031660009081526020819052604090205490565b6106b9610f48565b6106c360006110dd565b565b6106cd610f48565b601080546001600160a01b039485166001600160a01b031991821617909155601180549385169382169390931790925560128054919093169116179055565b610714610f48565b6005805460ff60a01b1916600160a01b87151590810291909117909155600785905560088490556009839055600a8290556040805191825260208201869052810184905260608101839052608081018290527f16b4359a97b6eb33ca4088fa945b541cf984dbebb7e1e6313b00db35cf030e309060a00160405180910390a15050505050565b60606004805461046e90611691565b6107b1610f48565b600f80546001600160a01b0319166001600160a01b0392909216919091179055565b600033816107e18286610893565b9050838110156108415760405162461bcd60e51b815260206004820152602560248201527f45524332303a2064656372656173656420616c6c6f77616e63652062656c6f77604482015264207a65726f60d81b606482015260840161062d565b61084e8286868403610a61565b506001949350505050565b600554600090600160a01b900460ff1615610882576108783384610b86565b6108823384610dd5565b61088c838361112f565b9392505050565b6001600160a01b03918216600090815260016020908152604080832093909416825291909152205490565b6108c6610f48565b6005546001600160a01b038381169116148015906108ed57506001600160a01b0382163014155b80156109075750600f546001600160a01b03838116911614155b801561092c57506001600160a01b0382166000908152600d602052604090205460ff16155b6109785760405162461bcd60e51b815260206004820152601e60248201527f416e74694d45563a2043616e6e6f74207365742056495020746f20424f540000604482015260640161062d565b6001600160a01b0382166000818152600c6020908152604091829020805460ff191685151590811790915591519182527f0cc5910ce116d1d71aa48f1ccd5e978315791068133c0c6aa7540ab8c9a8796d910161068a565b6109d8610f48565b6001600160a01b038116610a3d5760405162461bcd60e51b815260206004820152602660248201527f4f776e61626c653a206e6577206f776e657220697320746865207a65726f206160448201526564647265737360d01b606482015260840161062d565b610a46816110dd565b50565b600061088c82846116f4565b600061088c828461170b565b6001600160a01b038316610ac35760405162461bcd60e51b8152602060048201526024808201527f45524332303a20617070726f76652066726f6d20746865207a65726f206164646044820152637265737360e01b606482015260840161062d565b6001600160a01b038216610b245760405162461bcd60e51b815260206004820152602260248201527f45524332303a20617070726f766520746f20746865207a65726f206164647265604482015261737360f01b606482015260840161062d565b6001600160a01b0383811660008181526001602090815260408083209487168084529482529182902085905590518481527f8c5be1e5ebec7d5bd14f71427d1e84f3dd0314c0f7b2291e5b200ac8c7c3b92591015b60405180910390a3505050565b6001600160a01b0382166000908152600d602052604090205460ff168015610bc757506001600160a01b0381166000908152600d602052604090205460ff16155b15610cb6576007546001600160a01b0382166000908152600e6020526040902054610bf291906116e1565b431115610c19576001600160a01b0381166000908152600e60205260409020439055610cb6565b6001600160a01b0381166000908152600e60205260409020544303610c4857610c438160016108be565b610cb6565b60405162461bcd60e51b815260206004820152603960248201527f416e74694d45563a205472616e736665727320746f6f206672657175656e742c60448201527f20706f737369626c652073616e64776963682061747461636b00000000000000606482015260840161062d565b6001600160a01b0381166000908152600d602052604090205460ff168015610cf757506001600160a01b0382166000908152600d602052604090205460ff16155b15610dd1576007546001600160a01b0383166000908152600e6020526040902054610d2291906116e1565b431115610d4657506001600160a01b03166000908152600e60205260409020439055565b6001600160a01b0382166000908152600e60205260409020544303610c4857610d708260016108be565b60405162461bcd60e51b815260206004820152603060248201527f416e74694d45563a2053616e64776963682061747461636b206465746563746560448201526f642c20616464656420746f20626f747360801b606482015260840161062d565b5050565b6001600b6000828254610de891906116e1565b9091555050600b54610dfa903a61170b565b600b54610e0860018261172d565b600a54610e1591906116f4565b610e1f919061170b565b610e2991906116e1565b600a556001600160a01b0382166000908152600d602052604090205460ff168015610e6d57506001600160a01b0381166000908152600d602052604090205460ff16155b15610f1657610ea0610e976064610e91600854600a54610a4990919063ffffffff16565b90610a55565b600a549061113d565b3a10158015610eb157506001600b54115b15610f165760405162461bcd60e51b815260206004820152602f60248201527f416e74694d45563a204761732062726962652064657465637465642c20706f7360448201526e39b4b1363290333937b73a16b93ab760891b606482015260840161062d565b600954600b541115610dd1573a600a556000600b555050565b600033610f3d858285611149565b61084e8585856111c3565b6005546001600160a01b031633146106c35760405162461bcd60e51b815260206004820181905260248201527f4f776e61626c653a2063616c6c6572206973206e6f7420746865206f776e6572604482015260640161062d565b6001600160a01b0382166110025760405162461bcd60e51b815260206004820152602160248201527f45524332303a206275726e2066726f6d20746865207a65726f206164647265736044820152607360f81b606482015260840161062d565b61100e82600083611372565b6001600160a01b038216600090815260208190526040902054818110156110825760405162461bcd60e51b815260206004820152602260248201527f45524332303a206275726e20616d6f756e7420657863656564732062616c616e604482015261636560f01b606482015260840161062d565b6001600160a01b0383166000818152602081815260408083208686039055600280548790039055518581529192917fddf252ad1be2c89b69c2b068fc378daa952ba7f163c4a11628f55a4df523b3ef9101610b79565b505050565b600580546001600160a01b038381166001600160a01b0319831681179093556040519116919082907f8be0079c531659141344cd1fd0a4f28419497f9722a3daafe3b4186f6b6457e090600090a35050565b6000336104ff8185856111c3565b600061088c82846116e1565b60006111558484610893565b905060001981146111bd57818110156111b05760405162461bcd60e51b815260206004820152601d60248201527f45524332303a20696e73756666696369656e7420616c6c6f77616e6365000000604482015260640161062d565b6111bd8484848403610a61565b50505050565b6001600160a01b0383166112275760405162461bcd60e51b815260206004820152602560248201527f45524332303a207472616e736665722066726f6d20746865207a65726f206164604482015264647265737360d81b606482015260840161062d565b6001600160a01b0382166112895760405162461bcd60e51b815260206004820152602360248201527f45524332303a207472616e7366657220746f20746865207a65726f206164647260448201526265737360e81b606482015260840161062d565b611294838383611372565b6001600160a01b0383166000908152602081905260409020548181101561130c5760405162461bcd60e51b815260206004820152602660248201527f45524332303a207472616e7366657220616d6f756e7420657863656564732062604482015265616c616e636560d01b606482015260840161062d565b6001600160a01b03848116600081815260208181526040808320878703905593871680835291849020805487019055925185815290927fddf252ad1be2c89b69c2b068fc378daa952ba7f163c4a11628f55a4df523b3ef910160405180910390a36111bd565b6001600160a01b0382166000908152600c602052604090205460ff161580156113b457506001600160a01b0383166000908152600c602052604090205460ff16155b6113f95760405162461bcd60e51b8152602060048201526016602482015275105b9d1a5351558e8812db9bdddb8813515588189bdd60521b604482015260640161062d565b6001600160a01b0383166000908152600d602052604090205460ff16801561143a57506001600160a01b0382166000908152600d602052604090205460ff16155b156110d8576006548161144c84610696565b61145691906116e1565b11156110d85760405162461bcd60e51b81526020600482015260146024820152734d61782077616c6c65742065786365656465642160601b604482015260640161062d565b600060208083528351808285015260005b818110156114c8578581018301518582016040015282016114ac565b506000604082860101526040601f19601f8301168501019250505092915050565b80356001600160a01b038116811461150057600080fd5b919050565b6000806040838503121561151857600080fd5b611521836114e9565b946020939093013593505050565b60008060006060848603121561154457600080fd5b61154d846114e9565b925061155b602085016114e9565b9150604084013590509250925092565b60006020828403121561157d57600080fd5b5035919050565b8035801515811461150057600080fd5b600080604083850312156115a757600080fd5b6115b0836114e9565b91506115be60208401611584565b90509250929050565b6000602082840312156115d957600080fd5b61088c826114e9565b6000806000606084860312156115f757600080fd5b611600846114e9565b925061160e602085016114e9565b915061161c604085016114e9565b90509250925092565b600080600080600060a0868803121561163d57600080fd5b61164686611584565b97602087013597506040870135966060810135965060800135945092505050565b6000806040838503121561167a57600080fd5b611683836114e9565b91506115be602084016114e9565b600181811c908216806116a557607f821691505b6020821081036116c557634e487b7160e01b600052602260045260246000fd5b50919050565b634e487b7160e01b600052601160045260246000fd5b80820180821115610505576105056116cb565b8082028115828204841417610505576105056116cb565b60008261172857634e487b7160e01b600052601260045260246000fd5b500490565b81810381811115610505576105056116cb56fea26469706673582212202f5d55e2d08b8b13a968a26fe8f8e294b7e18e3c6bd87870430b818489f8575564736f6c63430008120033",
  "devdoc": {
    "events": {
      "Approval(address,address,uint256)": {
        "details": "Emitted when the allowance of a `spender` for an `owner` is set by a call to {approve}. `value` is the new allowance."
      },
      "Transfer(address,address,uint256)": {
        "details": "Emitted when `value` tokens are moved from one account (`from`) to another (`to`). Note that `value` may be zero."
      }
    },
    "kind": "dev",
    "methods": {
      "allowance(address,address)": {
        "details": "See {IERC20-allowance}."
      },
      "approve(address,uint256)": {
        "details": "See {IERC20-approve}. NOTE: If `amount` is the maximum `uint256`, the allowance is not updated on `transferFrom`. This is semantically equivalent to an infinite approval. Requirements: - `spender` cannot be the zero address."
      },
      "balanceOf(address)": {
        "details": "See {IERC20-balanceOf}."
      },
      "decimals()": {
        "details": "Returns the number of decimals used to get its user representation. For example, if `decimals` equals `2`, a balance of `505` tokens should be displayed to a user as `5.05` (`505 / 10 ** 2`). Tokens usually opt for a value of 18, imitating the relationship between Ether and Wei. This is the default value returned by this function, unless it's overridden. NOTE: This information is only used for _display_ purposes: it in no way affects any of the arithmetic of the contract, including {IERC20-balanceOf} and {IERC20-transfer}."
      },
      "decreaseAllowance(address,uint256)": {
        "details": "Atomically decreases the allowance granted to `spender` by the caller. This is an alternative to {approve} that can be used as a mitigation for problems described in {IERC20-approve}. Emits an {Approval} event indicating the updated allowance. Requirements: - `spender` cannot be the zero address. - `spender` must have allowance for the caller of at least `subtractedValue`."
      },
      "increaseAllowance(address,uint256)": {
        "details": "Atomically increases the allowance granted to `spender` by the caller. This is an alternative to {approve} that can be used as a mitigation for problems described in {IERC20-approve}. Emits an {Approval} event indicating the updated allowance. Requirements: - `spender` cannot be the zero address."
      },
      "name()": {
        "details": "Returns the name of the token."
      },
      "owner()": {
        "details": "Returns the address of the current owner."
      },
      "renounceOwnership()": {
        "details": "Leaves the contract without owner. It will not be possible to call `onlyOwner` functions. Can only be called by the current owner. NOTE: Renouncing ownership will leave the contract without an owner, thereby disabling any functionality that is only available to the owner."
      },
      "symbol()": {
        "details": "Returns the symbol of the token, usually a shorter version of the name."
      },
      "totalSupply()": {
        "details": "See {IERC20-totalSupply}."
      },
      "transfer(address,uint256)": {
        "details": "See {IERC20-transfer}. Requirements: - `to` cannot be the zero address. - the caller must have a balance of at least `amount`."
      },
      "transferFrom(address,address,uint256)": {
        "details": "See {IERC20-transferFrom}. Emits an {Approval} event indicating the updated allowance. This is not required by the EIP. See the note at the beginning of {ERC20}. NOTE: Does not update the allowance if the current allowance is the maximum `uint256`. Requirements: - `from` and `to` cannot be the zero address. - `from` must have a balance of at least `amount`. - the caller must have allowance for ``from``'s tokens of at least `amount`."
      },
      "transferOwnership(address)": {
        "details": "Transfers ownership of the contract to a new account (`newOwner`). Can only be called by the current owner."
      }
    },
    "version": 1
  },
  "userdoc": {
    "kind": "user",
    "methods": {},
    "version": 1
  },
  "storageLayout": {
    "storage": [
      {
        "astId": 581,
        "contract": "contracts/AntiMEV.sol:AntiMEV",
        "label": "_balances",
        "offset": 0,
        "slot": "0",
        "type": "t_mapping(t_address,t_uint256)"
      },
      {
        "astId": 587,
        "contract": "contracts/AntiMEV.sol:AntiMEV",
        "label": "_allowances",
        "offset": 0,
        "slot": "1",
        "type": "t_mapping(t_address,t_mapping(t_address,t_uint256))"
      },
      {
        "astId": 589,
        "contract": "contracts/AntiMEV.sol:AntiMEV",
        "label": "_totalSupply",
        "offset": 0,
        "slot": "2",
        "type": "t_uint256"
      },
      {
        "astId": 591,
        "contract": "contracts/AntiMEV.sol:AntiMEV",
        "label": "_name",
        "offset": 0,
        "slot": "3",
        "type": "t_string_storage"
      },
      {
        "astId": 593,
        "contract": "contracts/AntiMEV.sol:AntiMEV",
        "label": "_symbol",
        "offset": 0,
        "slot": "4",
        "type": "t_string_storage"
      },
      {
        "astId": 26,
        "contract": "contracts/AntiMEV.sol:AntiMEV",
        "label": "_owner",
        "offset": 0,
        "slot": "5",
        "type": "t_address"
      },
      {
        "astId": 1161,
        "contract": "contracts/AntiMEV.sol:AntiMEV",
        "label": "detectMEV",
        "offset": 20,
        "slot": "5",
        "type": "t_bool"
      },
      {
        "astId": 1163,
        "contract": "contracts/AntiMEV.sol:AntiMEV",
        "label": "maxWallet",
        "offset": 0,
        "slot": "6",
        "type": "t_uint256"
      },
      {
        "astId": 1165,
        "contract": "contracts/AntiMEV.sol:AntiMEV",
        "label": "mineBlocks",
        "offset": 0,
        "slot": "7",
        "type": "t_uint256"
      },
      {
        "astId": 1167,
        "contract": "contracts/AntiMEV.sol:AntiMEV",
        "label": "gasDelta",
        "offset": 0,
        "slot": "8",
        "type": "t_uint256"
      },
      {
        "astId": 1169,
        "contract": "contracts/AntiMEV.sol:AntiMEV",
        "label": "maxSample",
        "offset": 0,
        "slot": "9",
        "type": "t_uint256"
      },
      {
        "astId": 1171,
        "contract": "contracts/AntiMEV.sol:AntiMEV",
        "label": "avgGasPrice",
        "offset": 0,
        "slot": "10",
        "type": "t_uint256"
      },
      {
        "astId": 1173,
        "contract": "contracts/AntiMEV.sol:AntiMEV",
        "label": "txCounter",
        "offset": 0,
        "slot": "11",
        "type": "t_uint256"
      },
      {
        "astId": 1177,
        "contract": "contracts/AntiMEV.sol:AntiMEV",
        "label": "isBOT",
        "offset": 0,
        "slot": "12",
        "type": "t_mapping(t_address,t_bool)"
      },
      {
        "astId": 1181,
        "contract": "contracts/AntiMEV.sol:AntiMEV",
        "label": "isVIP",
        "offset": 0,
        "slot": "13",
        "type": "t_mapping(t_address,t_bool)"
      },
      {
        "astId": 1185,
        "contract": "contracts/AntiMEV.sol:AntiMEV",
        "label": "lastTxBlock",
        "offset": 0,
        "slot": "14",
        "type": "t_mapping(t_address,t_uint256)"
      },
      {
        "astId": 1190,
        "contract": "contracts/AntiMEV.sol:AntiMEV",
        "label": "uniswapV2Pair",
        "offset": 0,
        "slot": "15",
        "type": "t_address"
      },
      {
        "astId": 1192,
        "contract": "contracts/AntiMEV.sol:AntiMEV",
        "label": "devWallet",
        "offset": 0,
        "slot": "16",
        "type": "t_address_payable"
      },
      {
        "astId": 1194,
        "contract": "contracts/AntiMEV.sol:AntiMEV",
        "label": "burnWallet",
        "offset": 0,
        "slot": "17",
        "type": "t_address_payable"
      },
      {
        "astId": 1196,
        "contract": "contracts/AntiMEV.sol:AntiMEV",
        "label": "airdropWallet",
        "offset": 0,
        "slot": "18",
        "type": "t_address_payable"
      }
    ],
    "types": {
      "t_address": {
        "encoding": "inplace",
        "label": "address",
        "numberOfBytes": "20"
      },
      "t_address_payable": {
        "encoding": "inplace",
        "label": "address payable",
        "numberOfBytes": "20"
      },
      "t_bool": {
        "encoding": "inplace",
        "label": "bool",
        "numberOfBytes": "1"
      },
      "t_mapping(t_address,t_bool)": {
        "encoding": "mapping",
        "key": "t_address",
        "label": "mapping(address => bool)",
        "numberOfBytes": "32",
        "value": "t_bool"
      },
      "t_mapping(t_address,t_mapping(t_address,t_uint256))": {
        "encoding": "mapping",
        "key": "t_address",
        "label": "mapping(address => mapping(address => uint256))",
        "numberOfBytes": "32",
        "value": "t_mapping(t_address,t_uint256)"
      },
      "t_mapping(t_address,t_uint256)": {
        "encoding": "mapping",
        "key": "t_address",
        "label": "mapping(address => uint256)",
        "numberOfBytes": "32",
        "value": "t_uint256"
      },
      "t_string_storage": {
        "encoding": "bytes",
        "label": "string",
        "numberOfBytes": "32"
      },
      "t_uint256": {
        "encoding": "inplace",
        "label": "uint256",
        "numberOfBytes": "32"
      }
    }
  }
}