{
  "address": "0x3b17e369C222D92f78536805Ff346AA972235233",
  "abi": [
    {
      "inputs": [],
      "stateMutability": "payable",
      "type": "constructor"
    },
    {
      "anonymous": false,
      "inputs": [
        {
          "indexed": true,
          "internalType": "address",
          "name": "owner",
          "type": "address"
        },
        {
          "indexed": true,
          "internalType": "address",
          "name": "spender",
          "type": "address"
        },
        {
          "indexed": false,
          "internalType": "uint256",
          "name": "value",
          "type": "uint256"
        }
      ],
      "name": "Approval",
      "type": "event"
    },
    {
      "anonymous": false,
      "inputs": [
        {
          "indexed": true,
          "internalType": "address",
          "name": "account",
          "type": "address"
        },
        {
          "indexed": false,
          "internalType": "bool",
          "name": "isBot",
          "type": "bool"
        }
      ],
      "name": "BotAdded",
      "type": "event"
    },
    {
      "anonymous": false,
      "inputs": [
        {
          "indexed": true,
          "internalType": "address",
          "name": "user",
          "type": "address"
        },
        {
          "indexed": false,
          "internalType": "uint256",
          "name": "amount",
          "type": "uint256"
        }
      ],
      "name": "Burned",
      "type": "event"
    },
    {
      "anonymous": false,
      "inputs": [
        {
          "indexed": false,
          "internalType": "uint256",
          "name": "mineBlocks",
          "type": "uint256"
        },
        {
          "indexed": false,
          "internalType": "uint256",
          "name": "gasDelta",
          "type": "uint256"
        },
        {
          "indexed": false,
          "internalType": "uint256",
          "name": "maxSample",
          "type": "uint256"
        },
        {
          "indexed": false,
          "internalType": "uint256",
          "name": "avgGasPrice",
          "type": "uint256"
        }
      ],
      "name": "MEVUpdated",
      "type": "event"
    },
    {
      "anonymous": false,
      "inputs": [
        {
          "indexed": true,
          "internalType": "address",
          "name": "previousOwner",
          "type": "address"
        },
        {
          "indexed": true,
          "internalType": "address",
          "name": "newOwner",
          "type": "address"
        }
      ],
      "name": "OwnershipTransferred",
      "type": "event"
    },
    {
      "anonymous": false,
      "inputs": [
        {
          "indexed": true,
          "internalType": "address",
          "name": "from",
          "type": "address"
        },
        {
          "indexed": true,
          "internalType": "address",
          "name": "to",
          "type": "address"
        },
        {
          "indexed": false,
          "internalType": "uint256",
          "name": "value",
          "type": "uint256"
        }
      ],
      "name": "Transfer",
      "type": "event"
    },
    {
      "anonymous": false,
      "inputs": [
        {
          "indexed": true,
          "internalType": "address",
          "name": "account",
          "type": "address"
        },
        {
          "indexed": false,
          "internalType": "bool",
          "name": "isVIP",
          "type": "bool"
        }
      ],
      "name": "VIPAdded",
      "type": "event"
    },
    {
      "inputs": [
        {
          "internalType": "address",
          "name": "owner",
          "type": "address"
        },
        {
          "internalType": "address",
          "name": "spender",
          "type": "address"
        }
      ],
      "name": "allowance",
      "outputs": [
        {
          "internalType": "uint256",
          "name": "",
          "type": "uint256"
        }
      ],
      "stateMutability": "view",
      "type": "function"
    },
    {
      "inputs": [
        {
          "internalType": "address",
          "name": "spender",
          "type": "address"
        },
        {
          "internalType": "uint256",
          "name": "amount",
          "type": "uint256"
        }
      ],
      "name": "approve",
      "outputs": [
        {
          "internalType": "bool",
          "name": "",
          "type": "bool"
        }
      ],
      "stateMutability": "nonpayable",
      "type": "function"
    },
    {
      "inputs": [],
      "name": "avgGasPrice",
      "outputs": [
        {
          "internalType": "uint256",
          "name": "",
          "type": "uint256"
        }
      ],
      "stateMutability": "view",
      "type": "function"
    },
    {
      "inputs": [
        {
          "internalType": "address",
          "name": "account",
          "type": "address"
        }
      ],
      "name": "balanceOf",
      "outputs": [
        {
          "internalType": "uint256",
          "name": "",
          "type": "uint256"
        }
      ],
      "stateMutability": "view",
      "type": "function"
    },
    {
      "inputs": [
        {
          "internalType": "uint256",
          "name": "value",
          "type": "uint256"
        }
      ],
      "name": "burn",
      "outputs": [],
      "stateMutability": "nonpayable",
      "type": "function"
    },
    {
      "inputs": [],
      "name": "decimals",
      "outputs": [
        {
          "internalType": "uint8",
          "name": "",
          "type": "uint8"
        }
      ],
      "stateMutability": "view",
      "type": "function"
    },
    {
      "inputs": [
        {
          "internalType": "address",
          "name": "spender",
          "type": "address"
        },
        {
          "internalType": "uint256",
          "name": "subtractedValue",
          "type": "uint256"
        }
      ],
      "name": "decreaseAllowance",
      "outputs": [
        {
          "internalType": "bool",
          "name": "",
          "type": "bool"
        }
      ],
      "stateMutability": "nonpayable",
      "type": "function"
    },
    {
      "inputs": [],
      "name": "detectMEV",
      "outputs": [
        {
          "internalType": "bool",
          "name": "",
          "type": "bool"
        }
      ],
      "stateMutability": "view",
      "type": "function"
    },
    {
      "inputs": [],
      "name": "gasCounter",
      "outputs": [
        {
          "internalType": "uint256",
          "name": "",
          "type": "uint256"
        }
      ],
      "stateMutability": "view",
      "type": "function"
    },
    {
      "inputs": [],
      "name": "gasDelta",
      "outputs": [
        {
          "internalType": "uint256",
          "name": "",
          "type": "uint256"
        }
      ],
      "stateMutability": "view",
      "type": "function"
    },
    {
      "inputs": [
        {
          "internalType": "address",
          "name": "spender",
          "type": "address"
        },
        {
          "internalType": "uint256",
          "name": "addedValue",
          "type": "uint256"
        }
      ],
      "name": "increaseAllowance",
      "outputs": [
        {
          "internalType": "bool",
          "name": "",
          "type": "bool"
        }
      ],
      "stateMutability": "nonpayable",
      "type": "function"
    },
    {
      "inputs": [
        {
          "internalType": "address",
          "name": "",
          "type": "address"
        }
      ],
      "name": "isBOT",
      "outputs": [
        {
          "internalType": "bool",
          "name": "",
          "type": "bool"
        }
      ],
      "stateMutability": "view",
      "type": "function"
    },
    {
      "inputs": [
        {
          "internalType": "address",
          "name": "",
          "type": "address"
        }
      ],
      "name": "isVIP",
      "outputs": [
        {
          "internalType": "bool",
          "name": "",
          "type": "bool"
        }
      ],
      "stateMutability": "view",
      "type": "function"
    },
    {
      "inputs": [
        {
          "internalType": "address",
          "name": "",
          "type": "address"
        }
      ],
      "name": "lastTxBlock",
      "outputs": [
        {
          "internalType": "uint256",
          "name": "",
          "type": "uint256"
        }
      ],
      "stateMutability": "view",
      "type": "function"
    },
    {
      "inputs": [],
      "name": "maxSample",
      "outputs": [
        {
          "internalType": "uint256",
          "name": "",
          "type": "uint256"
        }
      ],
      "stateMutability": "view",
      "type": "function"
    },
    {
      "inputs": [],
      "name": "maxWallet",
      "outputs": [
        {
          "internalType": "uint256",
          "name": "",
          "type": "uint256"
        }
      ],
      "stateMutability": "view",
      "type": "function"
    },
    {
      "inputs": [],
      "name": "mineBlocks",
      "outputs": [
        {
          "internalType": "uint256",
          "name": "",
          "type": "uint256"
        }
      ],
      "stateMutability": "view",
      "type": "function"
    },
    {
      "inputs": [],
      "name": "name",
      "outputs": [
        {
          "internalType": "string",
          "name": "",
          "type": "string"
        }
      ],
      "stateMutability": "view",
      "type": "function"
    },
    {
      "inputs": [],
      "name": "owner",
      "outputs": [
        {
          "internalType": "address",
          "name": "",
          "type": "address"
        }
      ],
      "stateMutability": "view",
      "type": "function"
    },
    {
      "inputs": [],
      "name": "renounceOwnership",
      "outputs": [],
      "stateMutability": "nonpayable",
      "type": "function"
    },
    {
      "inputs": [
        {
          "internalType": "address[]",
          "name": "_address",
          "type": "address[]"
        },
        {
          "internalType": "bool[]",
          "name": "_isBot",
          "type": "bool[]"
        }
      ],
      "name": "setBots",
      "outputs": [],
      "stateMutability": "nonpayable",
      "type": "function"
    },
    {
      "inputs": [
        {
          "internalType": "bool",
          "name": "_detectMEV",
          "type": "bool"
        }
      ],
      "name": "setDetectMEV",
      "outputs": [],
      "stateMutability": "nonpayable",
      "type": "function"
    },
    {
      "inputs": [
        {
          "internalType": "uint256",
          "name": "_mineBlocks",
          "type": "uint256"
        },
        {
          "internalType": "uint256",
          "name": "_gasDelta",
          "type": "uint256"
        },
        {
          "internalType": "uint256",
          "name": "_maxSample",
          "type": "uint256"
        },
        {
          "internalType": "uint256",
          "name": "_avgGasPrice",
          "type": "uint256"
        }
      ],
      "name": "setMEV",
      "outputs": [],
      "stateMutability": "nonpayable",
      "type": "function"
    },
    {
      "inputs": [
        {
          "internalType": "uint256",
          "name": "_maxWallet",
          "type": "uint256"
        }
      ],
      "name": "setMaxWallet",
      "outputs": [],
      "stateMutability": "nonpayable",
      "type": "function"
    },
    {
      "inputs": [
        {
          "internalType": "address",
          "name": "_uniswapV2Pair",
          "type": "address"
        }
      ],
      "name": "setUniswapV2Pair",
      "outputs": [],
      "stateMutability": "nonpayable",
      "type": "function"
    },
    {
      "inputs": [
        {
          "internalType": "address",
          "name": "_address",
          "type": "address"
        },
        {
          "internalType": "bool",
          "name": "_isVIP",
          "type": "bool"
        }
      ],
      "name": "setVIP",
      "outputs": [],
      "stateMutability": "nonpayable",
      "type": "function"
    },
    {
      "inputs": [
        {
          "internalType": "address",
          "name": "_devWallet",
          "type": "address"
        },
        {
          "internalType": "address",
          "name": "_burnWallet",
          "type": "address"
        },
        {
          "internalType": "address",
          "name": "_airdropWallet",
          "type": "address"
        }
      ],
      "name": "setWallets",
      "outputs": [],
      "stateMutability": "nonpayable",
      "type": "function"
    },
    {
      "inputs": [],
      "name": "symbol",
      "outputs": [
        {
          "internalType": "string",
          "name": "",
          "type": "string"
        }
      ],
      "stateMutability": "view",
      "type": "function"
    },
    {
      "inputs": [],
      "name": "totalSupply",
      "outputs": [
        {
          "internalType": "uint256",
          "name": "",
          "type": "uint256"
        }
      ],
      "stateMutability": "view",
      "type": "function"
    },
    {
      "inputs": [
        {
          "internalType": "address",
          "name": "to",
          "type": "address"
        },
        {
          "internalType": "uint256",
          "name": "amount",
          "type": "uint256"
        }
      ],
      "name": "transfer",
      "outputs": [
        {
          "internalType": "bool",
          "name": "",
          "type": "bool"
        }
      ],
      "stateMutability": "nonpayable",
      "type": "function"
    },
    {
      "inputs": [
        {
          "internalType": "address",
          "name": "from",
          "type": "address"
        },
        {
          "internalType": "address",
          "name": "to",
          "type": "address"
        },
        {
          "internalType": "uint256",
          "name": "amount",
          "type": "uint256"
        }
      ],
      "name": "transferFrom",
      "outputs": [
        {
          "internalType": "bool",
          "name": "",
          "type": "bool"
        }
      ],
      "stateMutability": "nonpayable",
      "type": "function"
    },
    {
      "inputs": [
        {
          "internalType": "address",
          "name": "newOwner",
          "type": "address"
        }
      ],
      "name": "transferOwnership",
      "outputs": [],
      "stateMutability": "nonpayable",
      "type": "function"
    },
    {
      "inputs": [],
      "name": "uniswapV2Pair",
      "outputs": [
        {
          "internalType": "address",
          "name": "",
          "type": "address"
        }
      ],
      "stateMutability": "view",
      "type": "function"
    },
    {
      "inputs": [],
      "name": "uniswapV2Router",
      "outputs": [
        {
          "internalType": "contract IUniswapV2Router02",
          "name": "",
          "type": "address"
        }
      ],
      "stateMutability": "view",
      "type": "function"
    }
  ],
  "transactionHash": "0x247e71fd86efd8bdc71d16c57af058473ccd680920220420947d838acdcf712b",
  "args": [],
  "numDeployments": 6,
  "solcInputHash": "4b9c3e27b6ab6c99e137a35eb79d09ce",
  "bytecode": "0x600760a08181526620b73a34a6a2ab60c91b60c081905261012060405260e09283526101005290600362000034838262000811565b50600462000043828262000811565b505050620000606200005a620003f260201b60201c565b620003f6565b6b03a1679975a96fc068840000620000a16103e86200008d83603162000448602090811b62000b8117901c565b6200045f60201b62000b8d1790919060201c565b6006556005805460ff60a01b1916600160a01b17905560036007556000600a818155601e600855600955600b55737a250d5630b4cf539739df2c5dacb4c659f2488d60808190526040805163c45a015560e01b81529051829163c45a01559160048083019260209291908290030181865afa15801562000125573d6000803e3d6000fd5b505050506040513d601f19601f820116820180604052508101906200014b9190620008dd565b6001600160a01b031663c9c6539630836001600160a01b031663ad5c46486040518163ffffffff1660e01b8152600401602060405180830381865afa15801562000199573d6000803e3d6000fd5b505050506040513d601f19601f82011682018060405250810190620001bf9190620008dd565b6040516001600160e01b031960e085901b1681526001600160a01b039283166004820152911660248201526044016020604051808303816000875af11580156200020d573d6000803e3d6000fd5b505050506040513d601f19601f82011682018060405250810190620002339190620008dd565b600f80546001600160a01b03929092166001600160a01b031992831617905560108054821673c2657176e213ddf18646efce08f36d656abe3396179055601180548216738b30998a9492610f074784aed7afdd682b23b4161790556012805490911673e276d3ea57c5af859e52d51c2c11f5decb4c4838179055620002ba3060016200046d565b601054620002d3906001600160a01b031660016200046d565b601154620002ec906001600160a01b031660016200046d565b60125462000305906001600160a01b031660016200046d565b600f546200031e906001600160a01b031660016200046d565b6080516200032e9060016200046d565b6200035a336200035460646200008d605b876200044860201b62000b811790919060201c565b620004d6565b6010546200038a906001600160a01b03166200035460646200008d86600362000448602090811b62000b8117901c565b601154620003ba906001600160a01b03166200035460646200008d86600362000448602090811b62000b8117901c565b601254620003ea906001600160a01b03166200035460646200008d86600362000448602090811b62000b8117901c565b505062000978565b3390565b600580546001600160a01b038381166001600160a01b0319831681179093556040519116919082907f8be0079c531659141344cd1fd0a4f28419497f9722a3daafe3b4186f6b6457e090600090a35050565b600062000456828462000925565b90505b92915050565b60006200045682846200093f565b62000477620005ab565b6001600160a01b0382166000818152600d6020908152604091829020805460ff191685151590811790915591519182527fda633a71264a27905632c474143536c3964c692d30dbf9384cf1f2e87659d64c910160405180910390a25050565b6001600160a01b038216620005325760405162461bcd60e51b815260206004820152601f60248201527f45524332303a206d696e7420746f20746865207a65726f20616464726573730060448201526064015b60405180910390fd5b620005406000838362000609565b806002600082825462000554919062000962565b90915550506001600160a01b038216600081815260208181526040808320805486019055518481527fddf252ad1be2c89b69c2b068fc378daa952ba7f163c4a11628f55a4df523b3ef910160405180910390a35050565b6005546001600160a01b03163314620006075760405162461bcd60e51b815260206004820181905260248201527f4f776e61626c653a2063616c6c6572206973206e6f7420746865206f776e6572604482015260640162000529565b565b6001600160a01b0382166000908152600c602052604090205460ff161580156200064c57506001600160a01b0383166000908152600c602052604090205460ff16155b6200069a5760405162461bcd60e51b815260206004820152601660248201527f416e74694d45563a204b6e6f776e204d455620626f7400000000000000000000604482015260640162000529565b600f546001600160a01b038481169116148015620006d157506001600160a01b0382166000908152600d602052604090205460ff16155b156200074d5760065481620006f1846200075260201b620009041760201c565b620006fd919062000962565b11156200074d5760405162461bcd60e51b815260206004820152601460248201527f4d61782077616c6c657420657863656564656421000000000000000000000000604482015260640162000529565b505050565b6001600160a01b031660009081526020819052604090205490565b634e487b7160e01b600052604160045260246000fd5b600181811c908216806200079857607f821691505b602082108103620007b957634e487b7160e01b600052602260045260246000fd5b50919050565b601f8211156200074d57600081815260208120601f850160051c81016020861015620007e85750805b601f850160051c820191505b818110156200080957828155600101620007f4565b505050505050565b81516001600160401b038111156200082d576200082d6200076d565b62000845816200083e845462000783565b84620007bf565b602080601f8311600181146200087d5760008415620008645750858301515b600019600386901b1c1916600185901b17855562000809565b600085815260208120601f198616915b82811015620008ae578886015182559484019460019091019084016200088d565b5085821015620008cd5787850151600019600388901b60f8161c191681555b5050505050600190811b01905550565b600060208284031215620008f057600080fd5b81516001600160a01b03811681146200090857600080fd5b9392505050565b634e487b7160e01b600052601160045260246000fd5b80820281158282048414176200045957620004596200090f565b6000826200095d57634e487b7160e01b600052601260045260246000fd5b500490565b808201808211156200045957620004596200090f565b608051611b446200099b60003960008181610278015261064c0152611b446000f3fe608060405234801561001057600080fd5b50600436106102055760003560e01c8063715018a61161011a578063a6ccf7e5116100ad578063d89491401161007c578063d894914014610439578063dd62ed3e1461045c578063f2fde38b1461046f578063f4201c3c14610482578063f8b45b05146104a557600080fd5b8063a6ccf7e5146103ea578063a7ae210a146103fd578063a9059cbb14610406578063ceb88a161461041957600080fd5b806395bb5db6116100e957806395bb5db6146103b357806395d89b41146103bc578063a29a6089146103c4578063a457c2d7146103d757600080fd5b8063715018a61461037357806375cb1bd11461037b5780638da5cb5b1461038e57806392181ec61461039f57600080fd5b8063265b957b1161019d57806349bd5a5e1161016c57806349bd5a5e1461031e5780635d0044ca146103315780636381f2b11461034457806369ab300d1461034d57806370a082311461036057600080fd5b8063265b957b146102e0578063313ce567146102e957806339509351146102f857806342966c681461030b57600080fd5b80631694505e116101d95780631694505e1461027357806318160ddd146102b257806321c609c2146102c457806323b872dd146102cd57600080fd5b80623a91a51461020a57806306fdde031461021f578063095ea7b31461023d5780630ee0347c14610260575b600080fd5b61021d6102183660046116a7565b6104ae565b005b6102276104d4565b60405161023491906116c2565b60405180910390f35b61025061024b366004611727565b610566565b6040519015158152602001610234565b61021d61026e36600461182e565b610580565b61029a7f000000000000000000000000000000000000000000000000000000000000000081565b6040516001600160a01b039091168152602001610234565b6002545b604051908152602001610234565b6102b660075481565b6102506102db3660046118ee565b6107e8565b6102b660085481565b60405160128152602001610234565b610250610306366004611727565b610824565b61021d61031936600461192a565b610846565b600f5461029a906001600160a01b031681565b61021d61033f36600461192a565b610890565b6102b660095481565b61021d61035b366004611943565b61089d565b6102b661036e366004611976565b610904565b61021d61091f565b61021d610389366004611991565b610933565b6005546001600160a01b031661029a565b60055461025090600160a01b900460ff1681565b6102b6600b5481565b61022761097a565b61021d6103d2366004611976565b610989565b6102506103e5366004611727565b6109b3565b61021d6103f83660046119d4565b610a39565b6102b6600a5481565b610250610414366004611727565b610aa3565b6102b6610427366004611976565b600e6020526000908152604090205481565b610250610447366004611976565b600c6020526000908152604090205460ff1681565b6102b661046a366004611a06565b610add565b61021d61047d366004611976565b610b08565b610250610490366004611976565b600d6020526000908152604090205460ff1681565b6102b660065481565b6104b6610b99565b60058054911515600160a01b0260ff60a01b19909216919091179055565b6060600380546104e390611a30565b80601f016020809104026020016040519081016040528092919081815260200182805461050f90611a30565b801561055c5780601f106105315761010080835404028352916020019161055c565b820191906000526020600020905b81548152906001019060200180831161053f57829003601f168201915b5050505050905090565b600033610574818585610bf3565b60019150505b92915050565b610588610b99565b60005b82518110156107e3576005546001600160a01b03166001600160a01b03168382815181106105bb576105bb611a6a565b60200260200101516001600160a01b0316141580156106055750306001600160a01b03168382815181106105f1576105f1611a6a565b60200260200101516001600160a01b031614155b80156106435750600f5483516001600160a01b039091169084908390811061062f5761062f611a6a565b60200260200101516001600160a01b031614155b801561069a57507f00000000000000000000000000000000000000000000000000000000000000006001600160a01b031683828151811061068657610686611a6a565b60200260200101516001600160a01b031614155b6106eb5760405162461bcd60e51b815260206004820152601860248201527f416e74694d45563a20496e76616c69642061646472657373000000000000000060448201526064015b60405180910390fd5b8181815181106106fd576106fd611a6a565b6020026020010151600c600085848151811061071b5761071b611a6a565b60200260200101516001600160a01b03166001600160a01b0316815260200190815260200160002060006101000a81548160ff02191690831515021790555082818151811061076c5761076c611a6a565b60200260200101516001600160a01b03167f0cc5910ce116d1d71aa48f1ccd5e978315791068133c0c6aa7540ab8c9a8796d8383815181106107b0576107b0611a6a565b60200260200101516040516107c9911515815260200190565b60405180910390a2806107db81611a96565b91505061058b565b505050565b600554600090600160a01b900460ff1615610811576108078484610d17565b6108118484611030565b61081c848484611188565b949350505050565b6000336105748185856108378383610add565b6108419190611aaf565b610bf3565b61084e610b99565b61085833826111a1565b60405181815233907f696de425f79f4a40bc6d2122ca50507f0efbeabbff86a84871b7196ab8ea8df79060200160405180910390a250565b610898610b99565b600655565b6108a5610b99565b6001600160a01b0382166000818152600d6020908152604091829020805460ff191685151590811790915591519182527fda633a71264a27905632c474143536c3964c692d30dbf9384cf1f2e87659d64c910160405180910390a25050565b6001600160a01b031660009081526020819052604090205490565b610927610b99565b61093160006112df565b565b61093b610b99565b601080546001600160a01b039485166001600160a01b031991821617909155601180549385169382169390931790925560128054919093169116179055565b6060600480546104e390611a30565b610991610b99565b600f80546001600160a01b0319166001600160a01b0392909216919091179055565b600033816109c18286610add565b905083811015610a215760405162461bcd60e51b815260206004820152602560248201527f45524332303a2064656372656173656420616c6c6f77616e63652062656c6f77604482015264207a65726f60d81b60648201526084016106e2565b610a2e8286868403610bf3565b506001949350505050565b610a41610b99565b600784905560088390556009829055600a8190556040805185815260208101859052908101839052606081018290527f14fd6f32fdaec8482ac6b00207414b60d714be451bc189769f2cdf1e85e881209060800160405180910390a150505050565b600554600090600160a01b900460ff1615610acc57610ac23384610d17565b610acc3384611030565b610ad68383611331565b9392505050565b6001600160a01b03918216600090815260016020908152604080832093909416825291909152205490565b610b10610b99565b6001600160a01b038116610b755760405162461bcd60e51b815260206004820152602660248201527f4f776e61626c653a206e6577206f776e657220697320746865207a65726f206160448201526564647265737360d01b60648201526084016106e2565b610b7e816112df565b50565b6000610ad68284611ac2565b6000610ad68284611ad9565b6005546001600160a01b031633146109315760405162461bcd60e51b815260206004820181905260248201527f4f776e61626c653a2063616c6c6572206973206e6f7420746865206f776e657260448201526064016106e2565b6001600160a01b038316610c555760405162461bcd60e51b8152602060048201526024808201527f45524332303a20617070726f76652066726f6d20746865207a65726f206164646044820152637265737360e01b60648201526084016106e2565b6001600160a01b038216610cb65760405162461bcd60e51b815260206004820152602260248201527f45524332303a20617070726f766520746f20746865207a65726f206164647265604482015261737360f01b60648201526084016106e2565b6001600160a01b0383811660008181526001602090815260408083209487168084529482529182902085905590518481527f8c5be1e5ebec7d5bd14f71427d1e84f3dd0314c0f7b2291e5b200ac8c7c3b925910160405180910390a3505050565b600f546001600160a01b038381169116148015610d4d57506001600160a01b0381166000908152600d602052604090205460ff16155b15610eac576007546001600160a01b0382166000908152600e6020526040902054610d789190611aaf565b431115610d9f576001600160a01b0381166000908152600e60205260409020439055610eac565b6001600160a01b0381166000908152600e60205260409020544303610e3e576001600160a01b0381166000908152600d602052604090205460ff16610e39576001600160a01b0381166000818152600c6020908152604091829020805460ff1916600190811790915591519182527f0cc5910ce116d1d71aa48f1ccd5e978315791068133c0c6aa7540ab8c9a8796d910160405180910390a25b610eac565b60405162461bcd60e51b815260206004820152603960248201527f416e74694d45563a205472616e736665727320746f6f206672657175656e742c60448201527f20706f737369626c652073616e64776963682061747461636b0000000000000060648201526084016106e2565b600f546001600160a01b038281169116148015610ee257506001600160a01b0382166000908152600d602052604090205460ff16155b1561102c576007546001600160a01b0383166000908152600e6020526040902054610f0d9190611aaf565b431115610f3157506001600160a01b03166000908152600e60205260409020439055565b6001600160a01b0382166000908152600e60205260409020544303610e3e576001600160a01b0382166000908152600d602052604090205460ff16610fcb576001600160a01b0382166000818152600c6020908152604091829020805460ff1916600190811790915591519182527f0cc5910ce116d1d71aa48f1ccd5e978315791068133c0c6aa7540ab8c9a8796d910160405180910390a25b60405162461bcd60e51b815260206004820152603060248201527f416e74694d45563a2053616e64776963682061747461636b206465746563746560448201526f642c20616464656420746f20626f747360801b60648201526084016106e2565b5050565b6001600b60008282546110439190611aaf565b9091555050600b54611055903a611ad9565b600b54611063600182611afb565b600a546110709190611ac2565b61107a9190611ad9565b6110849190611aaf565b600a55600954600b54111561109d573a600a556000600b555b6001600160a01b0382166000908152600d602052604090205460ff161580156110df57506001600160a01b0381166000908152600d602052604090205460ff16155b1561102c576111126111096064611103600854600a54610b8190919063ffffffff16565b90610b8d565b600a549061133f565b3a1015801561112357506001600b54115b1561102c5760405162461bcd60e51b815260206004820152602f60248201527f416e74694d45563a204761732062726962652064657465637465642c20706f7360448201526e39b4b1363290333937b73a16b93ab760891b60648201526084016106e2565b60003361119685828561134b565b610a2e8585856113c5565b6001600160a01b0382166112015760405162461bcd60e51b815260206004820152602160248201527f45524332303a206275726e2066726f6d20746865207a65726f206164647265736044820152607360f81b60648201526084016106e2565b61120d82600083611574565b6001600160a01b038216600090815260208190526040902054818110156112815760405162461bcd60e51b815260206004820152602260248201527f45524332303a206275726e20616d6f756e7420657863656564732062616c616e604482015261636560f01b60648201526084016106e2565b6001600160a01b0383166000818152602081815260408083208686039055600280548790039055518581529192917fddf252ad1be2c89b69c2b068fc378daa952ba7f163c4a11628f55a4df523b3ef910160405180910390a3505050565b600580546001600160a01b038381166001600160a01b0319831681179093556040519116919082907f8be0079c531659141344cd1fd0a4f28419497f9722a3daafe3b4186f6b6457e090600090a35050565b6000336105748185856113c5565b6000610ad68284611aaf565b60006113578484610add565b905060001981146113bf57818110156113b25760405162461bcd60e51b815260206004820152601d60248201527f45524332303a20696e73756666696369656e7420616c6c6f77616e636500000060448201526064016106e2565b6113bf8484848403610bf3565b50505050565b6001600160a01b0383166114295760405162461bcd60e51b815260206004820152602560248201527f45524332303a207472616e736665722066726f6d20746865207a65726f206164604482015264647265737360d81b60648201526084016106e2565b6001600160a01b03821661148b5760405162461bcd60e51b815260206004820152602360248201527f45524332303a207472616e7366657220746f20746865207a65726f206164647260448201526265737360e81b60648201526084016106e2565b611496838383611574565b6001600160a01b0383166000908152602081905260409020548181101561150e5760405162461bcd60e51b815260206004820152602660248201527f45524332303a207472616e7366657220616d6f756e7420657863656564732062604482015265616c616e636560d01b60648201526084016106e2565b6001600160a01b03848116600081815260208181526040808320878703905593871680835291849020805487019055925185815290927fddf252ad1be2c89b69c2b068fc378daa952ba7f163c4a11628f55a4df523b3ef910160405180910390a36113bf565b6001600160a01b0382166000908152600c602052604090205460ff161580156115b657506001600160a01b0383166000908152600c602052604090205460ff16155b6115fb5760405162461bcd60e51b8152602060048201526016602482015275105b9d1a5351558e8812db9bdddb8813515588189bdd60521b60448201526064016106e2565b600f546001600160a01b03848116911614801561163157506001600160a01b0382166000908152600d602052604090205460ff16155b156107e3576006548161164384610904565b61164d9190611aaf565b11156107e35760405162461bcd60e51b81526020600482015260146024820152734d61782077616c6c65742065786365656465642160601b60448201526064016106e2565b803580151581146116a257600080fd5b919050565b6000602082840312156116b957600080fd5b610ad682611692565b600060208083528351808285015260005b818110156116ef578581018301518582016040015282016116d3565b506000604082860101526040601f19601f8301168501019250505092915050565b80356001600160a01b03811681146116a257600080fd5b6000806040838503121561173a57600080fd5b61174383611710565b946020939093013593505050565b634e487b7160e01b600052604160045260246000fd5b604051601f8201601f1916810167ffffffffffffffff8111828210171561179057611790611751565b604052919050565b600067ffffffffffffffff8211156117b2576117b2611751565b5060051b60200190565b600082601f8301126117cd57600080fd5b813560206117e26117dd83611798565b611767565b82815260059290921b8401810191818101908684111561180157600080fd5b8286015b848110156118235761181681611692565b8352918301918301611805565b509695505050505050565b6000806040838503121561184157600080fd5b823567ffffffffffffffff8082111561185957600080fd5b818501915085601f83011261186d57600080fd5b8135602061187d6117dd83611798565b82815260059290921b8401810191818101908984111561189c57600080fd5b948201945b838610156118c1576118b286611710565b825294820194908201906118a1565b965050860135925050808211156118d757600080fd5b506118e4858286016117bc565b9150509250929050565b60008060006060848603121561190357600080fd5b61190c84611710565b925061191a60208501611710565b9150604084013590509250925092565b60006020828403121561193c57600080fd5b5035919050565b6000806040838503121561195657600080fd5b61195f83611710565b915061196d60208401611692565b90509250929050565b60006020828403121561198857600080fd5b610ad682611710565b6000806000606084860312156119a657600080fd5b6119af84611710565b92506119bd60208501611710565b91506119cb60408501611710565b90509250925092565b600080600080608085870312156119ea57600080fd5b5050823594602084013594506040840135936060013592509050565b60008060408385031215611a1957600080fd5b611a2283611710565b915061196d60208401611710565b600181811c90821680611a4457607f821691505b602082108103611a6457634e487b7160e01b600052602260045260246000fd5b50919050565b634e487b7160e01b600052603260045260246000fd5b634e487b7160e01b600052601160045260246000fd5b600060018201611aa857611aa8611a80565b5060010190565b8082018082111561057a5761057a611a80565b808202811582820484141761057a5761057a611a80565b600082611af657634e487b7160e01b600052601260045260246000fd5b500490565b8181038181111561057a5761057a611a8056fea26469706673582212205d5d02ec637f143a9fa7a704575472e2ef5ff79cef4b43c054b9b9d6f122dc0264736f6c63430008120033",
  "devdoc": {
    "events": {
      "Approval(address,address,uint256)": {
        "details": "Emitted when the allowance of a `spender` for an `owner` is set by a call to {approve}. `value` is the new allowance."
      },
      "Transfer(address,address,uint256)": {
        "details": "Emitted when `value` tokens are moved from one account (`from`) to another (`to`). Note that `value` may be zero."
      }
    },
    "kind": "dev",
    "methods": {
      "allowance(address,address)": {
        "details": "See {IERC20-allowance}."
      },
      "approve(address,uint256)": {
        "details": "See {IERC20-approve}. NOTE: If `amount` is the maximum `uint256`, the allowance is not updated on `transferFrom`. This is semantically equivalent to an infinite approval. Requirements: - `spender` cannot be the zero address."
      },
      "balanceOf(address)": {
        "details": "See {IERC20-balanceOf}."
      },
      "decimals()": {
        "details": "Returns the number of decimals used to get its user representation. For example, if `decimals` equals `2`, a balance of `505` tokens should be displayed to a user as `5.05` (`505 / 10 ** 2`). Tokens usually opt for a value of 18, imitating the relationship between Ether and Wei. This is the default value returned by this function, unless it's overridden. NOTE: This information is only used for _display_ purposes: it in no way affects any of the arithmetic of the contract, including {IERC20-balanceOf} and {IERC20-transfer}."
      },
      "decreaseAllowance(address,uint256)": {
        "details": "Atomically decreases the allowance granted to `spender` by the caller. This is an alternative to {approve} that can be used as a mitigation for problems described in {IERC20-approve}. Emits an {Approval} event indicating the updated allowance. Requirements: - `spender` cannot be the zero address. - `spender` must have allowance for the caller of at least `subtractedValue`."
      },
      "increaseAllowance(address,uint256)": {
        "details": "Atomically increases the allowance granted to `spender` by the caller. This is an alternative to {approve} that can be used as a mitigation for problems described in {IERC20-approve}. Emits an {Approval} event indicating the updated allowance. Requirements: - `spender` cannot be the zero address."
      },
      "name()": {
        "details": "Returns the name of the token."
      },
      "owner()": {
        "details": "Returns the address of the current owner."
      },
      "renounceOwnership()": {
        "details": "Leaves the contract without owner. It will not be possible to call `onlyOwner` functions. Can only be called by the current owner. NOTE: Renouncing ownership will leave the contract without an owner, thereby disabling any functionality that is only available to the owner."
      },
      "symbol()": {
        "details": "Returns the symbol of the token, usually a shorter version of the name."
      },
      "totalSupply()": {
        "details": "See {IERC20-totalSupply}."
      },
      "transfer(address,uint256)": {
        "details": "See {IERC20-transfer}. Requirements: - `to` cannot be the zero address. - the caller must have a balance of at least `amount`."
      },
      "transferFrom(address,address,uint256)": {
        "details": "See {IERC20-transferFrom}. Emits an {Approval} event indicating the updated allowance. This is not required by the EIP. See the note at the beginning of {ERC20}. NOTE: Does not update the allowance if the current allowance is the maximum `uint256`. Requirements: - `from` and `to` cannot be the zero address. - `from` must have a balance of at least `amount`. - the caller must have allowance for ``from``'s tokens of at least `amount`."
      },
      "transferOwnership(address)": {
        "details": "Transfers ownership of the contract to a new account (`newOwner`). Can only be called by the current owner."
      }
    },
    "version": 1
  },
  "userdoc": {
    "kind": "user",
    "methods": {},
    "version": 1
  },
  "storageLayout": {
    "storage": [
      {
        "astId": 581,
        "contract": "contracts/AntiMEV.sol:AntiMEV",
        "label": "_balances",
        "offset": 0,
        "slot": "0",
        "type": "t_mapping(t_address,t_uint256)"
      },
      {
        "astId": 587,
        "contract": "contracts/AntiMEV.sol:AntiMEV",
        "label": "_allowances",
        "offset": 0,
        "slot": "1",
        "type": "t_mapping(t_address,t_mapping(t_address,t_uint256))"
      },
      {
        "astId": 589,
        "contract": "contracts/AntiMEV.sol:AntiMEV",
        "label": "_totalSupply",
        "offset": 0,
        "slot": "2",
        "type": "t_uint256"
      },
      {
        "astId": 591,
        "contract": "contracts/AntiMEV.sol:AntiMEV",
        "label": "_name",
        "offset": 0,
        "slot": "3",
        "type": "t_string_storage"
      },
      {
        "astId": 593,
        "contract": "contracts/AntiMEV.sol:AntiMEV",
        "label": "_symbol",
        "offset": 0,
        "slot": "4",
        "type": "t_string_storage"
      },
      {
        "astId": 26,
        "contract": "contracts/AntiMEV.sol:AntiMEV",
        "label": "_owner",
        "offset": 0,
        "slot": "5",
        "type": "t_address"
      },
      {
        "astId": 1161,
        "contract": "contracts/AntiMEV.sol:AntiMEV",
        "label": "detectMEV",
        "offset": 20,
        "slot": "5",
        "type": "t_bool"
      },
      {
        "astId": 1163,
        "contract": "contracts/AntiMEV.sol:AntiMEV",
        "label": "maxWallet",
        "offset": 0,
        "slot": "6",
        "type": "t_uint256"
      },
      {
        "astId": 1165,
        "contract": "contracts/AntiMEV.sol:AntiMEV",
        "label": "mineBlocks",
        "offset": 0,
        "slot": "7",
        "type": "t_uint256"
      },
      {
        "astId": 1167,
        "contract": "contracts/AntiMEV.sol:AntiMEV",
        "label": "gasDelta",
        "offset": 0,
        "slot": "8",
        "type": "t_uint256"
      },
      {
        "astId": 1169,
        "contract": "contracts/AntiMEV.sol:AntiMEV",
        "label": "maxSample",
        "offset": 0,
        "slot": "9",
        "type": "t_uint256"
      },
      {
        "astId": 1171,
        "contract": "contracts/AntiMEV.sol:AntiMEV",
        "label": "avgGasPrice",
        "offset": 0,
        "slot": "10",
        "type": "t_uint256"
      },
      {
        "astId": 1173,
        "contract": "contracts/AntiMEV.sol:AntiMEV",
        "label": "gasCounter",
        "offset": 0,
        "slot": "11",
        "type": "t_uint256"
      },
      {
        "astId": 1177,
        "contract": "contracts/AntiMEV.sol:AntiMEV",
        "label": "isBOT",
        "offset": 0,
        "slot": "12",
        "type": "t_mapping(t_address,t_bool)"
      },
      {
        "astId": 1181,
        "contract": "contracts/AntiMEV.sol:AntiMEV",
        "label": "isVIP",
        "offset": 0,
        "slot": "13",
        "type": "t_mapping(t_address,t_bool)"
      },
      {
        "astId": 1185,
        "contract": "contracts/AntiMEV.sol:AntiMEV",
        "label": "lastTxBlock",
        "offset": 0,
        "slot": "14",
        "type": "t_mapping(t_address,t_uint256)"
      },
      {
        "astId": 1190,
        "contract": "contracts/AntiMEV.sol:AntiMEV",
        "label": "uniswapV2Pair",
        "offset": 0,
        "slot": "15",
        "type": "t_address"
      },
      {
        "astId": 1192,
        "contract": "contracts/AntiMEV.sol:AntiMEV",
        "label": "devWallet",
        "offset": 0,
        "slot": "16",
        "type": "t_address_payable"
      },
      {
        "astId": 1194,
        "contract": "contracts/AntiMEV.sol:AntiMEV",
        "label": "burnWallet",
        "offset": 0,
        "slot": "17",
        "type": "t_address_payable"
      },
      {
        "astId": 1196,
        "contract": "contracts/AntiMEV.sol:AntiMEV",
        "label": "airdropWallet",
        "offset": 0,
        "slot": "18",
        "type": "t_address_payable"
      }
    ],
    "types": {
      "t_address": {
        "encoding": "inplace",
        "label": "address",
        "numberOfBytes": "20"
      },
      "t_address_payable": {
        "encoding": "inplace",
        "label": "address payable",
        "numberOfBytes": "20"
      },
      "t_bool": {
        "encoding": "inplace",
        "label": "bool",
        "numberOfBytes": "1"
      },
      "t_mapping(t_address,t_bool)": {
        "encoding": "mapping",
        "key": "t_address",
        "label": "mapping(address => bool)",
        "numberOfBytes": "32",
        "value": "t_bool"
      },
      "t_mapping(t_address,t_mapping(t_address,t_uint256))": {
        "encoding": "mapping",
        "key": "t_address",
        "label": "mapping(address => mapping(address => uint256))",
        "numberOfBytes": "32",
        "value": "t_mapping(t_address,t_uint256)"
      },
      "t_mapping(t_address,t_uint256)": {
        "encoding": "mapping",
        "key": "t_address",
        "label": "mapping(address => uint256)",
        "numberOfBytes": "32",
        "value": "t_uint256"
      },
      "t_string_storage": {
        "encoding": "bytes",
        "label": "string",
        "numberOfBytes": "32"
      },
      "t_uint256": {
        "encoding": "inplace",
        "label": "uint256",
        "numberOfBytes": "32"
      }
    }
  }
}