{
  "address": "0x0633C560daA4F334A6FB038c7b3ACbe4A06d387D",
  "abi": [
    {
      "inputs": [
        {
          "internalType": "uint256",
          "name": "_totalSupply",
          "type": "uint256"
        }
      ],
      "stateMutability": "payable",
      "type": "constructor"
    },
    {
      "anonymous": false,
      "inputs": [
        {
          "indexed": true,
          "internalType": "address",
          "name": "owner",
          "type": "address"
        },
        {
          "indexed": true,
          "internalType": "address",
          "name": "spender",
          "type": "address"
        },
        {
          "indexed": false,
          "internalType": "uint256",
          "name": "value",
          "type": "uint256"
        }
      ],
      "name": "Approval",
      "type": "event"
    },
    {
      "anonymous": false,
      "inputs": [
        {
          "indexed": true,
          "internalType": "address",
          "name": "previousOwner",
          "type": "address"
        },
        {
          "indexed": true,
          "internalType": "address",
          "name": "newOwner",
          "type": "address"
        }
      ],
      "name": "OwnershipTransferred",
      "type": "event"
    },
    {
      "anonymous": false,
      "inputs": [
        {
          "indexed": true,
          "internalType": "address",
          "name": "from",
          "type": "address"
        },
        {
          "indexed": true,
          "internalType": "address",
          "name": "to",
          "type": "address"
        },
        {
          "indexed": false,
          "internalType": "uint256",
          "name": "value",
          "type": "uint256"
        }
      ],
      "name": "Transfer",
      "type": "event"
    },
    {
      "inputs": [
        {
          "internalType": "address",
          "name": "owner",
          "type": "address"
        },
        {
          "internalType": "address",
          "name": "spender",
          "type": "address"
        }
      ],
      "name": "allowance",
      "outputs": [
        {
          "internalType": "uint256",
          "name": "",
          "type": "uint256"
        }
      ],
      "stateMutability": "view",
      "type": "function"
    },
    {
      "inputs": [
        {
          "internalType": "address",
          "name": "spender",
          "type": "address"
        },
        {
          "internalType": "uint256",
          "name": "amount",
          "type": "uint256"
        }
      ],
      "name": "approve",
      "outputs": [
        {
          "internalType": "bool",
          "name": "",
          "type": "bool"
        }
      ],
      "stateMutability": "nonpayable",
      "type": "function"
    },
    {
      "inputs": [
        {
          "internalType": "address",
          "name": "account",
          "type": "address"
        }
      ],
      "name": "balanceOf",
      "outputs": [
        {
          "internalType": "uint256",
          "name": "",
          "type": "uint256"
        }
      ],
      "stateMutability": "view",
      "type": "function"
    },
    {
      "inputs": [
        {
          "internalType": "address",
          "name": "",
          "type": "address"
        }
      ],
      "name": "bots",
      "outputs": [
        {
          "internalType": "bool",
          "name": "",
          "type": "bool"
        }
      ],
      "stateMutability": "view",
      "type": "function"
    },
    {
      "inputs": [
        {
          "internalType": "uint256",
          "name": "value",
          "type": "uint256"
        }
      ],
      "name": "burn",
      "outputs": [],
      "stateMutability": "nonpayable",
      "type": "function"
    },
    {
      "inputs": [],
      "name": "decimals",
      "outputs": [
        {
          "internalType": "uint8",
          "name": "",
          "type": "uint8"
        }
      ],
      "stateMutability": "view",
      "type": "function"
    },
    {
      "inputs": [
        {
          "internalType": "address",
          "name": "spender",
          "type": "address"
        },
        {
          "internalType": "uint256",
          "name": "subtractedValue",
          "type": "uint256"
        }
      ],
      "name": "decreaseAllowance",
      "outputs": [
        {
          "internalType": "bool",
          "name": "",
          "type": "bool"
        }
      ],
      "stateMutability": "nonpayable",
      "type": "function"
    },
    {
      "inputs": [
        {
          "internalType": "bool",
          "name": "_enabled",
          "type": "bool"
        }
      ],
      "name": "enableTrading",
      "outputs": [],
      "stateMutability": "nonpayable",
      "type": "function"
    },
    {
      "inputs": [],
      "name": "enabled",
      "outputs": [
        {
          "internalType": "bool",
          "name": "",
          "type": "bool"
        }
      ],
      "stateMutability": "view",
      "type": "function"
    },
    {
      "inputs": [
        {
          "internalType": "address",
          "name": "spender",
          "type": "address"
        },
        {
          "internalType": "uint256",
          "name": "addedValue",
          "type": "uint256"
        }
      ],
      "name": "increaseAllowance",
      "outputs": [
        {
          "internalType": "bool",
          "name": "",
          "type": "bool"
        }
      ],
      "stateMutability": "nonpayable",
      "type": "function"
    },
    {
      "inputs": [],
      "name": "maxWallet",
      "outputs": [
        {
          "internalType": "uint256",
          "name": "",
          "type": "uint256"
        }
      ],
      "stateMutability": "view",
      "type": "function"
    },
    {
      "inputs": [],
      "name": "name",
      "outputs": [
        {
          "internalType": "string",
          "name": "",
          "type": "string"
        }
      ],
      "stateMutability": "view",
      "type": "function"
    },
    {
      "inputs": [],
      "name": "owner",
      "outputs": [
        {
          "internalType": "address",
          "name": "",
          "type": "address"
        }
      ],
      "stateMutability": "view",
      "type": "function"
    },
    {
      "inputs": [],
      "name": "renounceOwnership",
      "outputs": [],
      "stateMutability": "nonpayable",
      "type": "function"
    },
    {
      "inputs": [
        {
          "internalType": "address[]",
          "name": "_address",
          "type": "address[]"
        },
        {
          "internalType": "bool[]",
          "name": "_isBot",
          "type": "bool[]"
        }
      ],
      "name": "setBots",
      "outputs": [],
      "stateMutability": "nonpayable",
      "type": "function"
    },
    {
      "inputs": [
        {
          "internalType": "address",
          "name": "_uniswapV2Pair",
          "type": "address"
        },
        {
          "internalType": "address",
          "name": "_teamWallet",
          "type": "address"
        },
        {
          "internalType": "uint256",
          "name": "_maxWallet",
          "type": "uint256"
        }
      ],
      "name": "setVars",
      "outputs": [],
      "stateMutability": "nonpayable",
      "type": "function"
    },
    {
      "inputs": [],
      "name": "symbol",
      "outputs": [
        {
          "internalType": "string",
          "name": "",
          "type": "string"
        }
      ],
      "stateMutability": "view",
      "type": "function"
    },
    {
      "inputs": [],
      "name": "totalSupply",
      "outputs": [
        {
          "internalType": "uint256",
          "name": "",
          "type": "uint256"
        }
      ],
      "stateMutability": "view",
      "type": "function"
    },
    {
      "inputs": [
        {
          "internalType": "address",
          "name": "recipient",
          "type": "address"
        },
        {
          "internalType": "uint256",
          "name": "amount",
          "type": "uint256"
        }
      ],
      "name": "transfer",
      "outputs": [
        {
          "internalType": "bool",
          "name": "",
          "type": "bool"
        }
      ],
      "stateMutability": "nonpayable",
      "type": "function"
    },
    {
      "inputs": [
        {
          "internalType": "address",
          "name": "sender",
          "type": "address"
        },
        {
          "internalType": "address",
          "name": "recipient",
          "type": "address"
        },
        {
          "internalType": "uint256",
          "name": "amount",
          "type": "uint256"
        }
      ],
      "name": "transferFrom",
      "outputs": [
        {
          "internalType": "bool",
          "name": "",
          "type": "bool"
        }
      ],
      "stateMutability": "nonpayable",
      "type": "function"
    },
    {
      "inputs": [
        {
          "internalType": "address",
          "name": "newOwner",
          "type": "address"
        }
      ],
      "name": "transferOwnership",
      "outputs": [],
      "stateMutability": "nonpayable",
      "type": "function"
    },
    {
      "inputs": [],
      "name": "uniswapV2Pair",
      "outputs": [
        {
          "internalType": "address",
          "name": "",
          "type": "address"
        }
      ],
      "stateMutability": "view",
      "type": "function"
    }
  ],
  "transactionHash": "0xeb4e6529a07878901d16190e12021b7e4b5bacf7817db3e46850543a5cf1ca7b",
  "args": [
    "1123581321000000000000000000"
  ],
  "numDeployments": 10,
  "solcInputHash": "3fc5e8702ed7f0675e768ade539b9049",
  "bytecode": "0x608060408190526005805460ff60a01b1916600160a01b17905562001c52388190039081908339810160408190526200003891620003bf565b604080518082018252600680825265474d5553535960d01b60208084018290528451808601909552918452908301529060026200007683826200047d565b5060036200008582826200047d565b505050620000a26200009c620000b560201b60201c565b620000b9565b620000ae33826200010b565b5062000571565b3390565b600580546001600160a01b038381166001600160a01b0319831681179093556040519116919082907f8be0079c531659141344cd1fd0a4f28419497f9722a3daafe3b4186f6b6457e090600090a35050565b6001600160a01b038216620001675760405162461bcd60e51b815260206004820152601f60248201527f45524332303a206d696e7420746f20746865207a65726f20616464726573730060448201526064015b60405180910390fd5b620001756000838362000202565b806004600082825462000189919062000549565b90915550506001600160a01b03821660009081526020819052604081208054839290620001b890849062000549565b90915550506040518181526001600160a01b038316906000907fddf252ad1be2c89b69c2b068fc378daa952ba7f163c4a11628f55a4df523b3ef9060200160405180910390a35050565b600554600160a01b900460ff166200021957600080fd5b6001600160a01b03821660009081526009602052604090205460ff161580156200025c57506001600160a01b03831660009081526009602052604090205460ff16155b620002955760405162461bcd60e51b81526020600482015260086024820152674d455620424f542160c01b60448201526064016200015e565b6007546001600160a01b031662000313576005546001600160a01b0384811691161480620002d057506005546001600160a01b038381169116145b6200030e5760405162461bcd60e51b815260206004820152600d60248201526c50414952204e4f54205345542160981b60448201526064016200015e565b505050565b600554600160a01b900460ff1680156200033a57506007546001600160a01b038481169116145b156200030e57600654816200035a84620003a460201b620006f41760201c565b62000366919062000549565b11156200030e5760405162461bcd60e51b815260206004820152600b60248201526a4d41582057414c4c45542160a81b60448201526064016200015e565b6001600160a01b031660009081526020819052604090205490565b600060208284031215620003d257600080fd5b5051919050565b634e487b7160e01b600052604160045260246000fd5b600181811c908216806200040457607f821691505b6020821081036200042557634e487b7160e01b600052602260045260246000fd5b50919050565b601f8211156200030e57600081815260208120601f850160051c81016020861015620004545750805b601f850160051c820191505b81811015620004755782815560010162000460565b505050505050565b81516001600160401b03811115620004995762000499620003d9565b620004b181620004aa8454620003ef565b846200042b565b602080601f831160018114620004e95760008415620004d05750858301515b600019600386901b1c1916600185901b17855562000475565b600085815260208120601f198616915b828110156200051a57888601518255948401946001909101908401620004f9565b5085821015620005395787850151600019600388901b60f8161c191681555b5050505050600190811b01905550565b808201808211156200056b57634e487b7160e01b600052601160045260246000fd5b92915050565b6116d180620005816000396000f3fe608060405234801561001057600080fd5b50600436106101825760003560e01c8063715018a6116100d8578063bfd792841161008c578063f2fde38b11610066578063f2fde38b14610355578063f73f429614610368578063f8b45b051461037b57600080fd5b8063bfd79284146102e6578063dd62ed3e14610309578063f275f64b1461034257600080fd5b806395d89b41116100bd57806395d89b41146102b8578063a457c2d7146102c0578063a9059cbb146102d357600080fd5b8063715018a61461029f5780638da5cb5b146102a757600080fd5b806323b872dd1161013a57806342966c681161011457806342966c681461023857806349bd5a5e1461024b57806370a082311461027657600080fd5b806323b872dd14610203578063313ce56714610216578063395093511461022557600080fd5b80630ee0347c1161016b5780630ee0347c146101c857806318160ddd146101dd578063238dafe0146101ef57600080fd5b806306fdde0314610187578063095ea7b3146101a5575b600080fd5b61018f610384565b60405161019c91906112f7565b60405180910390f35b6101b86101b3366004611361565b610416565b604051901515815260200161019c565b6101db6101d6366004611478565b61042d565b005b6004545b60405190815260200161019c565b6005546101b890600160a01b900460ff1681565b6101b8610211366004611538565b61058b565b6040516012815260200161019c565b6101b8610233366004611361565b610651565b6101db610246366004611574565b61068d565b60075461025e906001600160a01b031681565b6040516001600160a01b03909116815260200161019c565b6101e161028436600461158d565b6001600160a01b031660009081526020819052604090205490565b6101db61070f565b6005546001600160a01b031661025e565b61018f610775565b6101b86102ce366004611361565b610784565b6101b86102e1366004611361565b610835565b6101b86102f436600461158d565b60096020526000908152604090205460ff1681565b6101e16103173660046115a8565b6001600160a01b03918216600090815260016020908152604080832093909416825291909152205490565b6101db6103503660046115db565b6108e7565b6101db61036336600461158d565b61097a565b6101db610376366004611538565b610a59565b6101e160065481565b606060028054610393906115f6565b80601f01602080910402602001604051908101604052809291908181526020018280546103bf906115f6565b801561040c5780601f106103e15761010080835404028352916020019161040c565b820191906000526020600020905b8154815290600101906020018083116103ef57829003601f168201915b5050505050905090565b6000610423338484610af5565b5060015b92915050565b6005546001600160a01b0316331461048c5760405162461bcd60e51b815260206004820181905260248201527f4f776e61626c653a2063616c6c6572206973206e6f7420746865206f776e657260448201526064015b60405180910390fd5b60005b825181101561058657306001600160a01b03168382815181106104b4576104b4611630565b60200260200101516001600160a01b03161415801561050957506005546001600160a01b03166001600160a01b03168382815181106104f5576104f5611630565b60200260200101516001600160a01b031614155b61051257600080fd5b81818151811061052457610524611630565b60200260200101516009600085848151811061054257610542611630565b6020908102919091018101516001600160a01b03168252810191909152604001600020805460ff19169115159190911790558061057e8161165c565b91505061048f565b505050565b6001600160a01b0383166000908152600a60205260408120546105af906003611675565b43116106235760405162461bcd60e51b815260206004820152603560248201527f416e74694d4556546f6b656e3a2043616e6e6f74207472616e7366657220747760448201527f69636520696e207468652073616d6520626c6f636b00000000000000000000006064820152608401610483565b6001600160a01b0384166000908152600a60205260409020439055610649848484610c4d565b949350505050565b3360008181526001602090815260408083206001600160a01b03871684529091528120549091610423918590610688908690611675565b610af5565b6005546001600160a01b031633146106e75760405162461bcd60e51b815260206004820181905260248201527f4f776e61626c653a2063616c6c6572206973206e6f7420746865206f776e65726044820152606401610483565b6106f13382610d0c565b50565b6001600160a01b031660009081526020819052604090205490565b6005546001600160a01b031633146107695760405162461bcd60e51b815260206004820181905260248201527f4f776e61626c653a2063616c6c6572206973206e6f7420746865206f776e65726044820152606401610483565b6107736000610e9d565b565b606060038054610393906115f6565b3360009081526001602090815260408083206001600160a01b03861684529091528120548281101561081e5760405162461bcd60e51b815260206004820152602560248201527f45524332303a2064656372656173656420616c6c6f77616e63652062656c6f7760448201527f207a65726f0000000000000000000000000000000000000000000000000000006064820152608401610483565b61082b3385858403610af5565b5060019392505050565b336000908152600a6020526040812054610850906003611675565b43116108c45760405162461bcd60e51b815260206004820152603560248201527f416e74694d4556546f6b656e3a2043616e6e6f74207472616e7366657220747760448201527f69636520696e207468652073616d6520626c6f636b00000000000000000000006064820152608401610483565b336000908152600a602052604090204390556108e08383610efc565b9392505050565b6005546001600160a01b031633146109415760405162461bcd60e51b815260206004820181905260248201527f4f776e61626c653a2063616c6c6572206973206e6f7420746865206f776e65726044820152606401610483565b60058054911515600160a01b027fffffffffffffffffffffff00ffffffffffffffffffffffffffffffffffffffff909216919091179055565b6005546001600160a01b031633146109d45760405162461bcd60e51b815260206004820181905260248201527f4f776e61626c653a2063616c6c6572206973206e6f7420746865206f776e65726044820152606401610483565b6001600160a01b038116610a505760405162461bcd60e51b815260206004820152602660248201527f4f776e61626c653a206e6577206f776e657220697320746865207a65726f206160448201527f64647265737300000000000000000000000000000000000000000000000000006064820152608401610483565b6106f181610e9d565b6005546001600160a01b03163314610ab35760405162461bcd60e51b815260206004820181905260248201527f4f776e61626c653a2063616c6c6572206973206e6f7420746865206f776e65726044820152606401610483565b600780546001600160a01b0394851673ffffffffffffffffffffffffffffffffffffffff19918216179091556008805493909416921691909117909155600655565b6001600160a01b038316610b705760405162461bcd60e51b8152602060048201526024808201527f45524332303a20617070726f76652066726f6d20746865207a65726f2061646460448201527f72657373000000000000000000000000000000000000000000000000000000006064820152608401610483565b6001600160a01b038216610bec5760405162461bcd60e51b815260206004820152602260248201527f45524332303a20617070726f766520746f20746865207a65726f20616464726560448201527f73730000000000000000000000000000000000000000000000000000000000006064820152608401610483565b6001600160a01b0383811660008181526001602090815260408083209487168084529482529182902085905590518481527f8c5be1e5ebec7d5bd14f71427d1e84f3dd0314c0f7b2291e5b200ac8c7c3b925910160405180910390a3505050565b6000610c5a848484610f05565b6001600160a01b038416600090815260016020908152604080832033845290915290205482811015610cf45760405162461bcd60e51b815260206004820152602860248201527f45524332303a207472616e7366657220616d6f756e742065786365656473206160448201527f6c6c6f77616e63650000000000000000000000000000000000000000000000006064820152608401610483565b610d018533858403610af5565b506001949350505050565b6001600160a01b038216610d885760405162461bcd60e51b815260206004820152602160248201527f45524332303a206275726e2066726f6d20746865207a65726f2061646472657360448201527f73000000000000000000000000000000000000000000000000000000000000006064820152608401610483565b610d9482600083611128565b6001600160a01b03821660009081526020819052604090205481811015610e235760405162461bcd60e51b815260206004820152602260248201527f45524332303a206275726e20616d6f756e7420657863656564732062616c616e60448201527f63650000000000000000000000000000000000000000000000000000000000006064820152608401610483565b6001600160a01b0383166000908152602081905260408120838303905560048054849290610e52908490611688565b90915550506040518281526000906001600160a01b038516907fddf252ad1be2c89b69c2b068fc378daa952ba7f163c4a11628f55a4df523b3ef9060200160405180910390a3505050565b600580546001600160a01b0383811673ffffffffffffffffffffffffffffffffffffffff19831681179093556040519116919082907f8be0079c531659141344cd1fd0a4f28419497f9722a3daafe3b4186f6b6457e090600090a35050565b60006104233384845b6001600160a01b038316610f815760405162461bcd60e51b815260206004820152602560248201527f45524332303a207472616e736665722066726f6d20746865207a65726f20616460448201527f64726573730000000000000000000000000000000000000000000000000000006064820152608401610483565b6001600160a01b038216610ffd5760405162461bcd60e51b815260206004820152602360248201527f45524332303a207472616e7366657220746f20746865207a65726f206164647260448201527f65737300000000000000000000000000000000000000000000000000000000006064820152608401610483565b611008838383611128565b6001600160a01b038316600090815260208190526040902054818110156110975760405162461bcd60e51b815260206004820152602660248201527f45524332303a207472616e7366657220616d6f756e742065786365656473206260448201527f616c616e636500000000000000000000000000000000000000000000000000006064820152608401610483565b6001600160a01b038085166000908152602081905260408082208585039055918516815290812080548492906110ce908490611675565b92505081905550826001600160a01b0316846001600160a01b03167fddf252ad1be2c89b69c2b068fc378daa952ba7f163c4a11628f55a4df523b3ef8460405161111a91815260200190565b60405180910390a350505050565b600554600160a01b900460ff1661113e57600080fd5b6001600160a01b03821660009081526009602052604090205460ff1615801561118057506001600160a01b03831660009081526009602052604090205460ff16155b6111cc5760405162461bcd60e51b815260206004820152600860248201527f4d455620424f54210000000000000000000000000000000000000000000000006044820152606401610483565b6007546001600160a01b0316611251576005546001600160a01b038481169116148061120557506005546001600160a01b038381169116145b6105865760405162461bcd60e51b815260206004820152600d60248201527f50414952204e4f542053455421000000000000000000000000000000000000006044820152606401610483565b600554600160a01b900460ff16801561127757506007546001600160a01b038481169116145b15610586576006548161129f846001600160a01b031660009081526020819052604090205490565b6112a99190611675565b11156105865760405162461bcd60e51b815260206004820152600b60248201527f4d41582057414c4c4554210000000000000000000000000000000000000000006044820152606401610483565b600060208083528351808285015260005b8181101561132457858101830151858201604001528201611308565b506000604082860101526040601f19601f8301168501019250505092915050565b80356001600160a01b038116811461135c57600080fd5b919050565b6000806040838503121561137457600080fd5b61137d83611345565b946020939093013593505050565b634e487b7160e01b600052604160045260246000fd5b604051601f8201601f1916810167ffffffffffffffff811182821017156113ca576113ca61138b565b604052919050565b600067ffffffffffffffff8211156113ec576113ec61138b565b5060051b60200190565b8035801515811461135c57600080fd5b600082601f83011261141757600080fd5b8135602061142c611427836113d2565b6113a1565b82815260059290921b8401810191818101908684111561144b57600080fd5b8286015b8481101561146d57611460816113f6565b835291830191830161144f565b509695505050505050565b6000806040838503121561148b57600080fd5b823567ffffffffffffffff808211156114a357600080fd5b818501915085601f8301126114b757600080fd5b813560206114c7611427836113d2565b82815260059290921b840181019181810190898411156114e657600080fd5b948201945b8386101561150b576114fc86611345565b825294820194908201906114eb565b9650508601359250508082111561152157600080fd5b5061152e85828601611406565b9150509250929050565b60008060006060848603121561154d57600080fd5b61155684611345565b925061156460208501611345565b9150604084013590509250925092565b60006020828403121561158657600080fd5b5035919050565b60006020828403121561159f57600080fd5b6108e082611345565b600080604083850312156115bb57600080fd5b6115c483611345565b91506115d260208401611345565b90509250929050565b6000602082840312156115ed57600080fd5b6108e0826113f6565b600181811c9082168061160a57607f821691505b60208210810361162a57634e487b7160e01b600052602260045260246000fd5b50919050565b634e487b7160e01b600052603260045260246000fd5b634e487b7160e01b600052601160045260246000fd5b60006001820161166e5761166e611646565b5060010190565b8082018082111561042757610427611646565b818103818111156104275761042761164656fea26469706673582212205998638cffac4c4ce657eaabcf627577fa2bded2e4267bd09854fd54ed3cc39364736f6c63430008120033",
  "devdoc": {
    "events": {
      "Approval(address,address,uint256)": {
        "details": "Emitted when the allowance of a `spender` for an `owner` is set by a call to {approve}. `value` is the new allowance."
      },
      "Transfer(address,address,uint256)": {
        "details": "Emitted when `value` tokens are moved from one account (`from`) to another (`to`). Note that `value` may be zero."
      }
    },
    "kind": "dev",
    "methods": {
      "allowance(address,address)": {
        "details": "See {IERC20-allowance}."
      },
      "approve(address,uint256)": {
        "details": "See {IERC20-approve}. Requirements: - `spender` cannot be the zero address."
      },
      "balanceOf(address)": {
        "details": "See {IERC20-balanceOf}."
      },
      "decimals()": {
        "details": "Returns the number of decimals used to get its user representation. For example, if `decimals` equals `2`, a balance of `505` tokens should be displayed to a user as `5.05` (`505 / 10 ** 2`). Tokens usually opt for a value of 18, imitating the relationship between Ether and Wei. This is the value {ERC20} uses, unless this function is overridden; NOTE: This information is only used for _display_ purposes: it in no way affects any of the arithmetic of the contract, including {IERC20-balanceOf} and {IERC20-transfer}."
      },
      "decreaseAllowance(address,uint256)": {
        "details": "Atomically decreases the allowance granted to `spender` by the caller. This is an alternative to {approve} that can be used as a mitigation for problems described in {IERC20-approve}. Emits an {Approval} event indicating the updated allowance. Requirements: - `spender` cannot be the zero address. - `spender` must have allowance for the caller of at least `subtractedValue`."
      },
      "increaseAllowance(address,uint256)": {
        "details": "Atomically increases the allowance granted to `spender` by the caller. This is an alternative to {approve} that can be used as a mitigation for problems described in {IERC20-approve}. Emits an {Approval} event indicating the updated allowance. Requirements: - `spender` cannot be the zero address."
      },
      "name()": {
        "details": "Returns the name of the token."
      },
      "owner()": {
        "details": "Returns the address of the current owner."
      },
      "renounceOwnership()": {
        "details": "Leaves the contract without owner. It will not be possible to call `onlyOwner` functions anymore. Can only be called by the current owner. NOTE: Renouncing ownership will leave the contract without an owner, thereby removing any functionality that is only available to the owner."
      },
      "symbol()": {
        "details": "Returns the symbol of the token, usually a shorter version of the name."
      },
      "totalSupply()": {
        "details": "See {IERC20-totalSupply}."
      },
      "transfer(address,uint256)": {
        "details": "See {IERC20-transfer}. Requirements: - `recipient` cannot be the zero address. - the caller must have a balance of at least `amount`."
      },
      "transferFrom(address,address,uint256)": {
        "details": "See {IERC20-transferFrom}. Emits an {Approval} event indicating the updated allowance. This is not required by the EIP. See the note at the beginning of {ERC20}. Requirements: - `sender` and `recipient` cannot be the zero address. - `sender` must have a balance of at least `amount`. - the caller must have allowance for ``sender``'s tokens of at least `amount`."
      },
      "transferOwnership(address)": {
        "details": "Transfers ownership of the contract to a new account (`newOwner`). Can only be called by the current owner."
      }
    },
    "version": 1
  },
  "userdoc": {
    "kind": "user",
    "methods": {},
    "version": 1
  },
  "storageLayout": {
    "storage": [
      {
        "astId": 232,
        "contract": "contracts/GMUSSY.sol:GMUSSY",
        "label": "_balances",
        "offset": 0,
        "slot": "0",
        "type": "t_mapping(t_address,t_uint256)"
      },
      {
        "astId": 238,
        "contract": "contracts/GMUSSY.sol:GMUSSY",
        "label": "_allowances",
        "offset": 0,
        "slot": "1",
        "type": "t_mapping(t_address,t_mapping(t_address,t_uint256))"
      },
      {
        "astId": 240,
        "contract": "contracts/GMUSSY.sol:GMUSSY",
        "label": "_name",
        "offset": 0,
        "slot": "2",
        "type": "t_string_storage"
      },
      {
        "astId": 242,
        "contract": "contracts/GMUSSY.sol:GMUSSY",
        "label": "_symbol",
        "offset": 0,
        "slot": "3",
        "type": "t_string_storage"
      },
      {
        "astId": 244,
        "contract": "contracts/GMUSSY.sol:GMUSSY",
        "label": "_totalSupply",
        "offset": 0,
        "slot": "4",
        "type": "t_uint256"
      },
      {
        "astId": 27,
        "contract": "contracts/GMUSSY.sol:GMUSSY",
        "label": "_owner",
        "offset": 0,
        "slot": "5",
        "type": "t_address"
      },
      {
        "astId": 1082,
        "contract": "contracts/GMUSSY.sol:GMUSSY",
        "label": "enabled",
        "offset": 20,
        "slot": "5",
        "type": "t_bool"
      },
      {
        "astId": 1084,
        "contract": "contracts/GMUSSY.sol:GMUSSY",
        "label": "maxWallet",
        "offset": 0,
        "slot": "6",
        "type": "t_uint256"
      },
      {
        "astId": 1086,
        "contract": "contracts/GMUSSY.sol:GMUSSY",
        "label": "uniswapV2Pair",
        "offset": 0,
        "slot": "7",
        "type": "t_address"
      },
      {
        "astId": 1088,
        "contract": "contracts/GMUSSY.sol:GMUSSY",
        "label": "teamWallet",
        "offset": 0,
        "slot": "8",
        "type": "t_address_payable"
      },
      {
        "astId": 1092,
        "contract": "contracts/GMUSSY.sol:GMUSSY",
        "label": "bots",
        "offset": 0,
        "slot": "9",
        "type": "t_mapping(t_address,t_bool)"
      },
      {
        "astId": 1096,
        "contract": "contracts/GMUSSY.sol:GMUSSY",
        "label": "lastTxBlock",
        "offset": 0,
        "slot": "10",
        "type": "t_mapping(t_address,t_uint256)"
      }
    ],
    "types": {
      "t_address": {
        "encoding": "inplace",
        "label": "address",
        "numberOfBytes": "20"
      },
      "t_address_payable": {
        "encoding": "inplace",
        "label": "address payable",
        "numberOfBytes": "20"
      },
      "t_bool": {
        "encoding": "inplace",
        "label": "bool",
        "numberOfBytes": "1"
      },
      "t_mapping(t_address,t_bool)": {
        "encoding": "mapping",
        "key": "t_address",
        "label": "mapping(address => bool)",
        "numberOfBytes": "32",
        "value": "t_bool"
      },
      "t_mapping(t_address,t_mapping(t_address,t_uint256))": {
        "encoding": "mapping",
        "key": "t_address",
        "label": "mapping(address => mapping(address => uint256))",
        "numberOfBytes": "32",
        "value": "t_mapping(t_address,t_uint256)"
      },
      "t_mapping(t_address,t_uint256)": {
        "encoding": "mapping",
        "key": "t_address",
        "label": "mapping(address => uint256)",
        "numberOfBytes": "32",
        "value": "t_uint256"
      },
      "t_string_storage": {
        "encoding": "bytes",
        "label": "string",
        "numberOfBytes": "32"
      },
      "t_uint256": {
        "encoding": "inplace",
        "label": "uint256",
        "numberOfBytes": "32"
      }
    }
  }
}