{
  "address": "0x349AA50de089156C812F0473Ee57307cC899F152",
  "abi": [
    {
      "inputs": [
        {
          "internalType": "address",
          "name": "vrfCoordinatorV2",
          "type": "address"
        },
        {
          "internalType": "uint64",
          "name": "subscriptionId",
          "type": "uint64"
        },
        {
          "internalType": "bytes32",
          "name": "gasLane",
          "type": "bytes32"
        },
        {
          "internalType": "uint256",
          "name": "interval",
          "type": "uint256"
        },
        {
          "internalType": "uint256",
          "name": "entranceFee",
          "type": "uint256"
        },
        {
          "internalType": "uint32",
          "name": "callbackGasLimit",
          "type": "uint32"
        }
      ],
      "stateMutability": "nonpayable",
      "type": "constructor"
    },
    {
      "inputs": [
        {
          "internalType": "address",
          "name": "have",
          "type": "address"
        },
        {
          "internalType": "address",
          "name": "want",
          "type": "address"
        }
      ],
      "name": "OnlyCoordinatorCanFulfill",
      "type": "error"
    },
    {
      "inputs": [],
      "name": "Raffle__TransferFailed",
      "type": "error"
    },
    {
      "anonymous": false,
      "inputs": [
        {
          "indexed": true,
          "internalType": "address",
          "name": "player",
          "type": "address"
        }
      ],
      "name": "RaffleEnter",
      "type": "event"
    },
    {
      "anonymous": false,
      "inputs": [
        {
          "indexed": true,
          "internalType": "uint256",
          "name": "requestId",
          "type": "uint256"
        }
      ],
      "name": "RequestedRaffleWinner",
      "type": "event"
    },
    {
      "anonymous": false,
      "inputs": [
        {
          "indexed": true,
          "internalType": "address",
          "name": "player",
          "type": "address"
        }
      ],
      "name": "WinnerPicked",
      "type": "event"
    },
    {
      "inputs": [
        {
          "internalType": "bytes",
          "name": "",
          "type": "bytes"
        }
      ],
      "name": "checkUpkeep",
      "outputs": [
        {
          "internalType": "bool",
          "name": "upkeepNeeded",
          "type": "bool"
        },
        {
          "internalType": "bytes",
          "name": "",
          "type": "bytes"
        }
      ],
      "stateMutability": "view",
      "type": "function"
    },
    {
      "inputs": [],
      "name": "enterRaffle",
      "outputs": [],
      "stateMutability": "payable",
      "type": "function"
    },
    {
      "inputs": [],
      "name": "getEntranceFee",
      "outputs": [
        {
          "internalType": "uint256",
          "name": "",
          "type": "uint256"
        }
      ],
      "stateMutability": "view",
      "type": "function"
    },
    {
      "inputs": [],
      "name": "getInterval",
      "outputs": [
        {
          "internalType": "uint256",
          "name": "",
          "type": "uint256"
        }
      ],
      "stateMutability": "view",
      "type": "function"
    },
    {
      "inputs": [],
      "name": "getLastTimeStamp",
      "outputs": [
        {
          "internalType": "uint256",
          "name": "",
          "type": "uint256"
        }
      ],
      "stateMutability": "view",
      "type": "function"
    },
    {
      "inputs": [],
      "name": "getNumWords",
      "outputs": [
        {
          "internalType": "uint256",
          "name": "",
          "type": "uint256"
        }
      ],
      "stateMutability": "pure",
      "type": "function"
    },
    {
      "inputs": [],
      "name": "getNumberOfPlayers",
      "outputs": [
        {
          "internalType": "uint256",
          "name": "",
          "type": "uint256"
        }
      ],
      "stateMutability": "view",
      "type": "function"
    },
    {
      "inputs": [
        {
          "internalType": "uint256",
          "name": "index",
          "type": "uint256"
        }
      ],
      "name": "getPlayer",
      "outputs": [
        {
          "internalType": "address",
          "name": "",
          "type": "address"
        }
      ],
      "stateMutability": "view",
      "type": "function"
    },
    {
      "inputs": [],
      "name": "getRaffleState",
      "outputs": [
        {
          "internalType": "enum Raffle.RaffleState",
          "name": "",
          "type": "uint8"
        }
      ],
      "stateMutability": "view",
      "type": "function"
    },
    {
      "inputs": [],
      "name": "getRecentWinner",
      "outputs": [
        {
          "internalType": "address",
          "name": "",
          "type": "address"
        }
      ],
      "stateMutability": "view",
      "type": "function"
    },
    {
      "inputs": [],
      "name": "getRequestConfirmations",
      "outputs": [
        {
          "internalType": "uint256",
          "name": "",
          "type": "uint256"
        }
      ],
      "stateMutability": "pure",
      "type": "function"
    },
    {
      "inputs": [
        {
          "internalType": "bytes",
          "name": "",
          "type": "bytes"
        }
      ],
      "name": "performUpkeep",
      "outputs": [],
      "stateMutability": "nonpayable",
      "type": "function"
    },
    {
      "inputs": [
        {
          "internalType": "uint256",
          "name": "requestId",
          "type": "uint256"
        },
        {
          "internalType": "uint256[]",
          "name": "randomWords",
          "type": "uint256[]"
        }
      ],
      "name": "rawFulfillRandomWords",
      "outputs": [],
      "stateMutability": "nonpayable",
      "type": "function"
    }
  ],
  "transactionHash": "0xca1da400876a189581403d52d634cb9cfe80be4b2d2c13de1abde0e7b6459fe7",
  "args": [
    "0x2ca8e0c643bde4c2e08ab1fa0da3401adad7734d",
    "8853",
    "0x474e34a077df58807dbe9c96d3c009b23b3c6d0cce433e59bbf5b34f823bc56c",
    "30",
    "10000000000000000",
    "500000"
  ],
  "numDeployments": 1,
  "solcInputHash": "ab860b25ef767adca972047ff8249f23",
  "bytecode": "0x61016060405234801561001157600080fd5b50604051610d78380380610d788339810160408190526100309161007e565b6001600160a01b0395909516608081905260a05260e092909252610120526001600160401b039190911660c052610140526003805460ff191690554260005563ffffffff1661010052610109565b60008060008060008060c0878903121561009757600080fd5b86516001600160a01b03811681146100ae57600080fd5b60208801519096506001600160401b03811681146100cb57600080fd5b8095505060408701519350606087015192506080870151915060a087015163ffffffff811681146100fb57600080fd5b809150509295509295509295565b60805160a05160c05160e051610100516101205161014051610c016101776000396000818160d6015261030701526000818161020a015261061501526000610510015260006104b2015260006104d80152600061054c01526000818161028301526102c50152610c016000f3fe6080604052600436106100c25760003560e01c806353a2c19a1161007f57806391ad27b41161005957806391ad27b4146101fb578063c1c244e81461022e578063e55ae4e814610243578063fd6673f51461026357600080fd5b806353a2c19a146101a55780635f1b0fd8146101b95780636e04ff0d146101cd57600080fd5b806309bc33a7146100c7578063115cbaf5146101095780631fe543e3146101295780632cfcc5391461014b5780634585e33b14610153578063473f1ddc14610173575b600080fd5b3480156100d357600080fd5b507f00000000000000000000000000000000000000000000000000000000000000005b6040519081526020015b60405180910390f35b34801561011557600080fd5b5060035460ff1660405161010091906108ba565b34801561013557600080fd5b50610149610144366004610929565b610278565b005b610149610305565b34801561015f57600080fd5b5061014961016e3660046109db565b610436565b34801561017f57600080fd5b506001546001600160a01b03165b6040516001600160a01b039091168152602001610100565b3480156101b157600080fd5b5060016100f6565b3480156101c557600080fd5b5060036100f6565b3480156101d957600080fd5b506101ed6101e8366004610a4d565b6105ed565b604051610100929190610ae2565b34801561020757600080fd5b507f00000000000000000000000000000000000000000000000000000000000000006100f6565b34801561023a57600080fd5b506000546100f6565b34801561024f57600080fd5b5061018d61025e366004610b3a565b610692565b34801561026f57600080fd5b506002546100f6565b336001600160a01b037f000000000000000000000000000000000000000000000000000000000000000016146102f75760405163073e64fd60e21b81523360048201526001600160a01b037f00000000000000000000000000000000000000000000000000000000000000001660248201526044015b60405180910390fd5b61030182826106c2565b5050565b7f000000000000000000000000000000000000000000000000000000000000000034101561036d5760405162461bcd60e51b8152602060048201526015602482015274139bdd08195b9bdd59da081d985b1d59481cd95b9d605a1b60448201526064016102ee565b600060035460ff166001811115610386576103866108a4565b146103c85760405162461bcd60e51b81526020600482015260126024820152712930b33336329034b9903737ba1037b832b760711b60448201526064016102ee565b6002805460018101825560009182527f405787fa12a823e0f2b7631cc41b3ba8828b3321ca811111fa75cd3aa3bb5ace0180546001600160a01b0319163390811790915560405190917f0805e1d667bddb8a95f0f09880cf94f403fb596ce79928d9f29b74203ba284d491a2565b6000610450604051806020016040528060008152506105ed565b509050806104945760405162461bcd60e51b8152602060048201526011602482015270155c1ad9595c081b9bdd081b9959591959607a1b60448201526064016102ee565b6003805460ff1916600190811782556040516305d3b1d360e41b81527f000000000000000000000000000000000000000000000000000000000000000060048201527f000000000000000000000000000000000000000000000000000000000000000067ffffffffffffffff16602482015260448101929092527f000000000000000000000000000000000000000000000000000000000000000063ffffffff16606483015260848201526000906001600160a01b037f00000000000000000000000000000000000000000000000000000000000000001690635d3b1d309060a4016020604051808303816000875af1158015610595573d6000803e3d6000fd5b505050506040513d601f19601f820116820180604052508101906105b99190610b53565b60405190915081907fcd6e45c8998311cab7e9d4385596cac867e20a0587194b954fa3a731c93ce78b90600090a250505050565b600354600090606090829060ff16600181111561060c5761060c6108a4565b600014905060007f0000000000000000000000000000000000000000000000000000000000000000600054426106429190610b6c565b6002549110915015154715158280156106585750835b80156106615750805b801561066a5750815b60408051808201909152600381526203078360ec1b6020820152909890975095505050505050565b6000600282815481106106a7576106a7610b93565b6000918252602090912001546001600160a01b031692915050565b6000600280549050826000815181106106dd576106dd610b93565b60200260200101516106ef9190610ba9565b905060006002828154811061070657610706610b93565b6000918252602082200154600180546001600160a01b0319166001600160a01b039092169182179055915060405190808252806020026020018201604052801561075a578160200160208202803683370190505b50805161076f9160029160209091019061082a565b506003805460ff191690554260009081556040516001600160a01b0383169047908381818185875af1925050503d80600081146107c8576040519150601f19603f3d011682016040523d82523d6000602084013e6107cd565b606091505b50509050806107ef5760405163a1d04b3960e01b815260040160405180910390fd5b6040516001600160a01b038316907f5b690ec4a06fe979403046eaeea5b3ce38524683c3001f662c8b5a829632f7df90600090a25050505050565b82805482825590600052602060002090810192821561087f579160200282015b8281111561087f57825182546001600160a01b0319166001600160a01b0390911617825560209092019160019091019061084a565b5061088b92915061088f565b5090565b5b8082111561088b5760008155600101610890565b634e487b7160e01b600052602160045260246000fd5b60208101600283106108dc57634e487b7160e01b600052602160045260246000fd5b91905290565b634e487b7160e01b600052604160045260246000fd5b604051601f8201601f1916810167ffffffffffffffff81118282101715610921576109216108e2565b604052919050565b6000806040838503121561093c57600080fd5b8235915060208084013567ffffffffffffffff8082111561095c57600080fd5b818601915086601f83011261097057600080fd5b813581811115610982576109826108e2565b8060051b91506109938483016108f8565b81815291830184019184810190898411156109ad57600080fd5b938501935b838510156109cb578435825293850193908501906109b2565b8096505050505050509250929050565b600080602083850312156109ee57600080fd5b823567ffffffffffffffff80821115610a0657600080fd5b818501915085601f830112610a1a57600080fd5b813581811115610a2957600080fd5b866020828501011115610a3b57600080fd5b60209290920196919550909350505050565b60006020808385031215610a6057600080fd5b823567ffffffffffffffff80821115610a7857600080fd5b818501915085601f830112610a8c57600080fd5b813581811115610a9e57610a9e6108e2565b610ab0601f8201601f191685016108f8565b91508082528684828501011115610ac657600080fd5b8084840185840137600090820190930192909252509392505050565b821515815260006020604081840152835180604085015260005b81811015610b1857858101830151858201606001528201610afc565b506000606082860101526060601f19601f830116850101925050509392505050565b600060208284031215610b4c57600080fd5b5035919050565b600060208284031215610b6557600080fd5b5051919050565b81810381811115610b8d57634e487b7160e01b600052601160045260246000fd5b92915050565b634e487b7160e01b600052603260045260246000fd5b600082610bc657634e487b7160e01b600052601260045260246000fd5b50069056fea26469706673582212203b8e58778fb3b817335abfa11512516637ab7e202607ff6f155ed0531ac1653e64736f6c63430008120033",
  "devdoc": {
    "author": "Patrick Collins",
    "details": "This implements the Chainlink VRF Version 2",
    "kind": "dev",
    "methods": {
      "checkUpkeep(bytes)": {
        "details": "This is the function that the Chainlink Keeper nodes call they look for `upkeepNeeded` to return True. the following should be true for this to return true: 1. The time interval has passed between raffle runs. 2. The lottery is open. 3. The contract has ETH. 4. Implicity, your subscription is funded with LINK."
      },
      "performUpkeep(bytes)": {
        "details": "Once `checkUpkeep` is returning `true`, this function is called and it kicks off a Chainlink VRF call to get a random winner."
      }
    },
    "title": "A sample Raffle Contract",
    "version": 1
  },
  "userdoc": {
    "kind": "user",
    "methods": {
      "getRaffleState()": {
        "notice": "Getter Functions "
      }
    },
    "notice": "This contract is for creating a sample raffle contract",
    "version": 1
  },
  "storageLayout": {
    "storage": [
      {
        "astId": 221,
        "contract": "contracts/Raffle.sol:Raffle",
        "label": "s_lastTimeStamp",
        "offset": 0,
        "slot": "0",
        "type": "t_uint256"
      },
      {
        "astId": 223,
        "contract": "contracts/Raffle.sol:Raffle",
        "label": "s_recentWinner",
        "offset": 0,
        "slot": "1",
        "type": "t_address"
      },
      {
        "astId": 226,
        "contract": "contracts/Raffle.sol:Raffle",
        "label": "s_players",
        "offset": 0,
        "slot": "2",
        "type": "t_array(t_address_payable)dyn_storage"
      },
      {
        "astId": 229,
        "contract": "contracts/Raffle.sol:Raffle",
        "label": "s_raffleState",
        "offset": 0,
        "slot": "3",
        "type": "t_enum(RaffleState)200"
      }
    ],
    "types": {
      "t_address": {
        "encoding": "inplace",
        "label": "address",
        "numberOfBytes": "20"
      },
      "t_address_payable": {
        "encoding": "inplace",
        "label": "address payable",
        "numberOfBytes": "20"
      },
      "t_array(t_address_payable)dyn_storage": {
        "base": "t_address_payable",
        "encoding": "dynamic_array",
        "label": "address payable[]",
        "numberOfBytes": "32"
      },
      "t_enum(RaffleState)200": {
        "encoding": "inplace",
        "label": "enum Raffle.RaffleState",
        "numberOfBytes": "1"
      },
      "t_uint256": {
        "encoding": "inplace",
        "label": "uint256",
        "numberOfBytes": "32"
      }
    }
  }
}